{
  "_format": "hh-sol-artifact-1",
  "contractName": "EngagementRewards",
  "sourceName": "contracts/EngagementRewards.sol",
  "abi": [
    {
      "inputs": [],
      "stateMutability": "nonpayable",
      "type": "constructor"
    },
    {
      "inputs": [],
      "name": "AccessControlBadConfirmation",
      "type": "error"
    },
    {
      "inputs": [
        {
          "internalType": "address",
          "name": "account",
          "type": "address"
        },
        {
          "internalType": "bytes32",
          "name": "neededRole",
          "type": "bytes32"
        }
      ],
      "name": "AccessControlUnauthorizedAccount",
      "type": "error"
    },
    {
      "inputs": [
        {
          "internalType": "address",
          "name": "target",
          "type": "address"
        }
      ],
      "name": "AddressEmptyCode",
      "type": "error"
    },
    {
      "inputs": [],
      "name": "ECDSAInvalidSignature",
      "type": "error"
    },
    {
      "inputs": [
        {
          "internalType": "uint256",
          "name": "length",
          "type": "uint256"
        }
      ],
      "name": "ECDSAInvalidSignatureLength",
      "type": "error"
    },
    {
      "inputs": [
        {
          "internalType": "bytes32",
          "name": "s",
          "type": "bytes32"
        }
      ],
      "name": "ECDSAInvalidSignatureS",
      "type": "error"
    },
    {
      "inputs": [
        {
          "internalType": "address",
          "name": "implementation",
          "type": "address"
        }
      ],
      "name": "ERC1967InvalidImplementation",
      "type": "error"
    },
    {
      "inputs": [],
      "name": "ERC1967NonPayable",
      "type": "error"
    },
    {
      "inputs": [],
      "name": "FailedCall",
      "type": "error"
    },
    {
      "inputs": [],
      "name": "InvalidInitialization",
      "type": "error"
    },
    {
      "inputs": [],
      "name": "NotInitializing",
      "type": "error"
    },
    {
      "inputs": [],
      "name": "UUPSUnauthorizedCallContext",
      "type": "error"
    },
    {
      "inputs": [
        {
          "internalType": "bytes32",
          "name": "slot",
          "type": "bytes32"
        }
      ],
      "name": "UUPSUnsupportedProxiableUUID",
      "type": "error"
    },
    {
      "anonymous": false,
      "inputs": [
        {
          "indexed": true,
          "internalType": "address",
          "name": "app",
          "type": "address"
        },
        {
          "indexed": true,
          "internalType": "address",
          "name": "owner",
          "type": "address"
        },
        {
          "indexed": false,
          "internalType": "address",
          "name": "rewardReceiver",
          "type": "address"
        },
        {
          "indexed": false,
          "internalType": "uint256",
          "name": "userAndInviterPercentage",
          "type": "uint256"
        },
        {
          "indexed": false,
          "internalType": "uint256",
          "name": "userPercentage",
          "type": "uint256"
        }
      ],
      "name": "AppApplied",
      "type": "event"
    },
    {
      "anonymous": false,
      "inputs": [
        {
          "indexed": true,
          "internalType": "address",
          "name": "app",
          "type": "address"
        }
      ],
      "name": "AppApproved",
      "type": "event"
    },
    {
      "anonymous": false,
      "inputs": [
        {
          "indexed": true,
          "internalType": "address",
          "name": "app",
          "type": "address"
        },
        {
          "indexed": false,
          "internalType": "uint256",
          "name": "userAndInviterPercentage",
          "type": "uint256"
        },
        {
          "indexed": false,
          "internalType": "uint256",
          "name": "userPercentage",
          "type": "uint256"
        }
      ],
      "name": "AppSettingsUpdated",
      "type": "event"
    },
    {
      "anonymous": false,
      "inputs": [],
      "name": "EIP712DomainChanged",
      "type": "event"
    },
    {
      "anonymous": false,
      "inputs": [
        {
          "indexed": false,
          "internalType": "uint64",
          "name": "version",
          "type": "uint64"
        }
      ],
      "name": "Initialized",
      "type": "event"
    },
    {
      "anonymous": false,
      "inputs": [
        {
          "indexed": false,
          "internalType": "uint256",
          "name": "newAmount",
          "type": "uint256"
        }
      ],
      "name": "RewardAmountUpdated",
      "type": "event"
    },
    {
      "anonymous": false,
      "inputs": [
        {
          "indexed": true,
          "internalType": "address",
          "name": "app",
          "type": "address"
        },
        {
          "indexed": true,
          "internalType": "address",
          "name": "user",
          "type": "address"
        },
        {
          "indexed": true,
          "internalType": "address",
          "name": "inviter",
          "type": "address"
        },
        {
          "indexed": false,
          "internalType": "uint256",
          "name": "appReward",
          "type": "uint256"
        },
        {
          "indexed": false,
          "internalType": "uint256",
          "name": "userAmount",
          "type": "uint256"
        },
        {
          "indexed": false,
          "internalType": "uint256",
          "name": "inviterAmount",
          "type": "uint256"
        }
      ],
      "name": "RewardClaimed",
      "type": "event"
    },
    {
      "anonymous": false,
      "inputs": [
        {
          "indexed": true,
          "internalType": "bytes32",
          "name": "role",
          "type": "bytes32"
        },
        {
          "indexed": true,
          "internalType": "bytes32",
          "name": "previousAdminRole",
          "type": "bytes32"
        },
        {
          "indexed": true,
          "internalType": "bytes32",
          "name": "newAdminRole",
          "type": "bytes32"
        }
      ],
      "name": "RoleAdminChanged",
      "type": "event"
    },
    {
      "anonymous": false,
      "inputs": [
        {
          "indexed": true,
          "internalType": "bytes32",
          "name": "role",
          "type": "bytes32"
        },
        {
          "indexed": true,
          "internalType": "address",
          "name": "account",
          "type": "address"
        },
        {
          "indexed": true,
          "internalType": "address",
          "name": "sender",
          "type": "address"
        }
      ],
      "name": "RoleGranted",
      "type": "event"
    },
    {
      "anonymous": false,
      "inputs": [
        {
          "indexed": true,
          "internalType": "bytes32",
          "name": "role",
          "type": "bytes32"
        },
        {
          "indexed": true,
          "internalType": "address",
          "name": "account",
          "type": "address"
        },
        {
          "indexed": true,
          "internalType": "address",
          "name": "sender",
          "type": "address"
        }
      ],
      "name": "RoleRevoked",
      "type": "event"
    },
    {
      "anonymous": false,
      "inputs": [
        {
          "indexed": true,
          "internalType": "address",
          "name": "implementation",
          "type": "address"
        }
      ],
      "name": "Upgraded",
      "type": "event"
    },
    {
      "inputs": [],
      "name": "ADMIN_ROLE",
      "outputs": [
        {
          "internalType": "bytes32",
          "name": "",
          "type": "bytes32"
        }
      ],
      "stateMutability": "view",
      "type": "function"
    },
    {
      "inputs": [],
      "name": "APP_EXPIRATION",
      "outputs": [
        {
          "internalType": "uint256",
          "name": "",
          "type": "uint256"
        }
      ],
      "stateMutability": "view",
      "type": "function"
    },
    {
      "inputs": [],
      "name": "CLAIM_COOLDOWN",
      "outputs": [
        {
          "internalType": "uint256",
          "name": "",
          "type": "uint256"
        }
      ],
      "stateMutability": "view",
      "type": "function"
    },
    {
      "inputs": [],
      "name": "DEFAULT_ADMIN_ROLE",
      "outputs": [
        {
          "internalType": "bytes32",
          "name": "",
          "type": "bytes32"
        }
      ],
      "stateMutability": "view",
      "type": "function"
    },
    {
      "inputs": [],
      "name": "UPGRADE_INTERFACE_VERSION",
      "outputs": [
        {
          "internalType": "string",
          "name": "",
          "type": "string"
        }
      ],
      "stateMutability": "view",
      "type": "function"
    },
    {
      "inputs": [
        {
          "internalType": "address",
          "name": "app",
          "type": "address"
        },
        {
          "internalType": "address",
          "name": "rewardReceiver",
          "type": "address"
        },
        {
          "internalType": "uint256",
          "name": "userAndInviterPercentage",
          "type": "uint256"
        },
        {
          "internalType": "uint256",
          "name": "userPercentage",
          "type": "uint256"
        }
      ],
      "name": "applyApp",
      "outputs": [],
      "stateMutability": "nonpayable",
      "type": "function"
    },
    {
      "inputs": [
        {
          "internalType": "address",
          "name": "app",
          "type": "address"
        }
      ],
      "name": "approve",
      "outputs": [],
      "stateMutability": "nonpayable",
      "type": "function"
    },
    {
      "inputs": [
        {
          "internalType": "address",
          "name": "",
          "type": "address"
        }
      ],
      "name": "appsStats",
      "outputs": [
        {
          "internalType": "uint256",
          "name": "numberOfRewards",
          "type": "uint256"
        },
        {
          "internalType": "uint256",
          "name": "totalAppRewards",
          "type": "uint256"
        },
        {
          "internalType": "uint256",
          "name": "totalUserRewards",
          "type": "uint256"
        },
        {
          "internalType": "uint256",
          "name": "totalInviterRewards",
          "type": "uint256"
        }
      ],
      "stateMutability": "view",
      "type": "function"
    },
    {
      "inputs": [
        {
          "internalType": "address",
          "name": "inviter",
          "type": "address"
        }
      ],
      "name": "claim",
      "outputs": [
        {
          "internalType": "bool",
          "name": "",
          "type": "bool"
        }
      ],
      "stateMutability": "nonpayable",
      "type": "function"
    },
    {
      "inputs": [
        {
          "internalType": "address",
          "name": "app",
          "type": "address"
        },
        {
          "internalType": "address",
          "name": "inviter",
          "type": "address"
        },
        {
          "internalType": "uint256",
          "name": "nonce",
          "type": "uint256"
        },
        {
          "internalType": "bytes",
          "name": "signature",
          "type": "bytes"
        }
      ],
      "name": "claimWithSignature",
      "outputs": [
        {
          "internalType": "bool",
          "name": "",
          "type": "bool"
        }
      ],
      "stateMutability": "nonpayable",
      "type": "function"
    },
    {
      "inputs": [],
      "name": "eip712Domain",
      "outputs": [
        {
          "internalType": "bytes1",
          "name": "fields",
          "type": "bytes1"
        },
        {
          "internalType": "string",
          "name": "name",
          "type": "string"
        },
        {
          "internalType": "string",
          "name": "version",
          "type": "string"
        },
        {
          "internalType": "uint256",
          "name": "chainId",
          "type": "uint256"
        },
        {
          "internalType": "address",
          "name": "verifyingContract",
          "type": "address"
        },
        {
          "internalType": "bytes32",
          "name": "salt",
          "type": "bytes32"
        },
        {
          "internalType": "uint256[]",
          "name": "extensions",
          "type": "uint256[]"
        }
      ],
      "stateMutability": "view",
      "type": "function"
    },
    {
      "inputs": [],
      "name": "getDomainSeparator",
      "outputs": [
        {
          "internalType": "bytes32",
          "name": "",
          "type": "bytes32"
        }
      ],
      "stateMutability": "view",
      "type": "function"
    },
    {
      "inputs": [
        {
          "internalType": "bytes32",
          "name": "role",
          "type": "bytes32"
        }
      ],
      "name": "getRoleAdmin",
      "outputs": [
        {
          "internalType": "bytes32",
          "name": "",
          "type": "bytes32"
        }
      ],
      "stateMutability": "view",
      "type": "function"
    },
    {
      "inputs": [
        {
          "internalType": "bytes32",
          "name": "role",
          "type": "bytes32"
        },
        {
          "internalType": "address",
          "name": "account",
          "type": "address"
        }
      ],
      "name": "grantRole",
      "outputs": [],
      "stateMutability": "nonpayable",
      "type": "function"
    },
    {
      "inputs": [
        {
          "internalType": "bytes32",
          "name": "role",
          "type": "bytes32"
        },
        {
          "internalType": "address",
          "name": "account",
          "type": "address"
        }
      ],
      "name": "hasRole",
      "outputs": [
        {
          "internalType": "bool",
          "name": "",
          "type": "bool"
        }
      ],
      "stateMutability": "view",
      "type": "function"
    },
    {
      "inputs": [],
      "name": "identityContract",
      "outputs": [
        {
          "internalType": "contract IIdentity",
          "name": "",
          "type": "address"
        }
      ],
      "stateMutability": "view",
      "type": "function"
    },
    {
      "inputs": [
        {
          "internalType": "contract IERC20",
          "name": "_rewardToken",
          "type": "address"
        },
        {
          "internalType": "contract IIdentity",
          "name": "_identityContract",
          "type": "address"
        },
        {
          "internalType": "uint256",
          "name": "_maxRewardsPerApp",
          "type": "uint256"
        },
        {
          "internalType": "uint256",
          "name": "_rewardAmount",
          "type": "uint256"
        }
      ],
      "name": "initialize",
      "outputs": [],
      "stateMutability": "nonpayable",
      "type": "function"
    },
    {
      "inputs": [
        {
          "internalType": "address",
          "name": "",
          "type": "address"
        },
        {
          "internalType": "address",
          "name": "",
          "type": "address"
        }
      ],
      "name": "lastClaimTimestamp",
      "outputs": [
        {
          "internalType": "uint256",
          "name": "",
          "type": "uint256"
        }
      ],
      "stateMutability": "view",
      "type": "function"
    },
    {
      "inputs": [],
      "name": "maxRewardsPerApp",
      "outputs": [
        {
          "internalType": "uint256",
          "name": "",
          "type": "uint256"
        }
      ],
      "stateMutability": "view",
      "type": "function"
    },
    {
      "inputs": [],
      "name": "proxiableUUID",
      "outputs": [
        {
          "internalType": "bytes32",
          "name": "",
          "type": "bytes32"
        }
      ],
      "stateMutability": "view",
      "type": "function"
    },
    {
      "inputs": [
        {
          "internalType": "address",
          "name": "",
          "type": "address"
        }
      ],
      "name": "registeredApps",
      "outputs": [
        {
          "internalType": "bool",
          "name": "isRegistered",
          "type": "bool"
        },
        {
          "internalType": "bool",
          "name": "isApproved",
          "type": "bool"
        },
        {
          "internalType": "address",
          "name": "owner",
          "type": "address"
        },
        {
          "internalType": "address",
          "name": "rewardReceiver",
          "type": "address"
        },
        {
          "internalType": "uint256",
          "name": "registeredAt",
          "type": "uint256"
        },
        {
          "internalType": "uint256",
          "name": "lastResetAt",
          "type": "uint256"
        },
        {
          "internalType": "uint256",
          "name": "totalRewardsClaimed",
          "type": "uint256"
        },
        {
          "internalType": "uint256",
          "name": "userAndInviterPercentage",
          "type": "uint256"
        },
        {
          "internalType": "uint256",
          "name": "userPercentage",
          "type": "uint256"
        }
      ],
      "stateMutability": "view",
      "type": "function"
    },
    {
      "inputs": [
        {
          "internalType": "bytes32",
          "name": "role",
          "type": "bytes32"
        },
        {
          "internalType": "address",
          "name": "callerConfirmation",
          "type": "address"
        }
      ],
      "name": "renounceRole",
      "outputs": [],
      "stateMutability": "nonpayable",
      "type": "function"
    },
    {
      "inputs": [
        {
          "internalType": "bytes32",
          "name": "role",
          "type": "bytes32"
        },
        {
          "internalType": "address",
          "name": "account",
          "type": "address"
        }
      ],
      "name": "revokeRole",
      "outputs": [],
      "stateMutability": "nonpayable",
      "type": "function"
    },
    {
      "inputs": [],
      "name": "rewardAmount",
      "outputs": [
        {
          "internalType": "uint256",
          "name": "",
          "type": "uint256"
        }
      ],
      "stateMutability": "view",
      "type": "function"
    },
    {
      "inputs": [],
      "name": "rewardToken",
      "outputs": [
        {
          "internalType": "contract IERC20",
          "name": "",
          "type": "address"
        }
      ],
      "stateMutability": "view",
      "type": "function"
    },
    {
      "inputs": [
        {
          "internalType": "uint256",
          "name": "_maxRewardsPerApp",
          "type": "uint256"
        }
      ],
      "name": "setMaxRewardsPerApp",
      "outputs": [],
      "stateMutability": "nonpayable",
      "type": "function"
    },
    {
      "inputs": [
        {
          "internalType": "uint256",
          "name": "_rewardAmount",
          "type": "uint256"
        }
      ],
      "name": "setRewardAmount",
      "outputs": [],
      "stateMutability": "nonpayable",
      "type": "function"
    },
    {
      "inputs": [
        {
          "internalType": "bytes4",
          "name": "interfaceId",
          "type": "bytes4"
        }
      ],
      "name": "supportsInterface",
      "outputs": [
        {
          "internalType": "bool",
          "name": "",
          "type": "bool"
        }
      ],
      "stateMutability": "view",
      "type": "function"
    },
    {
      "inputs": [
        {
          "internalType": "address",
          "name": "app",
          "type": "address"
        },
        {
          "internalType": "address",
          "name": "rewardReceiver",
          "type": "address"
        },
        {
          "internalType": "uint256",
          "name": "userAndInviterPercentage",
          "type": "uint256"
        },
        {
          "internalType": "uint256",
          "name": "userPercentage",
          "type": "uint256"
        }
      ],
      "name": "updateAppSettings",
      "outputs": [],
      "stateMutability": "nonpayable",
      "type": "function"
    },
    {
      "inputs": [
        {
          "internalType": "address",
          "name": "newImplementation",
          "type": "address"
        },
        {
          "internalType": "bytes",
          "name": "data",
          "type": "bytes"
        }
      ],
      "name": "upgradeToAndCall",
      "outputs": [],
      "stateMutability": "payable",
      "type": "function"
    },
    {
      "inputs": [
        {
          "internalType": "bytes32",
          "name": "",
          "type": "bytes32"
        }
      ],
      "name": "usedSignatures",
      "outputs": [
        {
          "internalType": "bool",
          "name": "",
          "type": "bool"
        }
      ],
      "stateMutability": "view",
      "type": "function"
    }
  ],
  "bytecode": "0x60a06040523060805234801561001457600080fd5b5061001d610022565b6100d4565b7ff0c57e16840df040f15088dc2f81fe391c3923bec73e23a9662efc9c229c6a00805468010000000000000000900460ff16156100725760405163f92ee8a960e01b815260040160405180910390fd5b80546001600160401b03908116146100d15780546001600160401b0319166001600160401b0390811782556040519081527fc7f505b2f371ae2175ee4913f4499e1f2633a7b5936321eed1cdaeb6115181d29060200160405180910390a15b50565b6080516127136100fd600039600081816116c9015281816116f2015261182f01526127136000f3fe6080604052600436106101685760003560e01c806301ffc9a71461016d57806309e26362146101a25780631128a830146101c65780631e83409a146101e8578063248a9ca3146102085780632f2ff15d1461022857806336568abe1461024857806337c909ec146102685780634f1ef2861461027f57806352d1902d14610292578063567e38e3146102a757806367031bae146102bf57806375b238fc146102ec57806384b0196e1461030e57806391d14854146103365780639201db08146103565780639dd96d4714610376578063a217fddf146103d8578063a6c4cce9146103ed578063a8a65a78146104b6578063aa28061e146104d6578063ad3cb1cc146104f6578063d547741f14610534578063d7ff1a5714610554578063daea85c514610574578063eb990c5914610594578063ed24911d146105b4578063f3cd07b0146105c9578063f7b2a7be14610601578063f7c618c114610617578063f978fd6114610637575b600080fd5b34801561017957600080fd5b5061018d610188366004612029565b610667565b60405190151581526020015b60405180910390f35b3480156101ae57600080fd5b506101b860025481565b604051908152602001610199565b3480156101d257600080fd5b506101e66101e1366004612068565b61069e565b005b3480156101f457600080fd5b5061018d6102033660046120ae565b610804565b34801561021457600080fd5b506101b86102233660046120cb565b6108a7565b34801561023457600080fd5b506101e66102433660046120e4565b6108c7565b34801561025457600080fd5b506101e66102633660046120e4565b6108e9565b34801561027457600080fd5b506101b862ed4e0081565b6101e661028d3660046121b7565b610921565b34801561029e57600080fd5b506101b8610940565b3480156102b357600080fd5b506101b86301e1338081565b3480156102cb57600080fd5b506001546102df906001600160a01b031681565b6040516101999190612206565b3480156102f857600080fd5b506101b86000805160206126be83398151915281565b34801561031a57600080fd5b5061032361095d565b604051610199979695949392919061226a565b34801561034257600080fd5b5061018d6103513660046120e4565b610a06565b34801561036257600080fd5b506101e66103713660046120cb565b610a3c565b34801561038257600080fd5b506103b86103913660046120ae565b60076020526000908152604090208054600182015460028301546003909301549192909184565b604080519485526020850193909352918301526060820152608001610199565b3480156103e457600080fd5b506101b8600081565b3480156103f957600080fd5b506104646104083660046120ae565b6004602081905260009182526040909120805460018201546002830154600384015494840154600585015460069095015460ff80861697610100870490911696620100009096046001600160a01b039081169695169490929189565b604080519915158a5297151560208a01526001600160a01b0396871697890197909752949093166060870152608086019190915260a085015260c084015260e083015261010082015261012001610199565b3480156104c257600080fd5b506101e66104d13660046120cb565b610a5a565b3480156104e257600080fd5b506101e66104f1366004612068565b610aae565b34801561050257600080fd5b50610527604051806040016040528060058152602001640352e302e360dc1b81525081565b6040516101999190612302565b34801561054057600080fd5b506101e661054f3660046120e4565b610d11565b34801561056057600080fd5b5061018d61056f366004612315565b610d2d565b34801561058057600080fd5b506101e661058f3660046120ae565b610ef8565b3480156105a057600080fd5b506101e66105af366004612068565b610ffc565b3480156105c057600080fd5b506101b86111a7565b3480156105d557600080fd5b506101b86105e4366004612380565b600560209081526000928352604080842090915290825290205481565b34801561060d57600080fd5b506101b860035481565b34801561062357600080fd5b506000546102df906001600160a01b031681565b34801561064357600080fd5b5061018d6106523660046120cb565b60066020526000908152604090205460ff1681565b60006001600160e01b03198216637965db0b60e01b148061069857506301ffc9a760e01b6001600160e01b03198316145b92915050565b6001600160a01b03841660009081526004602052604090205460ff166106df5760405162461bcd60e51b81526004016106d6906123ae565b60405180910390fd5b6001600160a01b0384811660009081526004602052604090205462010000900416331461073e5760405162461bcd60e51b815260206004820152600d60248201526c2737ba1030b8381037bbb732b960991b60448201526064016106d6565b606482111561075f5760405162461bcd60e51b81526004016106d6906123da565b60648111156107805760405162461bcd60e51b81526004016106d69061240f565b6001600160a01b038481166000818152600460209081526040918290206001810180546001600160a01b03191695891695909517909455600584018690556006909301849055805185815292830184905290917f817dcd9d9a3f9ee6dbc0878d11d70ae3a2a31c7398c4169b9796de7fbf2a61a6910160405180910390a250505050565b6001546040516316874da360e11b8152600091339183916001600160a01b031690632d0e9b4690610839903290600401612206565b602060405180830381865afa158015610856573d6000803e3d6000fd5b505050506040513d601f19601f8201168201806040525081019061087a919061243f565b90506001600160a01b038116610894575060009392505050565b61089f8282866111b6565b949350505050565b6000806108b2611574565b60009384526020525050604090206001015490565b6108d0826108a7565b6108d981611598565b6108e383836115a5565b50505050565b6001600160a01b03811633146109125760405163334bd91960e11b815260040160405180910390fd5b61091c8282611646565b505050565b6109296116be565b61093282611765565b61093c8282611770565b5050565b600061094a611824565b5060008051602061269e83398151915290565b600060608060008060006060600061097361186d565b805490915015801561098757506001810154155b6109cb5760405162461bcd60e51b81526020600482015260156024820152741152540dcc4c8e88155b9a5b9a5d1a585b1a5e9959605a1b60448201526064016106d6565b6109d3611891565b6109db611932565b60408051600080825260208201909252600f60f81b9c939b5091995046985030975095509350915050565b600080610a11611574565b6000948552602090815260408086206001600160a01b03959095168652939052505090205460ff1690565b6000805160206126be833981519152610a5481611598565b50600255565b6000805160206126be833981519152610a7281611598565b60038290556040518281527f9639dea65e74b72b1b86ccf3e4f9b6d23b88d2aad2f103d0b3afe394e67edade9060200160405180910390a15050565b6064821115610acf5760405162461bcd60e51b81526004016106d6906123da565b6064811115610af05760405162461bcd60e51b81526004016106d69061240f565b6001600160a01b03841660009081526004602052604090205460ff1615610b525760405162461bcd60e51b8152602060048201526016602482015275105c1c08185b1c9958591e481c9959da5cdd195c995960521b60448201526064016106d6565b604051806101200160405280600115158152602001600015158152602001336001600160a01b03168152602001846001600160a01b03168152602001428152602001428152602001600081526020018381526020018281525060046000866001600160a01b03166001600160a01b0316815260200190815260200160002060008201518160000160006101000a81548160ff02191690831515021790555060208201518160000160016101000a81548160ff02191690831515021790555060408201518160000160026101000a8154816001600160a01b0302191690836001600160a01b0316021790555060608201518160010160006101000a8154816001600160a01b0302191690836001600160a01b031602179055506080820151816002015560a0820151816003015560c0820151816004015560e082015181600501556101008201518160060155905050336001600160a01b0316846001600160a01b03167f65d1e20bce38962392c7e7b89dd347935823c82a519b21bc363c34bd27746983858585604051610d03939291906001600160a01b039390931683526020830191909152604082015260600190565b60405180910390a350505050565b610d1a826108a7565b610d2381611598565b6108e38383611646565b604080517f1d52b8e2aca5cccc475905ac733ad7a87f34982a6b0f9b4a8dd90b35a5c9804d6020808301919091526001600160a01b03878116838501528616606083015260808083018690528351808403909101815260a0909201909252805191012060009081610d9d8261194f565b60008181526006602052604090205490915060ff1615610df85760405162461bcd60e51b815260206004820152601660248201527514da59db985d1d5c9948185b1c9958591e481d5cd95960521b60448201526064016106d6565b6000818152600660205260408120805460ff19166001179055610e1b828661197c565b6001546040516316874da360e11b81529192506000916001600160a01b0390911690632d0e9b4690610e51908590600401612206565b602060405180830381865afa158015610e6e573d6000803e3d6000fd5b505050506040513d601f19601f82011682018060405250810190610e92919061243f565b6001600160a01b031603610ee15760405162461bcd60e51b815260206004820152601660248201527514da59db995c881b9bdd081dda1a5d195b1a5cdd195960521b60448201526064016106d6565b610eec8882896111b6565b98975050505050505050565b6000805160206126be833981519152610f1081611598565b6001600160a01b03821660009081526004602052604090205460ff16610f485760405162461bcd60e51b81526004016106d6906123ae565b6001600160a01b038216600090815260046020526040902054610100900460ff1615610fad5760405162461bcd60e51b8152602060048201526014602482015273105c1c08185b1c9958591e48185c1c1c9bdd995960621b60448201526064016106d6565b6001600160a01b038216600081815260046020526040808220805461ff001916610100179055517f95e9598427a2e62bd5a93d3a083bc0d32989e80c16ad07312a0bb406b53e36919190a25050565b60006110066119a6565b805490915060ff600160401b82041615906001600160401b031660008115801561102d5750825b90506000826001600160401b031660011480156110495750303b155b905081158015611057575080155b156110755760405163f92ee8a960e01b815260040160405180910390fd5b84546001600160401b0319166001178555831561109e57845460ff60401b1916600160401b1785555b6110a66119ca565b6110f460405180604001604052806011815260200170456e676167656d656e745265776172647360781b815250604051806040016040528060038152602001620312e360ec1b8152506119d2565b6110fc6119ca565b600080546001600160a01b03808c166001600160a01b031992831617835560018054918c16919092161790556002889055600387905561113c90336115a5565b506111556000805160206126be833981519152336115a5565b50831561119c57845460ff60401b19168555604051600181527fc7f505b2f371ae2175ee4913f4499e1f2633a7b5936321eed1cdaeb6115181d29060200160405180910390a15b505050505050505050565b60006111b16119e4565b905090565b6001600160a01b0383166000908152600460205260408120805460ff1615806111e657508054610100900460ff16155b156111f557600091505061156d565b426301e13380826002015461120a9190612472565b101561121a57600091505061156d565b61122485856119ee565b61123257600091505061156d565b60035460000361124657600091505061156d565b60006112528686611a2e565b90508015156000036112695760009250505061156d565b60006064836005015460035461127f9190612485565b611289919061249c565b90506000606484600601548361129f9190612485565b6112a9919061249c565b905060006112b782846124be565b905060006001600160a01b0388166112e75781846003546112d891906124be565b6112e29190612472565b6112f5565b836003546112f591906124be565b6001600160a01b038b1660009081526007602052604081208054929350916001918391611323908490612472565b925050819055508181600101600082825461133e9190612472565b92505081905550828160030160008282546113599190612472565b92505081905550838160020160008282546113749190612472565b909155505081156113fc57600054600188015460405163a9059cbb60e01b81526001600160a01b039283169263a9059cbb926113b79291169086906004016124d1565b6020604051808303816000875af11580156113d6573d6000803e3d6000fd5b505050506040513d601f19601f820116820180604052508101906113fa91906124ea565b505b83156114795760005460405163a9059cbb60e01b81526001600160a01b039091169063a9059cbb90611434908d9088906004016124d1565b6020604051808303816000875af1158015611453573d6000803e3d6000fd5b505050506040513d601f19601f8201168201806040525081019061147791906124ea565b505b6001600160a01b038916158015906114915750600083115b1561150d5760005460405163a9059cbb60e01b81526001600160a01b039091169063a9059cbb906114c8908c9087906004016124d1565b6020604051808303816000875af11580156114e7573d6000803e3d6000fd5b505050506040513d601f19601f8201168201806040525081019061150b91906124ea565b505b60408051838152602081018690529081018490526001600160a01b03808b16918c8216918e16907f4af0f3bbba19bd2ae80915d3dcbc4b38837833848ce3b3cd23d9043235865a369060600160405180910390a460019750505050505050505b9392505050565b7f02dd7bc7dec4dceedda775e58dd541e08a116c6c53815c0bd028192f7b62680090565b6115a28133611ad4565b50565b6000806115b0611574565b90506115bc8484610a06565b61163c576000848152602082815260408083206001600160a01b03871684529091529020805460ff191660011790556115f23390565b6001600160a01b0316836001600160a01b0316857f2f8788117e7eff1d82e926ec794901d17c78024a50270940304540a733656f0d60405160405180910390a46001915050610698565b6000915050610698565b600080611651611574565b905061165d8484610a06565b1561163c576000848152602082815260408083206001600160a01b0387168085529252808320805460ff1916905551339287917ff6391f5c32d9c69d2a47ea670b442974b53935d1edc7fd64eb21e047a839171b9190a46001915050610698565b306001600160a01b037f000000000000000000000000000000000000000000000000000000000000000016148061174557507f00000000000000000000000000000000000000000000000000000000000000006001600160a01b031661173960008051602061269e833981519152546001600160a01b031690565b6001600160a01b031614155b156117635760405163703e46dd60e11b815260040160405180910390fd5b565b600061093c81611598565b816001600160a01b03166352d1902d6040518163ffffffff1660e01b8152600401602060405180830381865afa9250505080156117ca575060408051601f3d908101601f191682019092526117c79181019061250c565b60015b6117e95781604051634c9c8ce360e01b81526004016106d69190612206565b60008051602061269e833981519152811461181a57604051632a87526960e21b8152600481018290526024016106d6565b61091c8383611aff565b306001600160a01b037f000000000000000000000000000000000000000000000000000000000000000016146117635760405163703e46dd60e11b815260040160405180910390fd5b7fa16a46d94261c7517cc8ff89f61c0ce93598e3c849801011dee649a6a557d10090565b6060600061189d61186d565b90508060020180546118ae90612525565b80601f01602080910402602001604051908101604052809291908181526020018280546118da90612525565b80156119275780601f106118fc57610100808354040283529160200191611927565b820191906000526020600020905b81548152906001019060200180831161190a57829003601f168201915b505050505091505090565b6060600061193e61186d565b90508060030180546118ae90612525565b600061069861195c6119e4565b8360405161190160f01b8152600281019290925260228201526042902090565b60008060008061198c8686611b55565b92509250925061199c8282611ba2565b5090949350505050565b7ff0c57e16840df040f15088dc2f81fe391c3923bec73e23a9662efc9c229c6a0090565b611763611c5b565b6119da611c5b565b61093c8282611c80565b60006111b1611cc1565b6001600160a01b038083166000908152600560209081526040808320938516835292905290812054611a2362ed4e0082612472565b421015949350505050565b6001600160a01b038083166000818152600560209081526040808320948616835293815283822042905591815260049091529081206003810154611a769062ed4e0090612472565b4210611a8a57600060048201554260038201555b6002546003548260040154611a9f9190612472565b1115611aaf576000915050610698565b600354816004016000828254611ac59190612472565b90915550600195945050505050565b611ade8282610a06565b61093c57808260405163e2517d3f60e01b81526004016106d69291906124d1565b611b0882611d35565b6040516001600160a01b038316907fbc7cd75a20ee27fd9adebab32041f755214dbc6bffa90cc0225b39da2e5c2d3b90600090a2805115611b4d5761091c8282611d91565b61093c611e07565b60008060008351604103611b8f5760208401516040850151606086015160001a611b8188828585611e26565b955095509550505050611b9b565b50508151600091506002905b9250925092565b6000826003811115611bb657611bb661255f565b03611bbf575050565b6001826003811115611bd357611bd361255f565b03611bf15760405163f645eedf60e01b815260040160405180910390fd5b6002826003811115611c0557611c0561255f565b03611c265760405163fce698f760e01b8152600481018290526024016106d6565b6003826003811115611c3a57611c3a61255f565b0361093c576040516335e2f38360e21b8152600481018290526024016106d6565b611c63611eeb565b61176357604051631afcd79f60e31b815260040160405180910390fd5b611c88611c5b565b6000611c9261186d565b905060028101611ca284826125c3565b5060038101611cb183826125c3565b5060008082556001909101555050565b60007f8b73c3c69bb8fe3d512ecc4cf759cc79239f7b179b0ffacaa9a75d522b39400f611cec611f05565b611cf4611f6c565b60408051602081019490945283019190915260608201524660808201523060a082015260c00160405160208183030381529060405280519060200120905090565b806001600160a01b03163b600003611d625780604051634c9c8ce360e01b81526004016106d69190612206565b60008051602061269e83398151915280546001600160a01b0319166001600160a01b0392909216919091179055565b6060600080846001600160a01b031684604051611dae9190612681565b600060405180830381855af49150503d8060008114611de9576040519150601f19603f3d011682016040523d82523d6000602084013e611dee565b606091505b5091509150611dfe858383611fad565b95945050505050565b34156117635760405163b398979f60e01b815260040160405180910390fd5b600080806fa2a8918ca85bafe22016d0b997e4df60600160ff1b03841115611e575750600091506003905082611ee1565b604080516000808252602082018084528a905260ff891692820192909252606081018790526080810186905260019060a0016020604051602081039080840390855afa158015611eab573d6000803e3d6000fd5b5050604051601f1901519150506001600160a01b038116611ed757506000925060019150829050611ee1565b9250600091508190505b9450945094915050565b6000611ef56119a6565b54600160401b900460ff16919050565b600080611f1061186d565b90506000611f1c611891565b805190915015611f3457805160209091012092915050565b81548015611f43579392505050565b7fc5d2460186f7233c927e7db2dcc703c0e500b653ca82273b7bfad8045d85a470935050505090565b600080611f7761186d565b90506000611f83611932565b805190915015611f9b57805160209091012092915050565b60018201548015611f43579392505050565b606082611fc257611fbd82612000565b61156d565b8151158015611fd957506001600160a01b0384163b155b15611ff95783604051639996b31560e01b81526004016106d69190612206565b508061156d565b8051156120105780518082602001fd5b60405163d6bda27560e01b815260040160405180910390fd5b60006020828403121561203b57600080fd5b81356001600160e01b03198116811461156d57600080fd5b6001600160a01b03811681146115a257600080fd5b6000806000806080858703121561207e57600080fd5b843561208981612053565b9350602085013561209981612053565b93969395505050506040820135916060013590565b6000602082840312156120c057600080fd5b813561156d81612053565b6000602082840312156120dd57600080fd5b5035919050565b600080604083850312156120f757600080fd5b82359150602083013561210981612053565b809150509250929050565b634e487b7160e01b600052604160045260246000fd5b600082601f83011261213b57600080fd5b81356001600160401b0381111561215457612154612114565b604051601f8201601f19908116603f011681016001600160401b038111828210171561218257612182612114565b60405281815283820160200185101561219a57600080fd5b816020850160208301376000918101602001919091529392505050565b600080604083850312156121ca57600080fd5b82356121d581612053565b915060208301356001600160401b038111156121f057600080fd5b6121fc8582860161212a565b9150509250929050565b6001600160a01b0391909116815260200190565b60005b8381101561223557818101518382015260200161221d565b50506000910152565b6000815180845261225681602086016020860161221a565b601f01601f19169290920160200192915050565b60ff60f81b8816815260e06020820152600061228960e083018961223e565b828103604084015261229b818961223e565b606084018890526001600160a01b038716608085015260a0840186905283810360c08501528451808252602080870193509091019060005b818110156122f15783518352602093840193909201916001016122d3565b50909b9a5050505050505050505050565b60208152600061156d602083018461223e565b6000806000806080858703121561232b57600080fd5b843561233681612053565b9350602085013561234681612053565b92506040850135915060608501356001600160401b0381111561236857600080fd5b6123748782880161212a565b91505092959194509250565b6000806040838503121561239357600080fd5b823561239e81612053565b9150602083013561210981612053565b602080825260129082015271105c1c081b9bdd081c9959da5cdd195c995960721b604082015260600190565b6020808252818101527f496e76616c69642075736572416e64496e766974657250657263656e74616765604082015260600190565b602080825260169082015275496e76616c6964207573657250657263656e7461676560501b604082015260600190565b60006020828403121561245157600080fd5b815161156d81612053565b634e487b7160e01b600052601160045260246000fd5b808201808211156106985761069861245c565b80820281158282048414176106985761069861245c565b6000826124b957634e487b7160e01b600052601260045260246000fd5b500490565b818103818111156106985761069861245c565b6001600160a01b03929092168252602082015260400190565b6000602082840312156124fc57600080fd5b8151801515811461156d57600080fd5b60006020828403121561251e57600080fd5b5051919050565b600181811c9082168061253957607f821691505b60208210810361255957634e487b7160e01b600052602260045260246000fd5b50919050565b634e487b7160e01b600052602160045260246000fd5b601f82111561091c57806000526020600020601f840160051c8101602085101561259c5750805b601f840160051c820191505b818110156125bc57600081556001016125a8565b5050505050565b81516001600160401b038111156125dc576125dc612114565b6125f0816125ea8454612525565b84612575565b6020601f821160018114612624576000831561260c5750848201515b600019600385901b1c1916600184901b1784556125bc565b600084815260208120601f198516915b828110156126545787850151825560209485019460019092019101612634565b50848210156126725786840151600019600387901b60f8161c191681555b50505050600190811b01905550565b6000825161269381846020870161221a565b919091019291505056fe360894a13ba1a3210667c828492db98dca3e2076cc3735a920a3ca505d382bbca49807205ce4d355092ef5a8a18f56e8913cf4a201fbe287825b095693c21775a2646970667358221220c9e7eb7edf2e4c56c134cc6161d9f2e0c0758fd4815eab341e1cf9ca15bffed864736f6c634300081c0033",
  "linkReferences": {},
  "deployedLinkReferences": {}
}