{
  "_format": "hh-sol-artifact-1",
  "contractName": "EngagementRewards",
  "sourceName": "contracts/EngagementRewards.sol",
  "abi": [
    {
      "inputs": [],
      "stateMutability": "nonpayable",
      "type": "constructor"
    },
    {
      "inputs": [],
      "name": "AccessControlBadConfirmation",
      "type": "error"
    },
    {
      "inputs": [
        {
          "internalType": "address",
          "name": "account",
          "type": "address"
        },
        {
          "internalType": "bytes32",
          "name": "neededRole",
          "type": "bytes32"
        }
      ],
      "name": "AccessControlUnauthorizedAccount",
      "type": "error"
    },
    {
      "inputs": [
        {
          "internalType": "address",
          "name": "target",
          "type": "address"
        }
      ],
      "name": "AddressEmptyCode",
      "type": "error"
    },
    {
      "inputs": [],
      "name": "ECDSAInvalidSignature",
      "type": "error"
    },
    {
      "inputs": [
        {
          "internalType": "uint256",
          "name": "length",
          "type": "uint256"
        }
      ],
      "name": "ECDSAInvalidSignatureLength",
      "type": "error"
    },
    {
      "inputs": [
        {
          "internalType": "bytes32",
          "name": "s",
          "type": "bytes32"
        }
      ],
      "name": "ECDSAInvalidSignatureS",
      "type": "error"
    },
    {
      "inputs": [
        {
          "internalType": "address",
          "name": "implementation",
          "type": "address"
        }
      ],
      "name": "ERC1967InvalidImplementation",
      "type": "error"
    },
    {
      "inputs": [],
      "name": "ERC1967NonPayable",
      "type": "error"
    },
    {
      "inputs": [],
      "name": "FailedCall",
      "type": "error"
    },
    {
      "inputs": [],
      "name": "InvalidInitialization",
      "type": "error"
    },
    {
      "inputs": [],
      "name": "NotInitializing",
      "type": "error"
    },
    {
      "inputs": [],
      "name": "ReentrancyGuardReentrantCall",
      "type": "error"
    },
    {
      "inputs": [],
      "name": "UUPSUnauthorizedCallContext",
      "type": "error"
    },
    {
      "inputs": [
        {
          "internalType": "bytes32",
          "name": "slot",
          "type": "bytes32"
        }
      ],
      "name": "UUPSUnsupportedProxiableUUID",
      "type": "error"
    },
    {
      "anonymous": false,
      "inputs": [
        {
          "indexed": true,
          "internalType": "address",
          "name": "app",
          "type": "address"
        },
        {
          "indexed": true,
          "internalType": "address",
          "name": "owner",
          "type": "address"
        },
        {
          "indexed": false,
          "internalType": "address",
          "name": "rewardReceiver",
          "type": "address"
        },
        {
          "indexed": false,
          "internalType": "uint256",
          "name": "userAndInviterPercentage",
          "type": "uint256"
        },
        {
          "indexed": false,
          "internalType": "uint256",
          "name": "userPercentage",
          "type": "uint256"
        }
      ],
      "name": "AppApplied",
      "type": "event"
    },
    {
      "anonymous": false,
      "inputs": [
        {
          "indexed": true,
          "internalType": "address",
          "name": "app",
          "type": "address"
        }
      ],
      "name": "AppApproved",
      "type": "event"
    },
    {
      "anonymous": false,
      "inputs": [
        {
          "indexed": true,
          "internalType": "address",
          "name": "app",
          "type": "address"
        },
        {
          "indexed": false,
          "internalType": "uint256",
          "name": "userAndInviterPercentage",
          "type": "uint256"
        },
        {
          "indexed": false,
          "internalType": "uint256",
          "name": "userPercentage",
          "type": "uint256"
        }
      ],
      "name": "AppSettingsUpdated",
      "type": "event"
    },
    {
      "anonymous": false,
      "inputs": [],
      "name": "EIP712DomainChanged",
      "type": "event"
    },
    {
      "anonymous": false,
      "inputs": [
        {
          "indexed": false,
          "internalType": "uint64",
          "name": "version",
          "type": "uint64"
        }
      ],
      "name": "Initialized",
      "type": "event"
    },
    {
      "anonymous": false,
      "inputs": [
        {
          "indexed": false,
          "internalType": "uint256",
          "name": "newAmount",
          "type": "uint256"
        }
      ],
      "name": "RewardAmountUpdated",
      "type": "event"
    },
    {
      "anonymous": false,
      "inputs": [
        {
          "indexed": true,
          "internalType": "address",
          "name": "app",
          "type": "address"
        },
        {
          "indexed": true,
          "internalType": "address",
          "name": "user",
          "type": "address"
        },
        {
          "indexed": true,
          "internalType": "address",
          "name": "inviter",
          "type": "address"
        },
        {
          "indexed": false,
          "internalType": "uint256",
          "name": "appReward",
          "type": "uint256"
        },
        {
          "indexed": false,
          "internalType": "uint256",
          "name": "userAmount",
          "type": "uint256"
        },
        {
          "indexed": false,
          "internalType": "uint256",
          "name": "inviterAmount",
          "type": "uint256"
        }
      ],
      "name": "RewardClaimed",
      "type": "event"
    },
    {
      "anonymous": false,
      "inputs": [
        {
          "indexed": true,
          "internalType": "bytes32",
          "name": "role",
          "type": "bytes32"
        },
        {
          "indexed": true,
          "internalType": "bytes32",
          "name": "previousAdminRole",
          "type": "bytes32"
        },
        {
          "indexed": true,
          "internalType": "bytes32",
          "name": "newAdminRole",
          "type": "bytes32"
        }
      ],
      "name": "RoleAdminChanged",
      "type": "event"
    },
    {
      "anonymous": false,
      "inputs": [
        {
          "indexed": true,
          "internalType": "bytes32",
          "name": "role",
          "type": "bytes32"
        },
        {
          "indexed": true,
          "internalType": "address",
          "name": "account",
          "type": "address"
        },
        {
          "indexed": true,
          "internalType": "address",
          "name": "sender",
          "type": "address"
        }
      ],
      "name": "RoleGranted",
      "type": "event"
    },
    {
      "anonymous": false,
      "inputs": [
        {
          "indexed": true,
          "internalType": "bytes32",
          "name": "role",
          "type": "bytes32"
        },
        {
          "indexed": true,
          "internalType": "address",
          "name": "account",
          "type": "address"
        },
        {
          "indexed": true,
          "internalType": "address",
          "name": "sender",
          "type": "address"
        }
      ],
      "name": "RoleRevoked",
      "type": "event"
    },
    {
      "anonymous": false,
      "inputs": [
        {
          "indexed": true,
          "internalType": "address",
          "name": "implementation",
          "type": "address"
        }
      ],
      "name": "Upgraded",
      "type": "event"
    },
    {
      "inputs": [],
      "name": "ADMIN_ROLE",
      "outputs": [
        {
          "internalType": "bytes32",
          "name": "",
          "type": "bytes32"
        }
      ],
      "stateMutability": "view",
      "type": "function"
    },
    {
      "inputs": [],
      "name": "APP_EXPIRATION",
      "outputs": [
        {
          "internalType": "uint256",
          "name": "",
          "type": "uint256"
        }
      ],
      "stateMutability": "view",
      "type": "function"
    },
    {
      "inputs": [],
      "name": "CLAIM_COOLDOWN",
      "outputs": [
        {
          "internalType": "uint256",
          "name": "",
          "type": "uint256"
        }
      ],
      "stateMutability": "view",
      "type": "function"
    },
    {
      "inputs": [],
      "name": "DEFAULT_ADMIN_ROLE",
      "outputs": [
        {
          "internalType": "bytes32",
          "name": "",
          "type": "bytes32"
        }
      ],
      "stateMutability": "view",
      "type": "function"
    },
    {
      "inputs": [],
      "name": "UPGRADE_INTERFACE_VERSION",
      "outputs": [
        {
          "internalType": "string",
          "name": "",
          "type": "string"
        }
      ],
      "stateMutability": "view",
      "type": "function"
    },
    {
      "inputs": [],
      "name": "VERSION",
      "outputs": [
        {
          "internalType": "uint256",
          "name": "",
          "type": "uint256"
        }
      ],
      "stateMutability": "view",
      "type": "function"
    },
    {
      "inputs": [
        {
          "internalType": "address",
          "name": "inviter",
          "type": "address"
        },
        {
          "internalType": "uint256",
          "name": "validUntilBlock",
          "type": "uint256"
        },
        {
          "internalType": "bytes",
          "name": "signature",
          "type": "bytes"
        }
      ],
      "name": "appClaim",
      "outputs": [
        {
          "internalType": "bool",
          "name": "",
          "type": "bool"
        }
      ],
      "stateMutability": "nonpayable",
      "type": "function"
    },
    {
      "inputs": [
        {
          "internalType": "address",
          "name": "inviter",
          "type": "address"
        },
        {
          "internalType": "uint256",
          "name": "validUntilBlock",
          "type": "uint256"
        },
        {
          "internalType": "bytes",
          "name": "signature",
          "type": "bytes"
        },
        {
          "internalType": "uint256",
          "name": "userAndInviterPercentage",
          "type": "uint256"
        },
        {
          "internalType": "uint256",
          "name": "userPercentage",
          "type": "uint256"
        }
      ],
      "name": "appClaim",
      "outputs": [
        {
          "internalType": "bool",
          "name": "",
          "type": "bool"
        }
      ],
      "stateMutability": "nonpayable",
      "type": "function"
    },
    {
      "inputs": [
        {
          "internalType": "address",
          "name": "app",
          "type": "address"
        },
        {
          "internalType": "address",
          "name": "rewardReceiver",
          "type": "address"
        },
        {
          "internalType": "uint256",
          "name": "userAndInviterPercentage",
          "type": "uint256"
        },
        {
          "internalType": "uint256",
          "name": "userPercentage",
          "type": "uint256"
        },
        {
          "internalType": "string",
          "name": "description",
          "type": "string"
        },
        {
          "internalType": "string",
          "name": "url",
          "type": "string"
        },
        {
          "internalType": "string",
          "name": "email",
          "type": "string"
        }
      ],
      "name": "applyApp",
      "outputs": [],
      "stateMutability": "nonpayable",
      "type": "function"
    },
    {
      "inputs": [
        {
          "internalType": "address",
          "name": "app",
          "type": "address"
        }
      ],
      "name": "approve",
      "outputs": [],
      "stateMutability": "nonpayable",
      "type": "function"
    },
    {
      "inputs": [
        {
          "internalType": "address",
          "name": "",
          "type": "address"
        }
      ],
      "name": "appsStats",
      "outputs": [
        {
          "internalType": "uint256",
          "name": "numberOfRewards",
          "type": "uint256"
        },
        {
          "internalType": "uint256",
          "name": "totalAppRewards",
          "type": "uint256"
        },
        {
          "internalType": "uint256",
          "name": "totalUserRewards",
          "type": "uint256"
        },
        {
          "internalType": "uint256",
          "name": "totalInviterRewards",
          "type": "uint256"
        }
      ],
      "stateMutability": "view",
      "type": "function"
    },
    {
      "inputs": [
        {
          "internalType": "address",
          "name": "app",
          "type": "address"
        },
        {
          "internalType": "address",
          "name": "user",
          "type": "address"
        }
      ],
      "name": "canClaim",
      "outputs": [
        {
          "internalType": "bool",
          "name": "",
          "type": "bool"
        }
      ],
      "stateMutability": "view",
      "type": "function"
    },
    {
      "inputs": [],
      "name": "eip712Domain",
      "outputs": [
        {
          "internalType": "bytes1",
          "name": "fields",
          "type": "bytes1"
        },
        {
          "internalType": "string",
          "name": "name",
          "type": "string"
        },
        {
          "internalType": "string",
          "name": "version",
          "type": "string"
        },
        {
          "internalType": "uint256",
          "name": "chainId",
          "type": "uint256"
        },
        {
          "internalType": "address",
          "name": "verifyingContract",
          "type": "address"
        },
        {
          "internalType": "bytes32",
          "name": "salt",
          "type": "bytes32"
        },
        {
          "internalType": "uint256[]",
          "name": "extensions",
          "type": "uint256[]"
        }
      ],
      "stateMutability": "view",
      "type": "function"
    },
    {
      "inputs": [
        {
          "internalType": "address",
          "name": "app",
          "type": "address"
        },
        {
          "internalType": "address",
          "name": "inviter",
          "type": "address"
        },
        {
          "internalType": "uint256",
          "name": "validUntilBlock",
          "type": "uint256"
        },
        {
          "internalType": "bytes",
          "name": "signature",
          "type": "bytes"
        }
      ],
      "name": "eoaClaim",
      "outputs": [
        {
          "internalType": "bool",
          "name": "",
          "type": "bool"
        }
      ],
      "stateMutability": "nonpayable",
      "type": "function"
    },
    {
      "inputs": [],
      "name": "getDomainSeparator",
      "outputs": [
        {
          "internalType": "bytes32",
          "name": "",
          "type": "bytes32"
        }
      ],
      "stateMutability": "view",
      "type": "function"
    },
    {
      "inputs": [
        {
          "internalType": "bytes32",
          "name": "role",
          "type": "bytes32"
        }
      ],
      "name": "getRoleAdmin",
      "outputs": [
        {
          "internalType": "bytes32",
          "name": "",
          "type": "bytes32"
        }
      ],
      "stateMutability": "view",
      "type": "function"
    },
    {
      "inputs": [
        {
          "internalType": "bytes32",
          "name": "role",
          "type": "bytes32"
        },
        {
          "internalType": "address",
          "name": "account",
          "type": "address"
        }
      ],
      "name": "grantRole",
      "outputs": [],
      "stateMutability": "nonpayable",
      "type": "function"
    },
    {
      "inputs": [
        {
          "internalType": "bytes32",
          "name": "role",
          "type": "bytes32"
        },
        {
          "internalType": "address",
          "name": "account",
          "type": "address"
        }
      ],
      "name": "hasRole",
      "outputs": [
        {
          "internalType": "bool",
          "name": "",
          "type": "bool"
        }
      ],
      "stateMutability": "view",
      "type": "function"
    },
    {
      "inputs": [],
      "name": "identityContract",
      "outputs": [
        {
          "internalType": "contract IIdentity",
          "name": "",
          "type": "address"
        }
      ],
      "stateMutability": "view",
      "type": "function"
    },
    {
      "inputs": [
        {
          "internalType": "contract IERC20",
          "name": "_rewardToken",
          "type": "address"
        },
        {
          "internalType": "contract IIdentity",
          "name": "_identityContract",
          "type": "address"
        },
        {
          "internalType": "uint256",
          "name": "_maxRewardsPerApp",
          "type": "uint256"
        },
        {
          "internalType": "uint256",
          "name": "_rewardAmount",
          "type": "uint256"
        }
      ],
      "name": "initialize",
      "outputs": [],
      "stateMutability": "nonpayable",
      "type": "function"
    },
    {
      "inputs": [
        {
          "internalType": "address",
          "name": "",
          "type": "address"
        },
        {
          "internalType": "address",
          "name": "",
          "type": "address"
        }
      ],
      "name": "lastClaimTimestamp",
      "outputs": [
        {
          "internalType": "uint256",
          "name": "",
          "type": "uint256"
        }
      ],
      "stateMutability": "view",
      "type": "function"
    },
    {
      "inputs": [],
      "name": "maxRewardsPerApp",
      "outputs": [
        {
          "internalType": "uint256",
          "name": "",
          "type": "uint256"
        }
      ],
      "stateMutability": "view",
      "type": "function"
    },
    {
      "inputs": [],
      "name": "proxiableUUID",
      "outputs": [
        {
          "internalType": "bytes32",
          "name": "",
          "type": "bytes32"
        }
      ],
      "stateMutability": "view",
      "type": "function"
    },
    {
      "inputs": [
        {
          "internalType": "address",
          "name": "",
          "type": "address"
        }
      ],
      "name": "registeredApps",
      "outputs": [
        {
          "internalType": "bool",
          "name": "isRegistered",
          "type": "bool"
        },
        {
          "internalType": "bool",
          "name": "isApproved",
          "type": "bool"
        },
        {
          "internalType": "address",
          "name": "owner",
          "type": "address"
        },
        {
          "internalType": "address",
          "name": "rewardReceiver",
          "type": "address"
        },
        {
          "internalType": "uint256",
          "name": "registeredAt",
          "type": "uint256"
        },
        {
          "internalType": "uint256",
          "name": "lastResetAt",
          "type": "uint256"
        },
        {
          "internalType": "uint256",
          "name": "totalRewardsClaimed",
          "type": "uint256"
        },
        {
          "internalType": "uint256",
          "name": "userAndInviterPercentage",
          "type": "uint256"
        },
        {
          "internalType": "uint256",
          "name": "userPercentage",
          "type": "uint256"
        },
        {
          "internalType": "string",
          "name": "description",
          "type": "string"
        },
        {
          "internalType": "string",
          "name": "url",
          "type": "string"
        },
        {
          "internalType": "string",
          "name": "email",
          "type": "string"
        }
      ],
      "stateMutability": "view",
      "type": "function"
    },
    {
      "inputs": [
        {
          "internalType": "bytes32",
          "name": "role",
          "type": "bytes32"
        },
        {
          "internalType": "address",
          "name": "callerConfirmation",
          "type": "address"
        }
      ],
      "name": "renounceRole",
      "outputs": [],
      "stateMutability": "nonpayable",
      "type": "function"
    },
    {
      "inputs": [
        {
          "internalType": "bytes32",
          "name": "role",
          "type": "bytes32"
        },
        {
          "internalType": "address",
          "name": "account",
          "type": "address"
        }
      ],
      "name": "revokeRole",
      "outputs": [],
      "stateMutability": "nonpayable",
      "type": "function"
    },
    {
      "inputs": [],
      "name": "rewardAmount",
      "outputs": [
        {
          "internalType": "uint256",
          "name": "",
          "type": "uint256"
        }
      ],
      "stateMutability": "view",
      "type": "function"
    },
    {
      "inputs": [],
      "name": "rewardToken",
      "outputs": [
        {
          "internalType": "contract IERC20",
          "name": "",
          "type": "address"
        }
      ],
      "stateMutability": "view",
      "type": "function"
    },
    {
      "inputs": [
        {
          "internalType": "uint256",
          "name": "_maxRewardsPerApp",
          "type": "uint256"
        }
      ],
      "name": "setMaxRewardsPerApp",
      "outputs": [],
      "stateMutability": "nonpayable",
      "type": "function"
    },
    {
      "inputs": [
        {
          "internalType": "uint256",
          "name": "_rewardAmount",
          "type": "uint256"
        }
      ],
      "name": "setRewardAmount",
      "outputs": [],
      "stateMutability": "nonpayable",
      "type": "function"
    },
    {
      "inputs": [
        {
          "internalType": "bytes4",
          "name": "interfaceId",
          "type": "bytes4"
        }
      ],
      "name": "supportsInterface",
      "outputs": [
        {
          "internalType": "bool",
          "name": "",
          "type": "bool"
        }
      ],
      "stateMutability": "view",
      "type": "function"
    },
    {
      "inputs": [
        {
          "internalType": "address",
          "name": "app",
          "type": "address"
        },
        {
          "internalType": "address",
          "name": "rewardReceiver",
          "type": "address"
        },
        {
          "internalType": "uint256",
          "name": "userAndInviterPercentage",
          "type": "uint256"
        },
        {
          "internalType": "uint256",
          "name": "userPercentage",
          "type": "uint256"
        }
      ],
      "name": "updateAppSettings",
      "outputs": [],
      "stateMutability": "nonpayable",
      "type": "function"
    },
    {
      "inputs": [
        {
          "internalType": "address",
          "name": "newImplementation",
          "type": "address"
        },
        {
          "internalType": "bytes",
          "name": "data",
          "type": "bytes"
        }
      ],
      "name": "upgradeToAndCall",
      "outputs": [],
      "stateMutability": "payable",
      "type": "function"
    },
    {
      "inputs": [
        {
          "internalType": "address",
          "name": "",
          "type": "address"
        },
        {
          "internalType": "address",
          "name": "",
          "type": "address"
        }
      ],
      "name": "userRegistrations",
      "outputs": [
        {
          "internalType": "bool",
          "name": "isRegistered",
          "type": "bool"
        }
      ],
      "stateMutability": "view",
      "type": "function"
    }
  ],
  "bytecode": "0x60a06040523060805234801561001457600080fd5b5061001d610022565b6100d4565b7ff0c57e16840df040f15088dc2f81fe391c3923bec73e23a9662efc9c229c6a00805468010000000000000000900460ff16156100725760405163f92ee8a960e01b815260040160405180910390fd5b80546001600160401b03908116146100d15780546001600160401b0319166001600160401b0390811782556040519081527fc7f505b2f371ae2175ee4913f4499e1f2633a7b5936321eed1cdaeb6115181d29060200160405180910390a15b50565b6080516131b96100fd6000396000818161196d015281816119960152611ad301526131b96000f3fe6080604052600436106101895760003560e01c806301ffc9a71461018e57806309802603146101c357806309e26362146101e35780631128a83014610207578063248a9ca3146102295780632f2ff15d1461024957806336568abe1461026957806337c909ec146102895780634f1ef286146102a057806352d1902d146102b3578063567e38e3146102c857806367031bae146102e057806375b238fc1461030d57806384b0196e1461032f5780638d9bb4251461035757806391d14854146103775780639201db08146103975780639dd96d47146103b7578063a217fddf14610419578063a617e6531461042e578063a6c4cce91461044e578063a8a65a7814610486578063ad3cb1cc146104a6578063b9ca9ea5146104e4578063d547741f14610504578063daea85c514610524578063eb990c5914610544578063ed24911d14610564578063ed7d3e6214610579578063f3cd07b014610599578063f7b2a7be146105d1578063f7c618c1146105e7578063f8b68aa214610607578063ffa1ad7414610642575b600080fd5b34801561019a57600080fd5b506101ae6101a936600461282e565b610657565b60405190151581526020015b60405180910390f35b3480156101cf57600080fd5b506101ae6101de366004612927565b61068e565b3480156101ef57600080fd5b506101f960025481565b6040519081526020016101ba565b34801561021357600080fd5b50610227610222366004612992565b6106aa565b005b34801561023557600080fd5b506101f96102443660046129d8565b610816565b34801561025557600080fd5b506102276102643660046129f1565b610836565b34801561027557600080fd5b506102276102843660046129f1565b610858565b34801561029557600080fd5b506101f962ed4e0081565b6102276102ae366004612a21565b610890565b3480156102bf57600080fd5b506101f96108af565b3480156102d457600080fd5b506101f96301e1338081565b3480156102ec57600080fd5b50600154610300906001600160a01b031681565b6040516101ba9190612a70565b34801561031957600080fd5b506101f960008051602061316483398151915281565b34801561033b57600080fd5b506103446108cc565b6040516101ba9796959493929190612ae1565b34801561036357600080fd5b506101ae610372366004612b79565b610975565b34801561038357600080fd5b506101ae6103923660046129f1565b610992565b3480156103a357600080fd5b506102276103b23660046129d8565b6109c8565b3480156103c357600080fd5b506103f96103d2366004612bd1565b60066020526000908152604090208054600182015460028301546003909301549192909184565b6040805194855260208501939093529183015260608201526080016101ba565b34801561042557600080fd5b506101f9600081565b34801561043a57600080fd5b506101ae610449366004612bee565b6109e6565b34801561045a57600080fd5b5061046e610469366004612bd1565b610c5f565b6040516101ba9c9b9a99989796959493929190612c1c565b34801561049257600080fd5b506102276104a13660046129d8565b610e69565b3480156104b257600080fd5b506104d7604051806040016040528060058152602001640352e302e360dc1b81525081565b6040516101ba9190612cb6565b3480156104f057600080fd5b506102276104ff366004612cc9565b610ebd565b34801561051057600080fd5b5061022761051f3660046129f1565b6112fa565b34801561053057600080fd5b5061022761053f366004612bd1565b611316565b34801561055057600080fd5b5061022761055f366004612992565b61141a565b34801561057057600080fd5b506101f9611611565b34801561058557600080fd5b506101ae610594366004612d91565b611620565b3480156105a557600080fd5b506101f96105b4366004612bee565b600560209081526000928352604080842090915290825290205481565b3480156105dd57600080fd5b506101f960035481565b3480156105f357600080fd5b50600054610300906001600160a01b031681565b34801561061357600080fd5b506101ae610622366004612bee565b600760209081526000928352604080842090915290825290205460ff1681565b34801561064e57600080fd5b506101f9600181565b60006001600160e01b03198216637965db0b60e01b148061068857506301ffc9a760e01b6001600160e01b03198316145b92915050565b60006106a185858585600080600061167e565b95945050505050565b6001600160a01b0383166106d95760405162461bcd60e51b81526004016106d090612dfb565b60405180910390fd5b6001600160a01b03841660009081526004602052604090205460ff166107115760405162461bcd60e51b81526004016106d090612e2d565b6001600160a01b038481166000908152600460205260409020546201000090041633146107505760405162461bcd60e51b81526004016106d090612e59565b60648211156107715760405162461bcd60e51b81526004016106d090612e80565b60648111156107925760405162461bcd60e51b81526004016106d090612eb5565b6001600160a01b038481166000818152600460209081526040918290206001810180546001600160a01b03191695891695909517909455600584018690556006909301849055805185815292830184905290917f817dcd9d9a3f9ee6dbc0878d11d70ae3a2a31c7398c4169b9796de7fbf2a61a6910160405180910390a250505050565b600080610821611818565b60009384526020525050604090206001015490565b61083f82610816565b6108488161183c565b6108528383611849565b50505050565b6001600160a01b03811633146108815760405163334bd91960e11b815260040160405180910390fd5b61088b82826118ea565b505050565b610898611962565b6108a182611a09565b6108ab8282611a14565b5050565b60006108b9611ac8565b5060008051602061314483398151915290565b60006060806000806000606060006108e2611b11565b80549091501580156108f657506001810154155b61093a5760405162461bcd60e51b81526020600482015260156024820152741152540dcc4c8e88155b9a5b9a5d1a585b1a5e9959605a1b60448201526064016106d0565b610942611b35565b61094a611bd6565b60408051600080825260208201909252600f60f81b9c939b5091995046985030975095509350915050565b600061098833858585600080600061167e565b90505b9392505050565b60008061099d611818565b6000948552602090815260408086206001600160a01b03959095168652939052505090205460ff1690565b6000805160206131648339815191526109e08161183c565b50600255565b6001600160a01b038083166000908152600560209081526040808320938516835292905290812054610a1b62ed4e0082612efb565b421015610a675760405162461bcd60e51b815260206004820152601a60248201527910db185a5b4818dbdbdb191bdddb881b9bdd081c995858da195960321b60448201526064016106d0565b6001600160a01b038316610ab45760405162461bcd60e51b8152602060048201526014602482015273496e76616c69642075736572206164647265737360601b60448201526064016106d0565b6001600160a01b0380851660009081526007602090815260408083209387168352929052205460ff16610b275760405162461bcd60e51b815260206004820152601b60248201527a055736572206e6f74207265676973746572656420666f722061707602c1b60448201526064016106d0565b600060035411610b895760405162461bcd60e51b815260206004820152602760248201527f52657761726420616d6f756e74206d7573742062652067726561746572207468604482015266616e207a65726f60c81b60648201526084016106d0565b6003546000546040516370a0823160e01b81526001600160a01b03909116906370a0823190610bbc903090600401612a70565b602060405180830381865afa158015610bd9573d6000803e3d6000fd5b505050506040513d601f19601f82011682018060405250810190610bfd9190612f0e565b1015610c555760405162461bcd60e51b815260206004820152602160248201527f496e73756666696369656e742072657761726420746f6b656e2062616c616e636044820152606560f81b60648201526084016106d0565b5060019392505050565b60046020819052600091825260409091208054600182015460028301546003840154948401546005850154600686015460078701805460ff8089169a6101008a0490911699620100009099046001600160a01b039081169998169790959493929091610cca90612f27565b80601f0160208091040260200160405190810160405280929190818152602001828054610cf690612f27565b8015610d435780601f10610d1857610100808354040283529160200191610d43565b820191906000526020600020905b815481529060010190602001808311610d2657829003601f168201915b505050505090806008018054610d5890612f27565b80601f0160208091040260200160405190810160405280929190818152602001828054610d8490612f27565b8015610dd15780601f10610da657610100808354040283529160200191610dd1565b820191906000526020600020905b815481529060010190602001808311610db457829003601f168201915b505050505090806009018054610de690612f27565b80601f0160208091040260200160405190810160405280929190818152602001828054610e1290612f27565b8015610e5f5780601f10610e3457610100808354040283529160200191610e5f565b820191906000526020600020905b815481529060010190602001808311610e4257829003601f168201915b505050505090508c565b600080516020613164833981519152610e818161183c565b60038290556040518281527f9639dea65e74b72b1b86ccf3e4f9b6d23b88d2aad2f103d0b3afe394e67edade9060200160405180910390a15050565b6001600160a01b038716610ee35760405162461bcd60e51b81526004016106d090612dfb565b6001600160a01b038616610f095760405162461bcd60e51b81526004016106d090612dfb565b6064851115610f2a5760405162461bcd60e51b81526004016106d090612e80565b6064841115610f4b5760405162461bcd60e51b81526004016106d090612eb5565b610200835111158015610f6057506032835110155b610fa25760405162461bcd60e51b815260206004820152601360248201527224b73b30b634b2103232b9b1b934b83a34b7b760691b60448201526064016106d0565b60008251118015610fb5575060ff825111155b610fef5760405162461bcd60e51b815260206004820152600b60248201526a125b9d985b1a590815549360aa1b60448201526064016106d0565b60008151118015611002575060ff815111155b61103e5760405162461bcd60e51b815260206004820152600d60248201526c125b9d985b1a5908195b585a5b609a1b60448201526064016106d0565b6001600160a01b038088166000908152600460205260409020805490916201000090910416156110fd5780546201000090046001600160a01b031633146110975760405162461bcd60e51b81526004016106d090612e59565b805461ff00191681556001810180546001600160a01b0319166001600160a01b0389161790556005810186905560068101859055600781016110d98582612faf565b50600881016110e88482612faf565b50600981016110f78382612faf565b506112a0565b604051806101800160405280600115158152602001600015158152602001336001600160a01b03168152602001886001600160a01b031681526020014281526020014281526020016000815260200187815260200186815260200185815260200184815260200183815250600460008a6001600160a01b03166001600160a01b0316815260200190815260200160002060008201518160000160006101000a81548160ff02191690831515021790555060208201518160000160016101000a81548160ff02191690831515021790555060408201518160000160026101000a8154816001600160a01b0302191690836001600160a01b0316021790555060608201518160010160006101000a8154816001600160a01b0302191690836001600160a01b031602179055506080820151816002015560a0820151816003015560c0820151816004015560e0820151816005015561010082015181600601556101208201518160070190816112709190612faf565b5061014082015160088201906112869082612faf565b50610160820151600982019061129c9082612faf565b5050505b604080516001600160a01b0389811682526020820189905291810187905233918a16907f65d1e20bce38962392c7e7b89dd347935823c82a519b21bc363c34bd277469839060600160405180910390a35050505050505050565b61130382610816565b61130c8161183c565b61085283836118ea565b60008051602061316483398151915261132e8161183c565b6001600160a01b03821660009081526004602052604090205460ff166113665760405162461bcd60e51b81526004016106d090612e2d565b6001600160a01b038216600090815260046020526040902054610100900460ff16156113cb5760405162461bcd60e51b8152602060048201526014602482015273105c1c08185b1c9958591e48185c1c1c9bdd995960621b60448201526064016106d0565b6001600160a01b038216600081815260046020526040808220805461ff001916610100179055517f95e9598427a2e62bd5a93d3a083bc0d32989e80c16ad07312a0bb406b53e36919190a25050565b6000611424611bf3565b805490915060ff600160401b82041615906001600160401b031660008115801561144b5750825b90506000826001600160401b031660011480156114675750303b155b905081158015611475575080155b156114935760405163f92ee8a960e01b815260040160405180910390fd5b84546001600160401b031916600117855583156114bc57845460ff60401b1916600160401b1785555b6001600160a01b0389166114e25760405162461bcd60e51b81526004016106d090612dfb565b6001600160a01b0388166115085760405162461bcd60e51b81526004016106d090612dfb565b611510611c17565b61155e60405180604001604052806011815260200170456e676167656d656e745265776172647360781b815250604051806040016040528060038152602001620312e360ec1b815250611c1f565b611566611c17565b600080546001600160a01b03808c166001600160a01b031992831617835560018054918c1691909216179055600288905560038790556115a69033611849565b506115bf60008051602061316483398151915233611849565b50831561160657845460ff60401b19168555604051600181527fc7f505b2f371ae2175ee4913f4499e1f2633a7b5936321eed1cdaeb6115181d29060200160405180910390a15b505050505050505050565b600061161b611c31565b905090565b600060648311156116435760405162461bcd60e51b81526004016106d090612e80565b60648211156116645760405162461bcd60e51b81526004016106d090612eb5565b611674338787878787600161167e565b9695505050505050565b6000611688611c3b565b328615801590611699575060008651115b156116ad576116aa89898989611c71565b90505b6001546040516316874da360e11b81526000916001600160a01b031690632d0e9b46906116de908590600401612a70565b602060405180830381865afa1580156116fb573d6000803e3d6000fd5b505050506040513d601f19601f8201168201806040525081019061171f919061306d565b905061172b8a826109e6565b61173a57600092505050611805565b6001600160a01b038a166000908152600460205260409020805460ff16158061176a57508054610100900460ff16155b1561177b5760009350505050611805565b426301e1338082600201546117909190612efb565b10156117a25760009350505050611805565b6117ac8b83611ecb565b15156000036117c15760009350505050611805565b60018101546117fd908c906001600160a01b0316858d896117e65785600501546117e8565b8b5b8a6117f7578660060154611f71565b8b611f71565b600193505050505b61180d612256565b979650505050505050565b7f02dd7bc7dec4dceedda775e58dd541e08a116c6c53815c0bd028192f7b62680090565b6118468133612267565b50565b600080611854611818565b90506118608484610992565b6118e0576000848152602082815260408083206001600160a01b03871684529091529020805460ff191660011790556118963390565b6001600160a01b0316836001600160a01b0316857f2f8788117e7eff1d82e926ec794901d17c78024a50270940304540a733656f0d60405160405180910390a46001915050610688565b6000915050610688565b6000806118f5611818565b90506119018484610992565b156118e0576000848152602082815260408083206001600160a01b0387168085529252808320805460ff1916905551339287917ff6391f5c32d9c69d2a47ea670b442974b53935d1edc7fd64eb21e047a839171b9190a46001915050610688565b306001600160a01b037f00000000000000000000000000000000000000000000000000000000000000001614806119e957507f00000000000000000000000000000000000000000000000000000000000000006001600160a01b03166119dd600080516020613144833981519152546001600160a01b031690565b6001600160a01b031614155b15611a075760405163703e46dd60e11b815260040160405180910390fd5b565b60006108ab8161183c565b816001600160a01b03166352d1902d6040518163ffffffff1660e01b8152600401602060405180830381865afa925050508015611a6e575060408051601f3d908101601f19168201909252611a6b91810190612f0e565b60015b611a8d5781604051634c9c8ce360e01b81526004016106d09190612a70565b6000805160206131448339815191528114611abe57604051632a87526960e21b8152600481018290526024016106d0565b61088b8383612292565b306001600160a01b037f00000000000000000000000000000000000000000000000000000000000000001614611a075760405163703e46dd60e11b815260040160405180910390fd5b7fa16a46d94261c7517cc8ff89f61c0ce93598e3c849801011dee649a6a557d10090565b60606000611b41611b11565b9050806002018054611b5290612f27565b80601f0160208091040260200160405190810160405280929190818152602001828054611b7e90612f27565b8015611bcb5780601f10611ba057610100808354040283529160200191611bcb565b820191906000526020600020905b815481529060010190602001808311611bae57829003601f168201915b505050505091505090565b60606000611be2611b11565b9050806003018054611b5290612f27565b7ff0c57e16840df040f15088dc2f81fe391c3923bec73e23a9662efc9c229c6a0090565b611a076122e8565b611c276122e8565b6108ab828261230d565b600061161b61234e565b6000611c456123c2565b805490915060011901611c6b57604051633ee5aeb560e01b815260040160405180910390fd5b60029055565b6000611c7e436032612efb565b831115611cd75760405162461bcd60e51b815260206004820152602160248201527f56616c6964556e74696c426c6f636b20746f6f2066617220696e2066757475726044820152606560f81b60648201526084016106d0565b43831015611d1b5760405162461bcd60e51b815260206004820152601160248201527014da59db985d1d5c9948195e1c1a5c9959607a1b60448201526064016106d0565b6001600160a01b03851660009081526004602052604081206007018054611d4190612f27565b80601f0160208091040260200160405190810160405280929190818152602001828054611d6d90612f27565b8015611dba5780601f10611d8f57610100808354040283529160200191611dba565b820191906000526020600020905b815481529060010190602001808311611d9d57829003601f168201915b5050505050905060007fcfeeafde86c38dcd27e7f3574225bf6be8c78e4aa28ebc85bc2989e109c15c1b8787878580519060200120604051602001611e2d9594939291909485526001600160a01b0393841660208601529190921660408401526060830191909152608082015260a00190565b6040516020818303038152906040528051906020012090506000611e50826123e6565b90506000611e5e8287612413565b6001600160a01b03808b1660009081526007602090815260408083209385168352929052205490915060ff16611ebf576001600160a01b03808a166000908152600760209081526040808320938516835292905220805460ff191660011790555b98975050505050505050565b6001600160a01b038083166000818152600560209081526040808320948616835293815283822042905591815260049091529081206003810154611f139062ed4e0090612efb565b4210611f2757600060048201554260038201555b6002546003548260040154611f3c9190612efb565b1115611f4c576000915050610688565b600354816004016000828254611f629190612efb565b90915550600195945050505050565b6000606483600354611f83919061308a565b611f8d91906130a1565b905060006064611f9d848461308a565b611fa791906130a1565b90506000611fb582846130c3565b9050600083600354611fc791906130c3565b90506001600160a01b038716611fe457611fe18282612efb565b90505b6001600160a01b038a16600090815260066020526040812080549091600191839190612011908490612efb565b925050819055508181600101600082825461202c9190612efb565b92505081905550828160030160008282546120479190612efb565b92505081905550838160020160008282546120629190612efb565b909155505081156120e45760005460405163a9059cbb60e01b81526001600160a01b039091169063a9059cbb9061209f908d9086906004016130d6565b6020604051808303816000875af11580156120be573d6000803e3d6000fd5b505050506040513d601f19601f820116820180604052508101906120e291906130ef565b505b83156121615760005460405163a9059cbb60e01b81526001600160a01b039091169063a9059cbb9061211c908c9088906004016130d6565b6020604051808303816000875af115801561213b573d6000803e3d6000fd5b505050506040513d601f19601f8201168201806040525081019061215f91906130ef565b505b6001600160a01b038816158015906121795750600083115b156121f55760005460405163a9059cbb60e01b81526001600160a01b039091169063a9059cbb906121b0908b9087906004016130d6565b6020604051808303816000875af11580156121cf573d6000803e3d6000fd5b505050506040513d601f19601f820116820180604052508101906121f391906130ef565b505b60408051838152602081018690529081018490526001600160a01b03808a16918b8216918e16907f4af0f3bbba19bd2ae80915d3dcbc4b38837833848ce3b3cd23d9043235865a369060600160405180910390a45050505050505050505050565b60006122606123c2565b6001905550565b6122718282610992565b6108ab57808260405163e2517d3f60e01b81526004016106d09291906130d6565b61229b8261243d565b6040516001600160a01b038316907fbc7cd75a20ee27fd9adebab32041f755214dbc6bffa90cc0225b39da2e5c2d3b90600090a28051156122e05761088b8282612499565b6108ab612506565b6122f0612525565b611a0757604051631afcd79f60e31b815260040160405180910390fd5b6123156122e8565b600061231f611b11565b90506002810161232f8482612faf565b506003810161233e8382612faf565b5060008082556001909101555050565b60007f8b73c3c69bb8fe3d512ecc4cf759cc79239f7b179b0ffacaa9a75d522b39400f61237961253f565b6123816125a6565b60408051602081019490945283019190915260608201524660808201523060a082015260c00160405160208183030381529060405280519060200120905090565b7f9b779b17422d0df92223018b32b4d1fa46e071723d6817e2486d003becc55f0090565b60006106886123f3611c31565b8360405161190160f01b8152600281019290925260228201526042902090565b60008060008061242386866125e7565b9250925092506124338282612634565b5090949350505050565b806001600160a01b03163b60000361246a5780604051634c9c8ce360e01b81526004016106d09190612a70565b60008051602061314483398151915280546001600160a01b0319166001600160a01b0392909216919091179055565b6060600080846001600160a01b0316846040516124b69190613111565b600060405180830381855af49150503d80600081146124f1576040519150601f19603f3d011682016040523d82523d6000602084013e6124f6565b606091505b50915091506106a18583836126ed565b3415611a075760405163b398979f60e01b815260040160405180910390fd5b600061252f611bf3565b54600160401b900460ff16919050565b60008061254a611b11565b90506000612556611b35565b80519091501561256e57805160209091012092915050565b8154801561257d579392505050565b7fc5d2460186f7233c927e7db2dcc703c0e500b653ca82273b7bfad8045d85a470935050505090565b6000806125b1611b11565b905060006125bd611bd6565b8051909150156125d557805160209091012092915050565b6001820154801561257d579392505050565b600080600083516041036126215760208401516040850151606086015160001a61261388828585612740565b95509550955050505061262d565b50508151600091506002905b9250925092565b60008260038111156126485761264861312d565b03612651575050565b60018260038111156126655761266561312d565b036126835760405163f645eedf60e01b815260040160405180910390fd5b60028260038111156126975761269761312d565b036126b85760405163fce698f760e01b8152600481018290526024016106d0565b60038260038111156126cc576126cc61312d565b036108ab576040516335e2f38360e21b8152600481018290526024016106d0565b606082612702576126fd82612805565b61098b565b815115801561271957506001600160a01b0384163b155b156127395783604051639996b31560e01b81526004016106d09190612a70565b508061098b565b600080806fa2a8918ca85bafe22016d0b997e4df60600160ff1b0384111561277157506000915060039050826127fb565b604080516000808252602082018084528a905260ff891692820192909252606081018790526080810186905260019060a0016020604051602081039080840390855afa1580156127c5573d6000803e3d6000fd5b5050604051601f1901519150506001600160a01b0381166127f1575060009250600191508290506127fb565b9250600091508190505b9450945094915050565b8051156128155780518082602001fd5b60405163d6bda27560e01b815260040160405180910390fd5b60006020828403121561284057600080fd5b81356001600160e01b03198116811461098b57600080fd5b6001600160a01b038116811461184657600080fd5b803561287881612858565b919050565b634e487b7160e01b600052604160045260246000fd5b600082601f8301126128a457600080fd5b8135602083016000806001600160401b038411156128c4576128c461287d565b50604051601f19601f85018116603f011681018181106001600160401b03821117156128f2576128f261287d565b60405283815290508082840187101561290a57600080fd5b838360208301376000602085830101528094505050505092915050565b6000806000806080858703121561293d57600080fd5b843561294881612858565b9350602085013561295881612858565b92506040850135915060608501356001600160401b0381111561297a57600080fd5b61298687828801612893565b91505092959194509250565b600080600080608085870312156129a857600080fd5b84356129b381612858565b935060208501356129c381612858565b93969395505050506040820135916060013590565b6000602082840312156129ea57600080fd5b5035919050565b60008060408385031215612a0457600080fd5b823591506020830135612a1681612858565b809150509250929050565b60008060408385031215612a3457600080fd5b8235612a3f81612858565b915060208301356001600160401b03811115612a5a57600080fd5b612a6685828601612893565b9150509250929050565b6001600160a01b0391909116815260200190565b60005b83811015612a9f578181015183820152602001612a87565b50506000910152565b60008151808452612ac0816020860160208601612a84565b601f01601f19169290920160200192915050565b6001600160a01b03169052565b60ff60f81b8816815260e060208201526000612b0060e0830189612aa8565b8281036040840152612b128189612aa8565b606084018890526001600160a01b038716608085015260a0840186905283810360c08501528451808252602080870193509091019060005b81811015612b68578351835260209384019390920191600101612b4a565b50909b9a5050505050505050505050565b600080600060608486031215612b8e57600080fd5b8335612b9981612858565b92506020840135915060408401356001600160401b03811115612bbb57600080fd5b612bc786828701612893565b9150509250925092565b600060208284031215612be357600080fd5b813561098b81612858565b60008060408385031215612c0157600080fd5b8235612c0c81612858565b91506020830135612a1681612858565b8c151581528b15156020820152612c36604082018c612ad4565b612c43606082018b612ad4565b8860808201528760a08201528660c08201528560e0820152846101008201526101806101208201526000612c7b610180830186612aa8565b828103610140840152612c8e8186612aa8565b9050828103610160840152612ca38185612aa8565b9f9e505050505050505050505050505050565b60208152600061098b6020830184612aa8565b600080600080600080600060e0888a031215612ce457600080fd5b8735612cef81612858565b9650612cfd6020890161286d565b9550604088013594506060880135935060808801356001600160401b03811115612d2657600080fd5b612d328a828b01612893565b93505060a08801356001600160401b03811115612d4e57600080fd5b612d5a8a828b01612893565b92505060c08801356001600160401b03811115612d7657600080fd5b612d828a828b01612893565b91505092959891949750929550565b600080600080600060a08688031215612da957600080fd5b8535612db481612858565b94506020860135935060408601356001600160401b03811115612dd657600080fd5b612de288828901612893565b9598949750949560608101359550608001359392505050565b60208082526018908201527716995c9bc81859191c995cdcc81b9bdd08185b1b1bddd95960421b604082015260600190565b602080825260129082015271105c1c081b9bdd081c9959da5cdd195c995960721b604082015260600190565b6020808252600d908201526c2737ba1030b8381037bbb732b960991b604082015260600190565b6020808252818101527f496e76616c69642075736572416e64496e766974657250657263656e74616765604082015260600190565b602080825260169082015275496e76616c6964207573657250657263656e7461676560501b604082015260600190565b634e487b7160e01b600052601160045260246000fd5b8082018082111561068857610688612ee5565b600060208284031215612f2057600080fd5b5051919050565b600181811c90821680612f3b57607f821691505b602082108103612f5b57634e487b7160e01b600052602260045260246000fd5b50919050565b601f82111561088b57806000526020600020601f840160051c81016020851015612f885750805b601f840160051c820191505b81811015612fa85760008155600101612f94565b5050505050565b81516001600160401b03811115612fc857612fc861287d565b612fdc81612fd68454612f27565b84612f61565b6020601f8211600181146130105760008315612ff85750848201515b600019600385901b1c1916600184901b178455612fa8565b600084815260208120601f198516915b828110156130405787850151825560209485019460019092019101613020565b508482101561305e5786840151600019600387901b60f8161c191681555b50505050600190811b01905550565b60006020828403121561307f57600080fd5b815161098b81612858565b808202811582820484141761068857610688612ee5565b6000826130be57634e487b7160e01b600052601260045260246000fd5b500490565b8181038181111561068857610688612ee5565b6001600160a01b03929092168252602082015260400190565b60006020828403121561310157600080fd5b8151801515811461098b57600080fd5b60008251613123818460208701612a84565b9190910192915050565b634e487b7160e01b600052602160045260246000fdfe360894a13ba1a3210667c828492db98dca3e2076cc3735a920a3ca505d382bbca49807205ce4d355092ef5a8a18f56e8913cf4a201fbe287825b095693c21775a2646970667358221220331b8c9dbec100d72ac723a047881a2f3e029f9d0639542473a30dd1d18d628164736f6c634300081c0033",
  "linkReferences": {},
  "deployedLinkReferences": {}
}