{
  "_format": "hh-sol-artifact-1",
  "contractName": "EngagementRewards",
  "sourceName": "contracts/EngagementRewards.sol",
  "abi": [
    {
      "inputs": [],
      "stateMutability": "nonpayable",
      "type": "constructor"
    },
    {
      "inputs": [],
      "name": "AccessControlBadConfirmation",
      "type": "error"
    },
    {
      "inputs": [
        {
          "internalType": "address",
          "name": "account",
          "type": "address"
        },
        {
          "internalType": "bytes32",
          "name": "neededRole",
          "type": "bytes32"
        }
      ],
      "name": "AccessControlUnauthorizedAccount",
      "type": "error"
    },
    {
      "inputs": [
        {
          "internalType": "address",
          "name": "target",
          "type": "address"
        }
      ],
      "name": "AddressEmptyCode",
      "type": "error"
    },
    {
      "inputs": [],
      "name": "ECDSAInvalidSignature",
      "type": "error"
    },
    {
      "inputs": [
        {
          "internalType": "uint256",
          "name": "length",
          "type": "uint256"
        }
      ],
      "name": "ECDSAInvalidSignatureLength",
      "type": "error"
    },
    {
      "inputs": [
        {
          "internalType": "bytes32",
          "name": "s",
          "type": "bytes32"
        }
      ],
      "name": "ECDSAInvalidSignatureS",
      "type": "error"
    },
    {
      "inputs": [
        {
          "internalType": "address",
          "name": "implementation",
          "type": "address"
        }
      ],
      "name": "ERC1967InvalidImplementation",
      "type": "error"
    },
    {
      "inputs": [],
      "name": "ERC1967NonPayable",
      "type": "error"
    },
    {
      "inputs": [],
      "name": "FailedCall",
      "type": "error"
    },
    {
      "inputs": [],
      "name": "InvalidInitialization",
      "type": "error"
    },
    {
      "inputs": [],
      "name": "NotInitializing",
      "type": "error"
    },
    {
      "inputs": [],
      "name": "ReentrancyGuardReentrantCall",
      "type": "error"
    },
    {
      "inputs": [],
      "name": "UUPSUnauthorizedCallContext",
      "type": "error"
    },
    {
      "inputs": [
        {
          "internalType": "bytes32",
          "name": "slot",
          "type": "bytes32"
        }
      ],
      "name": "UUPSUnsupportedProxiableUUID",
      "type": "error"
    },
    {
      "anonymous": false,
      "inputs": [
        {
          "indexed": true,
          "internalType": "address",
          "name": "app",
          "type": "address"
        },
        {
          "indexed": true,
          "internalType": "address",
          "name": "owner",
          "type": "address"
        },
        {
          "indexed": false,
          "internalType": "address",
          "name": "rewardReceiver",
          "type": "address"
        },
        {
          "indexed": false,
          "internalType": "uint256",
          "name": "userAndInviterPercentage",
          "type": "uint256"
        },
        {
          "indexed": false,
          "internalType": "uint256",
          "name": "userPercentage",
          "type": "uint256"
        },
        {
          "indexed": false,
          "internalType": "string",
          "name": "description",
          "type": "string"
        },
        {
          "indexed": false,
          "internalType": "string",
          "name": "url",
          "type": "string"
        },
        {
          "indexed": false,
          "internalType": "string",
          "name": "email",
          "type": "string"
        }
      ],
      "name": "AppApplied",
      "type": "event"
    },
    {
      "anonymous": false,
      "inputs": [
        {
          "indexed": true,
          "internalType": "address",
          "name": "app",
          "type": "address"
        }
      ],
      "name": "AppApproved",
      "type": "event"
    },
    {
      "anonymous": false,
      "inputs": [
        {
          "indexed": true,
          "internalType": "address",
          "name": "app",
          "type": "address"
        },
        {
          "indexed": false,
          "internalType": "uint256",
          "name": "userAndInviterPercentage",
          "type": "uint256"
        },
        {
          "indexed": false,
          "internalType": "uint256",
          "name": "userPercentage",
          "type": "uint256"
        }
      ],
      "name": "AppSettingsUpdated",
      "type": "event"
    },
    {
      "anonymous": false,
      "inputs": [],
      "name": "EIP712DomainChanged",
      "type": "event"
    },
    {
      "anonymous": false,
      "inputs": [
        {
          "indexed": false,
          "internalType": "uint64",
          "name": "version",
          "type": "uint64"
        }
      ],
      "name": "Initialized",
      "type": "event"
    },
    {
      "anonymous": false,
      "inputs": [
        {
          "indexed": false,
          "internalType": "uint256",
          "name": "newAmount",
          "type": "uint256"
        }
      ],
      "name": "RewardAmountUpdated",
      "type": "event"
    },
    {
      "anonymous": false,
      "inputs": [
        {
          "indexed": true,
          "internalType": "address",
          "name": "app",
          "type": "address"
        },
        {
          "indexed": true,
          "internalType": "address",
          "name": "user",
          "type": "address"
        },
        {
          "indexed": true,
          "internalType": "address",
          "name": "inviter",
          "type": "address"
        },
        {
          "indexed": false,
          "internalType": "uint256",
          "name": "appReward",
          "type": "uint256"
        },
        {
          "indexed": false,
          "internalType": "uint256",
          "name": "userAmount",
          "type": "uint256"
        },
        {
          "indexed": false,
          "internalType": "uint256",
          "name": "inviterAmount",
          "type": "uint256"
        }
      ],
      "name": "RewardClaimed",
      "type": "event"
    },
    {
      "anonymous": false,
      "inputs": [
        {
          "indexed": true,
          "internalType": "bytes32",
          "name": "role",
          "type": "bytes32"
        },
        {
          "indexed": true,
          "internalType": "bytes32",
          "name": "previousAdminRole",
          "type": "bytes32"
        },
        {
          "indexed": true,
          "internalType": "bytes32",
          "name": "newAdminRole",
          "type": "bytes32"
        }
      ],
      "name": "RoleAdminChanged",
      "type": "event"
    },
    {
      "anonymous": false,
      "inputs": [
        {
          "indexed": true,
          "internalType": "bytes32",
          "name": "role",
          "type": "bytes32"
        },
        {
          "indexed": true,
          "internalType": "address",
          "name": "account",
          "type": "address"
        },
        {
          "indexed": true,
          "internalType": "address",
          "name": "sender",
          "type": "address"
        }
      ],
      "name": "RoleGranted",
      "type": "event"
    },
    {
      "anonymous": false,
      "inputs": [
        {
          "indexed": true,
          "internalType": "bytes32",
          "name": "role",
          "type": "bytes32"
        },
        {
          "indexed": true,
          "internalType": "address",
          "name": "account",
          "type": "address"
        },
        {
          "indexed": true,
          "internalType": "address",
          "name": "sender",
          "type": "address"
        }
      ],
      "name": "RoleRevoked",
      "type": "event"
    },
    {
      "anonymous": false,
      "inputs": [
        {
          "indexed": true,
          "internalType": "address",
          "name": "implementation",
          "type": "address"
        }
      ],
      "name": "Upgraded",
      "type": "event"
    },
    {
      "inputs": [],
      "name": "ADMIN_ROLE",
      "outputs": [
        {
          "internalType": "bytes32",
          "name": "",
          "type": "bytes32"
        }
      ],
      "stateMutability": "view",
      "type": "function"
    },
    {
      "inputs": [],
      "name": "APP_EXPIRATION",
      "outputs": [
        {
          "internalType": "uint256",
          "name": "",
          "type": "uint256"
        }
      ],
      "stateMutability": "view",
      "type": "function"
    },
    {
      "inputs": [],
      "name": "CLAIM_COOLDOWN",
      "outputs": [
        {
          "internalType": "uint256",
          "name": "",
          "type": "uint256"
        }
      ],
      "stateMutability": "view",
      "type": "function"
    },
    {
      "inputs": [],
      "name": "DEFAULT_ADMIN_ROLE",
      "outputs": [
        {
          "internalType": "bytes32",
          "name": "",
          "type": "bytes32"
        }
      ],
      "stateMutability": "view",
      "type": "function"
    },
    {
      "inputs": [],
      "name": "UPGRADE_INTERFACE_VERSION",
      "outputs": [
        {
          "internalType": "string",
          "name": "",
          "type": "string"
        }
      ],
      "stateMutability": "view",
      "type": "function"
    },
    {
      "inputs": [
        {
          "internalType": "address",
          "name": "inviter",
          "type": "address"
        },
        {
          "internalType": "uint256",
          "name": "validUntilBlock",
          "type": "uint256"
        },
        {
          "internalType": "bytes",
          "name": "signature",
          "type": "bytes"
        }
      ],
      "name": "appClaim",
      "outputs": [
        {
          "internalType": "bool",
          "name": "",
          "type": "bool"
        }
      ],
      "stateMutability": "nonpayable",
      "type": "function"
    },
    {
      "inputs": [
        {
          "internalType": "address",
          "name": "inviter",
          "type": "address"
        },
        {
          "internalType": "uint256",
          "name": "validUntilBlock",
          "type": "uint256"
        },
        {
          "internalType": "bytes",
          "name": "signature",
          "type": "bytes"
        },
        {
          "internalType": "uint256",
          "name": "userAndInviterPercentage",
          "type": "uint256"
        },
        {
          "internalType": "uint256",
          "name": "userPercentage",
          "type": "uint256"
        }
      ],
      "name": "appClaim",
      "outputs": [
        {
          "internalType": "bool",
          "name": "",
          "type": "bool"
        }
      ],
      "stateMutability": "nonpayable",
      "type": "function"
    },
    {
      "inputs": [
        {
          "internalType": "address",
          "name": "app",
          "type": "address"
        },
        {
          "internalType": "address",
          "name": "rewardReceiver",
          "type": "address"
        },
        {
          "internalType": "uint256",
          "name": "userAndInviterPercentage",
          "type": "uint256"
        },
        {
          "internalType": "uint256",
          "name": "userPercentage",
          "type": "uint256"
        },
        {
          "internalType": "string",
          "name": "description",
          "type": "string"
        },
        {
          "internalType": "string",
          "name": "url",
          "type": "string"
        },
        {
          "internalType": "string",
          "name": "email",
          "type": "string"
        }
      ],
      "name": "applyApp",
      "outputs": [],
      "stateMutability": "nonpayable",
      "type": "function"
    },
    {
      "inputs": [
        {
          "internalType": "address",
          "name": "app",
          "type": "address"
        }
      ],
      "name": "approve",
      "outputs": [],
      "stateMutability": "nonpayable",
      "type": "function"
    },
    {
      "inputs": [
        {
          "internalType": "address",
          "name": "",
          "type": "address"
        }
      ],
      "name": "appsStats",
      "outputs": [
        {
          "internalType": "uint256",
          "name": "numberOfRewards",
          "type": "uint256"
        },
        {
          "internalType": "uint256",
          "name": "totalAppRewards",
          "type": "uint256"
        },
        {
          "internalType": "uint256",
          "name": "totalUserRewards",
          "type": "uint256"
        },
        {
          "internalType": "uint256",
          "name": "totalInviterRewards",
          "type": "uint256"
        }
      ],
      "stateMutability": "view",
      "type": "function"
    },
    {
      "inputs": [
        {
          "internalType": "address",
          "name": "app",
          "type": "address"
        },
        {
          "internalType": "address",
          "name": "user",
          "type": "address"
        }
      ],
      "name": "canClaim",
      "outputs": [
        {
          "internalType": "bool",
          "name": "",
          "type": "bool"
        }
      ],
      "stateMutability": "view",
      "type": "function"
    },
    {
      "inputs": [],
      "name": "eip712Domain",
      "outputs": [
        {
          "internalType": "bytes1",
          "name": "fields",
          "type": "bytes1"
        },
        {
          "internalType": "string",
          "name": "name",
          "type": "string"
        },
        {
          "internalType": "string",
          "name": "version",
          "type": "string"
        },
        {
          "internalType": "uint256",
          "name": "chainId",
          "type": "uint256"
        },
        {
          "internalType": "address",
          "name": "verifyingContract",
          "type": "address"
        },
        {
          "internalType": "bytes32",
          "name": "salt",
          "type": "bytes32"
        },
        {
          "internalType": "uint256[]",
          "name": "extensions",
          "type": "uint256[]"
        }
      ],
      "stateMutability": "view",
      "type": "function"
    },
    {
      "inputs": [
        {
          "internalType": "address",
          "name": "app",
          "type": "address"
        },
        {
          "internalType": "address",
          "name": "inviter",
          "type": "address"
        },
        {
          "internalType": "uint256",
          "name": "validUntilBlock",
          "type": "uint256"
        },
        {
          "internalType": "bytes",
          "name": "signature",
          "type": "bytes"
        }
      ],
      "name": "eoaClaim",
      "outputs": [
        {
          "internalType": "bool",
          "name": "",
          "type": "bool"
        }
      ],
      "stateMutability": "nonpayable",
      "type": "function"
    },
    {
      "inputs": [],
      "name": "getDomainSeparator",
      "outputs": [
        {
          "internalType": "bytes32",
          "name": "",
          "type": "bytes32"
        }
      ],
      "stateMutability": "view",
      "type": "function"
    },
    {
      "inputs": [
        {
          "internalType": "bytes32",
          "name": "role",
          "type": "bytes32"
        }
      ],
      "name": "getRoleAdmin",
      "outputs": [
        {
          "internalType": "bytes32",
          "name": "",
          "type": "bytes32"
        }
      ],
      "stateMutability": "view",
      "type": "function"
    },
    {
      "inputs": [
        {
          "internalType": "bytes32",
          "name": "role",
          "type": "bytes32"
        },
        {
          "internalType": "address",
          "name": "account",
          "type": "address"
        }
      ],
      "name": "grantRole",
      "outputs": [],
      "stateMutability": "nonpayable",
      "type": "function"
    },
    {
      "inputs": [
        {
          "internalType": "bytes32",
          "name": "role",
          "type": "bytes32"
        },
        {
          "internalType": "address",
          "name": "account",
          "type": "address"
        }
      ],
      "name": "hasRole",
      "outputs": [
        {
          "internalType": "bool",
          "name": "",
          "type": "bool"
        }
      ],
      "stateMutability": "view",
      "type": "function"
    },
    {
      "inputs": [],
      "name": "identityContract",
      "outputs": [
        {
          "internalType": "contract IIdentity",
          "name": "",
          "type": "address"
        }
      ],
      "stateMutability": "view",
      "type": "function"
    },
    {
      "inputs": [
        {
          "internalType": "contract IERC20",
          "name": "_rewardToken",
          "type": "address"
        },
        {
          "internalType": "contract IIdentity",
          "name": "_identityContract",
          "type": "address"
        },
        {
          "internalType": "uint256",
          "name": "_maxRewardsPerApp",
          "type": "uint256"
        },
        {
          "internalType": "uint256",
          "name": "_rewardAmount",
          "type": "uint256"
        }
      ],
      "name": "initialize",
      "outputs": [],
      "stateMutability": "nonpayable",
      "type": "function"
    },
    {
      "inputs": [
        {
          "internalType": "address",
          "name": "",
          "type": "address"
        },
        {
          "internalType": "address",
          "name": "",
          "type": "address"
        }
      ],
      "name": "lastClaimTimestamp",
      "outputs": [
        {
          "internalType": "uint256",
          "name": "",
          "type": "uint256"
        }
      ],
      "stateMutability": "view",
      "type": "function"
    },
    {
      "inputs": [],
      "name": "maxRewardsPerApp",
      "outputs": [
        {
          "internalType": "uint256",
          "name": "",
          "type": "uint256"
        }
      ],
      "stateMutability": "view",
      "type": "function"
    },
    {
      "inputs": [],
      "name": "proxiableUUID",
      "outputs": [
        {
          "internalType": "bytes32",
          "name": "",
          "type": "bytes32"
        }
      ],
      "stateMutability": "view",
      "type": "function"
    },
    {
      "inputs": [
        {
          "internalType": "address",
          "name": "",
          "type": "address"
        }
      ],
      "name": "registeredApps",
      "outputs": [
        {
          "internalType": "bool",
          "name": "isRegistered",
          "type": "bool"
        },
        {
          "internalType": "bool",
          "name": "isApproved",
          "type": "bool"
        },
        {
          "internalType": "address",
          "name": "owner",
          "type": "address"
        },
        {
          "internalType": "address",
          "name": "rewardReceiver",
          "type": "address"
        },
        {
          "internalType": "uint256",
          "name": "registeredAt",
          "type": "uint256"
        },
        {
          "internalType": "uint256",
          "name": "lastResetAt",
          "type": "uint256"
        },
        {
          "internalType": "uint256",
          "name": "totalRewardsClaimed",
          "type": "uint256"
        },
        {
          "internalType": "uint256",
          "name": "userAndInviterPercentage",
          "type": "uint256"
        },
        {
          "internalType": "uint256",
          "name": "userPercentage",
          "type": "uint256"
        },
        {
          "internalType": "string",
          "name": "description",
          "type": "string"
        },
        {
          "internalType": "string",
          "name": "url",
          "type": "string"
        },
        {
          "internalType": "string",
          "name": "email",
          "type": "string"
        }
      ],
      "stateMutability": "view",
      "type": "function"
    },
    {
      "inputs": [
        {
          "internalType": "bytes32",
          "name": "role",
          "type": "bytes32"
        },
        {
          "internalType": "address",
          "name": "callerConfirmation",
          "type": "address"
        }
      ],
      "name": "renounceRole",
      "outputs": [],
      "stateMutability": "nonpayable",
      "type": "function"
    },
    {
      "inputs": [
        {
          "internalType": "bytes32",
          "name": "role",
          "type": "bytes32"
        },
        {
          "internalType": "address",
          "name": "account",
          "type": "address"
        }
      ],
      "name": "revokeRole",
      "outputs": [],
      "stateMutability": "nonpayable",
      "type": "function"
    },
    {
      "inputs": [],
      "name": "rewardAmount",
      "outputs": [
        {
          "internalType": "uint256",
          "name": "",
          "type": "uint256"
        }
      ],
      "stateMutability": "view",
      "type": "function"
    },
    {
      "inputs": [],
      "name": "rewardToken",
      "outputs": [
        {
          "internalType": "contract IERC20",
          "name": "",
          "type": "address"
        }
      ],
      "stateMutability": "view",
      "type": "function"
    },
    {
      "inputs": [
        {
          "internalType": "uint256",
          "name": "_maxRewardsPerApp",
          "type": "uint256"
        }
      ],
      "name": "setMaxRewardsPerApp",
      "outputs": [],
      "stateMutability": "nonpayable",
      "type": "function"
    },
    {
      "inputs": [
        {
          "internalType": "uint256",
          "name": "_rewardAmount",
          "type": "uint256"
        }
      ],
      "name": "setRewardAmount",
      "outputs": [],
      "stateMutability": "nonpayable",
      "type": "function"
    },
    {
      "inputs": [
        {
          "internalType": "bytes4",
          "name": "interfaceId",
          "type": "bytes4"
        }
      ],
      "name": "supportsInterface",
      "outputs": [
        {
          "internalType": "bool",
          "name": "",
          "type": "bool"
        }
      ],
      "stateMutability": "view",
      "type": "function"
    },
    {
      "inputs": [
        {
          "internalType": "address",
          "name": "app",
          "type": "address"
        },
        {
          "internalType": "address",
          "name": "rewardReceiver",
          "type": "address"
        },
        {
          "internalType": "uint256",
          "name": "userAndInviterPercentage",
          "type": "uint256"
        },
        {
          "internalType": "uint256",
          "name": "userPercentage",
          "type": "uint256"
        }
      ],
      "name": "updateAppSettings",
      "outputs": [],
      "stateMutability": "nonpayable",
      "type": "function"
    },
    {
      "inputs": [
        {
          "internalType": "address",
          "name": "newImplementation",
          "type": "address"
        },
        {
          "internalType": "bytes",
          "name": "data",
          "type": "bytes"
        }
      ],
      "name": "upgradeToAndCall",
      "outputs": [],
      "stateMutability": "payable",
      "type": "function"
    },
    {
      "inputs": [
        {
          "internalType": "address",
          "name": "",
          "type": "address"
        },
        {
          "internalType": "address",
          "name": "",
          "type": "address"
        }
      ],
      "name": "userRegistrations",
      "outputs": [
        {
          "internalType": "uint256",
          "name": "isRegistered",
          "type": "uint256"
        }
      ],
      "stateMutability": "view",
      "type": "function"
    }
  ],
  "bytecode": "0x60a06040523060805234801561001457600080fd5b5061001d610022565b6100d4565b7ff0c57e16840df040f15088dc2f81fe391c3923bec73e23a9662efc9c229c6a00805468010000000000000000900460ff16156100725760405163f92ee8a960e01b815260040160405180910390fd5b80546001600160401b03908116146100d15780546001600160401b0319166001600160401b0390811782556040519081527fc7f505b2f371ae2175ee4913f4499e1f2633a7b5936321eed1cdaeb6115181d29060200160405180910390a15b50565b6080516131d66100fd600039600081816119610152818161198a0152611ac701526131d66000f3fe60806040526004361061017e5760003560e01c806301ffc9a71461018357806309802603146101b857806309e26362146101d85780631128a830146101fc578063248a9ca31461021e5780632f2ff15d1461023e57806336568abe1461025e57806337c909ec1461027e5780634f1ef2861461029557806352d1902d146102a8578063567e38e3146102bd57806367031bae146102d557806375b238fc1461030257806384b0196e146103245780638d9bb4251461034c57806391d148541461036c5780639201db081461038c5780639dd96d47146103ac578063a217fddf1461040e578063a617e65314610423578063a6c4cce914610443578063a8a65a781461047b578063ad3cb1cc1461049b578063b9ca9ea5146104d9578063d547741f146104f9578063daea85c514610519578063eb990c5914610539578063ed24911d14610559578063ed7d3e621461056e578063f3cd07b01461058e578063f7b2a7be146105c6578063f7c618c1146105dc578063f8b68aa2146105fc575b600080fd5b34801561018f57600080fd5b506101a361019e3660046127eb565b610634565b60405190151581526020015b60405180910390f35b3480156101c457600080fd5b506101a36101d33660046128e4565b61066b565b3480156101e457600080fd5b506101ee60025481565b6040519081526020016101af565b34801561020857600080fd5b5061021c61021736600461294f565b610687565b005b34801561022a57600080fd5b506101ee610239366004612995565b6107f3565b34801561024a57600080fd5b5061021c6102593660046129ae565b610813565b34801561026a57600080fd5b5061021c6102793660046129ae565b610835565b34801561028a57600080fd5b506101ee62ed4e0081565b61021c6102a33660046129de565b61086d565b3480156102b457600080fd5b506101ee61088c565b3480156102c957600080fd5b506101ee6301e1338081565b3480156102e157600080fd5b506001546102f5906001600160a01b031681565b6040516101af9190612a2d565b34801561030e57600080fd5b506101ee60008051602061318183398151915281565b34801561033057600080fd5b506103396108a9565b6040516101af9796959493929190612a9e565b34801561035857600080fd5b506101a3610367366004612b36565b610952565b34801561037857600080fd5b506101a36103873660046129ae565b61096f565b34801561039857600080fd5b5061021c6103a7366004612995565b6109a5565b3480156103b857600080fd5b506103ee6103c7366004612b8e565b60066020526000908152604090208054600182015460028301546003909301549192909184565b6040805194855260208501939093529183015260608201526080016101af565b34801561041a57600080fd5b506101ee600081565b34801561042f57600080fd5b506101a361043e366004612bab565b6109c3565b34801561044f57600080fd5b5061046361045e366004612b8e565b610c48565b6040516101af9c9b9a99989796959493929190612bd9565b34801561048757600080fd5b5061021c610496366004612995565b610e52565b3480156104a757600080fd5b506104cc604051806040016040528060058152602001640352e302e360dc1b81525081565b6040516101af9190612c73565b3480156104e557600080fd5b5061021c6104f4366004612c86565b610ea6565b34801561050557600080fd5b5061021c6105143660046129ae565b6112ee565b34801561052557600080fd5b5061021c610534366004612b8e565b61130a565b34801561054557600080fd5b5061021c61055436600461294f565b61140e565b34801561056557600080fd5b506101ee611605565b34801561057a57600080fd5b506101a3610589366004612d4e565b611614565b34801561059a57600080fd5b506101ee6105a9366004612bab565b600560209081526000928352604080842090915290825290205481565b3480156105d257600080fd5b506101ee60035481565b3480156105e857600080fd5b506000546102f5906001600160a01b031681565b34801561060857600080fd5b506101ee610617366004612bab565b600760209081526000928352604080842090915290825290205481565b60006001600160e01b03198216637965db0b60e01b148061066557506301ffc9a760e01b6001600160e01b03198316145b92915050565b600061067e858585856000806000611672565b95945050505050565b6001600160a01b0383166106b65760405162461bcd60e51b81526004016106ad90612db8565b60405180910390fd5b6001600160a01b03841660009081526004602052604090205460ff166106ee5760405162461bcd60e51b81526004016106ad90612dea565b6001600160a01b0384811660009081526004602052604090205462010000900416331461072d5760405162461bcd60e51b81526004016106ad90612e16565b606482111561074e5760405162461bcd60e51b81526004016106ad90612e3d565b606481111561076f5760405162461bcd60e51b81526004016106ad90612e72565b6001600160a01b038481166000818152600460209081526040918290206001810180546001600160a01b03191695891695909517909455600584018690556006909301849055805185815292830184905290917f817dcd9d9a3f9ee6dbc0878d11d70ae3a2a31c7398c4169b9796de7fbf2a61a6910160405180910390a250505050565b6000806107fe61180c565b60009384526020525050604090206001015490565b61081c826107f3565b61082581611830565b61082f838361183d565b50505050565b6001600160a01b038116331461085e5760405163334bd91960e11b815260040160405180910390fd5b61086882826118de565b505050565b610875611956565b61087e826119fd565b6108888282611a08565b5050565b6000610896611abc565b5060008051602061316183398151915290565b60006060806000806000606060006108bf611b05565b80549091501580156108d357506001810154155b6109175760405162461bcd60e51b81526020600482015260156024820152741152540dcc4c8e88155b9a5b9a5d1a585b1a5e9959605a1b60448201526064016106ad565b61091f611b29565b610927611bca565b60408051600080825260208201909252600f60f81b9c939b5091995046985030975095509350915050565b6000610965338585856000806000611672565b90505b9392505050565b60008061097a61180c565b6000948552602090815260408086206001600160a01b03959095168652939052505090205460ff1690565b6000805160206131818339815191526109bd81611830565b50600255565b6001600160a01b0380831660009081526005602090815260408083209385168352929052908120546109f862ed4e0082612eb8565b421015610a445760405162461bcd60e51b815260206004820152601a60248201527910db185a5b4818dbdbdb191bdddb881b9bdd081c995858da195960321b60448201526064016106ad565b6001600160a01b038316610a915760405162461bcd60e51b8152602060048201526014602482015273496e76616c69642075736572206164647265737360601b60448201526064016106ad565b6001600160a01b03808516600090815260046020908152604080832060020154600783528184209488168452939091529020541015610b105760405162461bcd60e51b815260206004820152601b60248201527a055736572206e6f74207265676973746572656420666f722061707602c1b60448201526064016106ad565b600060035411610b725760405162461bcd60e51b815260206004820152602760248201527f52657761726420616d6f756e74206d7573742062652067726561746572207468604482015266616e207a65726f60c81b60648201526084016106ad565b6003546000546040516370a0823160e01b81526001600160a01b03909116906370a0823190610ba5903090600401612a2d565b602060405180830381865afa158015610bc2573d6000803e3d6000fd5b505050506040513d601f19601f82011682018060405250810190610be69190612ecb565b1015610c3e5760405162461bcd60e51b815260206004820152602160248201527f496e73756666696369656e742072657761726420746f6b656e2062616c616e636044820152606560f81b60648201526084016106ad565b5060019392505050565b60046020819052600091825260409091208054600182015460028301546003840154948401546005850154600686015460078701805460ff8089169a6101008a0490911699620100009099046001600160a01b039081169998169790959493929091610cb390612ee4565b80601f0160208091040260200160405190810160405280929190818152602001828054610cdf90612ee4565b8015610d2c5780601f10610d0157610100808354040283529160200191610d2c565b820191906000526020600020905b815481529060010190602001808311610d0f57829003601f168201915b505050505090806008018054610d4190612ee4565b80601f0160208091040260200160405190810160405280929190818152602001828054610d6d90612ee4565b8015610dba5780601f10610d8f57610100808354040283529160200191610dba565b820191906000526020600020905b815481529060010190602001808311610d9d57829003601f168201915b505050505090806009018054610dcf90612ee4565b80601f0160208091040260200160405190810160405280929190818152602001828054610dfb90612ee4565b8015610e485780601f10610e1d57610100808354040283529160200191610e48565b820191906000526020600020905b815481529060010190602001808311610e2b57829003601f168201915b505050505090508c565b600080516020613181833981519152610e6a81611830565b60038290556040518281527f9639dea65e74b72b1b86ccf3e4f9b6d23b88d2aad2f103d0b3afe394e67edade9060200160405180910390a15050565b6001600160a01b038716610ecc5760405162461bcd60e51b81526004016106ad90612db8565b6001600160a01b038616610ef25760405162461bcd60e51b81526004016106ad90612db8565b6064851115610f135760405162461bcd60e51b81526004016106ad90612e3d565b6064841115610f345760405162461bcd60e51b81526004016106ad90612e72565b610200835111158015610f4957506032835110155b610f8b5760405162461bcd60e51b815260206004820152601360248201527224b73b30b634b2103232b9b1b934b83a34b7b760691b60448201526064016106ad565b60008251118015610f9e575060ff825111155b610fd85760405162461bcd60e51b815260206004820152600b60248201526a125b9d985b1a590815549360aa1b60448201526064016106ad565b60008151118015610feb575060ff815111155b6110275760405162461bcd60e51b815260206004820152600d60248201526c125b9d985b1a5908195b585a5b609a1b60448201526064016106ad565b6001600160a01b038088166000908152600460205260409020805490916201000090910416156110ec5780546201000090046001600160a01b031633146110805760405162461bcd60e51b81526004016106ad90612e16565b805461ff00191681556001810180546001600160a01b0319166001600160a01b0389161790556005810186905560068101859055600781016110c28582612f6c565b50600881016110d18482612f6c565b50600981016110e08382612f6c565b5042600282015561128f565b604051806101800160405280600115158152602001600015158152602001336001600160a01b03168152602001886001600160a01b031681526020014281526020014281526020016000815260200187815260200186815260200185815260200184815260200183815250600460008a6001600160a01b03166001600160a01b0316815260200190815260200160002060008201518160000160006101000a81548160ff02191690831515021790555060208201518160000160016101000a81548160ff02191690831515021790555060408201518160000160026101000a8154816001600160a01b0302191690836001600160a01b0316021790555060608201518160010160006101000a8154816001600160a01b0302191690836001600160a01b031602179055506080820151816002015560a0820151816003015560c0820151816004015560e08201518160050155610100820151816006015561012082015181600701908161125f9190612f6c565b5061014082015160088201906112759082612f6c565b50610160820151600982019061128b9082612f6c565b5050505b336001600160a01b0316886001600160a01b03167fc025612b0e32541c90be0a3ac84ee4a13a456d5520a7da1b3c1c0f6e821ba59d8989898989896040516112dc9695949392919061302a565b60405180910390a35050505050505050565b6112f7826107f3565b61130081611830565b61082f83836118de565b60008051602061318183398151915261132281611830565b6001600160a01b03821660009081526004602052604090205460ff1661135a5760405162461bcd60e51b81526004016106ad90612dea565b6001600160a01b038216600090815260046020526040902054610100900460ff16156113bf5760405162461bcd60e51b8152602060048201526014602482015273105c1c08185b1c9958591e48185c1c1c9bdd995960621b60448201526064016106ad565b6001600160a01b038216600081815260046020526040808220805461ff001916610100179055517f95e9598427a2e62bd5a93d3a083bc0d32989e80c16ad07312a0bb406b53e36919190a25050565b6000611418611be7565b805490915060ff600160401b82041615906001600160401b031660008115801561143f5750825b90506000826001600160401b0316600114801561145b5750303b155b905081158015611469575080155b156114875760405163f92ee8a960e01b815260040160405180910390fd5b84546001600160401b031916600117855583156114b057845460ff60401b1916600160401b1785555b6001600160a01b0389166114d65760405162461bcd60e51b81526004016106ad90612db8565b6001600160a01b0388166114fc5760405162461bcd60e51b81526004016106ad90612db8565b611504611c0b565b61155260405180604001604052806011815260200170456e676167656d656e745265776172647360781b815250604051806040016040528060038152602001620312e360ec1b815250611c13565b61155a611c0b565b600080546001600160a01b03808c166001600160a01b031992831617835560018054918c16919092161790556002889055600387905561159a903361183d565b506115b36000805160206131818339815191523361183d565b5083156115fa57845460ff60401b19168555604051600181527fc7f505b2f371ae2175ee4913f4499e1f2633a7b5936321eed1cdaeb6115181d29060200160405180910390a15b505050505050505050565b600061160f611c25565b905090565b600060648311156116375760405162461bcd60e51b81526004016106ad90612e3d565b60648211156116585760405162461bcd60e51b81526004016106ad90612e72565b6116683387878787876001611672565b9695505050505050565b600061167c611c2f565b32861580159061168d575060008651115b156116a15761169e89898989611c65565b90505b6001546040516316874da360e11b81526000916001600160a01b031690632d0e9b46906116d2908590600401612a2d565b602060405180830381865afa1580156116ef573d6000803e3d6000fd5b505050506040513d601f19601f82011682018060405250810190611713919061308a565b905061171f8a826109c3565b61172e576000925050506117f9565b6001600160a01b038a166000908152600460205260409020805460ff16158061175e57508054610100900460ff16155b1561176f57600093505050506117f9565b426301e1338082600201546117849190612eb8565b101561179657600093505050506117f9565b6117a08b83611e88565b15156000036117b557600093505050506117f9565b60018101546117f1908c906001600160a01b0316858d896117da5785600501546117dc565b8b5b8a6117eb578660060154611f2e565b8b611f2e565b600193505050505b611801612213565b979650505050505050565b7f02dd7bc7dec4dceedda775e58dd541e08a116c6c53815c0bd028192f7b62680090565b61183a8133612224565b50565b60008061184861180c565b9050611854848461096f565b6118d4576000848152602082815260408083206001600160a01b03871684529091529020805460ff1916600117905561188a3390565b6001600160a01b0316836001600160a01b0316857f2f8788117e7eff1d82e926ec794901d17c78024a50270940304540a733656f0d60405160405180910390a46001915050610665565b6000915050610665565b6000806118e961180c565b90506118f5848461096f565b156118d4576000848152602082815260408083206001600160a01b0387168085529252808320805460ff1916905551339287917ff6391f5c32d9c69d2a47ea670b442974b53935d1edc7fd64eb21e047a839171b9190a46001915050610665565b306001600160a01b037f00000000000000000000000000000000000000000000000000000000000000001614806119dd57507f00000000000000000000000000000000000000000000000000000000000000006001600160a01b03166119d1600080516020613161833981519152546001600160a01b031690565b6001600160a01b031614155b156119fb5760405163703e46dd60e11b815260040160405180910390fd5b565b600061088881611830565b816001600160a01b03166352d1902d6040518163ffffffff1660e01b8152600401602060405180830381865afa925050508015611a62575060408051601f3d908101601f19168201909252611a5f91810190612ecb565b60015b611a815781604051634c9c8ce360e01b81526004016106ad9190612a2d565b6000805160206131618339815191528114611ab257604051632a87526960e21b8152600481018290526024016106ad565b610868838361224f565b306001600160a01b037f000000000000000000000000000000000000000000000000000000000000000016146119fb5760405163703e46dd60e11b815260040160405180910390fd5b7fa16a46d94261c7517cc8ff89f61c0ce93598e3c849801011dee649a6a557d10090565b60606000611b35611b05565b9050806002018054611b4690612ee4565b80601f0160208091040260200160405190810160405280929190818152602001828054611b7290612ee4565b8015611bbf5780601f10611b9457610100808354040283529160200191611bbf565b820191906000526020600020905b815481529060010190602001808311611ba257829003601f168201915b505050505091505090565b60606000611bd6611b05565b9050806003018054611b4690612ee4565b7ff0c57e16840df040f15088dc2f81fe391c3923bec73e23a9662efc9c229c6a0090565b6119fb6122a5565b611c1b6122a5565b61088882826122ca565b600061160f61230b565b6000611c3961237f565b805490915060011901611c5f57604051633ee5aeb560e01b815260040160405180910390fd5b60029055565b6000611c72436032612eb8565b831115611ccb5760405162461bcd60e51b815260206004820152602160248201527f56616c6964556e74696c426c6f636b20746f6f2066617220696e2066757475726044820152606560f81b60648201526084016106ad565b43831015611d0f5760405162461bcd60e51b815260206004820152601160248201527014da59db985d1d5c9948195e1c1a5c9959607a1b60448201526064016106ad565b6001600160a01b03851660009081526004602052604081206007018054611d3590612ee4565b80601f0160208091040260200160405190810160405280929190818152602001828054611d6190612ee4565b8015611dae5780601f10611d8357610100808354040283529160200191611dae565b820191906000526020600020905b815481529060010190602001808311611d9157829003601f168201915b5050505050905060007fcfeeafde86c38dcd27e7f3574225bf6be8c78e4aa28ebc85bc2989e109c15c1b8787878580519060200120604051602001611e219594939291909485526001600160a01b0393841660208601529190921660408401526060830191909152608082015260a00190565b6040516020818303038152906040528051906020012090506000611e44826123a3565b90506000611e5282876123d0565b6001600160a01b03808b166000908152600760209081526040808320938516835292905220429055945050505050949350505050565b6001600160a01b038083166000818152600560209081526040808320948616835293815283822042905591815260049091529081206003810154611ed09062ed4e0090612eb8565b4210611ee457600060048201554260038201555b6002546003548260040154611ef99190612eb8565b1115611f09576000915050610665565b600354816004016000828254611f1f9190612eb8565b90915550600195945050505050565b6000606483600354611f4091906130a7565b611f4a91906130be565b905060006064611f5a84846130a7565b611f6491906130be565b90506000611f7282846130e0565b9050600083600354611f8491906130e0565b90506001600160a01b038716611fa157611f9e8282612eb8565b90505b6001600160a01b038a16600090815260066020526040812080549091600191839190611fce908490612eb8565b9250508190555081816001016000828254611fe99190612eb8565b92505081905550828160030160008282546120049190612eb8565b925050819055508381600201600082825461201f9190612eb8565b909155505081156120a15760005460405163a9059cbb60e01b81526001600160a01b039091169063a9059cbb9061205c908d9086906004016130f3565b6020604051808303816000875af115801561207b573d6000803e3d6000fd5b505050506040513d601f19601f8201168201806040525081019061209f919061310c565b505b831561211e5760005460405163a9059cbb60e01b81526001600160a01b039091169063a9059cbb906120d9908c9088906004016130f3565b6020604051808303816000875af11580156120f8573d6000803e3d6000fd5b505050506040513d601f19601f8201168201806040525081019061211c919061310c565b505b6001600160a01b038816158015906121365750600083115b156121b25760005460405163a9059cbb60e01b81526001600160a01b039091169063a9059cbb9061216d908b9087906004016130f3565b6020604051808303816000875af115801561218c573d6000803e3d6000fd5b505050506040513d601f19601f820116820180604052508101906121b0919061310c565b505b60408051838152602081018690529081018490526001600160a01b03808a16918b8216918e16907f4af0f3bbba19bd2ae80915d3dcbc4b38837833848ce3b3cd23d9043235865a369060600160405180910390a45050505050505050505050565b600061221d61237f565b6001905550565b61222e828261096f565b61088857808260405163e2517d3f60e01b81526004016106ad9291906130f3565b612258826123fa565b6040516001600160a01b038316907fbc7cd75a20ee27fd9adebab32041f755214dbc6bffa90cc0225b39da2e5c2d3b90600090a280511561229d576108688282612456565b6108886124c3565b6122ad6124e2565b6119fb57604051631afcd79f60e31b815260040160405180910390fd5b6122d26122a5565b60006122dc611b05565b9050600281016122ec8482612f6c565b50600381016122fb8382612f6c565b5060008082556001909101555050565b60007f8b73c3c69bb8fe3d512ecc4cf759cc79239f7b179b0ffacaa9a75d522b39400f6123366124fc565b61233e612563565b60408051602081019490945283019190915260608201524660808201523060a082015260c00160405160208183030381529060405280519060200120905090565b7f9b779b17422d0df92223018b32b4d1fa46e071723d6817e2486d003becc55f0090565b60006106656123b0611c25565b8360405161190160f01b8152600281019290925260228201526042902090565b6000806000806123e086866125a4565b9250925092506123f082826125f1565b5090949350505050565b806001600160a01b03163b6000036124275780604051634c9c8ce360e01b81526004016106ad9190612a2d565b60008051602061316183398151915280546001600160a01b0319166001600160a01b0392909216919091179055565b6060600080846001600160a01b031684604051612473919061312e565b600060405180830381855af49150503d80600081146124ae576040519150601f19603f3d011682016040523d82523d6000602084013e6124b3565b606091505b509150915061067e8583836126aa565b34156119fb5760405163b398979f60e01b815260040160405180910390fd5b60006124ec611be7565b54600160401b900460ff16919050565b600080612507611b05565b90506000612513611b29565b80519091501561252b57805160209091012092915050565b8154801561253a579392505050565b7fc5d2460186f7233c927e7db2dcc703c0e500b653ca82273b7bfad8045d85a470935050505090565b60008061256e611b05565b9050600061257a611bca565b80519091501561259257805160209091012092915050565b6001820154801561253a579392505050565b600080600083516041036125de5760208401516040850151606086015160001a6125d0888285856126fd565b9550955095505050506125ea565b50508151600091506002905b9250925092565b60008260038111156126055761260561314a565b0361260e575050565b60018260038111156126225761262261314a565b036126405760405163f645eedf60e01b815260040160405180910390fd5b60028260038111156126545761265461314a565b036126755760405163fce698f760e01b8152600481018290526024016106ad565b60038260038111156126895761268961314a565b03610888576040516335e2f38360e21b8152600481018290526024016106ad565b6060826126bf576126ba826127c2565b610968565b81511580156126d657506001600160a01b0384163b155b156126f65783604051639996b31560e01b81526004016106ad9190612a2d565b5080610968565b600080806fa2a8918ca85bafe22016d0b997e4df60600160ff1b0384111561272e57506000915060039050826127b8565b604080516000808252602082018084528a905260ff891692820192909252606081018790526080810186905260019060a0016020604051602081039080840390855afa158015612782573d6000803e3d6000fd5b5050604051601f1901519150506001600160a01b0381166127ae575060009250600191508290506127b8565b9250600091508190505b9450945094915050565b8051156127d25780518082602001fd5b60405163d6bda27560e01b815260040160405180910390fd5b6000602082840312156127fd57600080fd5b81356001600160e01b03198116811461096857600080fd5b6001600160a01b038116811461183a57600080fd5b803561283581612815565b919050565b634e487b7160e01b600052604160045260246000fd5b600082601f83011261286157600080fd5b8135602083016000806001600160401b038411156128815761288161283a565b50604051601f19601f85018116603f011681018181106001600160401b03821117156128af576128af61283a565b6040528381529050808284018710156128c757600080fd5b838360208301376000602085830101528094505050505092915050565b600080600080608085870312156128fa57600080fd5b843561290581612815565b9350602085013561291581612815565b92506040850135915060608501356001600160401b0381111561293757600080fd5b61294387828801612850565b91505092959194509250565b6000806000806080858703121561296557600080fd5b843561297081612815565b9350602085013561298081612815565b93969395505050506040820135916060013590565b6000602082840312156129a757600080fd5b5035919050565b600080604083850312156129c157600080fd5b8235915060208301356129d381612815565b809150509250929050565b600080604083850312156129f157600080fd5b82356129fc81612815565b915060208301356001600160401b03811115612a1757600080fd5b612a2385828601612850565b9150509250929050565b6001600160a01b0391909116815260200190565b60005b83811015612a5c578181015183820152602001612a44565b50506000910152565b60008151808452612a7d816020860160208601612a41565b601f01601f19169290920160200192915050565b6001600160a01b03169052565b60ff60f81b8816815260e060208201526000612abd60e0830189612a65565b8281036040840152612acf8189612a65565b606084018890526001600160a01b038716608085015260a0840186905283810360c08501528451808252602080870193509091019060005b81811015612b25578351835260209384019390920191600101612b07565b50909b9a5050505050505050505050565b600080600060608486031215612b4b57600080fd5b8335612b5681612815565b92506020840135915060408401356001600160401b03811115612b7857600080fd5b612b8486828701612850565b9150509250925092565b600060208284031215612ba057600080fd5b813561096881612815565b60008060408385031215612bbe57600080fd5b8235612bc981612815565b915060208301356129d381612815565b8c151581528b15156020820152612bf3604082018c612a91565b612c00606082018b612a91565b8860808201528760a08201528660c08201528560e0820152846101008201526101806101208201526000612c38610180830186612a65565b828103610140840152612c4b8186612a65565b9050828103610160840152612c608185612a65565b9f9e505050505050505050505050505050565b6020815260006109686020830184612a65565b600080600080600080600060e0888a031215612ca157600080fd5b8735612cac81612815565b9650612cba6020890161282a565b9550604088013594506060880135935060808801356001600160401b03811115612ce357600080fd5b612cef8a828b01612850565b93505060a08801356001600160401b03811115612d0b57600080fd5b612d178a828b01612850565b92505060c08801356001600160401b03811115612d3357600080fd5b612d3f8a828b01612850565b91505092959891949750929550565b600080600080600060a08688031215612d6657600080fd5b8535612d7181612815565b94506020860135935060408601356001600160401b03811115612d9357600080fd5b612d9f88828901612850565b9598949750949560608101359550608001359392505050565b60208082526018908201527716995c9bc81859191c995cdcc81b9bdd08185b1b1bddd95960421b604082015260600190565b602080825260129082015271105c1c081b9bdd081c9959da5cdd195c995960721b604082015260600190565b6020808252600d908201526c2737ba1030b8381037bbb732b960991b604082015260600190565b6020808252818101527f496e76616c69642075736572416e64496e766974657250657263656e74616765604082015260600190565b602080825260169082015275496e76616c6964207573657250657263656e7461676560501b604082015260600190565b634e487b7160e01b600052601160045260246000fd5b8082018082111561066557610665612ea2565b600060208284031215612edd57600080fd5b5051919050565b600181811c90821680612ef857607f821691505b602082108103612f1857634e487b7160e01b600052602260045260246000fd5b50919050565b601f82111561086857806000526020600020601f840160051c81016020851015612f455750805b601f840160051c820191505b81811015612f655760008155600101612f51565b5050505050565b81516001600160401b03811115612f8557612f8561283a565b612f9981612f938454612ee4565b84612f1e565b6020601f821160018114612fcd5760008315612fb55750848201515b600019600385901b1c1916600184901b178455612f65565b600084815260208120601f198516915b82811015612ffd5787850151825560209485019460019092019101612fdd565b508482101561301b5786840151600019600387901b60f8161c191681555b50505050600190811b01905550565b60018060a01b038716815285602082015284604082015260c06060820152600061305760c0830186612a65565b82810360808401526130698186612a65565b905082810360a084015261307d8185612a65565b9998505050505050505050565b60006020828403121561309c57600080fd5b815161096881612815565b808202811582820484141761066557610665612ea2565b6000826130db57634e487b7160e01b600052601260045260246000fd5b500490565b8181038181111561066557610665612ea2565b6001600160a01b03929092168252602082015260400190565b60006020828403121561311e57600080fd5b8151801515811461096857600080fd5b60008251613140818460208701612a41565b9190910192915050565b634e487b7160e01b600052602160045260246000fdfe360894a13ba1a3210667c828492db98dca3e2076cc3735a920a3ca505d382bbca49807205ce4d355092ef5a8a18f56e8913cf4a201fbe287825b095693c21775a2646970667358221220a4bc3ec8f8fdb8a0dd54dcca2f946d105bb3d2ef66a5d89da9907a72ef14e30364736f6c634300081c0033",
  "linkReferences": {},
  "deployedLinkReferences": {}
}