{
  "_format": "hh-sol-artifact-1",
  "contractName": "EngagementRewards",
  "sourceName": "contracts/EngagementRewards.sol",
  "abi": [
    {
      "inputs": [
        {
          "internalType": "bool",
          "name": "_isDevEnv",
          "type": "bool"
        }
      ],
      "stateMutability": "nonpayable",
      "type": "constructor"
    },
    {
      "inputs": [],
      "name": "AccessControlBadConfirmation",
      "type": "error"
    },
    {
      "inputs": [
        {
          "internalType": "address",
          "name": "account",
          "type": "address"
        },
        {
          "internalType": "bytes32",
          "name": "neededRole",
          "type": "bytes32"
        }
      ],
      "name": "AccessControlUnauthorizedAccount",
      "type": "error"
    },
    {
      "inputs": [
        {
          "internalType": "address",
          "name": "target",
          "type": "address"
        }
      ],
      "name": "AddressEmptyCode",
      "type": "error"
    },
    {
      "inputs": [
        {
          "internalType": "address",
          "name": "implementation",
          "type": "address"
        }
      ],
      "name": "ERC1967InvalidImplementation",
      "type": "error"
    },
    {
      "inputs": [],
      "name": "ERC1967NonPayable",
      "type": "error"
    },
    {
      "inputs": [],
      "name": "FailedCall",
      "type": "error"
    },
    {
      "inputs": [],
      "name": "InvalidInitialization",
      "type": "error"
    },
    {
      "inputs": [],
      "name": "NotInitializing",
      "type": "error"
    },
    {
      "inputs": [],
      "name": "ReentrancyGuardReentrantCall",
      "type": "error"
    },
    {
      "inputs": [],
      "name": "UUPSUnauthorizedCallContext",
      "type": "error"
    },
    {
      "inputs": [
        {
          "internalType": "bytes32",
          "name": "slot",
          "type": "bytes32"
        }
      ],
      "name": "UUPSUnsupportedProxiableUUID",
      "type": "error"
    },
    {
      "anonymous": false,
      "inputs": [
        {
          "indexed": true,
          "internalType": "address",
          "name": "app",
          "type": "address"
        },
        {
          "indexed": true,
          "internalType": "address",
          "name": "owner",
          "type": "address"
        },
        {
          "indexed": false,
          "internalType": "address",
          "name": "rewardReceiver",
          "type": "address"
        },
        {
          "indexed": false,
          "internalType": "uint256",
          "name": "userAndInviterPercentage",
          "type": "uint256"
        },
        {
          "indexed": false,
          "internalType": "uint256",
          "name": "userPercentage",
          "type": "uint256"
        },
        {
          "indexed": false,
          "internalType": "string",
          "name": "description",
          "type": "string"
        },
        {
          "indexed": false,
          "internalType": "string",
          "name": "url",
          "type": "string"
        },
        {
          "indexed": false,
          "internalType": "string",
          "name": "email",
          "type": "string"
        }
      ],
      "name": "AppApplied",
      "type": "event"
    },
    {
      "anonymous": false,
      "inputs": [
        {
          "indexed": true,
          "internalType": "address",
          "name": "app",
          "type": "address"
        }
      ],
      "name": "AppApproved",
      "type": "event"
    },
    {
      "anonymous": false,
      "inputs": [
        {
          "indexed": true,
          "internalType": "address",
          "name": "app",
          "type": "address"
        },
        {
          "indexed": false,
          "internalType": "uint256",
          "name": "userAndInviterPercentage",
          "type": "uint256"
        },
        {
          "indexed": false,
          "internalType": "uint256",
          "name": "userPercentage",
          "type": "uint256"
        }
      ],
      "name": "AppSettingsUpdated",
      "type": "event"
    },
    {
      "anonymous": false,
      "inputs": [],
      "name": "EIP712DomainChanged",
      "type": "event"
    },
    {
      "anonymous": false,
      "inputs": [
        {
          "indexed": false,
          "internalType": "uint64",
          "name": "version",
          "type": "uint64"
        }
      ],
      "name": "Initialized",
      "type": "event"
    },
    {
      "anonymous": false,
      "inputs": [
        {
          "indexed": false,
          "internalType": "uint8",
          "name": "newAmount",
          "type": "uint8"
        }
      ],
      "name": "MaxAppsPerUserUpdated",
      "type": "event"
    },
    {
      "anonymous": false,
      "inputs": [
        {
          "indexed": false,
          "internalType": "uint256",
          "name": "newAmount",
          "type": "uint256"
        }
      ],
      "name": "RewardAmountUpdated",
      "type": "event"
    },
    {
      "anonymous": false,
      "inputs": [
        {
          "indexed": true,
          "internalType": "address",
          "name": "app",
          "type": "address"
        },
        {
          "indexed": true,
          "internalType": "address",
          "name": "user",
          "type": "address"
        },
        {
          "indexed": true,
          "internalType": "address",
          "name": "inviter",
          "type": "address"
        },
        {
          "indexed": false,
          "internalType": "uint256",
          "name": "appReward",
          "type": "uint256"
        },
        {
          "indexed": false,
          "internalType": "uint256",
          "name": "userAmount",
          "type": "uint256"
        },
        {
          "indexed": false,
          "internalType": "uint256",
          "name": "inviterAmount",
          "type": "uint256"
        }
      ],
      "name": "RewardClaimed",
      "type": "event"
    },
    {
      "anonymous": false,
      "inputs": [
        {
          "indexed": true,
          "internalType": "bytes32",
          "name": "role",
          "type": "bytes32"
        },
        {
          "indexed": true,
          "internalType": "bytes32",
          "name": "previousAdminRole",
          "type": "bytes32"
        },
        {
          "indexed": true,
          "internalType": "bytes32",
          "name": "newAdminRole",
          "type": "bytes32"
        }
      ],
      "name": "RoleAdminChanged",
      "type": "event"
    },
    {
      "anonymous": false,
      "inputs": [
        {
          "indexed": true,
          "internalType": "bytes32",
          "name": "role",
          "type": "bytes32"
        },
        {
          "indexed": true,
          "internalType": "address",
          "name": "account",
          "type": "address"
        },
        {
          "indexed": true,
          "internalType": "address",
          "name": "sender",
          "type": "address"
        }
      ],
      "name": "RoleGranted",
      "type": "event"
    },
    {
      "anonymous": false,
      "inputs": [
        {
          "indexed": true,
          "internalType": "bytes32",
          "name": "role",
          "type": "bytes32"
        },
        {
          "indexed": true,
          "internalType": "address",
          "name": "account",
          "type": "address"
        },
        {
          "indexed": true,
          "internalType": "address",
          "name": "sender",
          "type": "address"
        }
      ],
      "name": "RoleRevoked",
      "type": "event"
    },
    {
      "anonymous": false,
      "inputs": [
        {
          "indexed": true,
          "internalType": "address",
          "name": "implementation",
          "type": "address"
        }
      ],
      "name": "Upgraded",
      "type": "event"
    },
    {
      "inputs": [],
      "name": "ADMIN_ROLE",
      "outputs": [
        {
          "internalType": "bytes32",
          "name": "",
          "type": "bytes32"
        }
      ],
      "stateMutability": "view",
      "type": "function"
    },
    {
      "inputs": [],
      "name": "APP_CLAIM_TYPEHASH",
      "outputs": [
        {
          "internalType": "bytes32",
          "name": "",
          "type": "bytes32"
        }
      ],
      "stateMutability": "view",
      "type": "function"
    },
    {
      "inputs": [],
      "name": "APP_EXPIRATION",
      "outputs": [
        {
          "internalType": "uint256",
          "name": "",
          "type": "uint256"
        }
      ],
      "stateMutability": "view",
      "type": "function"
    },
    {
      "inputs": [],
      "name": "CLAIM_COOLDOWN",
      "outputs": [
        {
          "internalType": "uint256",
          "name": "",
          "type": "uint256"
        }
      ],
      "stateMutability": "view",
      "type": "function"
    },
    {
      "inputs": [],
      "name": "CLAIM_TYPEHASH",
      "outputs": [
        {
          "internalType": "bytes32",
          "name": "",
          "type": "bytes32"
        }
      ],
      "stateMutability": "view",
      "type": "function"
    },
    {
      "inputs": [],
      "name": "DEFAULT_ADMIN_ROLE",
      "outputs": [
        {
          "internalType": "bytes32",
          "name": "",
          "type": "bytes32"
        }
      ],
      "stateMutability": "view",
      "type": "function"
    },
    {
      "inputs": [],
      "name": "IS_DEV_ENV",
      "outputs": [
        {
          "internalType": "bool",
          "name": "",
          "type": "bool"
        }
      ],
      "stateMutability": "view",
      "type": "function"
    },
    {
      "inputs": [],
      "name": "UPGRADE_INTERFACE_VERSION",
      "outputs": [
        {
          "internalType": "string",
          "name": "",
          "type": "string"
        }
      ],
      "stateMutability": "view",
      "type": "function"
    },
    {
      "inputs": [
        {
          "internalType": "address",
          "name": "user",
          "type": "address"
        },
        {
          "internalType": "address",
          "name": "inviter",
          "type": "address"
        },
        {
          "internalType": "uint256",
          "name": "validUntilBlock",
          "type": "uint256"
        },
        {
          "internalType": "bytes",
          "name": "signature",
          "type": "bytes"
        },
        {
          "internalType": "uint256",
          "name": "userAndInviterPercentage",
          "type": "uint256"
        },
        {
          "internalType": "uint256",
          "name": "userPercentage",
          "type": "uint256"
        }
      ],
      "name": "appClaim",
      "outputs": [
        {
          "internalType": "bool",
          "name": "",
          "type": "bool"
        }
      ],
      "stateMutability": "nonpayable",
      "type": "function"
    },
    {
      "inputs": [
        {
          "internalType": "address",
          "name": "user",
          "type": "address"
        },
        {
          "internalType": "address",
          "name": "inviter",
          "type": "address"
        },
        {
          "internalType": "uint256",
          "name": "validUntilBlock",
          "type": "uint256"
        },
        {
          "internalType": "bytes",
          "name": "signature",
          "type": "bytes"
        }
      ],
      "name": "appClaim",
      "outputs": [
        {
          "internalType": "bool",
          "name": "",
          "type": "bool"
        }
      ],
      "stateMutability": "nonpayable",
      "type": "function"
    },
    {
      "inputs": [
        {
          "internalType": "address",
          "name": "app",
          "type": "address"
        },
        {
          "internalType": "address",
          "name": "rewardReceiver",
          "type": "address"
        },
        {
          "internalType": "uint256",
          "name": "userAndInviterPercentage",
          "type": "uint256"
        },
        {
          "internalType": "uint256",
          "name": "userPercentage",
          "type": "uint256"
        },
        {
          "internalType": "string",
          "name": "description",
          "type": "string"
        },
        {
          "internalType": "string",
          "name": "url",
          "type": "string"
        },
        {
          "internalType": "string",
          "name": "email",
          "type": "string"
        }
      ],
      "name": "applyApp",
      "outputs": [],
      "stateMutability": "nonpayable",
      "type": "function"
    },
    {
      "inputs": [
        {
          "internalType": "address",
          "name": "app",
          "type": "address"
        }
      ],
      "name": "approve",
      "outputs": [],
      "stateMutability": "nonpayable",
      "type": "function"
    },
    {
      "inputs": [
        {
          "internalType": "address",
          "name": "",
          "type": "address"
        }
      ],
      "name": "appsStats",
      "outputs": [
        {
          "internalType": "uint96",
          "name": "numberOfRewards",
          "type": "uint96"
        },
        {
          "internalType": "uint96",
          "name": "totalAppRewards",
          "type": "uint96"
        },
        {
          "internalType": "uint96",
          "name": "totalUserRewards",
          "type": "uint96"
        },
        {
          "internalType": "uint96",
          "name": "totalInviterRewards",
          "type": "uint96"
        }
      ],
      "stateMutability": "view",
      "type": "function"
    },
    {
      "inputs": [
        {
          "internalType": "address",
          "name": "app",
          "type": "address"
        },
        {
          "internalType": "address",
          "name": "user",
          "type": "address"
        }
      ],
      "name": "canClaim",
      "outputs": [
        {
          "internalType": "bool",
          "name": "",
          "type": "bool"
        }
      ],
      "stateMutability": "view",
      "type": "function"
    },
    {
      "inputs": [],
      "name": "eip712Domain",
      "outputs": [
        {
          "internalType": "bytes1",
          "name": "fields",
          "type": "bytes1"
        },
        {
          "internalType": "string",
          "name": "name",
          "type": "string"
        },
        {
          "internalType": "string",
          "name": "version",
          "type": "string"
        },
        {
          "internalType": "uint256",
          "name": "chainId",
          "type": "uint256"
        },
        {
          "internalType": "address",
          "name": "verifyingContract",
          "type": "address"
        },
        {
          "internalType": "bytes32",
          "name": "salt",
          "type": "bytes32"
        },
        {
          "internalType": "uint256[]",
          "name": "extensions",
          "type": "uint256[]"
        }
      ],
      "stateMutability": "view",
      "type": "function"
    },
    {
      "inputs": [],
      "name": "getDomainSeparator",
      "outputs": [
        {
          "internalType": "bytes32",
          "name": "",
          "type": "bytes32"
        }
      ],
      "stateMutability": "view",
      "type": "function"
    },
    {
      "inputs": [
        {
          "internalType": "bytes32",
          "name": "role",
          "type": "bytes32"
        }
      ],
      "name": "getRoleAdmin",
      "outputs": [
        {
          "internalType": "bytes32",
          "name": "",
          "type": "bytes32"
        }
      ],
      "stateMutability": "view",
      "type": "function"
    },
    {
      "inputs": [
        {
          "internalType": "address",
          "name": "user",
          "type": "address"
        }
      ],
      "name": "getUserPeriodStats",
      "outputs": [
        {
          "internalType": "uint8",
          "name": "appsClaimedThisPeriod",
          "type": "uint8"
        },
        {
          "internalType": "uint32",
          "name": "periodStartTimestamp",
          "type": "uint32"
        }
      ],
      "stateMutability": "view",
      "type": "function"
    },
    {
      "inputs": [
        {
          "internalType": "bytes32",
          "name": "role",
          "type": "bytes32"
        },
        {
          "internalType": "address",
          "name": "account",
          "type": "address"
        }
      ],
      "name": "grantRole",
      "outputs": [],
      "stateMutability": "nonpayable",
      "type": "function"
    },
    {
      "inputs": [
        {
          "internalType": "bytes32",
          "name": "role",
          "type": "bytes32"
        },
        {
          "internalType": "address",
          "name": "account",
          "type": "address"
        }
      ],
      "name": "hasRole",
      "outputs": [
        {
          "internalType": "bool",
          "name": "",
          "type": "bool"
        }
      ],
      "stateMutability": "view",
      "type": "function"
    },
    {
      "inputs": [],
      "name": "identityContract",
      "outputs": [
        {
          "internalType": "contract IIdentity",
          "name": "",
          "type": "address"
        }
      ],
      "stateMutability": "view",
      "type": "function"
    },
    {
      "inputs": [
        {
          "internalType": "contract IERC20",
          "name": "_rewardToken",
          "type": "address"
        },
        {
          "internalType": "contract IIdentity",
          "name": "_identityContract",
          "type": "address"
        },
        {
          "internalType": "uint256",
          "name": "_maxRewardsPerApp",
          "type": "uint256"
        },
        {
          "internalType": "uint256",
          "name": "_rewardAmount",
          "type": "uint256"
        }
      ],
      "name": "initialize",
      "outputs": [],
      "stateMutability": "nonpayable",
      "type": "function"
    },
    {
      "inputs": [],
      "name": "maxAppsPerUser",
      "outputs": [
        {
          "internalType": "uint8",
          "name": "",
          "type": "uint8"
        }
      ],
      "stateMutability": "view",
      "type": "function"
    },
    {
      "inputs": [],
      "name": "maxRewardsPerApp",
      "outputs": [
        {
          "internalType": "uint96",
          "name": "",
          "type": "uint96"
        }
      ],
      "stateMutability": "view",
      "type": "function"
    },
    {
      "inputs": [
        {
          "internalType": "address",
          "name": "app",
          "type": "address"
        },
        {
          "internalType": "address",
          "name": "inviter",
          "type": "address"
        },
        {
          "internalType": "uint256",
          "name": "validUntilBlock",
          "type": "uint256"
        },
        {
          "internalType": "bytes",
          "name": "userSignature",
          "type": "bytes"
        },
        {
          "internalType": "bytes",
          "name": "appSignature",
          "type": "bytes"
        }
      ],
      "name": "nonContractAppClaim",
      "outputs": [
        {
          "internalType": "bool",
          "name": "",
          "type": "bool"
        }
      ],
      "stateMutability": "nonpayable",
      "type": "function"
    },
    {
      "inputs": [],
      "name": "proxiableUUID",
      "outputs": [
        {
          "internalType": "bytes32",
          "name": "",
          "type": "bytes32"
        }
      ],
      "stateMutability": "view",
      "type": "function"
    },
    {
      "inputs": [
        {
          "internalType": "address",
          "name": "",
          "type": "address"
        }
      ],
      "name": "registeredApps",
      "outputs": [
        {
          "internalType": "address",
          "name": "owner",
          "type": "address"
        },
        {
          "internalType": "address",
          "name": "rewardReceiver",
          "type": "address"
        },
        {
          "internalType": "uint96",
          "name": "totalRewardsClaimed",
          "type": "uint96"
        },
        {
          "internalType": "uint32",
          "name": "registeredAt",
          "type": "uint32"
        },
        {
          "internalType": "uint32",
          "name": "lastResetAt",
          "type": "uint32"
        },
        {
          "internalType": "uint8",
          "name": "userAndInviterPercentage",
          "type": "uint8"
        },
        {
          "internalType": "uint8",
          "name": "userPercentage",
          "type": "uint8"
        },
        {
          "internalType": "bool",
          "name": "isRegistered",
          "type": "bool"
        },
        {
          "internalType": "bool",
          "name": "isApproved",
          "type": "bool"
        },
        {
          "internalType": "string",
          "name": "description",
          "type": "string"
        },
        {
          "internalType": "string",
          "name": "url",
          "type": "string"
        },
        {
          "internalType": "string",
          "name": "email",
          "type": "string"
        }
      ],
      "stateMutability": "view",
      "type": "function"
    },
    {
      "inputs": [
        {
          "internalType": "bytes32",
          "name": "role",
          "type": "bytes32"
        },
        {
          "internalType": "address",
          "name": "callerConfirmation",
          "type": "address"
        }
      ],
      "name": "renounceRole",
      "outputs": [],
      "stateMutability": "nonpayable",
      "type": "function"
    },
    {
      "inputs": [
        {
          "internalType": "bytes32",
          "name": "role",
          "type": "bytes32"
        },
        {
          "internalType": "address",
          "name": "account",
          "type": "address"
        }
      ],
      "name": "revokeRole",
      "outputs": [],
      "stateMutability": "nonpayable",
      "type": "function"
    },
    {
      "inputs": [],
      "name": "rewardAmount",
      "outputs": [
        {
          "internalType": "uint96",
          "name": "",
          "type": "uint96"
        }
      ],
      "stateMutability": "view",
      "type": "function"
    },
    {
      "inputs": [],
      "name": "rewardToken",
      "outputs": [
        {
          "internalType": "contract IERC20",
          "name": "",
          "type": "address"
        }
      ],
      "stateMutability": "view",
      "type": "function"
    },
    {
      "inputs": [
        {
          "internalType": "uint8",
          "name": "_maxAppsPerUser",
          "type": "uint8"
        }
      ],
      "name": "setMaxAppsPerUser",
      "outputs": [],
      "stateMutability": "nonpayable",
      "type": "function"
    },
    {
      "inputs": [
        {
          "internalType": "uint256",
          "name": "_maxRewardsPerApp",
          "type": "uint256"
        }
      ],
      "name": "setMaxRewardsPerApp",
      "outputs": [],
      "stateMutability": "nonpayable",
      "type": "function"
    },
    {
      "inputs": [
        {
          "internalType": "uint256",
          "name": "_rewardAmount",
          "type": "uint256"
        }
      ],
      "name": "setRewardAmount",
      "outputs": [],
      "stateMutability": "nonpayable",
      "type": "function"
    },
    {
      "inputs": [
        {
          "internalType": "bytes4",
          "name": "interfaceId",
          "type": "bytes4"
        }
      ],
      "name": "supportsInterface",
      "outputs": [
        {
          "internalType": "bool",
          "name": "",
          "type": "bool"
        }
      ],
      "stateMutability": "view",
      "type": "function"
    },
    {
      "inputs": [
        {
          "internalType": "address",
          "name": "app",
          "type": "address"
        },
        {
          "internalType": "address",
          "name": "rewardReceiver",
          "type": "address"
        },
        {
          "internalType": "uint8",
          "name": "userAndInviterPercentage",
          "type": "uint8"
        },
        {
          "internalType": "uint8",
          "name": "userPercentage",
          "type": "uint8"
        }
      ],
      "name": "updateAppSettings",
      "outputs": [],
      "stateMutability": "nonpayable",
      "type": "function"
    },
    {
      "inputs": [
        {
          "internalType": "address",
          "name": "newImplementation",
          "type": "address"
        },
        {
          "internalType": "bytes",
          "name": "data",
          "type": "bytes"
        }
      ],
      "name": "upgradeToAndCall",
      "outputs": [],
      "stateMutability": "payable",
      "type": "function"
    },
    {
      "inputs": [
        {
          "internalType": "address",
          "name": "",
          "type": "address"
        }
      ],
      "name": "userPeriodClaims",
      "outputs": [
        {
          "internalType": "uint8",
          "name": "periodClaims",
          "type": "uint8"
        },
        {
          "internalType": "uint32",
          "name": "lastClaimTimestamp",
          "type": "uint32"
        }
      ],
      "stateMutability": "view",
      "type": "function"
    },
    {
      "inputs": [
        {
          "internalType": "address",
          "name": "",
          "type": "address"
        },
        {
          "internalType": "address",
          "name": "",
          "type": "address"
        }
      ],
      "name": "userRegistrations",
      "outputs": [
        {
          "internalType": "uint32",
          "name": "isRegistered",
          "type": "uint32"
        },
        {
          "internalType": "uint32",
          "name": "lastClaimTimestamp",
          "type": "uint32"
        }
      ],
      "stateMutability": "view",
      "type": "function"
    }
  ],
  "bytecode": "0x60c06040523060805234801561001457600080fd5b50604051613f36380380613f36833981016040819052610033916100f9565b80151560a052610041610047565b50610122565b7ff0c57e16840df040f15088dc2f81fe391c3923bec73e23a9662efc9c229c6a00805468010000000000000000900460ff16156100975760405163f92ee8a960e01b815260040160405180910390fd5b80546001600160401b03908116146100f65780546001600160401b0319166001600160401b0390811782556040519081527fc7f505b2f371ae2175ee4913f4499e1f2633a7b5936321eed1cdaeb6115181d29060200160405180910390a15b50565b60006020828403121561010b57600080fd5b8151801515811461011b57600080fd5b9392505050565b60805160a051613dda61015c600039600081816104460152611a7f0152600081816120f20152818161211b01526122580152613dda6000f3fe6080604052600436106101c05760003560e01c806301ffc9a7146101c557806309e26362146101fa5780630f62d89214610232578063248a9ca3146102525780632f2ff15d1461028057806336568abe146102a257806337c909ec146102c257806349eb67f8146102d95780634f1ef286146102f957806352d1902d1461030c578063567e38e31461032157806356e62e641461033957806367031bae1461035b5780636b0509b11461038857806375b238fc146103aa57806384b0196e146103cc57806391d14854146103f45780639201db08146104145780639420f4a9146104345780639dd96d4714610468578063a217fddf146104ef578063a617e65314610504578063a6c4cce914610524578063a8a65a781461055c578063abe3bfef1461057c578063ad3cb1cc1461059c578063b9ca9ea5146105da578063cc733fe9146105fa578063d547741f14610638578063d68a776e14610658578063d7bac3dc14610695578063daea85c5146106b5578063e4e5bc7a146106d5578063eb990c59146106f5578063ed24911d14610715578063f7b2a7be1461072a578063f7c618c114610751578063f8b68aa214610771578063fe7bf9b2146107d7575b600080fd5b3480156101d157600080fd5b506101e56101e036600461321d565b61080a565b60405190151581526020015b60405180910390f35b34801561020657600080fd5b5060025461021a906001600160601b031681565b6040516001600160601b0390911681526020016101f1565b34801561023e57600080fd5b506101e561024d366004613316565b610841565b34801561025e57600080fd5b5061027261026d366004613393565b6108aa565b6040519081526020016101f1565b34801561028c57600080fd5b506102a061029b3660046133ac565b6108ca565b005b3480156102ae57600080fd5b506102a06102bd3660046133ac565b6108ec565b3480156102ce57600080fd5b5061027262ed4e0081565b3480156102e557600080fd5b506102a06102f43660046133ed565b610924565b6102a0610307366004613445565b610ab9565b34801561031857600080fd5b50610272610ad8565b34801561032d57600080fd5b506102726301e1338081565b34801561034557600080fd5b50610272600080516020613d2583398151915281565b34801561036757600080fd5b5060015461037b906001600160a01b031681565b6040516101f19190613494565b34801561039457600080fd5b50610272600080516020613d6583398151915281565b3480156103b657600080fd5b50610272600080516020613d8583398151915281565b3480156103d857600080fd5b506103e1610af5565b6040516101f197969594939291906134f8565b34801561040057600080fd5b506101e561040f3660046133ac565b610b9e565b34801561042057600080fd5b506102a061042f366004613393565b610bd4565b34801561044057600080fd5b506101e57f000000000000000000000000000000000000000000000000000000000000000081565b34801561047457600080fd5b506104bc610483366004613590565b600460205260009081526040902080546001909101546001600160601b0380831692600160601b90819004821692808316929190041684565b604080516001600160601b03958616815293851660208501529184169183019190915290911660608201526080016101f1565b3480156104fb57600080fd5b50610272600081565b34801561051057600080fd5b506101e561051f3660046135ad565b610c0f565b34801561053057600080fd5b5061054461053f366004613590565b6110f3565b6040516101f19c9b9a999897969594939291906135db565b34801561056857600080fd5b506102a0610577366004613393565b611321565b34801561058857600080fd5b506101e561059736600461368d565b611395565b3480156105a857600080fd5b506105cd604051806040016040528060058152602001640352e302e360dc1b81525081565b6040516101f19190613723565b3480156105e657600080fd5b506102a06105f5366004613736565b611403565b34801561060657600080fd5b5061061a610615366004613590565b611916565b6040805160ff909316835263ffffffff9091166020830152016101f1565b34801561064457600080fd5b506102a06106533660046133ac565b611977565b34801561066457600080fd5b5061061a610673366004613590565b60066020526000908152604090205460ff811690610100900463ffffffff1682565b3480156106a157600080fd5b506102a06106b03660046137fe565b611993565b3480156106c157600080fd5b506102a06106d0366004613590565b611a5c565b3480156106e157600080fd5b506101e56106f0366004613819565b611bc4565b34801561070157600080fd5b506102a0610710366004613884565b611be1565b34801561072157600080fd5b50610272611e0d565b34801561073657600080fd5b5060025461021a90600160601b90046001600160601b031681565b34801561075d57600080fd5b5060005461037b906001600160a01b031681565b34801561077d57600080fd5b506107ba61078c3660046135ad565b600560209081526000928352604080842090915290825290205463ffffffff80821691600160201b90041682565b6040805163ffffffff9384168152929091166020830152016101f1565b3480156107e357600080fd5b506001546107f890600160a01b900460ff1681565b60405160ff90911681526020016101f1565b60006001600160e01b03198216637965db0b60e01b148061083b57506301ffc9a760e01b6001600160e01b03198316145b92915050565b6000606483111561086d5760405162461bcd60e51b8152600401610864906138ca565b60405180910390fd5b606482111561088e5760405162461bcd60e51b8152600401610864906138ff565b61089f873388888888886001611e1c565b979650505050505050565b6000806108b5611f96565b60009384526020525050604090206001015490565b6108d3826108aa565b6108dc81611fba565b6108e68383611fc7565b50505050565b6001600160a01b03811633146109155760405163334bd91960e11b815260040160405180910390fd5b61091f828261206f565b505050565b6001600160a01b03831661094a5760405162461bcd60e51b81526004016108649061392f565b6001600160a01b038416600090815260036020526040902060020154600160501b900460ff1661098c5760405162461bcd60e51b815260040161086490613961565b6001600160a01b038481166000908152600360205260409020541633146109c55760405162461bcd60e51b81526004016108649061398d565b60648260ff1611156109e95760405162461bcd60e51b8152600401610864906138ca565b60648160ff161115610a0d5760405162461bcd60e51b8152600401610864906138ff565b6001600160a01b038481166000818152600360209081526040918290206001810180546001600160a01b031916958916959095179094556002909301805461ffff60401b1916600160401b60ff88811691820260ff60481b191692909217600160481b9288169283021790925582519182529381019390935290917f817dcd9d9a3f9ee6dbc0878d11d70ae3a2a31c7398c4169b9796de7fbf2a61a6910160405180910390a250505050565b610ac16120e7565b610aca8261218e565b610ad48282612199565b5050565b6000610ae261224d565b50600080516020613d4583398151915290565b6000606080600080600060606000610b0b612296565b8054909150158015610b1f57506001810154155b610b635760405162461bcd60e51b81526020600482015260156024820152741152540dcc4c8e88155b9a5b9a5d1a585b1a5e9959605a1b6044820152606401610864565b610b6b6122ba565b610b7361235b565b60408051600080825260208201909252600f60f81b9c939b5091995046985030975095509350915050565b600080610ba9611f96565b6000948552602090815260408086206001600160a01b03959095168652939052505090205460ff1690565b600080516020613d85833981519152610bec81611fba565b50600280546001600160601b0319166001600160601b0392909216919091179055565b6001600160a01b038281166000908152600560209081526040808320938516835292905290812054600160201b900463ffffffff16610c5162ed4e00826139ca565b421015610c9d5760405162461bcd60e51b815260206004820152601a60248201527910db185a5b4818dbdbdb191bdddb881b9bdd081c995858da195960321b6044820152606401610864565b6001600160a01b038316610cea5760405162461bcd60e51b8152602060048201526014602482015273496e76616c69642075736572206164647265737360601b6044820152606401610864565b6001600160a01b038085166000908152600360209081526040808320600201546005835281842094881684529390915290205463ffffffff91821691161015610d735760405162461bcd60e51b815260206004820152601b60248201527a055736572206e6f74207265676973746572656420666f722061707602c1b6044820152606401610864565b600254600160601b90046001600160601b0316610de25760405162461bcd60e51b815260206004820152602760248201527f52657761726420616d6f756e74206d7573742062652067726561746572207468604482015266616e207a65726f60c81b6064820152608401610864565b6002546000546040516370a0823160e01b8152600160601b9092046001600160601b0316916001600160a01b03909116906370a0823190610e27903090600401613494565b602060405180830381865afa158015610e44573d6000803e3d6000fd5b505050506040513d601f19601f82011682018060405250810190610e6891906139dd565b1015610ec05760405162461bcd60e51b815260206004820152602160248201527f496e73756666696369656e742072657761726420746f6b656e2062616c616e636044820152606560f81b6064820152608401610864565b6001600160a01b038085166000908152600360209081526040808320938716835260069091529020600154815460ff600160a01b909204821691161080610f2157508054610f1d9062ed4e0090610100900463ffffffff166139ca565b4210155b610f6b5760405162461bcd60e51b815260206004820152601b60248201527a13585e08185c1c1cc81c195c881c195c9a5bd9081c995858da1959602a1b6044820152606401610864565b6002820154600160501b900460ff168015610f9157506002820154600160581b900460ff165b610fdd5760405162461bcd60e51b815260206004820152601e60248201527f417070206e6f7420617070726f766564206f72207265676973746572656400006044820152606401610864565b60028201544290610ff9906301e133809063ffffffff166139ca565b116110415760405162461bcd60e51b8152602060048201526018602482015277105c1c081c9959da5cdd1c985d1a5bdb88195e1c1a5c995960421b6044820152606401610864565b60028201546110619062ed4e0090600160201b900463ffffffff166139ca565b421015806110a7575060025460018301546001600160601b038083169261109b92600160601b909104821691600160a01b909104166139f6565b6001600160601b031611155b6110e75760405162461bcd60e51b8152602060048201526011602482015270417070206d61786564207265776172647360781b6044820152606401610864565b50600195945050505050565b600360208190526000918252604090912080546001820154600283015493830180546001600160a01b039384169593831694600160a01b9093046001600160601b03169363ffffffff80821694600160201b830490911693600160401b830460ff90811694600160481b8504821694600160501b8104831694600160581b909104909216929061118290613a15565b80601f01602080910402602001604051908101604052809291908181526020018280546111ae90613a15565b80156111fb5780601f106111d0576101008083540402835291602001916111fb565b820191906000526020600020905b8154815290600101906020018083116111de57829003601f168201915b50505050509080600401805461121090613a15565b80601f016020809104026020016040519081016040528092919081815260200182805461123c90613a15565b80156112895780601f1061125e57610100808354040283529160200191611289565b820191906000526020600020905b81548152906001019060200180831161126c57829003601f168201915b50505050509080600501805461129e90613a15565b80601f01602080910402602001604051908101604052809291908181526020018280546112ca90613a15565b80156113175780601f106112ec57610100808354040283529160200191611317565b820191906000526020600020905b8154815290600101906020018083116112fa57829003601f168201915b505050505090508c565b600080516020613d8583398151915261133981611fba565b60028054600160601b600160c01b031916600160601b6001600160601b038516021790556040518281527f9639dea65e74b72b1b86ccf3e4f9b6d23b88d2aad2f103d0b3afe394e67edade906020015b60405180910390a15050565b60006113a386338685612378565b6113e75760405162461bcd60e51b8152602060048201526015602482015274496e76616c696420617070207369676e617475726560581b6044820152606401610864565b6113f933878787876000806000611e1c565b9695505050505050565b6001600160a01b0387166114295760405162461bcd60e51b81526004016108649061392f565b6001600160a01b03861661144f5760405162461bcd60e51b81526004016108649061392f565b60648511156114705760405162461bcd60e51b8152600401610864906138ca565b60648411156114915760405162461bcd60e51b8152600401610864906138ff565b6102008351111580156114a657506032835110155b6114e85760405162461bcd60e51b815260206004820152601360248201527224b73b30b634b2103232b9b1b934b83a34b7b760691b6044820152606401610864565b600082511180156114fb575060ff825111155b6115355760405162461bcd60e51b815260206004820152600b60248201526a125b9d985b1a590815549360aa1b6044820152606401610864565b60008151118015611548575060ff815111155b6115845760405162461bcd60e51b815260206004820152600d60248201526c125b9d985b1a5908195b585a5b609a1b6044820152606401610864565b6001600160a01b03808816600090815260036020526040902080549091161561166e5780546001600160a01b031633146115d05760405162461bcd60e51b81526004016108649061398d565b6002810180546001830180546001600160a01b0319166001600160a01b038b1617905563ff00ffff60401b1916600160401b60ff8981169190910260ff60481b191691909117600160481b91881691909102179055600381016116338582613a9d565b50600481016116428482613a9d565b50600581016116518382613a9d565b5060028101805463ffffffff19164263ffffffff161790556118b7565b604051806101800160405280336001600160a01b03168152602001886001600160a01b0316815260200160006001600160601b031681526020014263ffffffff1681526020014263ffffffff1681526020018760ff1681526020018660ff16815260200160011515815260200160001515815260200185815260200184815260200183815250600360008a6001600160a01b03166001600160a01b0316815260200190815260200160002060008201518160000160006101000a8154816001600160a01b0302191690836001600160a01b0316021790555060208201518160010160006101000a8154816001600160a01b0302191690836001600160a01b0316021790555060408201518160010160146101000a8154816001600160601b0302191690836001600160601b0316021790555060608201518160020160006101000a81548163ffffffff021916908363ffffffff16021790555060808201518160020160046101000a81548163ffffffff021916908363ffffffff16021790555060a08201518160020160086101000a81548160ff021916908360ff16021790555060c08201518160020160096101000a81548160ff021916908360ff16021790555060e082015181600201600a6101000a81548160ff02191690831515021790555061010082015181600201600b6101000a81548160ff0219169083151502179055506101208201518160030190816118879190613a9d565b50610140820151600482019061189d9082613a9d565b5061016082015160058201906118b39082613a9d565b5050505b336001600160a01b0316886001600160a01b03167fc025612b0e32541c90be0a3ac84ee4a13a456d5520a7da1b3c1c0f6e821ba59d89898989898960405161190496959493929190613b5b565b60405180910390a35050505050505050565b6001600160a01b0381166000908152600660205260408120805482919061194c9062ed4e0090610100900463ffffffff166139ca565b421061195e5750600093429350915050565b5460ff81169461010090910463ffffffff169350915050565b611980826108aa565b61198981611fba565b6108e6838361206f565b600080516020613d858339815191526119ab81611fba565b60008260ff1611611a0e5760405162461bcd60e51b815260206004820152602760248201527f52657761726473207065722075736572206d75737420626520677265617465726044820152660207468616e20360cc1b6064820152608401610864565b6001805460ff60a01b1916600160a01b60ff8516908102919091179091556040519081527fbb1c987d41b58fea76843b44edae6b324dcf334d1070a3c8c7896c7f59f75a8190602001611389565b600080516020613d85833981519152611a758133610b9e565b158015611aa057507f0000000000000000000000000000000000000000000000000000000000000000155b15611ac257338160405163e2517d3f60e01b8152600401610864929190613bbb565b6001600160a01b038216600090815260036020526040902060020154600160501b900460ff16611b045760405162461bcd60e51b815260040161086490613961565b6001600160a01b038216600090815260036020526040902060020154600160581b900460ff1615611b6e5760405162461bcd60e51b8152602060048201526014602482015273105c1c08185b1c9958591e48185c1c1c9bdd995960621b6044820152606401610864565b6001600160a01b038216600081815260036020526040808220600201805460ff60581b1916600160581b179055517f95e9598427a2e62bd5a93d3a083bc0d32989e80c16ad07312a0bb406b53e36919190a25050565b6000611bd885338686866000806000611e1c565b95945050505050565b6000611beb6123e3565b805490915060ff600160401b82041615906001600160401b0316600081158015611c125750825b90506000826001600160401b03166001148015611c2e5750303b155b905081158015611c3c575080155b15611c5a5760405163f92ee8a960e01b815260040160405180910390fd5b84546001600160401b03191660011785558315611c8357845460ff60401b1916600160401b1785555b6001600160a01b038916611ca95760405162461bcd60e51b81526004016108649061392f565b6001600160a01b038816611ccf5760405162461bcd60e51b81526004016108649061392f565b611cd7612407565b611d2560405180604001604052806011815260200170456e676167656d656e745265776172647360781b815250604051806040016040528060038152602001620312e360ec1b81525061240f565b611d2d612407565b600080546001600160a01b03808c166001600160a01b031990921691909117825560018054600280546001600160601b038c8116600160601b026001600160c01b0319909216908e1617179055600360a01b6001600160a81b0319909116928c1692909217919091179055611da29033611fc7565b50611dbb600080516020613d8583398151915233611fc7565b508315611e0257845460ff60401b19168555604051600181527fc7f505b2f371ae2175ee4913f4499e1f2633a7b5936321eed1cdaeb6115181d29060200160405180910390a15b505050505050505050565b6000611e17612421565b905090565b6000611e2661242b565b6001546040516316874da360e11b81526000916001600160a01b031690632d0e9b4690611e57908d90600401613494565b602060405180830381865afa158015611e74573d6000803e3d6000fd5b505050506040513d601f19601f82011682018060405250810190611e989190613bd4565b9050600087118015611eab575060008651115b15611ef657611ebd8a8a8a8a8a612461565b6001600160a01b038981166000908152600560209081526040808320938516835292905220805463ffffffff19164263ffffffff161790555b611f008982610c0f565b611f0e576000915050611f82565b611f188982612688565b6001600160a01b03808a16600090815260036020526040902060018101549091611f7b918c91168d8c88611f5a576002860154600160401b900460ff16611f5c565b8a5b89611f75576002870154600160481b900460ff16612806565b8a612806565b6001925050505b611f8a612bd6565b98975050505050505050565b7f02dd7bc7dec4dceedda775e58dd541e08a116c6c53815c0bd028192f7b62680090565b611fc48133612be7565b50565b600080611fd2611f96565b9050611fde8484610b9e565b61205e576000848152602082815260408083206001600160a01b03871684529091529020805460ff191660011790556120143390565b6001600160a01b0316836001600160a01b0316857f2f8788117e7eff1d82e926ec794901d17c78024a50270940304540a733656f0d60405160405180910390a4600191505061083b565b600091505061083b565b5092915050565b60008061207a611f96565b90506120868484610b9e565b1561205e576000848152602082815260408083206001600160a01b0387168085529252808320805460ff1916905551339287917ff6391f5c32d9c69d2a47ea670b442974b53935d1edc7fd64eb21e047a839171b9190a4600191505061083b565b306001600160a01b037f000000000000000000000000000000000000000000000000000000000000000016148061216e57507f00000000000000000000000000000000000000000000000000000000000000006001600160a01b0316612162600080516020613d45833981519152546001600160a01b031690565b6001600160a01b031614155b1561218c5760405163703e46dd60e11b815260040160405180910390fd5b565b6000610ad481611fba565b816001600160a01b03166352d1902d6040518163ffffffff1660e01b8152600401602060405180830381865afa9250505080156121f3575060408051601f3d908101601f191682019092526121f0918101906139dd565b60015b6122125781604051634c9c8ce360e01b81526004016108649190613494565b600080516020613d45833981519152811461224357604051632a87526960e21b815260048101829052602401610864565b61091f8383612c12565b306001600160a01b037f0000000000000000000000000000000000000000000000000000000000000000161461218c5760405163703e46dd60e11b815260040160405180910390fd5b7fa16a46d94261c7517cc8ff89f61c0ce93598e3c849801011dee649a6a557d10090565b606060006122c6612296565b90508060020180546122d790613a15565b80601f016020809104026020016040519081016040528092919081815260200182805461230390613a15565b80156123505780601f1061232557610100808354040283529160200191612350565b820191906000526020600020905b81548152906001019060200180831161233357829003601f168201915b505050505091505090565b60606000612367612296565b90508060030180546122d790613a15565b60408051600080516020613d258339815191526020808301919091526001600160a01b03878116838501528616606083015260808083018690528351808403909101815260a09092019092528051910120600090816123d682612c68565b905061089f878286612c95565b7ff0c57e16840df040f15088dc2f81fe391c3923bec73e23a9662efc9c229c6a0090565b61218c612d0c565b612417612d0c565b610ad48282612d31565b6000611e17612d72565b6000612435612de6565b80549091506001190161245b57604051633ee5aeb560e01b815260040160405180910390fd5b60029055565b61246c4360326139ca565b8211156124c55760405162461bcd60e51b815260206004820152602160248201527f56616c6964556e74696c426c6f636b20746f6f2066617220696e2066757475726044820152606560f81b6064820152608401610864565b438210156125095760405162461bcd60e51b815260206004820152601160248201527014da59db985d1d5c9948195e1c1a5c9959607a1b6044820152606401610864565b6001600160a01b0384166000908152600360208190526040822001805461252f90613a15565b80601f016020809104026020016040519081016040528092919081815260200182805461255b90613a15565b80156125a85780601f1061257d576101008083540402835291602001916125a8565b820191906000526020600020905b81548152906001019060200180831161258b57829003601f168201915b505050505090506000600080516020613d6583398151915286868685805190602001206040516020016126099594939291909485526001600160a01b0393841660208601529190921660408401526060830191909152608082015260a00190565b604051602081830303815290604052805190602001209050600061262c82612c68565b9050612639888286612c95565b61267e5760405162461bcd60e51b8152602060048201526016602482015275496e76616c69642075736572207369676e617475726560501b6044820152606401610864565b5050505050505050565b6001600160a01b038281166000818152600560209081526040808320948616808452948252808320805463ffffffff60201b1916600160201b4263ffffffff908116820292909217909255948452600383528184209584526006909252909120600284015490926126ff9262ed4e009204166139ca565b4210612737576001820180546001600160a01b0316905560028201805463ffffffff60201b1916600160201b4263ffffffff16021790555b80546127529062ed4e0090610100900463ffffffff166139ca565b421061277157805464ffffffffff19166101004263ffffffff16021781555b8054600190829060009061278990849060ff16613bf1565b92506101000a81548160ff021916908360ff1602179055506002600c9054906101000a90046001600160601b03168260010160148282829054906101000a90046001600160601b03166127dc91906139f6565b92506101000a8154816001600160601b0302191690836001600160601b0316021790555050505050565b60025460009060649061282d9060ff861690600160601b90046001600160601b0316613c0a565b6128379190613c42565b6001600160601b031690506000606461285360ff851684613c71565b61285d9190613c88565b9050600061286b8284613c9c565b60025490915060009061288f908590600160601b90046001600160601b0316613c9c565b90506001600160a01b0387166128ac576128a982826139ca565b90505b6001600160a01b038a166000908152600460205260408120805490916001918391906128e29084906001600160601b03166139f6565b92506101000a8154816001600160601b0302191690836001600160601b031602179055508181600001600c8282829054906101000a90046001600160601b031661292c91906139f6565b92506101000a8154816001600160601b0302191690836001600160601b031602179055508281600101600c8282829054906101000a90046001600160601b031661297691906139f6565b92506101000a8154816001600160601b0302191690836001600160601b03160217905550838160010160008282829054906101000a90046001600160601b03166129c091906139f6565b92506101000a8154816001600160601b0302191690836001600160601b031602179055506000821115612a645760005460405163a9059cbb60e01b81526001600160a01b039091169063a9059cbb90612a1f908d908690600401613bbb565b6020604051808303816000875af1158015612a3e573d6000803e3d6000fd5b505050506040513d601f19601f82011682018060405250810190612a629190613caf565b505b8315612ae15760005460405163a9059cbb60e01b81526001600160a01b039091169063a9059cbb90612a9c908c908890600401613bbb565b6020604051808303816000875af1158015612abb573d6000803e3d6000fd5b505050506040513d601f19601f82011682018060405250810190612adf9190613caf565b505b6001600160a01b03881615801590612af95750600083115b15612b755760005460405163a9059cbb60e01b81526001600160a01b039091169063a9059cbb90612b30908b908790600401613bbb565b6020604051808303816000875af1158015612b4f573d6000803e3d6000fd5b505050506040513d601f19601f82011682018060405250810190612b739190613caf565b505b60408051838152602081018690529081018490526001600160a01b03808a16918b8216918e16907f4af0f3bbba19bd2ae80915d3dcbc4b38837833848ce3b3cd23d9043235865a369060600160405180910390a45050505050505050505050565b6000612be0612de6565b6001905550565b612bf18282610b9e565b610ad457808260405163e2517d3f60e01b8152600401610864929190613bbb565b612c1b82612e0a565b6040516001600160a01b038316907fbc7cd75a20ee27fd9adebab32041f755214dbc6bffa90cc0225b39da2e5c2d3b90600090a2805115612c605761091f8282612e66565b610ad4612ed3565b600061083b612c75612421565b8360405161190160f01b8152600281019290925260228201526042902090565b6000836001600160a01b03163b600003612cf757600080612cb68585612ef2565b5090925090506000816003811115612cd057612cd0613cd1565b148015612cee5750856001600160a01b0316826001600160a01b0316145b92505050612d05565b612d02848484612f3f565b90505b9392505050565b612d1461301a565b61218c57604051631afcd79f60e31b815260040160405180910390fd5b612d39612d0c565b6000612d43612296565b905060028101612d538482613a9d565b5060038101612d628382613a9d565b5060008082556001909101555050565b60007f8b73c3c69bb8fe3d512ecc4cf759cc79239f7b179b0ffacaa9a75d522b39400f612d9d613034565b612da561309b565b60408051602081019490945283019190915260608201524660808201523060a082015260c00160405160208183030381529060405280519060200120905090565b7f9b779b17422d0df92223018b32b4d1fa46e071723d6817e2486d003becc55f0090565b806001600160a01b03163b600003612e375780604051634c9c8ce360e01b81526004016108649190613494565b600080516020613d4583398151915280546001600160a01b0319166001600160a01b0392909216919091179055565b6060600080846001600160a01b031684604051612e839190613ce7565b600060405180830381855af49150503d8060008114612ebe576040519150601f19603f3d011682016040523d82523d6000602084013e612ec3565b606091505b5091509150611bd88583836130dc565b341561218c5760405163b398979f60e01b815260040160405180910390fd5b60008060008351604103612f2c5760208401516040850151606086015160001a612f1e8882858561312f565b955095509550505050612f38565b50508151600091506002905b9250925092565b6000806000856001600160a01b03168585604051602401612f61929190613d03565b60408051601f198184030181529181526020820180516001600160e01b0316630b135d3f60e11b17905251612f969190613ce7565b600060405180830381855afa9150503d8060008114612fd1576040519150601f19603f3d011682016040523d82523d6000602084013e612fd6565b606091505b5091509150818015612fea57506020815110155b80156113f957508051630b135d3f60e11b9061300f90830160209081019084016139dd565b149695505050505050565b60006130246123e3565b54600160401b900460ff16919050565b60008061303f612296565b9050600061304b6122ba565b80519091501561306357805160209091012092915050565b81548015613072579392505050565b7fc5d2460186f7233c927e7db2dcc703c0e500b653ca82273b7bfad8045d85a470935050505090565b6000806130a6612296565b905060006130b261235b565b8051909150156130ca57805160209091012092915050565b60018201548015613072579392505050565b6060826130f1576130ec826131f4565b612d05565b815115801561310857506001600160a01b0384163b155b156131285783604051639996b31560e01b81526004016108649190613494565b5080612d05565b600080806fa2a8918ca85bafe22016d0b997e4df60600160ff1b0384111561316057506000915060039050826131ea565b604080516000808252602082018084528a905260ff891692820192909252606081018790526080810186905260019060a0016020604051602081039080840390855afa1580156131b4573d6000803e3d6000fd5b5050604051601f1901519150506001600160a01b0381166131e0575060009250600191508290506131ea565b9250600091508190505b9450945094915050565b8051156132045780518082602001fd5b60405163d6bda27560e01b815260040160405180910390fd5b60006020828403121561322f57600080fd5b81356001600160e01b031981168114612d0557600080fd5b6001600160a01b0381168114611fc457600080fd5b803561326781613247565b919050565b634e487b7160e01b600052604160045260246000fd5b600082601f83011261329357600080fd5b8135602083016000806001600160401b038411156132b3576132b361326c565b50604051601f19601f85018116603f011681018181106001600160401b03821117156132e1576132e161326c565b6040528381529050808284018710156132f957600080fd5b838360208301376000602085830101528094505050505092915050565b60008060008060008060c0878903121561332f57600080fd5b863561333a81613247565b9550602087013561334a81613247565b94506040870135935060608701356001600160401b0381111561336c57600080fd5b61337889828a01613282565b9699959850939660808101359560a090910135945092505050565b6000602082840312156133a557600080fd5b5035919050565b600080604083850312156133bf57600080fd5b8235915060208301356133d181613247565b809150509250929050565b803560ff8116811461326757600080fd5b6000806000806080858703121561340357600080fd5b843561340e81613247565b9350602085013561341e81613247565b925061342c604086016133dc565b915061343a606086016133dc565b905092959194509250565b6000806040838503121561345857600080fd5b823561346381613247565b915060208301356001600160401b0381111561347e57600080fd5b61348a85828601613282565b9150509250929050565b6001600160a01b0391909116815260200190565b60005b838110156134c35781810151838201526020016134ab565b50506000910152565b600081518084526134e48160208601602086016134a8565b601f01601f19169290920160200192915050565b60ff60f81b8816815260e06020820152600061351760e08301896134cc565b828103604084015261352981896134cc565b606084018890526001600160a01b038716608085015260a0840186905283810360c08501528451808252602080870193509091019060005b8181101561357f578351835260209384019390920191600101613561565b50909b9a5050505050505050505050565b6000602082840312156135a257600080fd5b8135612d0581613247565b600080604083850312156135c057600080fd5b82356135cb81613247565b915060208301356133d181613247565b6001600160a01b038d811682528c1660208201526001600160601b038b16604082015263ffffffff8a16606082015263ffffffff8916608082015260ff881660a082015260ff871660c082015285151560e082015284151561010082015261018061012082015260006136526101808301866134cc565b82810361014084015261366581866134cc565b905082810361016084015261367a81856134cc565b9f9e505050505050505050505050505050565b600080600080600060a086880312156136a557600080fd5b85356136b081613247565b945060208601356136c081613247565b93506040860135925060608601356001600160401b038111156136e257600080fd5b6136ee88828901613282565b92505060808601356001600160401b0381111561370a57600080fd5b61371688828901613282565b9150509295509295909350565b602081526000612d0560208301846134cc565b600080600080600080600060e0888a03121561375157600080fd5b873561375c81613247565b965061376a6020890161325c565b9550604088013594506060880135935060808801356001600160401b0381111561379357600080fd5b61379f8a828b01613282565b93505060a08801356001600160401b038111156137bb57600080fd5b6137c78a828b01613282565b92505060c08801356001600160401b038111156137e357600080fd5b6137ef8a828b01613282565b91505092959891949750929550565b60006020828403121561381057600080fd5b612d05826133dc565b6000806000806080858703121561382f57600080fd5b843561383a81613247565b9350602085013561384a81613247565b92506040850135915060608501356001600160401b0381111561386c57600080fd5b61387887828801613282565b91505092959194509250565b6000806000806080858703121561389a57600080fd5b84356138a581613247565b935060208501356138b581613247565b93969395505050506040820135916060013590565b6020808252818101527f496e76616c69642075736572416e64496e766974657250657263656e74616765604082015260600190565b602080825260169082015275496e76616c6964207573657250657263656e7461676560501b604082015260600190565b60208082526018908201527716995c9bc81859191c995cdcc81b9bdd08185b1b1bddd95960421b604082015260600190565b602080825260129082015271105c1c081b9bdd081c9959da5cdd195c995960721b604082015260600190565b6020808252600d908201526c2737ba1030b8381037bbb732b960991b604082015260600190565b634e487b7160e01b600052601160045260246000fd5b8082018082111561083b5761083b6139b4565b6000602082840312156139ef57600080fd5b5051919050565b6001600160601b03818116838216019081111561083b5761083b6139b4565b600181811c90821680613a2957607f821691505b602082108103613a4957634e487b7160e01b600052602260045260246000fd5b50919050565b601f82111561091f57806000526020600020601f840160051c81016020851015613a765750805b601f840160051c820191505b81811015613a965760008155600101613a82565b5050505050565b81516001600160401b03811115613ab657613ab661326c565b613aca81613ac48454613a15565b84613a4f565b6020601f821160018114613afe5760008315613ae65750848201515b600019600385901b1c1916600184901b178455613a96565b600084815260208120601f198516915b82811015613b2e5787850151825560209485019460019092019101613b0e565b5084821015613b4c5786840151600019600387901b60f8161c191681555b50505050600190811b01905550565b60018060a01b038716815285602082015284604082015260c060608201526000613b8860c08301866134cc565b8281036080840152613b9a81866134cc565b905082810360a0840152613bae81856134cc565b9998505050505050505050565b6001600160a01b03929092168252602082015260400190565b600060208284031215613be657600080fd5b8151612d0581613247565b60ff818116838216019081111561083b5761083b6139b4565b6001600160601b038181168382160290811690818114612068576120686139b4565b634e487b7160e01b600052601260045260246000fd5b60006001600160601b03831680613c5b57613c5b613c2c565b6001600160601b03929092169190910492915050565b808202811582820484141761083b5761083b6139b4565b600082613c9757613c97613c2c565b500490565b8181038181111561083b5761083b6139b4565b600060208284031215613cc157600080fd5b81518015158114612d0557600080fd5b634e487b7160e01b600052602160045260246000fd5b60008251613cf98184602087016134a8565b9190910192915050565b828152604060208201526000613d1c60408301846134cc565b94935050505056fe3f939797bbee504ef25a922a8408fbdcebc4752f31f0d6c8ea42babea9f5e8dd360894a13ba1a3210667c828492db98dca3e2076cc3735a920a3ca505d382bbccfeeafde86c38dcd27e7f3574225bf6be8c78e4aa28ebc85bc2989e109c15c1ba49807205ce4d355092ef5a8a18f56e8913cf4a201fbe287825b095693c21775a2646970667358221220b6fc26a6cc920257319a626b9cee32eff00151159db0cbba619959eeec7d4ea364736f6c634300081c0033",
  "linkReferences": {},
  "deployedLinkReferences": {}
}