{
  "_format": "hh-sol-artifact-1",
  "contractName": "EngagementRewards",
  "sourceName": "contracts/EngagementRewards.sol",
  "abi": [
    {
      "inputs": [
        {
          "internalType": "bool",
          "name": "_isDevEnv",
          "type": "bool"
        }
      ],
      "stateMutability": "nonpayable",
      "type": "constructor"
    },
    {
      "inputs": [],
      "name": "AccessControlBadConfirmation",
      "type": "error"
    },
    {
      "inputs": [
        {
          "internalType": "address",
          "name": "account",
          "type": "address"
        },
        {
          "internalType": "bytes32",
          "name": "neededRole",
          "type": "bytes32"
        }
      ],
      "name": "AccessControlUnauthorizedAccount",
      "type": "error"
    },
    {
      "inputs": [
        {
          "internalType": "address",
          "name": "target",
          "type": "address"
        }
      ],
      "name": "AddressEmptyCode",
      "type": "error"
    },
    {
      "inputs": [
        {
          "internalType": "address",
          "name": "implementation",
          "type": "address"
        }
      ],
      "name": "ERC1967InvalidImplementation",
      "type": "error"
    },
    {
      "inputs": [],
      "name": "ERC1967NonPayable",
      "type": "error"
    },
    {
      "inputs": [],
      "name": "FailedCall",
      "type": "error"
    },
    {
      "inputs": [],
      "name": "InvalidInitialization",
      "type": "error"
    },
    {
      "inputs": [],
      "name": "NotInitializing",
      "type": "error"
    },
    {
      "inputs": [],
      "name": "ReentrancyGuardReentrantCall",
      "type": "error"
    },
    {
      "inputs": [],
      "name": "UUPSUnauthorizedCallContext",
      "type": "error"
    },
    {
      "inputs": [
        {
          "internalType": "bytes32",
          "name": "slot",
          "type": "bytes32"
        }
      ],
      "name": "UUPSUnsupportedProxiableUUID",
      "type": "error"
    },
    {
      "anonymous": false,
      "inputs": [
        {
          "indexed": true,
          "internalType": "address",
          "name": "app",
          "type": "address"
        },
        {
          "indexed": true,
          "internalType": "address",
          "name": "owner",
          "type": "address"
        },
        {
          "indexed": false,
          "internalType": "address",
          "name": "rewardReceiver",
          "type": "address"
        },
        {
          "indexed": false,
          "internalType": "uint256",
          "name": "userAndInviterPercentage",
          "type": "uint256"
        },
        {
          "indexed": false,
          "internalType": "uint256",
          "name": "userPercentage",
          "type": "uint256"
        },
        {
          "indexed": false,
          "internalType": "string",
          "name": "description",
          "type": "string"
        },
        {
          "indexed": false,
          "internalType": "string",
          "name": "url",
          "type": "string"
        },
        {
          "indexed": false,
          "internalType": "string",
          "name": "email",
          "type": "string"
        }
      ],
      "name": "AppApplied",
      "type": "event"
    },
    {
      "anonymous": false,
      "inputs": [
        {
          "indexed": true,
          "internalType": "address",
          "name": "app",
          "type": "address"
        }
      ],
      "name": "AppApproved",
      "type": "event"
    },
    {
      "anonymous": false,
      "inputs": [
        {
          "indexed": true,
          "internalType": "address",
          "name": "app",
          "type": "address"
        },
        {
          "indexed": false,
          "internalType": "uint256",
          "name": "userAndInviterPercentage",
          "type": "uint256"
        },
        {
          "indexed": false,
          "internalType": "uint256",
          "name": "userPercentage",
          "type": "uint256"
        }
      ],
      "name": "AppSettingsUpdated",
      "type": "event"
    },
    {
      "anonymous": false,
      "inputs": [],
      "name": "EIP712DomainChanged",
      "type": "event"
    },
    {
      "anonymous": false,
      "inputs": [
        {
          "indexed": false,
          "internalType": "uint64",
          "name": "version",
          "type": "uint64"
        }
      ],
      "name": "Initialized",
      "type": "event"
    },
    {
      "anonymous": false,
      "inputs": [
        {
          "indexed": false,
          "internalType": "uint8",
          "name": "newAmount",
          "type": "uint8"
        }
      ],
      "name": "MaxAppsPerUserUpdated",
      "type": "event"
    },
    {
      "anonymous": false,
      "inputs": [
        {
          "indexed": false,
          "internalType": "uint256",
          "name": "newAmount",
          "type": "uint256"
        }
      ],
      "name": "RewardAmountUpdated",
      "type": "event"
    },
    {
      "anonymous": false,
      "inputs": [
        {
          "indexed": true,
          "internalType": "address",
          "name": "app",
          "type": "address"
        },
        {
          "indexed": true,
          "internalType": "address",
          "name": "user",
          "type": "address"
        },
        {
          "indexed": true,
          "internalType": "address",
          "name": "inviter",
          "type": "address"
        },
        {
          "indexed": false,
          "internalType": "uint256",
          "name": "appReward",
          "type": "uint256"
        },
        {
          "indexed": false,
          "internalType": "uint256",
          "name": "userAmount",
          "type": "uint256"
        },
        {
          "indexed": false,
          "internalType": "uint256",
          "name": "inviterAmount",
          "type": "uint256"
        }
      ],
      "name": "RewardClaimed",
      "type": "event"
    },
    {
      "anonymous": false,
      "inputs": [
        {
          "indexed": true,
          "internalType": "bytes32",
          "name": "role",
          "type": "bytes32"
        },
        {
          "indexed": true,
          "internalType": "bytes32",
          "name": "previousAdminRole",
          "type": "bytes32"
        },
        {
          "indexed": true,
          "internalType": "bytes32",
          "name": "newAdminRole",
          "type": "bytes32"
        }
      ],
      "name": "RoleAdminChanged",
      "type": "event"
    },
    {
      "anonymous": false,
      "inputs": [
        {
          "indexed": true,
          "internalType": "bytes32",
          "name": "role",
          "type": "bytes32"
        },
        {
          "indexed": true,
          "internalType": "address",
          "name": "account",
          "type": "address"
        },
        {
          "indexed": true,
          "internalType": "address",
          "name": "sender",
          "type": "address"
        }
      ],
      "name": "RoleGranted",
      "type": "event"
    },
    {
      "anonymous": false,
      "inputs": [
        {
          "indexed": true,
          "internalType": "bytes32",
          "name": "role",
          "type": "bytes32"
        },
        {
          "indexed": true,
          "internalType": "address",
          "name": "account",
          "type": "address"
        },
        {
          "indexed": true,
          "internalType": "address",
          "name": "sender",
          "type": "address"
        }
      ],
      "name": "RoleRevoked",
      "type": "event"
    },
    {
      "anonymous": false,
      "inputs": [
        {
          "indexed": true,
          "internalType": "address",
          "name": "implementation",
          "type": "address"
        }
      ],
      "name": "Upgraded",
      "type": "event"
    },
    {
      "inputs": [],
      "name": "ADMIN_ROLE",
      "outputs": [
        {
          "internalType": "bytes32",
          "name": "",
          "type": "bytes32"
        }
      ],
      "stateMutability": "view",
      "type": "function"
    },
    {
      "inputs": [],
      "name": "APP_CLAIM_TYPEHASH",
      "outputs": [
        {
          "internalType": "bytes32",
          "name": "",
          "type": "bytes32"
        }
      ],
      "stateMutability": "view",
      "type": "function"
    },
    {
      "inputs": [],
      "name": "APP_EXPIRATION",
      "outputs": [
        {
          "internalType": "uint256",
          "name": "",
          "type": "uint256"
        }
      ],
      "stateMutability": "view",
      "type": "function"
    },
    {
      "inputs": [],
      "name": "CLAIM_COOLDOWN",
      "outputs": [
        {
          "internalType": "uint256",
          "name": "",
          "type": "uint256"
        }
      ],
      "stateMutability": "view",
      "type": "function"
    },
    {
      "inputs": [],
      "name": "CLAIM_TYPEHASH",
      "outputs": [
        {
          "internalType": "bytes32",
          "name": "",
          "type": "bytes32"
        }
      ],
      "stateMutability": "view",
      "type": "function"
    },
    {
      "inputs": [],
      "name": "DEFAULT_ADMIN_ROLE",
      "outputs": [
        {
          "internalType": "bytes32",
          "name": "",
          "type": "bytes32"
        }
      ],
      "stateMutability": "view",
      "type": "function"
    },
    {
      "inputs": [],
      "name": "IS_DEV_ENV",
      "outputs": [
        {
          "internalType": "bool",
          "name": "",
          "type": "bool"
        }
      ],
      "stateMutability": "view",
      "type": "function"
    },
    {
      "inputs": [],
      "name": "UPGRADE_INTERFACE_VERSION",
      "outputs": [
        {
          "internalType": "string",
          "name": "",
          "type": "string"
        }
      ],
      "stateMutability": "view",
      "type": "function"
    },
    {
      "inputs": [
        {
          "internalType": "address",
          "name": "user",
          "type": "address"
        },
        {
          "internalType": "address",
          "name": "inviter",
          "type": "address"
        },
        {
          "internalType": "uint256",
          "name": "validUntilBlock",
          "type": "uint256"
        },
        {
          "internalType": "bytes",
          "name": "signature",
          "type": "bytes"
        },
        {
          "internalType": "uint8",
          "name": "userAndInviterPercentage",
          "type": "uint8"
        },
        {
          "internalType": "uint8",
          "name": "userPercentage",
          "type": "uint8"
        }
      ],
      "name": "appClaim",
      "outputs": [
        {
          "internalType": "bool",
          "name": "",
          "type": "bool"
        }
      ],
      "stateMutability": "nonpayable",
      "type": "function"
    },
    {
      "inputs": [
        {
          "internalType": "address",
          "name": "user",
          "type": "address"
        },
        {
          "internalType": "address",
          "name": "inviter",
          "type": "address"
        },
        {
          "internalType": "uint256",
          "name": "validUntilBlock",
          "type": "uint256"
        },
        {
          "internalType": "bytes",
          "name": "signature",
          "type": "bytes"
        }
      ],
      "name": "appClaim",
      "outputs": [
        {
          "internalType": "bool",
          "name": "",
          "type": "bool"
        }
      ],
      "stateMutability": "nonpayable",
      "type": "function"
    },
    {
      "inputs": [
        {
          "internalType": "address",
          "name": "app",
          "type": "address"
        },
        {
          "internalType": "address",
          "name": "rewardReceiver",
          "type": "address"
        },
        {
          "internalType": "uint8",
          "name": "userAndInviterPercentage",
          "type": "uint8"
        },
        {
          "internalType": "uint8",
          "name": "userPercentage",
          "type": "uint8"
        },
        {
          "internalType": "string",
          "name": "description",
          "type": "string"
        },
        {
          "internalType": "string",
          "name": "url",
          "type": "string"
        },
        {
          "internalType": "string",
          "name": "email",
          "type": "string"
        }
      ],
      "name": "applyApp",
      "outputs": [],
      "stateMutability": "nonpayable",
      "type": "function"
    },
    {
      "inputs": [
        {
          "internalType": "address",
          "name": "app",
          "type": "address"
        }
      ],
      "name": "approve",
      "outputs": [],
      "stateMutability": "nonpayable",
      "type": "function"
    },
    {
      "inputs": [
        {
          "internalType": "address",
          "name": "",
          "type": "address"
        }
      ],
      "name": "appsStats",
      "outputs": [
        {
          "internalType": "uint96",
          "name": "numberOfRewards",
          "type": "uint96"
        },
        {
          "internalType": "uint96",
          "name": "totalAppRewards",
          "type": "uint96"
        },
        {
          "internalType": "uint96",
          "name": "totalUserRewards",
          "type": "uint96"
        },
        {
          "internalType": "uint96",
          "name": "totalInviterRewards",
          "type": "uint96"
        }
      ],
      "stateMutability": "view",
      "type": "function"
    },
    {
      "inputs": [
        {
          "internalType": "address",
          "name": "app",
          "type": "address"
        },
        {
          "internalType": "address",
          "name": "user",
          "type": "address"
        }
      ],
      "name": "canClaim",
      "outputs": [
        {
          "internalType": "bool",
          "name": "",
          "type": "bool"
        }
      ],
      "stateMutability": "view",
      "type": "function"
    },
    {
      "inputs": [],
      "name": "eip712Domain",
      "outputs": [
        {
          "internalType": "bytes1",
          "name": "fields",
          "type": "bytes1"
        },
        {
          "internalType": "string",
          "name": "name",
          "type": "string"
        },
        {
          "internalType": "string",
          "name": "version",
          "type": "string"
        },
        {
          "internalType": "uint256",
          "name": "chainId",
          "type": "uint256"
        },
        {
          "internalType": "address",
          "name": "verifyingContract",
          "type": "address"
        },
        {
          "internalType": "bytes32",
          "name": "salt",
          "type": "bytes32"
        },
        {
          "internalType": "uint256[]",
          "name": "extensions",
          "type": "uint256[]"
        }
      ],
      "stateMutability": "view",
      "type": "function"
    },
    {
      "inputs": [],
      "name": "getDomainSeparator",
      "outputs": [
        {
          "internalType": "bytes32",
          "name": "",
          "type": "bytes32"
        }
      ],
      "stateMutability": "view",
      "type": "function"
    },
    {
      "inputs": [
        {
          "internalType": "bytes32",
          "name": "role",
          "type": "bytes32"
        }
      ],
      "name": "getRoleAdmin",
      "outputs": [
        {
          "internalType": "bytes32",
          "name": "",
          "type": "bytes32"
        }
      ],
      "stateMutability": "view",
      "type": "function"
    },
    {
      "inputs": [
        {
          "internalType": "address",
          "name": "user",
          "type": "address"
        }
      ],
      "name": "getUserPeriodStats",
      "outputs": [
        {
          "internalType": "uint8",
          "name": "appsClaimedThisPeriod",
          "type": "uint8"
        },
        {
          "internalType": "uint32",
          "name": "periodStartTimestamp",
          "type": "uint32"
        }
      ],
      "stateMutability": "view",
      "type": "function"
    },
    {
      "inputs": [
        {
          "internalType": "bytes32",
          "name": "role",
          "type": "bytes32"
        },
        {
          "internalType": "address",
          "name": "account",
          "type": "address"
        }
      ],
      "name": "grantRole",
      "outputs": [],
      "stateMutability": "nonpayable",
      "type": "function"
    },
    {
      "inputs": [
        {
          "internalType": "bytes32",
          "name": "role",
          "type": "bytes32"
        },
        {
          "internalType": "address",
          "name": "account",
          "type": "address"
        }
      ],
      "name": "hasRole",
      "outputs": [
        {
          "internalType": "bool",
          "name": "",
          "type": "bool"
        }
      ],
      "stateMutability": "view",
      "type": "function"
    },
    {
      "inputs": [],
      "name": "identityContract",
      "outputs": [
        {
          "internalType": "contract IIdentity",
          "name": "",
          "type": "address"
        }
      ],
      "stateMutability": "view",
      "type": "function"
    },
    {
      "inputs": [
        {
          "internalType": "contract IERC20",
          "name": "_rewardToken",
          "type": "address"
        },
        {
          "internalType": "contract IIdentity",
          "name": "_identityContract",
          "type": "address"
        },
        {
          "internalType": "uint256",
          "name": "_maxRewardsPerApp",
          "type": "uint256"
        },
        {
          "internalType": "uint256",
          "name": "_rewardAmount",
          "type": "uint256"
        }
      ],
      "name": "initialize",
      "outputs": [],
      "stateMutability": "nonpayable",
      "type": "function"
    },
    {
      "inputs": [],
      "name": "maxAppsPerUser",
      "outputs": [
        {
          "internalType": "uint8",
          "name": "",
          "type": "uint8"
        }
      ],
      "stateMutability": "view",
      "type": "function"
    },
    {
      "inputs": [],
      "name": "maxRewardsPerApp",
      "outputs": [
        {
          "internalType": "uint96",
          "name": "",
          "type": "uint96"
        }
      ],
      "stateMutability": "view",
      "type": "function"
    },
    {
      "inputs": [
        {
          "internalType": "address",
          "name": "app",
          "type": "address"
        },
        {
          "internalType": "address",
          "name": "inviter",
          "type": "address"
        },
        {
          "internalType": "uint256",
          "name": "validUntilBlock",
          "type": "uint256"
        },
        {
          "internalType": "bytes",
          "name": "userSignature",
          "type": "bytes"
        },
        {
          "internalType": "bytes",
          "name": "appSignature",
          "type": "bytes"
        }
      ],
      "name": "nonContractAppClaim",
      "outputs": [
        {
          "internalType": "bool",
          "name": "",
          "type": "bool"
        }
      ],
      "stateMutability": "nonpayable",
      "type": "function"
    },
    {
      "inputs": [],
      "name": "proxiableUUID",
      "outputs": [
        {
          "internalType": "bytes32",
          "name": "",
          "type": "bytes32"
        }
      ],
      "stateMutability": "view",
      "type": "function"
    },
    {
      "inputs": [
        {
          "internalType": "address",
          "name": "",
          "type": "address"
        }
      ],
      "name": "registeredApps",
      "outputs": [
        {
          "internalType": "address",
          "name": "owner",
          "type": "address"
        },
        {
          "internalType": "address",
          "name": "rewardReceiver",
          "type": "address"
        },
        {
          "internalType": "uint96",
          "name": "totalRewardsClaimed",
          "type": "uint96"
        },
        {
          "internalType": "uint32",
          "name": "registeredAt",
          "type": "uint32"
        },
        {
          "internalType": "uint32",
          "name": "lastResetAt",
          "type": "uint32"
        },
        {
          "internalType": "uint8",
          "name": "userAndInviterPercentage",
          "type": "uint8"
        },
        {
          "internalType": "uint8",
          "name": "userPercentage",
          "type": "uint8"
        },
        {
          "internalType": "bool",
          "name": "isRegistered",
          "type": "bool"
        },
        {
          "internalType": "bool",
          "name": "isApproved",
          "type": "bool"
        },
        {
          "internalType": "string",
          "name": "description",
          "type": "string"
        },
        {
          "internalType": "string",
          "name": "url",
          "type": "string"
        },
        {
          "internalType": "string",
          "name": "email",
          "type": "string"
        }
      ],
      "stateMutability": "view",
      "type": "function"
    },
    {
      "inputs": [
        {
          "internalType": "bytes32",
          "name": "role",
          "type": "bytes32"
        },
        {
          "internalType": "address",
          "name": "callerConfirmation",
          "type": "address"
        }
      ],
      "name": "renounceRole",
      "outputs": [],
      "stateMutability": "nonpayable",
      "type": "function"
    },
    {
      "inputs": [
        {
          "internalType": "bytes32",
          "name": "role",
          "type": "bytes32"
        },
        {
          "internalType": "address",
          "name": "account",
          "type": "address"
        }
      ],
      "name": "revokeRole",
      "outputs": [],
      "stateMutability": "nonpayable",
      "type": "function"
    },
    {
      "inputs": [],
      "name": "rewardAmount",
      "outputs": [
        {
          "internalType": "uint96",
          "name": "",
          "type": "uint96"
        }
      ],
      "stateMutability": "view",
      "type": "function"
    },
    {
      "inputs": [],
      "name": "rewardToken",
      "outputs": [
        {
          "internalType": "contract IERC20",
          "name": "",
          "type": "address"
        }
      ],
      "stateMutability": "view",
      "type": "function"
    },
    {
      "inputs": [
        {
          "internalType": "uint8",
          "name": "_maxAppsPerUser",
          "type": "uint8"
        }
      ],
      "name": "setMaxAppsPerUser",
      "outputs": [],
      "stateMutability": "nonpayable",
      "type": "function"
    },
    {
      "inputs": [
        {
          "internalType": "uint96",
          "name": "_maxRewardsPerApp",
          "type": "uint96"
        }
      ],
      "name": "setMaxRewardsPerApp",
      "outputs": [],
      "stateMutability": "nonpayable",
      "type": "function"
    },
    {
      "inputs": [
        {
          "internalType": "uint96",
          "name": "_rewardAmount",
          "type": "uint96"
        }
      ],
      "name": "setRewardAmount",
      "outputs": [],
      "stateMutability": "nonpayable",
      "type": "function"
    },
    {
      "inputs": [
        {
          "internalType": "bytes4",
          "name": "interfaceId",
          "type": "bytes4"
        }
      ],
      "name": "supportsInterface",
      "outputs": [
        {
          "internalType": "bool",
          "name": "",
          "type": "bool"
        }
      ],
      "stateMutability": "view",
      "type": "function"
    },
    {
      "inputs": [
        {
          "internalType": "address",
          "name": "app",
          "type": "address"
        },
        {
          "internalType": "address",
          "name": "rewardReceiver",
          "type": "address"
        },
        {
          "internalType": "uint8",
          "name": "userAndInviterPercentage",
          "type": "uint8"
        },
        {
          "internalType": "uint8",
          "name": "userPercentage",
          "type": "uint8"
        }
      ],
      "name": "updateAppSettings",
      "outputs": [],
      "stateMutability": "nonpayable",
      "type": "function"
    },
    {
      "inputs": [
        {
          "internalType": "address",
          "name": "newImplementation",
          "type": "address"
        },
        {
          "internalType": "bytes",
          "name": "data",
          "type": "bytes"
        }
      ],
      "name": "upgradeToAndCall",
      "outputs": [],
      "stateMutability": "payable",
      "type": "function"
    },
    {
      "inputs": [
        {
          "internalType": "address",
          "name": "",
          "type": "address"
        }
      ],
      "name": "userPeriodClaims",
      "outputs": [
        {
          "internalType": "uint8",
          "name": "periodClaims",
          "type": "uint8"
        },
        {
          "internalType": "uint32",
          "name": "lastClaimTimestamp",
          "type": "uint32"
        }
      ],
      "stateMutability": "view",
      "type": "function"
    },
    {
      "inputs": [
        {
          "internalType": "address",
          "name": "",
          "type": "address"
        },
        {
          "internalType": "address",
          "name": "",
          "type": "address"
        }
      ],
      "name": "userRegistrations",
      "outputs": [
        {
          "internalType": "uint32",
          "name": "isRegistered",
          "type": "uint32"
        },
        {
          "internalType": "uint32",
          "name": "lastClaimTimestamp",
          "type": "uint32"
        }
      ],
      "stateMutability": "view",
      "type": "function"
    }
  ],
  "bytecode": "0x60c06040523060805234801561001457600080fd5b50604051613f9c380380613f9c833981016040819052610033916100f9565b80151560a052610041610047565b50610122565b7ff0c57e16840df040f15088dc2f81fe391c3923bec73e23a9662efc9c229c6a00805468010000000000000000900460ff16156100975760405163f92ee8a960e01b815260040160405180910390fd5b80546001600160401b03908116146100f65780546001600160401b0319166001600160401b0390811782556040519081527fc7f505b2f371ae2175ee4913f4499e1f2633a7b5936321eed1cdaeb6115181d29060200160405180910390a15b50565b60006020828403121561010b57600080fd5b8151801515811461011b57600080fd5b9392505050565b60805160a051613e4061015c6000396000818161043b0152611a84015260008181611f7d01528181611fa601526120e30152613e406000f3fe6080604052600436106101c05760003560e01c806301ffc9a7146101c557806309e26362146101fa5780631f5031fe14610227578063248a9ca3146102495780632aec8fe1146102775780632f2ff15d1461029757806336568abe146102b757806337c909ec146102d757806349eb67f8146102ee5780634f1ef2861461030e57806352d1902d14610321578063567e38e31461033657806356e62e641461034e57806367031bae146103705780636b0509b11461039d57806375b238fc146103bf57806384b0196e146103e157806391d14854146104095780639420f4a9146104295780639dd96d471461045d578063a217fddf146104e4578063a284e898146104f9578063a617e65314610519578063a6c4cce914610539578063abe3bfef14610571578063ad3cb1cc14610591578063cc733fe9146105cf578063d3ea97011461060d578063d547741f1461062d578063d68a776e1461064d578063d7bac3dc1461068a578063daea85c5146106aa578063e4e5bc7a146106ca578063eb990c59146106ea578063ed24911d1461070a578063f7b2a7be1461071f578063f7c618c114610746578063f8b68aa214610766578063fe7bf9b2146107cc575b600080fd5b3480156101d157600080fd5b506101e56101e0366004613222565b6107ff565b60405190151581526020015b60405180910390f35b34801561020657600080fd5b5060025461021a906001600160601b031681565b6040516101f1919061324c565b34801561023357600080fd5b50610247610242366004613260565b610836565b005b34801561025557600080fd5b50610269610264366004613289565b610871565b6040519081526020016101f1565b34801561028357600080fd5b50610247610292366004613260565b610891565b3480156102a357600080fd5b506102476102b23660046132c7565b610909565b3480156102c357600080fd5b506102476102d23660046132c7565b61092b565b3480156102e357600080fd5b5061026962ed4e0081565b3480156102fa57600080fd5b50610247610309366004613308565b610963565b61024761031c36600461340a565b610b01565b34801561032d57600080fd5b50610269610b20565b34801561034257600080fd5b506102696301e1338081565b34801561035a57600080fd5b50610269600080516020613d8b83398151915281565b34801561037c57600080fd5b50600154610390906001600160a01b031681565b6040516101f19190613459565b3480156103a957600080fd5b50610269600080516020613dcb83398151915281565b3480156103cb57600080fd5b50610269600080516020613deb83398151915281565b3480156103ed57600080fd5b506103f6610b3d565b6040516101f197969594939291906134bd565b34801561041557600080fd5b506101e56104243660046132c7565b610be6565b34801561043557600080fd5b506101e57f000000000000000000000000000000000000000000000000000000000000000081565b34801561046957600080fd5b506104b1610478366004613555565b600460205260009081526040902080546001909101546001600160601b0380831692600160601b90819004821692808316929190041684565b604080516001600160601b03958616815293851660208501529184169183019190915290911660608201526080016101f1565b3480156104f057600080fd5b50610269600081565b34801561050557600080fd5b50610247610514366004613572565b610c1c565b34801561052557600080fd5b506101e5610534366004613648565b611135565b34801561054557600080fd5b50610559610554366004613555565b611619565b6040516101f19c9b9a99989796959493929190613676565b34801561057d57600080fd5b506101e561058c366004613728565b611847565b34801561059d57600080fd5b506105c2604051806040016040528060058152602001640352e302e360dc1b81525081565b6040516101f191906137be565b3480156105db57600080fd5b506105ef6105ea366004613555565b6118b5565b6040805160ff909316835263ffffffff9091166020830152016101f1565b34801561061957600080fd5b506101e56106283660046137d1565b611916565b34801561063957600080fd5b506102476106483660046132c7565b61197c565b34801561065957600080fd5b506105ef610668366004613555565b60066020526000908152604090205460ff811690610100900463ffffffff1682565b34801561069657600080fd5b506102476106a536600461385c565b611998565b3480156106b657600080fd5b506102476106c5366004613555565b611a61565b3480156106d657600080fd5b506101e56106e5366004613877565b611bc9565b3480156106f657600080fd5b506102476107053660046138e2565b611be6565b34801561071657600080fd5b50610269611e12565b34801561072b57600080fd5b5060025461021a90600160601b90046001600160601b031681565b34801561075257600080fd5b50600054610390906001600160a01b031681565b34801561077257600080fd5b506107af610781366004613648565b600560209081526000928352604080842090915290825290205463ffffffff80821691600160201b90041682565b6040805163ffffffff9384168152929091166020830152016101f1565b3480156107d857600080fd5b506001546107ed90600160a01b900460ff1681565b60405160ff90911681526020016101f1565b60006001600160e01b03198216637965db0b60e01b148061083057506301ffc9a760e01b6001600160e01b03198316145b92915050565b600080516020613deb83398151915261084e81611e21565b50600280546001600160601b0319166001600160601b0392909216919091179055565b60008061087c611e2e565b60009384526020525050604090206001015490565b600080516020613deb8339815191526108a981611e21565b60028054600160601b600160c01b031916600160601b6001600160601b038516021790556040517f9639dea65e74b72b1b86ccf3e4f9b6d23b88d2aad2f103d0b3afe394e67edade906108fd90849061324c565b60405180910390a15050565b61091282610871565b61091b81611e21565b6109258383611e52565b50505050565b6001600160a01b03811633146109545760405163334bd91960e11b815260040160405180910390fd5b61095e8282611efa565b505050565b6001600160a01b0383166109925760405162461bcd60e51b815260040161098990613928565b60405180910390fd5b6001600160a01b038416600090815260036020526040902060020154600160501b900460ff166109d45760405162461bcd60e51b81526004016109899061395a565b6001600160a01b03848116600090815260036020526040902054163314610a0d5760405162461bcd60e51b815260040161098990613986565b60648260ff161115610a315760405162461bcd60e51b8152600401610989906139ad565b60648160ff161115610a555760405162461bcd60e51b8152600401610989906139e2565b6001600160a01b038481166000818152600360209081526040918290206001810180546001600160a01b031916958916959095179094556002909301805461ffff60401b1916600160401b60ff88811691820260ff60481b191692909217600160481b9288169283021790925582519182529381019390935290917f817dcd9d9a3f9ee6dbc0878d11d70ae3a2a31c7398c4169b9796de7fbf2a61a6910160405180910390a250505050565b610b09611f72565b610b1282612019565b610b1c8282612024565b5050565b6000610b2a6120d8565b50600080516020613dab83398151915290565b6000606080600080600060606000610b53612121565b8054909150158015610b6757506001810154155b610bab5760405162461bcd60e51b81526020600482015260156024820152741152540dcc4c8e88155b9a5b9a5d1a585b1a5e9959605a1b6044820152606401610989565b610bb3612145565b610bbb6121e6565b60408051600080825260208201909252600f60f81b9c939b5091995046985030975095509350915050565b600080610bf1611e2e565b6000948552602090815260408086206001600160a01b03959095168652939052505090205460ff1690565b6001600160a01b038716610c425760405162461bcd60e51b815260040161098990613928565b6001600160a01b038616610c685760405162461bcd60e51b815260040161098990613928565b60648560ff161115610c8c5760405162461bcd60e51b8152600401610989906139ad565b60648460ff161115610cb05760405162461bcd60e51b8152600401610989906139e2565b610200835111158015610cc557506032835110155b610d075760405162461bcd60e51b815260206004820152601360248201527224b73b30b634b2103232b9b1b934b83a34b7b760691b6044820152606401610989565b60008251118015610d1a575060ff825111155b610d545760405162461bcd60e51b815260206004820152600b60248201526a125b9d985b1a590815549360aa1b6044820152606401610989565b60008151118015610d67575060ff815111155b610da35760405162461bcd60e51b815260206004820152600d60248201526c125b9d985b1a5908195b585a5b609a1b6044820152606401610989565b6001600160a01b038088166000908152600360205260409020805490911615610e8d5780546001600160a01b03163314610def5760405162461bcd60e51b815260040161098990613986565b6002810180546001830180546001600160a01b0319166001600160a01b038b1617905563ff00ffff60401b1916600160401b60ff8981169190910260ff60481b191691909117600160481b9188169190910217905560038101610e528582613a9a565b5060048101610e618482613a9a565b5060058101610e708382613a9a565b5060028101805463ffffffff19164263ffffffff161790556110d6565b604051806101800160405280336001600160a01b03168152602001886001600160a01b0316815260200160006001600160601b031681526020014263ffffffff1681526020014263ffffffff1681526020018760ff1681526020018660ff16815260200160011515815260200160001515815260200185815260200184815260200183815250600360008a6001600160a01b03166001600160a01b0316815260200190815260200160002060008201518160000160006101000a8154816001600160a01b0302191690836001600160a01b0316021790555060208201518160010160006101000a8154816001600160a01b0302191690836001600160a01b0316021790555060408201518160010160146101000a8154816001600160601b0302191690836001600160601b0316021790555060608201518160020160006101000a81548163ffffffff021916908363ffffffff16021790555060808201518160020160046101000a81548163ffffffff021916908363ffffffff16021790555060a08201518160020160086101000a81548160ff021916908360ff16021790555060c08201518160020160096101000a81548160ff021916908360ff16021790555060e082015181600201600a6101000a81548160ff02191690831515021790555061010082015181600201600b6101000a81548160ff0219169083151502179055506101208201518160030190816110a69190613a9a565b5061014082015160048201906110bc9082613a9a565b5061016082015160058201906110d29082613a9a565b5050505b336001600160a01b0316886001600160a01b03167fc025612b0e32541c90be0a3ac84ee4a13a456d5520a7da1b3c1c0f6e821ba59d89898989898960405161112396959493929190613b58565b60405180910390a35050505050505050565b6001600160a01b038281166000908152600560209081526040808320938516835292905290812054600160201b900463ffffffff1661117762ed4e0082613bd6565b4210156111c35760405162461bcd60e51b815260206004820152601a60248201527910db185a5b4818dbdbdb191bdddb881b9bdd081c995858da195960321b6044820152606401610989565b6001600160a01b0383166112105760405162461bcd60e51b8152602060048201526014602482015273496e76616c69642075736572206164647265737360601b6044820152606401610989565b6001600160a01b038085166000908152600360209081526040808320600201546005835281842094881684529390915290205463ffffffff918216911610156112995760405162461bcd60e51b815260206004820152601b60248201527a055736572206e6f74207265676973746572656420666f722061707602c1b6044820152606401610989565b600254600160601b90046001600160601b03166113085760405162461bcd60e51b815260206004820152602760248201527f52657761726420616d6f756e74206d7573742062652067726561746572207468604482015266616e207a65726f60c81b6064820152608401610989565b6002546000546040516370a0823160e01b8152600160601b9092046001600160601b0316916001600160a01b03909116906370a082319061134d903090600401613459565b602060405180830381865afa15801561136a573d6000803e3d6000fd5b505050506040513d601f19601f8201168201806040525081019061138e9190613be9565b10156113e65760405162461bcd60e51b815260206004820152602160248201527f496e73756666696369656e742072657761726420746f6b656e2062616c616e636044820152606560f81b6064820152608401610989565b6001600160a01b038085166000908152600360209081526040808320938716835260069091529020600154815460ff600160a01b909204821691161080611447575080546114439062ed4e0090610100900463ffffffff16613bd6565b4210155b6114915760405162461bcd60e51b815260206004820152601b60248201527a13585e08185c1c1cc81c195c881c195c9a5bd9081c995858da1959602a1b6044820152606401610989565b6002820154600160501b900460ff1680156114b757506002820154600160581b900460ff165b6115035760405162461bcd60e51b815260206004820152601e60248201527f417070206e6f7420617070726f766564206f72207265676973746572656400006044820152606401610989565b6002820154429061151f906301e133809063ffffffff16613bd6565b116115675760405162461bcd60e51b8152602060048201526018602482015277105c1c081c9959da5cdd1c985d1a5bdb88195e1c1a5c995960421b6044820152606401610989565b60028201546115879062ed4e0090600160201b900463ffffffff16613bd6565b421015806115cd575060025460018301546001600160601b03808316926115c192600160601b909104821691600160a01b90910416613c02565b6001600160601b031611155b61160d5760405162461bcd60e51b8152602060048201526011602482015270417070206d61786564207265776172647360781b6044820152606401610989565b50600195945050505050565b600360208190526000918252604090912080546001820154600283015493830180546001600160a01b039384169593831694600160a01b9093046001600160601b03169363ffffffff80821694600160201b830490911693600160401b830460ff90811694600160481b8504821694600160501b8104831694600160581b90910490921692906116a890613a12565b80601f01602080910402602001604051908101604052809291908181526020018280546116d490613a12565b80156117215780601f106116f657610100808354040283529160200191611721565b820191906000526020600020905b81548152906001019060200180831161170457829003601f168201915b50505050509080600401805461173690613a12565b80601f016020809104026020016040519081016040528092919081815260200182805461176290613a12565b80156117af5780601f10611784576101008083540402835291602001916117af565b820191906000526020600020905b81548152906001019060200180831161179257829003601f168201915b5050505050908060050180546117c490613a12565b80601f01602080910402602001604051908101604052809291908181526020018280546117f090613a12565b801561183d5780601f106118125761010080835404028352916020019161183d565b820191906000526020600020905b81548152906001019060200180831161182057829003601f168201915b505050505090508c565b600061185586338685612203565b6118995760405162461bcd60e51b8152602060048201526015602482015274496e76616c696420617070207369676e617475726560581b6044820152606401610989565b6118ab3387878787600080600061226e565b9695505050505050565b6001600160a01b038116600090815260066020526040812080548291906118eb9062ed4e0090610100900463ffffffff16613bd6565b42106118fd5750600093429350915050565b5460ff81169461010090910463ffffffff169350915050565b600060648360ff16111561193c5760405162461bcd60e51b8152600401610989906139ad565b60648260ff1611156119605760405162461bcd60e51b8152600401610989906139e2565b61197187338888888888600161226e565b979650505050505050565b61198582610871565b61198e81611e21565b6109258383611efa565b600080516020613deb8339815191526119b081611e21565b60008260ff1611611a135760405162461bcd60e51b815260206004820152602760248201527f52657761726473207065722075736572206d75737420626520677265617465726044820152660207468616e20360cc1b6064820152608401610989565b6001805460ff60a01b1916600160a01b60ff8516908102919091179091556040519081527fbb1c987d41b58fea76843b44edae6b324dcf334d1070a3c8c7896c7f59f75a81906020016108fd565b600080516020613deb833981519152611a7a8133610be6565b158015611aa557507f0000000000000000000000000000000000000000000000000000000000000000155b15611ac757338160405163e2517d3f60e01b8152600401610989929190613c21565b6001600160a01b038216600090815260036020526040902060020154600160501b900460ff16611b095760405162461bcd60e51b81526004016109899061395a565b6001600160a01b038216600090815260036020526040902060020154600160581b900460ff1615611b735760405162461bcd60e51b8152602060048201526014602482015273105c1c08185b1c9958591e48185c1c1c9bdd995960621b6044820152606401610989565b6001600160a01b038216600081815260036020526040808220600201805460ff60581b1916600160581b179055517f95e9598427a2e62bd5a93d3a083bc0d32989e80c16ad07312a0bb406b53e36919190a25050565b6000611bdd8533868686600080600061226e565b95945050505050565b6000611bf06123e8565b805490915060ff600160401b82041615906001600160401b0316600081158015611c175750825b90506000826001600160401b03166001148015611c335750303b155b905081158015611c41575080155b15611c5f5760405163f92ee8a960e01b815260040160405180910390fd5b84546001600160401b03191660011785558315611c8857845460ff60401b1916600160401b1785555b6001600160a01b038916611cae5760405162461bcd60e51b815260040161098990613928565b6001600160a01b038816611cd45760405162461bcd60e51b815260040161098990613928565b611cdc61240c565b611d2a60405180604001604052806011815260200170456e676167656d656e745265776172647360781b815250604051806040016040528060038152602001620312e360ec1b815250612414565b611d3261240c565b600080546001600160a01b03808c166001600160a01b031990921691909117825560018054600280546001600160601b038c8116600160601b026001600160c01b0319909216908e1617179055600360a01b6001600160a81b0319909116928c1692909217919091179055611da79033611e52565b50611dc0600080516020613deb83398151915233611e52565b508315611e0757845460ff60401b19168555604051600181527fc7f505b2f371ae2175ee4913f4499e1f2633a7b5936321eed1cdaeb6115181d29060200160405180910390a15b505050505050505050565b6000611e1c612426565b905090565b611e2b8133612430565b50565b7f02dd7bc7dec4dceedda775e58dd541e08a116c6c53815c0bd028192f7b62680090565b600080611e5d611e2e565b9050611e698484610be6565b611ee9576000848152602082815260408083206001600160a01b03871684529091529020805460ff19166001179055611e9f3390565b6001600160a01b0316836001600160a01b0316857f2f8788117e7eff1d82e926ec794901d17c78024a50270940304540a733656f0d60405160405180910390a46001915050610830565b6000915050610830565b5092915050565b600080611f05611e2e565b9050611f118484610be6565b15611ee9576000848152602082815260408083206001600160a01b0387168085529252808320805460ff1916905551339287917ff6391f5c32d9c69d2a47ea670b442974b53935d1edc7fd64eb21e047a839171b9190a46001915050610830565b306001600160a01b037f0000000000000000000000000000000000000000000000000000000000000000161480611ff957507f00000000000000000000000000000000000000000000000000000000000000006001600160a01b0316611fed600080516020613dab833981519152546001600160a01b031690565b6001600160a01b031614155b156120175760405163703e46dd60e11b815260040160405180910390fd5b565b6000610b1c81611e21565b816001600160a01b03166352d1902d6040518163ffffffff1660e01b8152600401602060405180830381865afa92505050801561207e575060408051601f3d908101601f1916820190925261207b91810190613be9565b60015b61209d5781604051634c9c8ce360e01b81526004016109899190613459565b600080516020613dab83398151915281146120ce57604051632a87526960e21b815260048101829052602401610989565b61095e838361245b565b306001600160a01b037f000000000000000000000000000000000000000000000000000000000000000016146120175760405163703e46dd60e11b815260040160405180910390fd5b7fa16a46d94261c7517cc8ff89f61c0ce93598e3c849801011dee649a6a557d10090565b60606000612151612121565b905080600201805461216290613a12565b80601f016020809104026020016040519081016040528092919081815260200182805461218e90613a12565b80156121db5780601f106121b0576101008083540402835291602001916121db565b820191906000526020600020905b8154815290600101906020018083116121be57829003601f168201915b505050505091505090565b606060006121f2612121565b905080600301805461216290613a12565b60408051600080516020613d8b8339815191526020808301919091526001600160a01b03878116838501528616606083015260808083018690528351808403909101815260a0909201909252805191012060009081612261826124b1565b90506119718782866124de565b6000612278612555565b6001546040516316874da360e11b81526000916001600160a01b031690632d0e9b46906122a9908d90600401613459565b602060405180830381865afa1580156122c6573d6000803e3d6000fd5b505050506040513d601f19601f820116820180604052508101906122ea9190613c3a565b90506000871180156122fd575060008651115b156123485761230f8a8a8a8a8a61258b565b6001600160a01b038981166000908152600560209081526040808320938516835292905220805463ffffffff19164263ffffffff161790555b6123528982611135565b6123605760009150506123d4565b61236a89826127b2565b6001600160a01b03808a166000908152600360205260409020600181015490916123cd918c91168d8c886123ac576002860154600160401b900460ff166123ae565b8a5b896123c7576002870154600160481b900460ff16612930565b8a612930565b6001925050505b6123dc612d00565b98975050505050505050565b7ff0c57e16840df040f15088dc2f81fe391c3923bec73e23a9662efc9c229c6a0090565b612017612d11565b61241c612d11565b610b1c8282612d36565b6000611e1c612d77565b61243a8282610be6565b610b1c57808260405163e2517d3f60e01b8152600401610989929190613c21565b61246482612deb565b6040516001600160a01b038316907fbc7cd75a20ee27fd9adebab32041f755214dbc6bffa90cc0225b39da2e5c2d3b90600090a28051156124a95761095e8282612e47565b610b1c612eb4565b60006108306124be612426565b8360405161190160f01b8152600281019290925260228201526042902090565b6000836001600160a01b03163b600003612540576000806124ff8585612ed3565b509092509050600081600381111561251957612519613c57565b1480156125375750856001600160a01b0316826001600160a01b0316145b9250505061254e565b61254b848484612f20565b90505b9392505050565b600061255f612ffb565b80549091506001190161258557604051633ee5aeb560e01b815260040160405180910390fd5b60029055565b612596436032613bd6565b8211156125ef5760405162461bcd60e51b815260206004820152602160248201527f56616c6964556e74696c426c6f636b20746f6f2066617220696e2066757475726044820152606560f81b6064820152608401610989565b438210156126335760405162461bcd60e51b815260206004820152601160248201527014da59db985d1d5c9948195e1c1a5c9959607a1b6044820152606401610989565b6001600160a01b0384166000908152600360208190526040822001805461265990613a12565b80601f016020809104026020016040519081016040528092919081815260200182805461268590613a12565b80156126d25780601f106126a7576101008083540402835291602001916126d2565b820191906000526020600020905b8154815290600101906020018083116126b557829003601f168201915b505050505090506000600080516020613dcb83398151915286868685805190602001206040516020016127339594939291909485526001600160a01b0393841660208601529190921660408401526060830191909152608082015260a00190565b6040516020818303038152906040528051906020012090506000612756826124b1565b90506127638882866124de565b6127a85760405162461bcd60e51b8152602060048201526016602482015275496e76616c69642075736572207369676e617475726560501b6044820152606401610989565b5050505050505050565b6001600160a01b038281166000818152600560209081526040808320948616808452948252808320805463ffffffff60201b1916600160201b4263ffffffff908116820292909217909255948452600383528184209584526006909252909120600284015490926128299262ed4e00920416613bd6565b4210612861576001820180546001600160a01b0316905560028201805463ffffffff60201b1916600160201b4263ffffffff16021790555b805461287c9062ed4e0090610100900463ffffffff16613bd6565b421061289b57805464ffffffffff19166101004263ffffffff16021781555b805460019082906000906128b390849060ff16613c6d565b92506101000a81548160ff021916908360ff1602179055506002600c9054906101000a90046001600160601b03168260010160148282829054906101000a90046001600160601b03166129069190613c02565b92506101000a8154816001600160601b0302191690836001600160601b0316021790555050505050565b6002546000906064906129579060ff861690600160601b90046001600160601b0316613c86565b6129619190613cbe565b6001600160601b031690506000606461297d60ff851684613ced565b6129879190613d04565b905060006129958284613d18565b6002549091506000906129b9908590600160601b90046001600160601b0316613d18565b90506001600160a01b0387166129d6576129d38282613bd6565b90505b6001600160a01b038a16600090815260046020526040812080549091600191839190612a0c9084906001600160601b0316613c02565b92506101000a8154816001600160601b0302191690836001600160601b031602179055508181600001600c8282829054906101000a90046001600160601b0316612a569190613c02565b92506101000a8154816001600160601b0302191690836001600160601b031602179055508281600101600c8282829054906101000a90046001600160601b0316612aa09190613c02565b92506101000a8154816001600160601b0302191690836001600160601b03160217905550838160010160008282829054906101000a90046001600160601b0316612aea9190613c02565b92506101000a8154816001600160601b0302191690836001600160601b031602179055506000821115612b8e5760005460405163a9059cbb60e01b81526001600160a01b039091169063a9059cbb90612b49908d908690600401613c21565b6020604051808303816000875af1158015612b68573d6000803e3d6000fd5b505050506040513d601f19601f82011682018060405250810190612b8c9190613d2b565b505b8315612c0b5760005460405163a9059cbb60e01b81526001600160a01b039091169063a9059cbb90612bc6908c908890600401613c21565b6020604051808303816000875af1158015612be5573d6000803e3d6000fd5b505050506040513d601f19601f82011682018060405250810190612c099190613d2b565b505b6001600160a01b03881615801590612c235750600083115b15612c9f5760005460405163a9059cbb60e01b81526001600160a01b039091169063a9059cbb90612c5a908b908790600401613c21565b6020604051808303816000875af1158015612c79573d6000803e3d6000fd5b505050506040513d601f19601f82011682018060405250810190612c9d9190613d2b565b505b60408051838152602081018690529081018490526001600160a01b03808a16918b8216918e16907f4af0f3bbba19bd2ae80915d3dcbc4b38837833848ce3b3cd23d9043235865a369060600160405180910390a45050505050505050505050565b6000612d0a612ffb565b6001905550565b612d1961301f565b61201757604051631afcd79f60e31b815260040160405180910390fd5b612d3e612d11565b6000612d48612121565b905060028101612d588482613a9a565b5060038101612d678382613a9a565b5060008082556001909101555050565b60007f8b73c3c69bb8fe3d512ecc4cf759cc79239f7b179b0ffacaa9a75d522b39400f612da2613039565b612daa6130a0565b60408051602081019490945283019190915260608201524660808201523060a082015260c00160405160208183030381529060405280519060200120905090565b806001600160a01b03163b600003612e185780604051634c9c8ce360e01b81526004016109899190613459565b600080516020613dab83398151915280546001600160a01b0319166001600160a01b0392909216919091179055565b6060600080846001600160a01b031684604051612e649190613d4d565b600060405180830381855af49150503d8060008114612e9f576040519150601f19603f3d011682016040523d82523d6000602084013e612ea4565b606091505b5091509150611bdd8583836130e1565b34156120175760405163b398979f60e01b815260040160405180910390fd5b60008060008351604103612f0d5760208401516040850151606086015160001a612eff88828585613134565b955095509550505050612f19565b50508151600091506002905b9250925092565b6000806000856001600160a01b03168585604051602401612f42929190613d69565b60408051601f198184030181529181526020820180516001600160e01b0316630b135d3f60e11b17905251612f779190613d4d565b600060405180830381855afa9150503d8060008114612fb2576040519150601f19603f3d011682016040523d82523d6000602084013e612fb7565b606091505b5091509150818015612fcb57506020815110155b80156118ab57508051630b135d3f60e11b90612ff09083016020908101908401613be9565b149695505050505050565b7f9b779b17422d0df92223018b32b4d1fa46e071723d6817e2486d003becc55f0090565b60006130296123e8565b54600160401b900460ff16919050565b600080613044612121565b90506000613050612145565b80519091501561306857805160209091012092915050565b81548015613077579392505050565b7fc5d2460186f7233c927e7db2dcc703c0e500b653ca82273b7bfad8045d85a470935050505090565b6000806130ab612121565b905060006130b76121e6565b8051909150156130cf57805160209091012092915050565b60018201548015613077579392505050565b6060826130f6576130f1826131f9565b61254e565b815115801561310d57506001600160a01b0384163b155b1561312d5783604051639996b31560e01b81526004016109899190613459565b508061254e565b600080806fa2a8918ca85bafe22016d0b997e4df60600160ff1b0384111561316557506000915060039050826131ef565b604080516000808252602082018084528a905260ff891692820192909252606081018790526080810186905260019060a0016020604051602081039080840390855afa1580156131b9573d6000803e3d6000fd5b5050604051601f1901519150506001600160a01b0381166131e5575060009250600191508290506131ef565b9250600091508190505b9450945094915050565b8051156132095780518082602001fd5b60405163d6bda27560e01b815260040160405180910390fd5b60006020828403121561323457600080fd5b81356001600160e01b03198116811461254e57600080fd5b6001600160601b0391909116815260200190565b60006020828403121561327257600080fd5b81356001600160601b038116811461254e57600080fd5b60006020828403121561329b57600080fd5b5035919050565b6001600160a01b0381168114611e2b57600080fd5b80356132c2816132a2565b919050565b600080604083850312156132da57600080fd5b8235915060208301356132ec816132a2565b809150509250929050565b803560ff811681146132c257600080fd5b6000806000806080858703121561331e57600080fd5b8435613329816132a2565b93506020850135613339816132a2565b9250613347604086016132f7565b9150613355606086016132f7565b905092959194509250565b634e487b7160e01b600052604160045260246000fd5b600082601f83011261338757600080fd5b8135602083016000806001600160401b038411156133a7576133a7613360565b50604051601f19601f85018116603f011681018181106001600160401b03821117156133d5576133d5613360565b6040528381529050808284018710156133ed57600080fd5b838360208301376000602085830101528094505050505092915050565b6000806040838503121561341d57600080fd5b8235613428816132a2565b915060208301356001600160401b0381111561344357600080fd5b61344f85828601613376565b9150509250929050565b6001600160a01b0391909116815260200190565b60005b83811015613488578181015183820152602001613470565b50506000910152565b600081518084526134a981602086016020860161346d565b601f01601f19169290920160200192915050565b60ff60f81b8816815260e0602082015260006134dc60e0830189613491565b82810360408401526134ee8189613491565b606084018890526001600160a01b038716608085015260a0840186905283810360c08501528451808252602080870193509091019060005b81811015613544578351835260209384019390920191600101613526565b50909b9a5050505050505050505050565b60006020828403121561356757600080fd5b813561254e816132a2565b600080600080600080600060e0888a03121561358d57600080fd5b8735613598816132a2565b96506135a6602089016132b7565b95506135b4604089016132f7565b94506135c2606089016132f7565b935060808801356001600160401b038111156135dd57600080fd5b6135e98a828b01613376565b93505060a08801356001600160401b0381111561360557600080fd5b6136118a828b01613376565b92505060c08801356001600160401b0381111561362d57600080fd5b6136398a828b01613376565b91505092959891949750929550565b6000806040838503121561365b57600080fd5b8235613666816132a2565b915060208301356132ec816132a2565b6001600160a01b038d811682528c1660208201526001600160601b038b16604082015263ffffffff8a16606082015263ffffffff8916608082015260ff881660a082015260ff871660c082015285151560e082015284151561010082015261018061012082015260006136ed610180830186613491565b8281036101408401526137008186613491565b90508281036101608401526137158185613491565b9f9e505050505050505050505050505050565b600080600080600060a0868803121561374057600080fd5b853561374b816132a2565b9450602086013561375b816132a2565b93506040860135925060608601356001600160401b0381111561377d57600080fd5b61378988828901613376565b92505060808601356001600160401b038111156137a557600080fd5b6137b188828901613376565b9150509295509295909350565b60208152600061254e6020830184613491565b60008060008060008060c087890312156137ea57600080fd5b86356137f5816132a2565b95506020870135613805816132a2565b94506040870135935060608701356001600160401b0381111561382757600080fd5b61383389828a01613376565b935050613842608088016132f7565b915061385060a088016132f7565b90509295509295509295565b60006020828403121561386e57600080fd5b61254e826132f7565b6000806000806080858703121561388d57600080fd5b8435613898816132a2565b935060208501356138a8816132a2565b92506040850135915060608501356001600160401b038111156138ca57600080fd5b6138d687828801613376565b91505092959194509250565b600080600080608085870312156138f857600080fd5b8435613903816132a2565b93506020850135613913816132a2565b93969395505050506040820135916060013590565b60208082526018908201527716995c9bc81859191c995cdcc81b9bdd08185b1b1bddd95960421b604082015260600190565b602080825260129082015271105c1c081b9bdd081c9959da5cdd195c995960721b604082015260600190565b6020808252600d908201526c2737ba1030b8381037bbb732b960991b604082015260600190565b6020808252818101527f496e76616c69642075736572416e64496e766974657250657263656e74616765604082015260600190565b602080825260169082015275496e76616c6964207573657250657263656e7461676560501b604082015260600190565b600181811c90821680613a2657607f821691505b602082108103613a4657634e487b7160e01b600052602260045260246000fd5b50919050565b601f82111561095e57806000526020600020601f840160051c81016020851015613a735750805b601f840160051c820191505b81811015613a935760008155600101613a7f565b5050505050565b81516001600160401b03811115613ab357613ab3613360565b613ac781613ac18454613a12565b84613a4c565b6020601f821160018114613afb5760008315613ae35750848201515b600019600385901b1c1916600184901b178455613a93565b600084815260208120601f198516915b82811015613b2b5787850151825560209485019460019092019101613b0b565b5084821015613b495786840151600019600387901b60f8161c191681555b50505050600190811b01905550565b6001600160a01b038716815260ff86811660208301528516604082015260c060608201819052600090613b8d90830186613491565b8281036080840152613b9f8186613491565b905082810360a0840152613bb38185613491565b9998505050505050505050565b634e487b7160e01b600052601160045260246000fd5b8082018082111561083057610830613bc0565b600060208284031215613bfb57600080fd5b5051919050565b6001600160601b03818116838216019081111561083057610830613bc0565b6001600160a01b03929092168252602082015260400190565b600060208284031215613c4c57600080fd5b815161254e816132a2565b634e487b7160e01b600052602160045260246000fd5b60ff818116838216019081111561083057610830613bc0565b6001600160601b038181168382160290811690818114611ef357611ef3613bc0565b634e487b7160e01b600052601260045260246000fd5b60006001600160601b03831680613cd757613cd7613ca8565b6001600160601b03929092169190910492915050565b808202811582820484141761083057610830613bc0565b600082613d1357613d13613ca8565b500490565b8181038181111561083057610830613bc0565b600060208284031215613d3d57600080fd5b8151801515811461254e57600080fd5b60008251613d5f81846020870161346d565b9190910192915050565b828152604060208201526000613d826040830184613491565b94935050505056fe3f939797bbee504ef25a922a8408fbdcebc4752f31f0d6c8ea42babea9f5e8dd360894a13ba1a3210667c828492db98dca3e2076cc3735a920a3ca505d382bbccfeeafde86c38dcd27e7f3574225bf6be8c78e4aa28ebc85bc2989e109c15c1ba49807205ce4d355092ef5a8a18f56e8913cf4a201fbe287825b095693c21775a26469706673582212205269f72483028522a784b0544c33d1254a6466190a3f1c794bdb3fd3a8005a1b64736f6c634300081c0033",
  "linkReferences": {},
  "deployedLinkReferences": {}
}