{
  "_format": "hh-sol-artifact-1",
  "contractName": "EngagementRewards",
  "sourceName": "contracts/EngagementRewards.sol",
  "abi": [
    {
      "inputs": [
        {
          "internalType": "bool",
          "name": "_isDevEnv",
          "type": "bool"
        }
      ],
      "stateMutability": "nonpayable",
      "type": "constructor"
    },
    {
      "inputs": [],
      "name": "AccessControlBadConfirmation",
      "type": "error"
    },
    {
      "inputs": [
        {
          "internalType": "address",
          "name": "account",
          "type": "address"
        },
        {
          "internalType": "bytes32",
          "name": "neededRole",
          "type": "bytes32"
        }
      ],
      "name": "AccessControlUnauthorizedAccount",
      "type": "error"
    },
    {
      "inputs": [
        {
          "internalType": "address",
          "name": "target",
          "type": "address"
        }
      ],
      "name": "AddressEmptyCode",
      "type": "error"
    },
    {
      "inputs": [
        {
          "internalType": "address",
          "name": "implementation",
          "type": "address"
        }
      ],
      "name": "ERC1967InvalidImplementation",
      "type": "error"
    },
    {
      "inputs": [],
      "name": "ERC1967NonPayable",
      "type": "error"
    },
    {
      "inputs": [],
      "name": "FailedCall",
      "type": "error"
    },
    {
      "inputs": [],
      "name": "InvalidInitialization",
      "type": "error"
    },
    {
      "inputs": [],
      "name": "NotInitializing",
      "type": "error"
    },
    {
      "inputs": [],
      "name": "ReentrancyGuardReentrantCall",
      "type": "error"
    },
    {
      "inputs": [],
      "name": "UUPSUnauthorizedCallContext",
      "type": "error"
    },
    {
      "inputs": [
        {
          "internalType": "bytes32",
          "name": "slot",
          "type": "bytes32"
        }
      ],
      "name": "UUPSUnsupportedProxiableUUID",
      "type": "error"
    },
    {
      "anonymous": false,
      "inputs": [
        {
          "indexed": true,
          "internalType": "address",
          "name": "app",
          "type": "address"
        },
        {
          "indexed": true,
          "internalType": "address",
          "name": "owner",
          "type": "address"
        },
        {
          "indexed": false,
          "internalType": "address",
          "name": "rewardReceiver",
          "type": "address"
        },
        {
          "indexed": false,
          "internalType": "uint256",
          "name": "userAndInviterPercentage",
          "type": "uint256"
        },
        {
          "indexed": false,
          "internalType": "uint256",
          "name": "userPercentage",
          "type": "uint256"
        },
        {
          "indexed": false,
          "internalType": "string",
          "name": "description",
          "type": "string"
        },
        {
          "indexed": false,
          "internalType": "string",
          "name": "url",
          "type": "string"
        },
        {
          "indexed": false,
          "internalType": "string",
          "name": "email",
          "type": "string"
        }
      ],
      "name": "AppApplied",
      "type": "event"
    },
    {
      "anonymous": false,
      "inputs": [
        {
          "indexed": true,
          "internalType": "address",
          "name": "app",
          "type": "address"
        }
      ],
      "name": "AppApproved",
      "type": "event"
    },
    {
      "anonymous": false,
      "inputs": [
        {
          "indexed": true,
          "internalType": "address",
          "name": "app",
          "type": "address"
        }
      ],
      "name": "AppRemoved",
      "type": "event"
    },
    {
      "anonymous": false,
      "inputs": [
        {
          "indexed": true,
          "internalType": "address",
          "name": "app",
          "type": "address"
        },
        {
          "indexed": false,
          "internalType": "uint256",
          "name": "userAndInviterPercentage",
          "type": "uint256"
        },
        {
          "indexed": false,
          "internalType": "uint256",
          "name": "userPercentage",
          "type": "uint256"
        }
      ],
      "name": "AppSettingsUpdated",
      "type": "event"
    },
    {
      "anonymous": false,
      "inputs": [
        {
          "indexed": true,
          "internalType": "address",
          "name": "app",
          "type": "address"
        }
      ],
      "name": "AppUnapproved",
      "type": "event"
    },
    {
      "anonymous": false,
      "inputs": [],
      "name": "EIP712DomainChanged",
      "type": "event"
    },
    {
      "anonymous": false,
      "inputs": [
        {
          "indexed": false,
          "internalType": "uint64",
          "name": "version",
          "type": "uint64"
        }
      ],
      "name": "Initialized",
      "type": "event"
    },
    {
      "anonymous": false,
      "inputs": [
        {
          "indexed": false,
          "internalType": "uint8",
          "name": "newAmount",
          "type": "uint8"
        }
      ],
      "name": "MaxAppsPerUserUpdated",
      "type": "event"
    },
    {
      "anonymous": false,
      "inputs": [
        {
          "indexed": false,
          "internalType": "uint256",
          "name": "newAmount",
          "type": "uint256"
        }
      ],
      "name": "RewardAmountUpdated",
      "type": "event"
    },
    {
      "anonymous": false,
      "inputs": [
        {
          "indexed": true,
          "internalType": "address",
          "name": "app",
          "type": "address"
        },
        {
          "indexed": true,
          "internalType": "address",
          "name": "user",
          "type": "address"
        },
        {
          "indexed": true,
          "internalType": "address",
          "name": "inviter",
          "type": "address"
        },
        {
          "indexed": false,
          "internalType": "uint256",
          "name": "appReward",
          "type": "uint256"
        },
        {
          "indexed": false,
          "internalType": "uint256",
          "name": "userAmount",
          "type": "uint256"
        },
        {
          "indexed": false,
          "internalType": "uint256",
          "name": "inviterAmount",
          "type": "uint256"
        }
      ],
      "name": "RewardClaimed",
      "type": "event"
    },
    {
      "anonymous": false,
      "inputs": [
        {
          "indexed": true,
          "internalType": "bytes32",
          "name": "role",
          "type": "bytes32"
        },
        {
          "indexed": true,
          "internalType": "bytes32",
          "name": "previousAdminRole",
          "type": "bytes32"
        },
        {
          "indexed": true,
          "internalType": "bytes32",
          "name": "newAdminRole",
          "type": "bytes32"
        }
      ],
      "name": "RoleAdminChanged",
      "type": "event"
    },
    {
      "anonymous": false,
      "inputs": [
        {
          "indexed": true,
          "internalType": "bytes32",
          "name": "role",
          "type": "bytes32"
        },
        {
          "indexed": true,
          "internalType": "address",
          "name": "account",
          "type": "address"
        },
        {
          "indexed": true,
          "internalType": "address",
          "name": "sender",
          "type": "address"
        }
      ],
      "name": "RoleGranted",
      "type": "event"
    },
    {
      "anonymous": false,
      "inputs": [
        {
          "indexed": true,
          "internalType": "bytes32",
          "name": "role",
          "type": "bytes32"
        },
        {
          "indexed": true,
          "internalType": "address",
          "name": "account",
          "type": "address"
        },
        {
          "indexed": true,
          "internalType": "address",
          "name": "sender",
          "type": "address"
        }
      ],
      "name": "RoleRevoked",
      "type": "event"
    },
    {
      "anonymous": false,
      "inputs": [
        {
          "indexed": true,
          "internalType": "address",
          "name": "implementation",
          "type": "address"
        }
      ],
      "name": "Upgraded",
      "type": "event"
    },
    {
      "inputs": [],
      "name": "ADMIN_ROLE",
      "outputs": [
        {
          "internalType": "bytes32",
          "name": "",
          "type": "bytes32"
        }
      ],
      "stateMutability": "view",
      "type": "function"
    },
    {
      "inputs": [],
      "name": "APP_CLAIM_TYPEHASH",
      "outputs": [
        {
          "internalType": "bytes32",
          "name": "",
          "type": "bytes32"
        }
      ],
      "stateMutability": "view",
      "type": "function"
    },
    {
      "inputs": [],
      "name": "APP_EXPIRATION",
      "outputs": [
        {
          "internalType": "uint256",
          "name": "",
          "type": "uint256"
        }
      ],
      "stateMutability": "view",
      "type": "function"
    },
    {
      "inputs": [],
      "name": "CLAIM_COOLDOWN",
      "outputs": [
        {
          "internalType": "uint256",
          "name": "",
          "type": "uint256"
        }
      ],
      "stateMutability": "view",
      "type": "function"
    },
    {
      "inputs": [],
      "name": "CLAIM_TYPEHASH",
      "outputs": [
        {
          "internalType": "bytes32",
          "name": "",
          "type": "bytes32"
        }
      ],
      "stateMutability": "view",
      "type": "function"
    },
    {
      "inputs": [],
      "name": "DEFAULT_ADMIN_ROLE",
      "outputs": [
        {
          "internalType": "bytes32",
          "name": "",
          "type": "bytes32"
        }
      ],
      "stateMutability": "view",
      "type": "function"
    },
    {
      "inputs": [],
      "name": "IS_DEV_ENV",
      "outputs": [
        {
          "internalType": "bool",
          "name": "",
          "type": "bool"
        }
      ],
      "stateMutability": "view",
      "type": "function"
    },
    {
      "inputs": [],
      "name": "UPGRADE_INTERFACE_VERSION",
      "outputs": [
        {
          "internalType": "string",
          "name": "",
          "type": "string"
        }
      ],
      "stateMutability": "view",
      "type": "function"
    },
    {
      "inputs": [
        {
          "internalType": "address",
          "name": "user",
          "type": "address"
        },
        {
          "internalType": "address",
          "name": "inviter",
          "type": "address"
        },
        {
          "internalType": "uint256",
          "name": "validUntilBlock",
          "type": "uint256"
        },
        {
          "internalType": "bytes",
          "name": "signature",
          "type": "bytes"
        },
        {
          "internalType": "uint8",
          "name": "userAndInviterPercentage",
          "type": "uint8"
        },
        {
          "internalType": "uint8",
          "name": "userPercentage",
          "type": "uint8"
        }
      ],
      "name": "appClaim",
      "outputs": [
        {
          "internalType": "bool",
          "name": "",
          "type": "bool"
        }
      ],
      "stateMutability": "nonpayable",
      "type": "function"
    },
    {
      "inputs": [
        {
          "internalType": "address",
          "name": "user",
          "type": "address"
        },
        {
          "internalType": "address",
          "name": "inviter",
          "type": "address"
        },
        {
          "internalType": "uint256",
          "name": "validUntilBlock",
          "type": "uint256"
        },
        {
          "internalType": "bytes",
          "name": "signature",
          "type": "bytes"
        }
      ],
      "name": "appClaim",
      "outputs": [
        {
          "internalType": "bool",
          "name": "",
          "type": "bool"
        }
      ],
      "stateMutability": "nonpayable",
      "type": "function"
    },
    {
      "inputs": [
        {
          "internalType": "uint256",
          "name": "",
          "type": "uint256"
        }
      ],
      "name": "appliedApps",
      "outputs": [
        {
          "internalType": "address",
          "name": "",
          "type": "address"
        }
      ],
      "stateMutability": "view",
      "type": "function"
    },
    {
      "inputs": [
        {
          "internalType": "address",
          "name": "app",
          "type": "address"
        },
        {
          "internalType": "address",
          "name": "rewardReceiver",
          "type": "address"
        },
        {
          "internalType": "uint8",
          "name": "userAndInviterPercentage",
          "type": "uint8"
        },
        {
          "internalType": "uint8",
          "name": "userPercentage",
          "type": "uint8"
        },
        {
          "internalType": "string",
          "name": "description",
          "type": "string"
        },
        {
          "internalType": "string",
          "name": "url",
          "type": "string"
        },
        {
          "internalType": "string",
          "name": "email",
          "type": "string"
        }
      ],
      "name": "applyApp",
      "outputs": [],
      "stateMutability": "nonpayable",
      "type": "function"
    },
    {
      "inputs": [
        {
          "internalType": "address",
          "name": "app",
          "type": "address"
        }
      ],
      "name": "approve",
      "outputs": [],
      "stateMutability": "nonpayable",
      "type": "function"
    },
    {
      "inputs": [
        {
          "internalType": "address",
          "name": "",
          "type": "address"
        }
      ],
      "name": "appsStats",
      "outputs": [
        {
          "internalType": "uint96",
          "name": "numberOfRewards",
          "type": "uint96"
        },
        {
          "internalType": "uint96",
          "name": "totalAppRewards",
          "type": "uint96"
        },
        {
          "internalType": "uint96",
          "name": "totalUserRewards",
          "type": "uint96"
        },
        {
          "internalType": "uint96",
          "name": "totalInviterRewards",
          "type": "uint96"
        }
      ],
      "stateMutability": "view",
      "type": "function"
    },
    {
      "inputs": [
        {
          "internalType": "address",
          "name": "app",
          "type": "address"
        },
        {
          "internalType": "address",
          "name": "user",
          "type": "address"
        }
      ],
      "name": "canClaim",
      "outputs": [
        {
          "internalType": "bool",
          "name": "",
          "type": "bool"
        }
      ],
      "stateMutability": "view",
      "type": "function"
    },
    {
      "inputs": [
        {
          "internalType": "address",
          "name": "app",
          "type": "address"
        }
      ],
      "name": "deletePendingApp",
      "outputs": [],
      "stateMutability": "nonpayable",
      "type": "function"
    },
    {
      "inputs": [],
      "name": "eip712Domain",
      "outputs": [
        {
          "internalType": "bytes1",
          "name": "fields",
          "type": "bytes1"
        },
        {
          "internalType": "string",
          "name": "name",
          "type": "string"
        },
        {
          "internalType": "string",
          "name": "version",
          "type": "string"
        },
        {
          "internalType": "uint256",
          "name": "chainId",
          "type": "uint256"
        },
        {
          "internalType": "address",
          "name": "verifyingContract",
          "type": "address"
        },
        {
          "internalType": "bytes32",
          "name": "salt",
          "type": "bytes32"
        },
        {
          "internalType": "uint256[]",
          "name": "extensions",
          "type": "uint256[]"
        }
      ],
      "stateMutability": "view",
      "type": "function"
    },
    {
      "inputs": [],
      "name": "getAppliedApps",
      "outputs": [
        {
          "components": [
            {
              "internalType": "address",
              "name": "owner",
              "type": "address"
            },
            {
              "internalType": "address",
              "name": "rewardReceiver",
              "type": "address"
            },
            {
              "internalType": "uint96",
              "name": "totalRewardsClaimed",
              "type": "uint96"
            },
            {
              "internalType": "uint32",
              "name": "registeredAt",
              "type": "uint32"
            },
            {
              "internalType": "uint32",
              "name": "lastResetAt",
              "type": "uint32"
            },
            {
              "internalType": "uint8",
              "name": "userAndInviterPercentage",
              "type": "uint8"
            },
            {
              "internalType": "uint8",
              "name": "userPercentage",
              "type": "uint8"
            },
            {
              "internalType": "bool",
              "name": "isRegistered",
              "type": "bool"
            },
            {
              "internalType": "bool",
              "name": "isApproved",
              "type": "bool"
            },
            {
              "internalType": "string",
              "name": "description",
              "type": "string"
            },
            {
              "internalType": "string",
              "name": "url",
              "type": "string"
            },
            {
              "internalType": "string",
              "name": "email",
              "type": "string"
            },
            {
              "internalType": "address",
              "name": "app",
              "type": "address"
            },
            {
              "internalType": "address",
              "name": "signer",
              "type": "address"
            }
          ],
          "internalType": "struct EngagementRewards.AppInfo[]",
          "name": "apps",
          "type": "tuple[]"
        }
      ],
      "stateMutability": "view",
      "type": "function"
    },
    {
      "inputs": [],
      "name": "getDomainSeparator",
      "outputs": [
        {
          "internalType": "bytes32",
          "name": "",
          "type": "bytes32"
        }
      ],
      "stateMutability": "view",
      "type": "function"
    },
    {
      "inputs": [
        {
          "internalType": "bytes32",
          "name": "role",
          "type": "bytes32"
        }
      ],
      "name": "getRoleAdmin",
      "outputs": [
        {
          "internalType": "bytes32",
          "name": "",
          "type": "bytes32"
        }
      ],
      "stateMutability": "view",
      "type": "function"
    },
    {
      "inputs": [
        {
          "internalType": "address",
          "name": "user",
          "type": "address"
        }
      ],
      "name": "getUserPeriodStats",
      "outputs": [
        {
          "internalType": "uint8",
          "name": "appsClaimedThisPeriod",
          "type": "uint8"
        },
        {
          "internalType": "uint32",
          "name": "periodStartTimestamp",
          "type": "uint32"
        }
      ],
      "stateMutability": "view",
      "type": "function"
    },
    {
      "inputs": [
        {
          "internalType": "bytes32",
          "name": "role",
          "type": "bytes32"
        },
        {
          "internalType": "address",
          "name": "account",
          "type": "address"
        }
      ],
      "name": "grantRole",
      "outputs": [],
      "stateMutability": "nonpayable",
      "type": "function"
    },
    {
      "inputs": [
        {
          "internalType": "bytes32",
          "name": "role",
          "type": "bytes32"
        },
        {
          "internalType": "address",
          "name": "account",
          "type": "address"
        }
      ],
      "name": "hasRole",
      "outputs": [
        {
          "internalType": "bool",
          "name": "",
          "type": "bool"
        }
      ],
      "stateMutability": "view",
      "type": "function"
    },
    {
      "inputs": [],
      "name": "identityContract",
      "outputs": [
        {
          "internalType": "contract IIdentity",
          "name": "",
          "type": "address"
        }
      ],
      "stateMutability": "view",
      "type": "function"
    },
    {
      "inputs": [
        {
          "internalType": "contract IERC20",
          "name": "_rewardToken",
          "type": "address"
        },
        {
          "internalType": "contract IIdentity",
          "name": "_identityContract",
          "type": "address"
        },
        {
          "internalType": "uint256",
          "name": "_maxRewardsPerApp",
          "type": "uint256"
        },
        {
          "internalType": "uint256",
          "name": "_rewardAmount",
          "type": "uint256"
        }
      ],
      "name": "initialize",
      "outputs": [],
      "stateMutability": "nonpayable",
      "type": "function"
    },
    {
      "inputs": [],
      "name": "maxAppsPerUser",
      "outputs": [
        {
          "internalType": "uint8",
          "name": "",
          "type": "uint8"
        }
      ],
      "stateMutability": "view",
      "type": "function"
    },
    {
      "inputs": [],
      "name": "maxRewardsPerApp",
      "outputs": [
        {
          "internalType": "uint96",
          "name": "",
          "type": "uint96"
        }
      ],
      "stateMutability": "view",
      "type": "function"
    },
    {
      "inputs": [
        {
          "internalType": "address",
          "name": "app",
          "type": "address"
        },
        {
          "internalType": "address",
          "name": "inviter",
          "type": "address"
        },
        {
          "internalType": "uint256",
          "name": "validUntilBlock",
          "type": "uint256"
        },
        {
          "internalType": "bytes",
          "name": "userSignature",
          "type": "bytes"
        },
        {
          "internalType": "bytes",
          "name": "appSignature",
          "type": "bytes"
        }
      ],
      "name": "nonContractAppClaim",
      "outputs": [
        {
          "internalType": "bool",
          "name": "",
          "type": "bool"
        }
      ],
      "stateMutability": "nonpayable",
      "type": "function"
    },
    {
      "inputs": [
        {
          "components": [
            {
              "internalType": "address",
              "name": "owner",
              "type": "address"
            },
            {
              "internalType": "address",
              "name": "rewardReceiver",
              "type": "address"
            },
            {
              "internalType": "uint96",
              "name": "totalRewardsClaimed",
              "type": "uint96"
            },
            {
              "internalType": "uint32",
              "name": "registeredAt",
              "type": "uint32"
            },
            {
              "internalType": "uint32",
              "name": "lastResetAt",
              "type": "uint32"
            },
            {
              "internalType": "uint8",
              "name": "userAndInviterPercentage",
              "type": "uint8"
            },
            {
              "internalType": "uint8",
              "name": "userPercentage",
              "type": "uint8"
            },
            {
              "internalType": "bool",
              "name": "isRegistered",
              "type": "bool"
            },
            {
              "internalType": "bool",
              "name": "isApproved",
              "type": "bool"
            },
            {
              "internalType": "string",
              "name": "description",
              "type": "string"
            },
            {
              "internalType": "string",
              "name": "url",
              "type": "string"
            },
            {
              "internalType": "string",
              "name": "email",
              "type": "string"
            },
            {
              "internalType": "address",
              "name": "app",
              "type": "address"
            },
            {
              "internalType": "address",
              "name": "signer",
              "type": "address"
            }
          ],
          "internalType": "struct EngagementRewards.AppInfo",
          "name": "app",
          "type": "tuple"
        }
      ],
      "name": "overwriteAppDetails",
      "outputs": [],
      "stateMutability": "nonpayable",
      "type": "function"
    },
    {
      "inputs": [],
      "name": "proxiableUUID",
      "outputs": [
        {
          "internalType": "bytes32",
          "name": "",
          "type": "bytes32"
        }
      ],
      "stateMutability": "view",
      "type": "function"
    },
    {
      "inputs": [
        {
          "internalType": "address",
          "name": "",
          "type": "address"
        }
      ],
      "name": "registeredApps",
      "outputs": [
        {
          "internalType": "address",
          "name": "owner",
          "type": "address"
        },
        {
          "internalType": "address",
          "name": "rewardReceiver",
          "type": "address"
        },
        {
          "internalType": "uint96",
          "name": "totalRewardsClaimed",
          "type": "uint96"
        },
        {
          "internalType": "uint32",
          "name": "registeredAt",
          "type": "uint32"
        },
        {
          "internalType": "uint32",
          "name": "lastResetAt",
          "type": "uint32"
        },
        {
          "internalType": "uint8",
          "name": "userAndInviterPercentage",
          "type": "uint8"
        },
        {
          "internalType": "uint8",
          "name": "userPercentage",
          "type": "uint8"
        },
        {
          "internalType": "bool",
          "name": "isRegistered",
          "type": "bool"
        },
        {
          "internalType": "bool",
          "name": "isApproved",
          "type": "bool"
        },
        {
          "internalType": "string",
          "name": "description",
          "type": "string"
        },
        {
          "internalType": "string",
          "name": "url",
          "type": "string"
        },
        {
          "internalType": "string",
          "name": "email",
          "type": "string"
        },
        {
          "internalType": "address",
          "name": "app",
          "type": "address"
        },
        {
          "internalType": "address",
          "name": "signer",
          "type": "address"
        }
      ],
      "stateMutability": "view",
      "type": "function"
    },
    {
      "inputs": [
        {
          "internalType": "bytes32",
          "name": "role",
          "type": "bytes32"
        },
        {
          "internalType": "address",
          "name": "callerConfirmation",
          "type": "address"
        }
      ],
      "name": "renounceRole",
      "outputs": [],
      "stateMutability": "nonpayable",
      "type": "function"
    },
    {
      "inputs": [
        {
          "internalType": "address",
          "name": "app",
          "type": "address"
        }
      ],
      "name": "revokeAppApproval",
      "outputs": [],
      "stateMutability": "nonpayable",
      "type": "function"
    },
    {
      "inputs": [
        {
          "internalType": "bytes32",
          "name": "role",
          "type": "bytes32"
        },
        {
          "internalType": "address",
          "name": "account",
          "type": "address"
        }
      ],
      "name": "revokeRole",
      "outputs": [],
      "stateMutability": "nonpayable",
      "type": "function"
    },
    {
      "inputs": [],
      "name": "rewardAmount",
      "outputs": [
        {
          "internalType": "uint96",
          "name": "",
          "type": "uint96"
        }
      ],
      "stateMutability": "view",
      "type": "function"
    },
    {
      "inputs": [],
      "name": "rewardToken",
      "outputs": [
        {
          "internalType": "contract IERC20",
          "name": "",
          "type": "address"
        }
      ],
      "stateMutability": "view",
      "type": "function"
    },
    {
      "inputs": [
        {
          "internalType": "address",
          "name": "app",
          "type": "address"
        },
        {
          "internalType": "address",
          "name": "signer",
          "type": "address"
        }
      ],
      "name": "setAppSigner",
      "outputs": [],
      "stateMutability": "nonpayable",
      "type": "function"
    },
    {
      "inputs": [
        {
          "internalType": "address",
          "name": "_identity",
          "type": "address"
        }
      ],
      "name": "setIdentityContract",
      "outputs": [],
      "stateMutability": "nonpayable",
      "type": "function"
    },
    {
      "inputs": [
        {
          "internalType": "uint8",
          "name": "_maxAppsPerUser",
          "type": "uint8"
        }
      ],
      "name": "setMaxAppsPerUser",
      "outputs": [],
      "stateMutability": "nonpayable",
      "type": "function"
    },
    {
      "inputs": [
        {
          "internalType": "uint96",
          "name": "_maxRewardsPerApp",
          "type": "uint96"
        }
      ],
      "name": "setMaxRewardsPerApp",
      "outputs": [],
      "stateMutability": "nonpayable",
      "type": "function"
    },
    {
      "inputs": [
        {
          "internalType": "uint96",
          "name": "_rewardAmount",
          "type": "uint96"
        }
      ],
      "name": "setRewardAmount",
      "outputs": [],
      "stateMutability": "nonpayable",
      "type": "function"
    },
    {
      "inputs": [
        {
          "internalType": "bytes4",
          "name": "interfaceId",
          "type": "bytes4"
        }
      ],
      "name": "supportsInterface",
      "outputs": [
        {
          "internalType": "bool",
          "name": "",
          "type": "bool"
        }
      ],
      "stateMutability": "view",
      "type": "function"
    },
    {
      "inputs": [
        {
          "internalType": "address",
          "name": "app",
          "type": "address"
        },
        {
          "internalType": "address",
          "name": "rewardReceiver",
          "type": "address"
        },
        {
          "internalType": "uint8",
          "name": "userAndInviterPercentage",
          "type": "uint8"
        },
        {
          "internalType": "uint8",
          "name": "userPercentage",
          "type": "uint8"
        }
      ],
      "name": "updateAppSettings",
      "outputs": [],
      "stateMutability": "nonpayable",
      "type": "function"
    },
    {
      "inputs": [
        {
          "internalType": "address[]",
          "name": "apps",
          "type": "address[]"
        }
      ],
      "name": "upgrade",
      "outputs": [],
      "stateMutability": "nonpayable",
      "type": "function"
    },
    {
      "inputs": [
        {
          "internalType": "address",
          "name": "newImplementation",
          "type": "address"
        },
        {
          "internalType": "bytes",
          "name": "data",
          "type": "bytes"
        }
      ],
      "name": "upgradeToAndCall",
      "outputs": [],
      "stateMutability": "payable",
      "type": "function"
    },
    {
      "inputs": [
        {
          "internalType": "address",
          "name": "",
          "type": "address"
        }
      ],
      "name": "userPeriodClaims",
      "outputs": [
        {
          "internalType": "uint8",
          "name": "periodClaims",
          "type": "uint8"
        },
        {
          "internalType": "uint32",
          "name": "lastClaimTimestamp",
          "type": "uint32"
        }
      ],
      "stateMutability": "view",
      "type": "function"
    },
    {
      "inputs": [
        {
          "internalType": "address",
          "name": "",
          "type": "address"
        },
        {
          "internalType": "address",
          "name": "",
          "type": "address"
        }
      ],
      "name": "userRegistrations",
      "outputs": [
        {
          "internalType": "uint32",
          "name": "isRegistered",
          "type": "uint32"
        },
        {
          "internalType": "uint32",
          "name": "lastClaimTimestamp",
          "type": "uint32"
        }
      ],
      "stateMutability": "view",
      "type": "function"
    }
  ],
  "bytecode": "0x60c03461014c57601f61509f38819003918201601f19168301916001600160401b038311848410176101515780849260209460405283398101031261014c5751801515810361014c573060805260a0527ff0c57e16840df040f15088dc2f81fe391c3923bec73e23a9662efc9c229c6a005460ff8160401c1661013b576002600160401b03196001600160401b038216016100d2575b604051614f379081610168823960805181818161261101526126a5015260a051818181610aac015281816121390152818161251a0152612c700152f35b6001600160401b0319166001600160401b039081177ff0c57e16840df040f15088dc2f81fe391c3923bec73e23a9662efc9c229c6a00556040519081527fc7f505b2f371ae2175ee4913f4499e1f2633a7b5936321eed1cdaeb6115181d290602090a138610095565b63f92ee8a960e01b60005260046000fd5b600080fd5b634e487b7160e01b600052604160045260246000fdfe6080604052600436101561001257600080fd5b60003560e01c80630183592b1461305357806301ffc9a714612ffd57806309e2636214612fd457806313980d0314612c9557806319a54c7b14612b685780631f5031fe14612b25578063248a9ca314612b075780632aec8fe114612a8b5780632f2ff15d14612a5a5780633395e6e714612a1857806336568abe146129d257806337c909ec146129b457806349eb67f81461287d5780634f1ef2861461266857806352d1902d146125fe578063567e38e3146125df57806356e62e64146125b657806367031bae1461258d5780636b0509b11461256457806373c80a551461230c57806375b238fc146122e357806384b0196e146121b857806391d148541461215e5780639420f4a9146121215780639dd96d47146120b0578063a217fddf14612094578063a284e898146115d7578063a532e7ac14611061578063a617e65314611035578063a6c4cce914610efa578063abe3bfef14610d85578063ad3cb1cc14610d3e578063cc733fe914610d0d578063d3ea970114610c28578063d547741f14610bf0578063d68a776e14610b9f578063d7bac3dc14610ad1578063daea85c514610978578063e170546e146108b0578063e4e5bc7a14610853578063e6d5864b14610810578063eb990c5914610328578063ed24911d14610305578063f7b2a7be146102d8578063f7c618c1146102af578063f8b68aa21461024a5763fe7bf9b21461022157600080fd5b3461024557600036600319011261024557602060ff60015460a01c16604051908152f35b600080fd5b3461024557604036600319011261024557610263613245565b61026b61325b565b9060018060a01b0316600052600560205260406000209060018060a01b03166000526020526040806000205463ffffffff825191818116835260201c166020820152f35b34610245576000366003190112610245576000546040516001600160a01b039091168152602090f35b346102455760003660031901126102455760025460405160609190911c6001600160601b03168152602090f35b34610245576000366003190112610245576020610320614a63565b604051908152f35b34610245576080366003190112610245576004356001600160a01b03811690819003610245576024356001600160a01b0381169081900361024557600080516020614e8283398151915254604081901c60ff161591906001600160401b03811680159081610808575b60011490816107fe575b1590816107f5575b506107e4576001600160401b03198116600117600080516020614e8283398151915255826107bb575b506103d8831515613713565b6103e3811515613713565b6103eb614a35565b60409283516103fa858261320b565b6011815270456e676167656d656e745265776172647360781b6020820152845190610425868361320b565b60038252620312e360ec1b602083015261043d614a35565b610445614a35565b8051906001600160401b0382116106cd5761046e600080516020614ce2833981519152546133b9565b601f8111610771575b50602090601f83116001146106ee5761049b9291600091836106e3575b50506138ba565b600080516020614ce2833981519152555b8051906001600160401b0382116106cd576104d5600080516020614d62833981519152546133b9565b601f8111610678575b50602090601f83116001146105f5576105019291600091836105ea5750506138ba565b600080516020614d62833981519152555b6000600080516020614d82833981519152556000600080516020614ea28339815191525561053e614a35565b600080546001600160a01b03191691909117905560018054600280546001600160c01b0319166044356001600160601b03161760643560601b600160601b600160c01b03161790556001600160a81b031916909117600360a01b1790556105a433613f1b565b506105ae33613f97565b506105b557005b600080516020614e82833981519152805460ff60401b191690555160018152600080516020614d2283398151915290602090a1005b015190508780610494565b90601f19831691600080516020614d62833981519152600052816000209260005b8181106106605750908460019594939210610647575b505050811b01600080516020614d6283398151915255610512565b015160001960f88460031b161c1916905586808061062c565b92936020600181928786015181550195019301610616565b600080516020614d628339815191526000526106bd90600080516020614ec2833981519152601f850160051c810191602086106106c3575b601f0160051c01906138a3565b866104de565b90915081906106b0565b634e487b7160e01b600052604160045260246000fd5b015190508880610494565b90601f19831691600080516020614ce2833981519152600052816000209260005b8181106107595750908460019594939210610740575b505050811b01600080516020614ce2833981519152556104ac565b015160001960f88460031b161c19169055878080610725565b9293602060018192878601518155019501930161070f565b600080516020614ce28339815191526000526107b590600080516020614dc2833981519152601f850160051c810191602086106106c357601f0160051c01906138a3565b87610477565b6001600160481b0319166001600160401b0117600080516020614e8283398151915255836103cc565b63f92ee8a960e01b60005260046000fd5b905015856103a3565b303b15915061039b565b849150610391565b3461024557602036600319011261024557610829613245565b610831613eaa565b600180546001600160a01b0319166001600160a01b0392909216919091179055005b346102455760803660031901126102455761086c613245565b61087461325b565b606435906001600160401b0382116102455760209261089a6108a6933690600401613356565b91604435913390614154565b6040519015158152f35b34610245576040366003190112610245576108c9613245565b6108d161325b565b6001600160a01b03918216600081815260036020526040902054919290916108fb9116331461375a565b6001600160a01b0382161561093a57600090815260036020526040902060070180546001600160a01b0319166001600160a01b03909216919091179055005b60405162461bcd60e51b8152602060048201526016602482015275496e76616c6964207369676e6572206164647265737360501b6044820152606490fd5b3461024557602036600319011261024557610991613245565b336000908152600080516020614cc2833981519152602052604090205460ff161580610aa9575b610a825760018060a01b038116908160005260036020526109e660ff60026040600020015460501c16613694565b816000526003602052610a0760ff60026040600020015460581c1615613860565b816000526003602052630a762fea63ffffffff6002604060002001541610610a73575b506000818152600360205260408120600201805460ff60581b1916600160581b1790557f95e9598427a2e62bd5a93d3a083bc0d32989e80c16ad07312a0bb406b53e36919080a2005b610a7c90613646565b81610a2a565b63e2517d3f60e01b60005233600452600080516020614e6283398151915260245260446000fd5b507f0000000000000000000000000000000000000000000000000000000000000000156109b8565b346102455760203660031901126102455760043560ff81169081810361024557610af9613eaa565b8115610b4a576001805460ff60a01b191660a09290921b60ff60a01b169190911790556040519081527fbb1c987d41b58fea76843b44edae6b324dcf334d1070a3c8c7896c7f59f75a8190602090a1005b60405162461bcd60e51b815260206004820152602760248201527f52657761726473207065722075736572206d75737420626520677265617465726044820152660207468616e20360cc1b6064820152608490fd5b34610245576020366003190112610245576001600160a01b03610bc0613245565b166000526006602052610bec604060002054604051918160ff63ffffffff859460081c169116836135f5565b0390f35b3461024557604036600319011261024557610c26600435610c0f61325b565b90610c21610c1c826136f2565b613ed1565b6140b4565b005b346102455760c036600319011261024557610c41613245565b610c4961325b565b906064356001600160401b03811161024557610c69903690600401613356565b9160843560ff8116908181036102455760a4359160ff83169081840361024557610ca291610c9b606480931115613796565b11156137e1565b6002600080516020614e428339815191525414610cfc57602094610ce0946001946002600080516020614e42833981519152556044359133906141a6565b6001600080516020614e42833981519152556040519015158152f35b633ee5aeb560e01b60005260046000fd5b3461024557602036600319011261024557610d2e610d29613245565b613e5b565b90610bec604051928392836135f5565b3461024557600036600319011261024557610bec6040805190610d61818361320b565b60058252640352e302e360dc1b602083015251918291602083526020830190613285565b346102455760a036600319011261024557610d9e613245565b610da661325b565b906044356064356001600160401b03811161024557610dc9903690600401613356565b906084356001600160401b03811161024557610de9903690600401613356565b60405190610e3860208301600080516020614d02833981519152815260018060a01b0387169384604082015233606082015285608082015260808152610e3060a08261320b565b5190206148fb565b610e43828288614921565b928315610ece575b8315610ea4575b50505015610e67576020936108a69333614154565b60405162461bcd60e51b8152602060048201526015602482015274496e76616c696420617070207369676e617475726560581b6044820152606490fd5b600090815260036020526040902054610ec693506001600160a01b0316614921565b858080610e52565b8093506000526003602052610ef4828260018060a01b0360076040600020015416614921565b92610e4b565b34610245576020366003190112610245576001600160a01b03610f1b613245565b166000526003602052604060002060018060a01b038154166001820154916002810154611024610f4d60038401613553565b611015610f5c60048601613553565b611006610f6b60058801613553565b9360ff60018060a01b0360068a01541698600760018060a01b0391015416976040519b8c9b8c5260018060a01b03811660208d015260a01c60408c015263ffffffff811660608c015263ffffffff8160201c1660808c0152818160401c1660a08c0152818160481c1660c08c0152818160501c16151560e08c015260581c1615156101008a01526101c06101208a01526101c0890190613285565b90878203610140890152613285565b90858203610160870152613285565b916101808401526101a08301520390f35b346102455760403660031901126102455760206108a6611053613245565b61105b61325b565b906139a7565b34610245576020366003190112610245576004356001600160401b038111610245576101c060031982360301126102455760405161109e816131ef565b6110aa82600401613271565b81526110b860248301613271565b60208201908152916044810135906001600160601b038216820361024557604083019182526110e96064820161339b565b606084019081526110fc6084830161339b565b906080850191825261111060a4840161332d565b9060a0860191825261112460c4850161332d565b60c0870190815261113760e486016133ac565b60e0880190815261114b61010487016133ac565b6101008901908152916101248701356001600160401b0381116102455761117890600436918a0101613356565b6101208a01908152946101448801356001600160401b038111610245576111a590600436918b0101613356565b6101408b01908152966101648901356001600160401b0381116102455736908a01600401906111d391613356565b6101608c019081529b6111e96101848b01613271565b996101808d019a8b526101a4016111ff90613271565b9a6101a08d019b8c52611210613eaa565b8a516001600160a01b0390811660009081526003602052604090209d518e546001600160a01b0319908116918316919091178f55925160018f01805490941691161782555161126b916001600160601b039190911690613929565b945160028b01805463ffffffff191663ffffffff928316178155955161129291168661394c565b5160ff166112a09085613826565b5160ff166112ae9084613843565b51825460ff60501b191690151560501b60ff60501b16178255516112d591901515906136d5565b51805160038601916001600160401b0382116106cd576112f583546133b9565b601f81116115a5575b50602090601f831160011461153e576113219291600091836115335750506138ba565b90555b51805160048501916001600160401b0382116106cd5761134483546133b9565b601f8111611501575b50602090601f831160011461149a576113709291600091836106e35750506138ba565b90555b92518051939060058401906001600160401b0386116106cd5761139682546133b9565b601f8111611468575b50602090601f87116001146113fe5795806113c692600797986000926106e35750506138ba565b90555b516006840180546001600160a01b039283166001600160a01b0319918216179091559151929093018054929093169116179055005b90601f1987169183600052816000209260005b81811061145057509160019391896007999a9410611437575b505050811b0190556113c9565b015160001960f88460031b161c1916905587808061142a565b92936020600181928786015181550195019301611411565b61149490836000526020600020601f890160051c81019160208a106106c357601f0160051c01906138a3565b8661139f565b90601f1983169184600052816000209260005b8181106114e957509084600195949392106114d0575b505050811b019055611373565b015160001960f88460031b161c191690558780806114c3565b929360206001819287860151815501950193016114ad565b61152d90846000526020600020601f850160051c810191602086106106c357601f0160051c01906138a3565b8761134d565b015190508980610494565b90601f1983169184600052816000209260005b81811061158d5750908460019594939210611574575b505050811b019055611324565b015160001960f88460031b161c19169055888080611567565b92936020600181928786015181550195019301611551565b6115d190846000526020600020601f850160051c810191602086106106c357601f0160051c01906138a3565b886112fe565b346102455760e0366003190112610245576115f0613245565b6115f861325b565b9061160161330d565b9161160a61331d565b926084356001600160401b0381116102455761162a903690600401613356565b9160a4356001600160401b0381116102455761164a903690600401613356565b60c4356001600160401b03811161024557611669903690600401613356565b9361167e6001600160a01b0387161515613713565b6116926001600160a01b0384161515613713565b6116a2606460ff86161115613796565b6116b2606460ff891611156137e1565b80516102008111159081612088575b501561204d5781518015159081612041575b501561200e5784518015159081612002575b5015611fcd576001600160a01b03868116600090815260036020526040902080549098911615611aea5761172360018060a01b03895416331461375a565b60028801805460ff60581b191681556001890180546001600160a01b0319166001600160a01b0387161790559761175a868a613826565b611764828a613843565b825160038201906001600160401b0381116106cd5761178382546133b9565b601f8111611ab8575b506020601f8211600114611a545790806117ae92600091611a49575b506138ba565b90555b835160048201906001600160401b0381116106cd576117d082546133b9565b601f8111611a17575b506020601f82116001146119af578160059493926117fe926000916119a457506138ba565b90555b87519991016001600160401b038a116106cd5761181e81546133b9565b8a601f8211611971575b50506020601f8b116001146118e9576118d995936118b2936118c0969361186d8e8d9e9f60ff96600080516020614ee28339815191529f6000926118de5750506138ba565b90555b805463ffffffff19164263ffffffff161790555b81604051998a9960018060a01b03168a5216602089015216604087015260c0606087015260c0860190613285565b908482036080860152613285565b82810360a084015233966001600160a01b031695613285565b0390a3005b015190508f80610494565b99601f1981169a82600052806000209b60005b8181106119595750936118c096936001848d9e9f6118d99b9995600080516020614ee28339815191529f60ff986118b29b10611940575b505050811b019055611870565b015160001960f88460031b161c19169055388f80611933565b8b8301518e556001909d019c602092830192016118fc565b61199d91836000526020600020906020601f840160051c830193106106c357601f0160051c01906138a3565b8a8a611828565b90508801518e6117a8565b601f1982169083600052806000209160005b8181106119ff57509183916005969594600194106119e6575b5050811b019055611801565b89015160001960f88460031b161c191690558d806119da565b9192602060018192868d0151815501940192016119c1565b611a4390836000526020600020601f840160051c810191602085106106c357601f0160051c01906138a3565b8b6117d9565b90508601518d6117a8565b601f1982169083600052806000209160005b818110611aa057509083600194939210611a87575b5050811b0190556117b1565b87015160001960f88460031b161c191690558c80611a7b565b9192602060018192868c015181550194019201611a66565b611ae490836000526020600020601f840160051c810191602085106106c357601f0160051c01906138a3565b8b61178c565b909650611af686613646565b611aff86613646565b6040514263ffffffff16611b12826131ef565b3382526001600160a01b0385811660208085019182526000604080870182815260608801879052608088019690965260ff8b811660a0890152881660c0880152600160e08801819052610100880183905261012088018f905261014088018a905261016088018d90528d861661018089018190526101a08901849052835260039093529020855181546001600160a01b031990811691861691909117825592519181018054909316919093161781559151909291611bd9916001600160601b031690613929565b611c5a6002830163ffffffff806060850151161663ffffffff19825416178155611c0d63ffffffff6080850151168261394c565b611c1e60ff60a08501511682613826565b611c2f60ff60c08501511682613843565b60e0830151815460ff60501b191690151560501b60ff60501b161781556101008301511515906136d5565b610120810151805160038401916001600160401b0382116106cd57611c7f83546133b9565b601f8111611f9b575b50602090601f8311600114611f3457611cab929160009183611e905750506138ba565b90555b610140810151805160048401916001600160401b0382116106cd57611cd383546133b9565b601f8111611f02575b50602090601f8311600114611e9b57611cff929160009183611e905750506138ba565b90555b6101608101518051906001600160401b0382116106cd57611d2660058501546133b9565b601f8111611e5b575b50602090601f8311600114611dc957946118d9969460076118b295611d76600080516020614ee28339815191529d9e9f968060ff976118c09c600092611dbe5750506138ba565b60058401555b6101808101516006840180546001600160a01b039283166001600160a01b0319918216179091556101a090920151929093018054929093169116179055611884565b015190503880610494565b9060058501600052806000209160005b601f1985168110611e4357509460076118b2956001600080516020614ee28339815191529d9e9f9660ff966118c09b966118d99d9b83601f19811610611e2a575b505050811b016005840155611d7c565b015160001960f88460031b161c19169055388080611e1a565b91926020600181928685015181550194019201611dd9565b611e8a90600586016000526020600020601f850160051c810191602086106106c357601f0160051c01906138a3565b8b611d2f565b015190508d80610494565b90601f1983169184600052816000209260005b818110611eea5750908460019594939210611ed1575b505050811b019055611d02565b015160001960f88460031b161c191690558c8080611ec4565b92936020600181928786015181550195019301611eae565b611f2e90846000526020600020601f850160051c810191602086106106c357601f0160051c01906138a3565b8c611cdc565b90601f1983169184600052816000209260005b818110611f835750908460019594939210611f6a575b505050811b019055611cae565b015160001960f88460031b161c191690558c8080611f5d565b92936020600181928786015181550195019301611f47565b611fc790846000526020600020601f850160051c810191602086106106c357601f0160051c01906138a3565b8c611c88565b60405162461bcd60e51b815260206004820152600d60248201526c125b9d985b1a5908195b585a5b609a1b6044820152606490fd5b60ff91501115886116e5565b60405162461bcd60e51b815260206004820152600b60248201526a125b9d985b1a590815549360aa1b6044820152606490fd5b60ff91501115886116d3565b60405162461bcd60e51b815260206004820152601360248201527224b73b30b634b2103232b9b1b934b83a34b7b760691b6044820152606490fd5b603291501015886116c1565b3461024557600036600319011261024557602060405160008152f35b34610245576020366003190112610245576001600160a01b036120d1613245565b16600090815260046020908152604091829020805460019091015483516001600160601b038084168252606093841c81169482019490945283821694810194909452811c90911690820152608090f35b346102455760003660031901126102455760206040517f000000000000000000000000000000000000000000000000000000000000000015158152f35b346102455760403660031901126102455761217761325b565b600435600052600080516020614e0283398151915260205260406000209060018060a01b0316600052602052602060ff604060002054166040519015158152f35b3461024557600036600319011261024557600080516020614d828339815191525415806122cc575b1561228f576122316121f06133f3565b6121f86134b4565b602061223f6040519261220b838561320b565b600084526000368137604051958695600f60f81b875260e08588015260e0870190613285565b908582036040870152613285565b466060850152306080850152600060a085015283810360c085015281808451928381520193019160005b82811061227857505050500390f35b835185528695509381019392810192600101612269565b60405162461bcd60e51b81526020600482015260156024820152741152540dcc4c8e88155b9a5b9a5d1a585b1a5e9959605a1b6044820152606490fd5b50600080516020614ea283398151915254156121e0565b34610245576000366003190112610245576020604051600080516020614e628339815191528152f35b34610245576020366003190112610245576001600160a01b0361232d613245565b1680600052600360205261234e60ff60026040600020015460501c16613694565b80600052600360205261236f60ff60026040600020015460581c1615613860565b80600052600360205260018060a01b03604060002054163314801561253e575b8015612517575b156124e15780600052600360205260006007604082208281558260018201558260028201556123c7600382016138cd565b6123d3600482016138cd565b6123df600582016138cd565b826006820155015560005b60075490818110156124da5782612400826132dc565b905460039190911b1c6001600160a01b0316146124215760019150016123ea565b60001982019182116124c45761245461243c61245a936132dc565b905460039190911b1c6001600160a01b0316916132dc565b90613623565b60075480156124ae5760001901612470816132dc565b81549060018060a01b039060031b1b191690556007555b7f64ecca4f81ddcc60db42b63a19cafd95c43528dfed705de03e4422e1ebe7803f600080a2005b634e487b7160e01b600052603160045260246000fd5b634e487b7160e01b600052601160045260246000fd5b5050612487565b60405162461bcd60e51b815260206004820152600e60248201526d139bdd08185d5d1a1bdc9a5e995960921b6044820152606490fd5b507f0000000000000000000000000000000000000000000000000000000000000000612396565b50336000908152600080516020614cc2833981519152602052604090205460ff1661238f565b34610245576000366003190112610245576020604051600080516020614e228339815191528152f35b34610245576000366003190112610245576001546040516001600160a01b039091168152602090f35b34610245576000366003190112610245576020604051600080516020614d028339815191528152f35b346102455760003660031901126102455760206040516301e133808152f35b34610245576000366003190112610245577f00000000000000000000000000000000000000000000000000000000000000006001600160a01b03163003612657576020604051600080516020614de28339815191528152f35b63703e46dd60e11b60005260046000fd5b60403660031901126102455761267c613245565b6024356001600160401b0381116102455761269b903690600401613356565b6001600160a01b037f00000000000000000000000000000000000000000000000000000000000000001630811490811561285a575b5061265757336000908152600080516020614da2833981519152602052604090205460ff1615612840576040516352d1902d60e01b81526001600160a01b0383169290602081600481875afa60009181612809575b5061273f5783634c9c8ce360e01b60005260045260246000fd5b80600080516020614de28339815191528592036127f55750813b156127e157600080516020614de283398151915280546001600160a01b031916821790557fbc7cd75a20ee27fd9adebab32041f755214dbc6bffa90cc0225b39da2e5c2d3b600080a28151156127c757600080836020610c2695519101845af46127c1614aca565b91614bc1565b5050346127d057005b63b398979f60e01b60005260046000fd5b634c9c8ce360e01b60005260045260246000fd5b632a87526960e21b60005260045260246000fd5b90916020823d602011612838575b816128246020938361320b565b810103126128355750519085612725565b80fd5b3d9150612817565b63e2517d3f60e01b60005233600452600060245260446000fd5b600080516020614de2833981519152546001600160a01b031614159050836126d0565b3461024557608036600319011261024557612896613245565b7f817dcd9d9a3f9ee6dbc0878d11d70ae3a2a31c7398c4169b9796de7fbf2a61a660406128c161325b565b6128c961330d565b906129a76128d561331d565b956128ea6001600160a01b0384161515613713565b60018060a01b03169586600052600360205261291260ff600287600020015460501c16613694565b86600052600360205261293260018060a01b03866000205416331461375a565b61299260ff8516946129476064871115613796565b60ff83169461295960648711156137e1565b60008a8152600360205288812060010180546001600160a01b0319166001600160a01b0390931692909217909155879020600201613826565b86600052600360205260028560002001613843565b82519182526020820152a2005b3461024557600036600319011261024557602060405162ed4e008152f35b34610245576040366003190112610245576129eb61325b565b336001600160a01b03821603612a0757610c26906004356140b4565b63334bd91960e11b60005260046000fd5b346102455760203660031901126102455760043560075481101561024557612a416020916132dc565b905460405160039290921b1c6001600160a01b03168152f35b3461024557604036600319011261024557610c26600435612a7961325b565b90612a86610c1c826136f2565b61401d565b34610245576020366003190112610245577f9639dea65e74b72b1b86ccf3e4f9b6d23b88d2aad2f103d0b3afe394e67edade6020612ac76132c6565b612acf613eaa565b60028054600160601b600160c01b031916606083901b600160601b600160c01b03161790556040516001600160601b039091168152a1005b346102455760203660031901126102455760206103206004356136f2565b3461024557602036600319011261024557612b3e6132c6565b612b46613eaa565b600280546001600160601b0319166001600160601b0392909216919091179055005b3461024557602036600319011261024557612b81613245565b336000908152600080516020614cc2833981519152602052604090205460ff161580612c6d575b610a82576001600160a01b0316600081815260036020526040902060020154612bd69060501c60ff16613694565b80600052600360205260ff60026040600020015460581c1615612c35576000818152600360205260408120600201805460ff60581b191690557f3c096163118bfa10d76507153924d96f9965ea869a37681ef19109ba69377dcc9080a2005b60405162461bcd60e51b815260206004820152601060248201526f105c1c081b9bdd08185c1c1c9bdd995960821b6044820152606490fd5b507f000000000000000000000000000000000000000000000000000000000000000015612ba8565b3461024557600036600319011261024557600754612cb28161322e565b90612cc0604051928361320b565b808252601f19612ccf8261322e565b0160005b818110612f5557505060005b818110612e3657826040518091602082016020835281518091526040830190602060408260051b8601019301916000905b828210612d1f57505050500390f35b919360019193955060208091603f19898203018552875190848060a01b038251168152848060a01b03838301511683820152848060601b03604083015116604082015263ffffffff606083015116606082015263ffffffff608083015116608082015260ff60a08301511660a082015260ff60c08301511660c082015260e0820151151560e082015261010082015115156101008201526101a0612e04612df0612ddc6101208601516101c06101208701526101c0860190613285565b610140860151858203610140870152613285565b610160850151848203610160860152613285565b92868060a01b036101808201511661018084015281878060a01b03910151169101529601920192018594939192612d10565b80612e426001926132dc565b838060a01b0391549060031b1c166000526003602052604060002060405190612e6a826131ef565b838060a01b03815416825283810154848060a01b038116602084015260a01c604083015260ff600282015463ffffffff8116606085015263ffffffff8160201c166080850152818160401c1660a0850152818160481c1660c0850152818160501c16151560e085015260581c161515610100830152612eeb60038201613553565b610120830152612efd60048201613553565b610140830152612f0f60058201613553565b610160830152838060a01b036006820154166101808301526007848060a01b03910154166101a0820152612f43828661360f565b52612f4e818561360f565b5001612cdf565b602090604051612f64816131ef565b60008152600083820152600060408201526000606082015260006080820152600060a0820152600060c0820152600060e08201526000610100820152606061012082015260606101408201526060610160820152600061018082015260006101a082015282828701015201612cd3565b34610245576000366003190112610245576002546040516001600160601b039091168152602090f35b346102455760203660031901126102455760043563ffffffff60e01b811680910361024557602090637965db0b60e01b8114908115613042575b506040519015158152f35b6301ffc9a760e01b14905082613037565b34610245576020366003190112610245576004356001600160401b03811161024557366023820112156102455780600401359061308f8261322e565b9161309d604051938461320b565b8083526024602084019160051b8301019136831161024557602401905b8282106131d75783600080516020614e828339815191525460ff8160401c1680156131c3575b6107e4576001600160481b0319166002600160401b0117600080516020614e828339815191525560005b8151811015613181576001906131326001600160a01b0361312b838661360f565b5116613646565b818060a01b03613142828561360f565b5116828060a01b03613154838661360f565b51166000526003602052600660406000200190838060a01b0316838060a01b03198254161790550161310a565b60ff60401b19600080516020614e828339815191525416600080516020614e8283398151915255600080516020614d22833981519152602060405160028152a1005b5060026001600160401b03821610156130e0565b602080916131e484613271565b8152019101906130ba565b6101c081019081106001600160401b038211176106cd57604052565b601f909101601f19168101906001600160401b038211908210176106cd57604052565b6001600160401b0381116106cd5760051b60200190565b600435906001600160a01b038216820361024557565b602435906001600160a01b038216820361024557565b35906001600160a01b038216820361024557565b919082519283825260005b8481106132b1575050826000602080949584010152601f8019910116010190565b80602080928401015182828601015201613290565b600435906001600160601b038216820361024557565b6007548110156132f757600760005260206000200190600090565b634e487b7160e01b600052603260045260246000fd5b6044359060ff8216820361024557565b6064359060ff8216820361024557565b359060ff8216820361024557565b6001600160401b0381116106cd57601f01601f191660200190565b81601f82011215610245576020813591016133708261333b565b9261337e604051948561320b565b828452828201116102455781600092602092838601378301015290565b359063ffffffff8216820361024557565b3590811515820361024557565b90600182811c921680156133e9575b60208310146133d357565b634e487b7160e01b600052602260045260246000fd5b91607f16916133c8565b60405190600082600080516020614ce28339815191525491613414836133b9565b8083529260018116908115613495575060011461343a575b6134389250038361320b565b565b50600080516020614ce283398151915260009081529091600080516020614dc28339815191525b8183106134795750509060206134389282010161342c565b6020919350806001915483858901015201910190918492613461565b6020925061343894915060ff191682840152151560051b82010161342c565b60405190600082600080516020614d6283398151915254916134d5836133b9565b808352926001811690811561349557506001146134f8576134389250038361320b565b50600080516020614d6283398151915260009081529091600080516020614ec28339815191525b8183106135375750509060206134389282010161342c565b602091935080600191548385890101520191019091849261351f565b9060405191826000825492613567846133b9565b80845293600181169081156135d3575060011461358c575b506134389250038361320b565b90506000929192526020600020906000915b8183106135b7575050906020613438928201013861357f565b602091935080600191548385890101520191019091849261359e565b90506020925061343894915060ff191682840152151560051b8201013861357f565b60ff909116815263ffffffff909116602082015260400190565b80518210156132f75760209160051b010190565b80546001600160a01b0360039390931b83811b199091169290931690921b179055565b6007549190600160401b8310156106cd57600183016007556000926007548110156136805760009060208560076134389697522001613623565b634e487b7160e01b84526032600452602484fd5b1561369b57565b60405162461bcd60e51b8152602060048201526012602482015271105c1c081b9bdd081c9959da5cdd195c995960721b6044820152606490fd5b805460ff60581b191691151560581b60ff60581b16919091179055565b600052600080516020614e0283398151915260205260016040600020015490565b1561371a57565b60405162461bcd60e51b815260206004820152601860248201527716995c9bc81859191c995cdcc81b9bdd08185b1b1bddd95960421b6044820152606490fd5b1561376157565b60405162461bcd60e51b815260206004820152600d60248201526c2737ba1030b8381037bbb732b960991b6044820152606490fd5b1561379d57565b606460405162461bcd60e51b815260206004820152602060248201527f496e76616c69642075736572416e64496e766974657250657263656e746167656044820152fd5b156137e857565b60405162461bcd60e51b8152602060048201526016602482015275496e76616c6964207573657250657263656e7461676560501b6044820152606490fd5b805460ff60401b191660409290921b60ff60401b16919091179055565b805460ff60481b191660489290921b60ff60481b16919091179055565b1561386757565b60405162461bcd60e51b8152602060048201526014602482015273105c1c08185b1c9958591e48185c1c1c9bdd995960621b6044820152606490fd5b8181106138ae575050565b600081556001016138a3565b8160011b916000199060031b1c19161790565b6138d781546133b9565b90816138e1575050565b81601f600093116001146138f3575055565b8183526020832061390f91601f0160051c8101906001016138a3565b8082528160208120915555565b919082039182116124c457565b80546001600160a01b031660a09290921b6001600160a01b031916919091179055565b805463ffffffff60201b191660209290921b63ffffffff60201b16919091179055565b9081602091031261024557516001600160a01b03811681036102455790565b6001600160601b0391821690821601919082116124c457565b6001600160a01b03909116908115613e1f576001546040516316874da360e11b8152600481018490529091906020816024816001600160a01b0387165afa908115613d1157600091613df0575b506001600160a01b031615613db45760018060a01b031680600052600560205260406000208360005260205263ffffffff60406000205460201c1662ed4e0081018091116124c4574210613d725760025491606083901c6001600160601b0316918215613d1d576000546040516370a0823160e01b815230600482015290602090829060249082906001600160a01b03165afa8015613d11578491600091613cdc575b5010613c8d576000526003602052604060002093600052600660205260ff6040600020549160a01c1660ff821610908115613c6c575b5015613c2957600283015460ff8160501c1680613c1c575b15613bd75763ffffffff81166301e1338081018091116124c457421015613b975763ffffffff9060201c1662ed4e0081018091116124c457421092831593613b6e575b50505015613b3557600190565b60405162461bcd60e51b8152602060048201526011602482015270417070206d61786564207265776172647360781b6044820152606490fd5b613b809293506001015460a01c61398e565b6001600160601b0391821691161115388080613b28565b60405162461bcd60e51b8152602060048201526018602482015277105c1c081c9959da5cdd1c985d1a5bdb88195e1c1a5c995960421b6044820152606490fd5b60405162461bcd60e51b815260206004820152601e60248201527f417070206e6f7420617070726f766564206f72207265676973746572656400006044820152606490fd5b5060ff8160581c16613ae5565b60405162461bcd60e51b815260206004820152601b60248201527a13585e08185c1c1cc81c195c881c195c9a5bd9081c995858da1959602a1b6044820152606490fd5b63ffffffff915060081c1662ed4e0081018091116124c45742101538613acd565b60405162461bcd60e51b815260206004820152602160248201527f496e73756666696369656e742072657761726420746f6b656e2062616c616e636044820152606560f81b6064820152608490fd5b9150506020813d602011613d09575b81613cf86020938361320b565b810103126102455783905138613a97565b3d9150613ceb565b6040513d6000823e3d90fd5b60405162461bcd60e51b815260206004820152602760248201527f52657761726420616d6f756e74206d7573742062652067726561746572207468604482015266616e207a65726f60c81b6064820152608490fd5b60405162461bcd60e51b815260206004820152601a60248201527910db185a5b4818dbdbdb191bdddb881b9bdd081c995858da195960321b6044820152606490fd5b60405162461bcd60e51b8152602060048201526014602482015273155cd95c881b9bdd081dda1a5d195b1a5cdd195960621b6044820152606490fd5b613e12915060203d602011613e18575b613e0a818361320b565b81019061396f565b386139f4565b503d613e00565b60405162461bcd60e51b8152602060048201526014602482015273496e76616c69642075736572206164647265737360601b6044820152606490fd5b6001600160a01b0316600090815260066020526040902054600881901c63ffffffff16919062ed4e0083018084116124c457421015613e9b5760ff169190565b50600091504263ffffffff1690565b336000908152600080516020614cc2833981519152602052604090205460ff1615610a8257565b6000818152600080516020614e028339815191526020908152604080832033845290915290205460ff1615613f035750565b63e2517d3f60e01b6000523360045260245260446000fd5b6001600160a01b0381166000908152600080516020614da2833981519152602052604090205460ff16613f91576001600160a01b03166000818152600080516020614da283398151915260205260408120805460ff19166001179055339190600080516020614ca28339815191528180a4600190565b50600090565b6001600160a01b0381166000908152600080516020614cc2833981519152602052604090205460ff16613f91576001600160a01b03166000818152600080516020614cc283398151915260205260408120805460ff19166001179055339190600080516020614e6283398151915290600080516020614ca28339815191529080a4600190565b6000818152600080516020614e02833981519152602090815260408083206001600160a01b038616845290915290205460ff166140ad576000818152600080516020614e02833981519152602090815260408083206001600160a01b0395909516808452949091528120805460ff1916600117905533929190600080516020614ca28339815191529080a4600190565b5050600090565b6000818152600080516020614e02833981519152602090815260408083206001600160a01b038616845290915290205460ff16156140ad576000818152600080516020614e02833981519152602090815260408083206001600160a01b0395909516808452949091528120805460ff19169055339291907ff6391f5c32d9c69d2a47ea670b442974b53935d1edc7fd64eb21e047a839171b9080a4600190565b909192936002600080516020614e428339815191525414610cfc5761419194600094859485946002600080516020614e42833981519152556141a6565b906001600080516020614e4283398151915255565b6001546040516316874da360e11b81526001600160a01b0380841660048301819052989a98999498939793969193919260209185916024918391165afa928315613d11576000936148da575b50811515806148d0575b614732575b505060018060a01b03861695866000526005602052604060002060018060a01b03831660005260205263ffffffff6040600020541687600052600360205263ffffffff60026040600020015416116146ef578161425d916139a7565b156146e25763ffffffff421690866000526005602052604060002060018060a01b03821660005260205261429582604060002061394c565b86600052600360205260406000209060018060a01b03166000526006602052604060002091600282019063ffffffff825460201c1662ed4e0081018091116124c4574210156146c1575b505063ffffffff825460081c1662ed4e0081018091116124c4574210156146a4575b600160ff835416019160ff83116124c45760ff614347931660ff198254161790556143416001808060601b0360025460601c16920191825460a01c61398e565b90613929565b600085815260036020526040902060018101546001600160a01b031697841561469257935b156146805750905b60025460601c6001600160601b039081169360ff1684029081169081036124c4576001600160601b036064909104169160ff168083029083820414831517156124c45760646143cf9104926143c9848261391c565b9461391c565b6001600160a01b038216979094881591908261466f575b600088815260046020526040902080546001600160601b03908116600101939084116124c45781546001600160601b0319166001600160601b039485161780835587948a93600192909161446f91614445918088169160601c1661398e565b828054600160601b600160c01b03191660609290921b600160601b600160c01b0316919091179055565b01805461448f90614445906001600160601b038c81169160601c1661398e565b80546001600160601b03906144a99087831690831661398e565b82546001600160601b031916911617905581614604575b50508161459e575b50501580614595575b614501575b5091606091600080516020614d428339815191529360405192835260208301526040820152a4600190565b6000805460405163a9059cbb60e01b81529593949260209287926001600160a01b031691839190829061453990889060048401614a1a565b03925af1928315613d1157600080516020614d4283398151915294606094614566575b50919350916144d6565b6145879060203d60201161458e575b61457f818361320b565b810190614a02565b503861455c565b503d614575565b508215156144d1565b6145cf9160209160018060a01b036000541690600060405180968195829463a9059cbb60e01b845260048401614a1a565b03925af18015613d11576145e5575b83906144c8565b6145fd9060203d60201161458e5761457f818361320b565b50386145de565b61463793509060209160018060a01b036000541690600060405180978195829463a9059cbb60e01b845260048401614a1a565b03925af1918215613d11578592614650575b87906144c0565b6146689060203d60201161458e5761457f818361320b565b5038614649565b958581018091116124c457956143e6565b60ff91506002015460481c1690614374565b5060ff600282015460401c169361436c565b815464ffffffffff19164260081b64ffffffff0016178255614301565b6001830180546001600160a01b031690556146db9161394c565b38806142df565b5050505050505050600090565b60405162461bcd60e51b815260206004820152601b60248201527a055736572206e6f74207265676973746572656420666f722061707602c1b6044820152606490fd5b61025843018043116124c457821161488157438210614848576147c9906147c360018060a01b038a16938460005260036020526147756003604060002001613553565b60208151910120604051906020820192600080516020614e22833981519152845287604084015260018060a01b038b166060840152608083015260a082015260a08152610e3060c08261320b565b88614921565b1561480a5760009081526005602090815260408083206001600160a01b03851684529091529020805463ffffffff19164263ffffffff161790553880614201565b60405162461bcd60e51b8152602060048201526016602482015275496e76616c69642075736572207369676e617475726560501b6044820152606490fd5b60405162461bcd60e51b815260206004820152601160248201527014da59db985d1d5c9948195e1c1a5c9959607a1b6044820152606490fd5b60405162461bcd60e51b815260206004820152602160248201527f56616c6964556e74696c426c6f636b20746f6f2066617220696e2066757475726044820152606560f81b6064820152608490fd5b50805115156141fc565b6148f491935060203d602011613e1857613e0a818361320b565b91386141f2565b604290614906614a63565b906040519161190160f01b8352600283015260228201522090565b9190823b614972579061493391614afa565b50600481101561495c5715918261494957505090565b6001600160a01b03918216911614919050565b634e487b7160e01b600052602160045260246000fd5b916000926149a96149b785946040519283916020830195630b135d3f60e11b87526024840152604060448401526064830190613285565b03601f19810183528261320b565b51915afa6149c3614aca565b816149f4575b816149d2575090565b80516020808301935090820191909103126102455751630b135d3f60e11b1490565b9050602081511015906149c9565b90816020910312610245575180151581036102455790565b6001600160a01b039091168152602081019190915260400190565b60ff600080516020614e828339815191525460401c1615614a5257565b631afcd79f60e31b60005260046000fd5b614a6b614b36565b614a73614b8e565b6040519060208201927f8b73c3c69bb8fe3d512ecc4cf759cc79239f7b179b0ffacaa9a75d522b39400f8452604083015260608201524660808201523060a082015260a08152614ac460c08261320b565b51902090565b3d15614af5573d90614adb8261333b565b91614ae9604051938461320b565b82523d6000602084013e565b606090565b8151919060418303614b2b57614b2492506020820151906060604084015193015160001a90614c22565b9192909190565b505060009160029190565b614b3e6133f3565b8051908115614b4e576020012090565b5050600080516020614d82833981519152548015614b695790565b507fc5d2460186f7233c927e7db2dcc703c0e500b653ca82273b7bfad8045d85a47090565b614b966134b4565b8051908115614ba6576020012090565b5050600080516020614ea2833981519152548015614b695790565b90614be75750805115614bd657805190602001fd5b63d6bda27560e01b60005260046000fd5b81511580614c19575b614bf8575090565b639996b31560e01b60009081526001600160a01b0391909116600452602490fd5b50803b15614bf0565b91906fa2a8918ca85bafe22016d0b997e4df60600160ff1b038411614c95579160209360809260ff60009560405194855216868401526040830152606082015282805260015afa15613d11576000516001600160a01b03811615614c895790600090600090565b50600090600190600090565b5050506000916003919056fe2f8788117e7eff1d82e926ec794901d17c78024a50270940304540a733656f0db16e88c42fd4e48df2dd6a2eabd6bc9aec654ec170056b470819f8892cc6431ca16a46d94261c7517cc8ff89f61c0ce93598e3c849801011dee649a6a557d1023f939797bbee504ef25a922a8408fbdcebc4752f31f0d6c8ea42babea9f5e8ddc7f505b2f371ae2175ee4913f4499e1f2633a7b5936321eed1cdaeb6115181d24af0f3bbba19bd2ae80915d3dcbc4b38837833848ce3b3cd23d9043235865a36a16a46d94261c7517cc8ff89f61c0ce93598e3c849801011dee649a6a557d103a16a46d94261c7517cc8ff89f61c0ce93598e3c849801011dee649a6a557d100b7db2dd08fcb62d0c9e08c51941cae53c267786a0b75803fb7960902fc8ef97d42ad5d3e1f2e6e70edcf6d991b8a3023d3fca8047a131592f9edb9fd9b89d57d360894a13ba1a3210667c828492db98dca3e2076cc3735a920a3ca505d382bbc02dd7bc7dec4dceedda775e58dd541e08a116c6c53815c0bd028192f7b626800cfeeafde86c38dcd27e7f3574225bf6be8c78e4aa28ebc85bc2989e109c15c1b9b779b17422d0df92223018b32b4d1fa46e071723d6817e2486d003becc55f00a49807205ce4d355092ef5a8a18f56e8913cf4a201fbe287825b095693c21775f0c57e16840df040f15088dc2f81fe391c3923bec73e23a9662efc9c229c6a00a16a46d94261c7517cc8ff89f61c0ce93598e3c849801011dee649a6a557d1015f9ce34815f8e11431c7bb75a8e6886a91478f7ffc1dbb0a98dc240fddd76b75c025612b0e32541c90be0a3ac84ee4a13a456d5520a7da1b3c1c0f6e821ba59da2646970667358221220e29b5e926fa86ecbcad6313400e7f88f521a99de0a6fbe831079438b627143a064736f6c634300081c0033",
  "linkReferences": {},
  "deployedLinkReferences": {}
}