{
  "_format": "hh-sol-artifact-1",
  "contractName": "EngagementRewards",
  "sourceName": "contracts/EngagementRewards.sol",
  "abi": [
    {
      "inputs": [
        {
          "internalType": "bool",
          "name": "_isDevEnv",
          "type": "bool"
        }
      ],
      "stateMutability": "nonpayable",
      "type": "constructor"
    },
    {
      "inputs": [],
      "name": "AccessControlBadConfirmation",
      "type": "error"
    },
    {
      "inputs": [
        {
          "internalType": "address",
          "name": "account",
          "type": "address"
        },
        {
          "internalType": "bytes32",
          "name": "neededRole",
          "type": "bytes32"
        }
      ],
      "name": "AccessControlUnauthorizedAccount",
      "type": "error"
    },
    {
      "inputs": [
        {
          "internalType": "address",
          "name": "target",
          "type": "address"
        }
      ],
      "name": "AddressEmptyCode",
      "type": "error"
    },
    {
      "inputs": [
        {
          "internalType": "address",
          "name": "implementation",
          "type": "address"
        }
      ],
      "name": "ERC1967InvalidImplementation",
      "type": "error"
    },
    {
      "inputs": [],
      "name": "ERC1967NonPayable",
      "type": "error"
    },
    {
      "inputs": [],
      "name": "FailedCall",
      "type": "error"
    },
    {
      "inputs": [],
      "name": "InvalidInitialization",
      "type": "error"
    },
    {
      "inputs": [],
      "name": "NotInitializing",
      "type": "error"
    },
    {
      "inputs": [],
      "name": "ReentrancyGuardReentrantCall",
      "type": "error"
    },
    {
      "inputs": [],
      "name": "UUPSUnauthorizedCallContext",
      "type": "error"
    },
    {
      "inputs": [
        {
          "internalType": "bytes32",
          "name": "slot",
          "type": "bytes32"
        }
      ],
      "name": "UUPSUnsupportedProxiableUUID",
      "type": "error"
    },
    {
      "anonymous": false,
      "inputs": [
        {
          "indexed": true,
          "internalType": "address",
          "name": "app",
          "type": "address"
        },
        {
          "indexed": true,
          "internalType": "address",
          "name": "owner",
          "type": "address"
        },
        {
          "indexed": false,
          "internalType": "address",
          "name": "rewardReceiver",
          "type": "address"
        },
        {
          "indexed": false,
          "internalType": "uint256",
          "name": "userAndInviterPercentage",
          "type": "uint256"
        },
        {
          "indexed": false,
          "internalType": "uint256",
          "name": "userPercentage",
          "type": "uint256"
        },
        {
          "indexed": false,
          "internalType": "string",
          "name": "description",
          "type": "string"
        },
        {
          "indexed": false,
          "internalType": "string",
          "name": "url",
          "type": "string"
        },
        {
          "indexed": false,
          "internalType": "string",
          "name": "email",
          "type": "string"
        }
      ],
      "name": "AppApplied",
      "type": "event"
    },
    {
      "anonymous": false,
      "inputs": [
        {
          "indexed": true,
          "internalType": "address",
          "name": "app",
          "type": "address"
        }
      ],
      "name": "AppApproved",
      "type": "event"
    },
    {
      "anonymous": false,
      "inputs": [
        {
          "indexed": true,
          "internalType": "address",
          "name": "app",
          "type": "address"
        },
        {
          "indexed": false,
          "internalType": "uint256",
          "name": "userAndInviterPercentage",
          "type": "uint256"
        },
        {
          "indexed": false,
          "internalType": "uint256",
          "name": "userPercentage",
          "type": "uint256"
        }
      ],
      "name": "AppSettingsUpdated",
      "type": "event"
    },
    {
      "anonymous": false,
      "inputs": [
        {
          "indexed": true,
          "internalType": "address",
          "name": "app",
          "type": "address"
        }
      ],
      "name": "AppUnapproved",
      "type": "event"
    },
    {
      "anonymous": false,
      "inputs": [],
      "name": "EIP712DomainChanged",
      "type": "event"
    },
    {
      "anonymous": false,
      "inputs": [
        {
          "indexed": false,
          "internalType": "uint64",
          "name": "version",
          "type": "uint64"
        }
      ],
      "name": "Initialized",
      "type": "event"
    },
    {
      "anonymous": false,
      "inputs": [
        {
          "indexed": false,
          "internalType": "uint8",
          "name": "newAmount",
          "type": "uint8"
        }
      ],
      "name": "MaxAppsPerUserUpdated",
      "type": "event"
    },
    {
      "anonymous": false,
      "inputs": [
        {
          "indexed": false,
          "internalType": "uint256",
          "name": "newAmount",
          "type": "uint256"
        }
      ],
      "name": "RewardAmountUpdated",
      "type": "event"
    },
    {
      "anonymous": false,
      "inputs": [
        {
          "indexed": true,
          "internalType": "address",
          "name": "app",
          "type": "address"
        },
        {
          "indexed": true,
          "internalType": "address",
          "name": "user",
          "type": "address"
        },
        {
          "indexed": true,
          "internalType": "address",
          "name": "inviter",
          "type": "address"
        },
        {
          "indexed": false,
          "internalType": "uint256",
          "name": "appReward",
          "type": "uint256"
        },
        {
          "indexed": false,
          "internalType": "uint256",
          "name": "userAmount",
          "type": "uint256"
        },
        {
          "indexed": false,
          "internalType": "uint256",
          "name": "inviterAmount",
          "type": "uint256"
        }
      ],
      "name": "RewardClaimed",
      "type": "event"
    },
    {
      "anonymous": false,
      "inputs": [
        {
          "indexed": true,
          "internalType": "bytes32",
          "name": "role",
          "type": "bytes32"
        },
        {
          "indexed": true,
          "internalType": "bytes32",
          "name": "previousAdminRole",
          "type": "bytes32"
        },
        {
          "indexed": true,
          "internalType": "bytes32",
          "name": "newAdminRole",
          "type": "bytes32"
        }
      ],
      "name": "RoleAdminChanged",
      "type": "event"
    },
    {
      "anonymous": false,
      "inputs": [
        {
          "indexed": true,
          "internalType": "bytes32",
          "name": "role",
          "type": "bytes32"
        },
        {
          "indexed": true,
          "internalType": "address",
          "name": "account",
          "type": "address"
        },
        {
          "indexed": true,
          "internalType": "address",
          "name": "sender",
          "type": "address"
        }
      ],
      "name": "RoleGranted",
      "type": "event"
    },
    {
      "anonymous": false,
      "inputs": [
        {
          "indexed": true,
          "internalType": "bytes32",
          "name": "role",
          "type": "bytes32"
        },
        {
          "indexed": true,
          "internalType": "address",
          "name": "account",
          "type": "address"
        },
        {
          "indexed": true,
          "internalType": "address",
          "name": "sender",
          "type": "address"
        }
      ],
      "name": "RoleRevoked",
      "type": "event"
    },
    {
      "anonymous": false,
      "inputs": [
        {
          "indexed": true,
          "internalType": "address",
          "name": "implementation",
          "type": "address"
        }
      ],
      "name": "Upgraded",
      "type": "event"
    },
    {
      "inputs": [],
      "name": "ADMIN_ROLE",
      "outputs": [
        {
          "internalType": "bytes32",
          "name": "",
          "type": "bytes32"
        }
      ],
      "stateMutability": "view",
      "type": "function"
    },
    {
      "inputs": [],
      "name": "APP_CLAIM_TYPEHASH",
      "outputs": [
        {
          "internalType": "bytes32",
          "name": "",
          "type": "bytes32"
        }
      ],
      "stateMutability": "view",
      "type": "function"
    },
    {
      "inputs": [],
      "name": "APP_EXPIRATION",
      "outputs": [
        {
          "internalType": "uint256",
          "name": "",
          "type": "uint256"
        }
      ],
      "stateMutability": "view",
      "type": "function"
    },
    {
      "inputs": [],
      "name": "CLAIM_COOLDOWN",
      "outputs": [
        {
          "internalType": "uint256",
          "name": "",
          "type": "uint256"
        }
      ],
      "stateMutability": "view",
      "type": "function"
    },
    {
      "inputs": [],
      "name": "CLAIM_TYPEHASH",
      "outputs": [
        {
          "internalType": "bytes32",
          "name": "",
          "type": "bytes32"
        }
      ],
      "stateMutability": "view",
      "type": "function"
    },
    {
      "inputs": [],
      "name": "DEFAULT_ADMIN_ROLE",
      "outputs": [
        {
          "internalType": "bytes32",
          "name": "",
          "type": "bytes32"
        }
      ],
      "stateMutability": "view",
      "type": "function"
    },
    {
      "inputs": [],
      "name": "IS_DEV_ENV",
      "outputs": [
        {
          "internalType": "bool",
          "name": "",
          "type": "bool"
        }
      ],
      "stateMutability": "view",
      "type": "function"
    },
    {
      "inputs": [],
      "name": "UPGRADE_INTERFACE_VERSION",
      "outputs": [
        {
          "internalType": "string",
          "name": "",
          "type": "string"
        }
      ],
      "stateMutability": "view",
      "type": "function"
    },
    {
      "inputs": [
        {
          "internalType": "address",
          "name": "user",
          "type": "address"
        },
        {
          "internalType": "address",
          "name": "inviter",
          "type": "address"
        },
        {
          "internalType": "uint256",
          "name": "validUntilBlock",
          "type": "uint256"
        },
        {
          "internalType": "bytes",
          "name": "signature",
          "type": "bytes"
        },
        {
          "internalType": "uint8",
          "name": "userAndInviterPercentage",
          "type": "uint8"
        },
        {
          "internalType": "uint8",
          "name": "userPercentage",
          "type": "uint8"
        }
      ],
      "name": "appClaim",
      "outputs": [
        {
          "internalType": "bool",
          "name": "",
          "type": "bool"
        }
      ],
      "stateMutability": "nonpayable",
      "type": "function"
    },
    {
      "inputs": [
        {
          "internalType": "address",
          "name": "user",
          "type": "address"
        },
        {
          "internalType": "address",
          "name": "inviter",
          "type": "address"
        },
        {
          "internalType": "uint256",
          "name": "validUntilBlock",
          "type": "uint256"
        },
        {
          "internalType": "bytes",
          "name": "signature",
          "type": "bytes"
        }
      ],
      "name": "appClaim",
      "outputs": [
        {
          "internalType": "bool",
          "name": "",
          "type": "bool"
        }
      ],
      "stateMutability": "nonpayable",
      "type": "function"
    },
    {
      "inputs": [
        {
          "internalType": "uint256",
          "name": "",
          "type": "uint256"
        }
      ],
      "name": "appliedApps",
      "outputs": [
        {
          "internalType": "address",
          "name": "",
          "type": "address"
        }
      ],
      "stateMutability": "view",
      "type": "function"
    },
    {
      "inputs": [
        {
          "internalType": "address",
          "name": "app",
          "type": "address"
        },
        {
          "internalType": "address",
          "name": "rewardReceiver",
          "type": "address"
        },
        {
          "internalType": "uint8",
          "name": "userAndInviterPercentage",
          "type": "uint8"
        },
        {
          "internalType": "uint8",
          "name": "userPercentage",
          "type": "uint8"
        },
        {
          "internalType": "string",
          "name": "description",
          "type": "string"
        },
        {
          "internalType": "string",
          "name": "url",
          "type": "string"
        },
        {
          "internalType": "string",
          "name": "email",
          "type": "string"
        }
      ],
      "name": "applyApp",
      "outputs": [],
      "stateMutability": "nonpayable",
      "type": "function"
    },
    {
      "inputs": [
        {
          "internalType": "address",
          "name": "app",
          "type": "address"
        }
      ],
      "name": "approve",
      "outputs": [],
      "stateMutability": "nonpayable",
      "type": "function"
    },
    {
      "inputs": [
        {
          "internalType": "address",
          "name": "",
          "type": "address"
        }
      ],
      "name": "appsStats",
      "outputs": [
        {
          "internalType": "uint96",
          "name": "numberOfRewards",
          "type": "uint96"
        },
        {
          "internalType": "uint96",
          "name": "totalAppRewards",
          "type": "uint96"
        },
        {
          "internalType": "uint96",
          "name": "totalUserRewards",
          "type": "uint96"
        },
        {
          "internalType": "uint96",
          "name": "totalInviterRewards",
          "type": "uint96"
        }
      ],
      "stateMutability": "view",
      "type": "function"
    },
    {
      "inputs": [
        {
          "internalType": "address",
          "name": "app",
          "type": "address"
        },
        {
          "internalType": "address",
          "name": "user",
          "type": "address"
        }
      ],
      "name": "canClaim",
      "outputs": [
        {
          "internalType": "bool",
          "name": "",
          "type": "bool"
        }
      ],
      "stateMutability": "view",
      "type": "function"
    },
    {
      "inputs": [],
      "name": "eip712Domain",
      "outputs": [
        {
          "internalType": "bytes1",
          "name": "fields",
          "type": "bytes1"
        },
        {
          "internalType": "string",
          "name": "name",
          "type": "string"
        },
        {
          "internalType": "string",
          "name": "version",
          "type": "string"
        },
        {
          "internalType": "uint256",
          "name": "chainId",
          "type": "uint256"
        },
        {
          "internalType": "address",
          "name": "verifyingContract",
          "type": "address"
        },
        {
          "internalType": "bytes32",
          "name": "salt",
          "type": "bytes32"
        },
        {
          "internalType": "uint256[]",
          "name": "extensions",
          "type": "uint256[]"
        }
      ],
      "stateMutability": "view",
      "type": "function"
    },
    {
      "inputs": [],
      "name": "getAppliedApps",
      "outputs": [
        {
          "components": [
            {
              "internalType": "address",
              "name": "owner",
              "type": "address"
            },
            {
              "internalType": "address",
              "name": "rewardReceiver",
              "type": "address"
            },
            {
              "internalType": "uint96",
              "name": "totalRewardsClaimed",
              "type": "uint96"
            },
            {
              "internalType": "uint32",
              "name": "registeredAt",
              "type": "uint32"
            },
            {
              "internalType": "uint32",
              "name": "lastResetAt",
              "type": "uint32"
            },
            {
              "internalType": "uint8",
              "name": "userAndInviterPercentage",
              "type": "uint8"
            },
            {
              "internalType": "uint8",
              "name": "userPercentage",
              "type": "uint8"
            },
            {
              "internalType": "bool",
              "name": "isRegistered",
              "type": "bool"
            },
            {
              "internalType": "bool",
              "name": "isApproved",
              "type": "bool"
            },
            {
              "internalType": "string",
              "name": "description",
              "type": "string"
            },
            {
              "internalType": "string",
              "name": "url",
              "type": "string"
            },
            {
              "internalType": "string",
              "name": "email",
              "type": "string"
            },
            {
              "internalType": "address",
              "name": "app",
              "type": "address"
            },
            {
              "internalType": "address",
              "name": "signer",
              "type": "address"
            }
          ],
          "internalType": "struct EngagementRewards.AppInfo[]",
          "name": "apps",
          "type": "tuple[]"
        }
      ],
      "stateMutability": "view",
      "type": "function"
    },
    {
      "inputs": [],
      "name": "getDomainSeparator",
      "outputs": [
        {
          "internalType": "bytes32",
          "name": "",
          "type": "bytes32"
        }
      ],
      "stateMutability": "view",
      "type": "function"
    },
    {
      "inputs": [
        {
          "internalType": "bytes32",
          "name": "role",
          "type": "bytes32"
        }
      ],
      "name": "getRoleAdmin",
      "outputs": [
        {
          "internalType": "bytes32",
          "name": "",
          "type": "bytes32"
        }
      ],
      "stateMutability": "view",
      "type": "function"
    },
    {
      "inputs": [
        {
          "internalType": "address",
          "name": "user",
          "type": "address"
        }
      ],
      "name": "getUserPeriodStats",
      "outputs": [
        {
          "internalType": "uint8",
          "name": "appsClaimedThisPeriod",
          "type": "uint8"
        },
        {
          "internalType": "uint32",
          "name": "periodStartTimestamp",
          "type": "uint32"
        }
      ],
      "stateMutability": "view",
      "type": "function"
    },
    {
      "inputs": [
        {
          "internalType": "bytes32",
          "name": "role",
          "type": "bytes32"
        },
        {
          "internalType": "address",
          "name": "account",
          "type": "address"
        }
      ],
      "name": "grantRole",
      "outputs": [],
      "stateMutability": "nonpayable",
      "type": "function"
    },
    {
      "inputs": [
        {
          "internalType": "bytes32",
          "name": "role",
          "type": "bytes32"
        },
        {
          "internalType": "address",
          "name": "account",
          "type": "address"
        }
      ],
      "name": "hasRole",
      "outputs": [
        {
          "internalType": "bool",
          "name": "",
          "type": "bool"
        }
      ],
      "stateMutability": "view",
      "type": "function"
    },
    {
      "inputs": [],
      "name": "identityContract",
      "outputs": [
        {
          "internalType": "contract IIdentity",
          "name": "",
          "type": "address"
        }
      ],
      "stateMutability": "view",
      "type": "function"
    },
    {
      "inputs": [
        {
          "internalType": "contract IERC20",
          "name": "_rewardToken",
          "type": "address"
        },
        {
          "internalType": "contract IIdentity",
          "name": "_identityContract",
          "type": "address"
        },
        {
          "internalType": "uint256",
          "name": "_maxRewardsPerApp",
          "type": "uint256"
        },
        {
          "internalType": "uint256",
          "name": "_rewardAmount",
          "type": "uint256"
        }
      ],
      "name": "initialize",
      "outputs": [],
      "stateMutability": "nonpayable",
      "type": "function"
    },
    {
      "inputs": [],
      "name": "maxAppsPerUser",
      "outputs": [
        {
          "internalType": "uint8",
          "name": "",
          "type": "uint8"
        }
      ],
      "stateMutability": "view",
      "type": "function"
    },
    {
      "inputs": [],
      "name": "maxRewardsPerApp",
      "outputs": [
        {
          "internalType": "uint96",
          "name": "",
          "type": "uint96"
        }
      ],
      "stateMutability": "view",
      "type": "function"
    },
    {
      "inputs": [
        {
          "internalType": "address",
          "name": "app",
          "type": "address"
        },
        {
          "internalType": "address",
          "name": "inviter",
          "type": "address"
        },
        {
          "internalType": "uint256",
          "name": "validUntilBlock",
          "type": "uint256"
        },
        {
          "internalType": "bytes",
          "name": "userSignature",
          "type": "bytes"
        },
        {
          "internalType": "bytes",
          "name": "appSignature",
          "type": "bytes"
        }
      ],
      "name": "nonContractAppClaim",
      "outputs": [
        {
          "internalType": "bool",
          "name": "",
          "type": "bool"
        }
      ],
      "stateMutability": "nonpayable",
      "type": "function"
    },
    {
      "inputs": [
        {
          "components": [
            {
              "internalType": "address",
              "name": "owner",
              "type": "address"
            },
            {
              "internalType": "address",
              "name": "rewardReceiver",
              "type": "address"
            },
            {
              "internalType": "uint96",
              "name": "totalRewardsClaimed",
              "type": "uint96"
            },
            {
              "internalType": "uint32",
              "name": "registeredAt",
              "type": "uint32"
            },
            {
              "internalType": "uint32",
              "name": "lastResetAt",
              "type": "uint32"
            },
            {
              "internalType": "uint8",
              "name": "userAndInviterPercentage",
              "type": "uint8"
            },
            {
              "internalType": "uint8",
              "name": "userPercentage",
              "type": "uint8"
            },
            {
              "internalType": "bool",
              "name": "isRegistered",
              "type": "bool"
            },
            {
              "internalType": "bool",
              "name": "isApproved",
              "type": "bool"
            },
            {
              "internalType": "string",
              "name": "description",
              "type": "string"
            },
            {
              "internalType": "string",
              "name": "url",
              "type": "string"
            },
            {
              "internalType": "string",
              "name": "email",
              "type": "string"
            },
            {
              "internalType": "address",
              "name": "app",
              "type": "address"
            },
            {
              "internalType": "address",
              "name": "signer",
              "type": "address"
            }
          ],
          "internalType": "struct EngagementRewards.AppInfo",
          "name": "app",
          "type": "tuple"
        }
      ],
      "name": "overwriteAppDetails",
      "outputs": [],
      "stateMutability": "nonpayable",
      "type": "function"
    },
    {
      "inputs": [],
      "name": "proxiableUUID",
      "outputs": [
        {
          "internalType": "bytes32",
          "name": "",
          "type": "bytes32"
        }
      ],
      "stateMutability": "view",
      "type": "function"
    },
    {
      "inputs": [
        {
          "internalType": "address",
          "name": "",
          "type": "address"
        }
      ],
      "name": "registeredApps",
      "outputs": [
        {
          "internalType": "address",
          "name": "owner",
          "type": "address"
        },
        {
          "internalType": "address",
          "name": "rewardReceiver",
          "type": "address"
        },
        {
          "internalType": "uint96",
          "name": "totalRewardsClaimed",
          "type": "uint96"
        },
        {
          "internalType": "uint32",
          "name": "registeredAt",
          "type": "uint32"
        },
        {
          "internalType": "uint32",
          "name": "lastResetAt",
          "type": "uint32"
        },
        {
          "internalType": "uint8",
          "name": "userAndInviterPercentage",
          "type": "uint8"
        },
        {
          "internalType": "uint8",
          "name": "userPercentage",
          "type": "uint8"
        },
        {
          "internalType": "bool",
          "name": "isRegistered",
          "type": "bool"
        },
        {
          "internalType": "bool",
          "name": "isApproved",
          "type": "bool"
        },
        {
          "internalType": "string",
          "name": "description",
          "type": "string"
        },
        {
          "internalType": "string",
          "name": "url",
          "type": "string"
        },
        {
          "internalType": "string",
          "name": "email",
          "type": "string"
        },
        {
          "internalType": "address",
          "name": "app",
          "type": "address"
        },
        {
          "internalType": "address",
          "name": "signer",
          "type": "address"
        }
      ],
      "stateMutability": "view",
      "type": "function"
    },
    {
      "inputs": [
        {
          "internalType": "bytes32",
          "name": "role",
          "type": "bytes32"
        },
        {
          "internalType": "address",
          "name": "callerConfirmation",
          "type": "address"
        }
      ],
      "name": "renounceRole",
      "outputs": [],
      "stateMutability": "nonpayable",
      "type": "function"
    },
    {
      "inputs": [
        {
          "internalType": "address",
          "name": "app",
          "type": "address"
        }
      ],
      "name": "revokeAppApproval",
      "outputs": [],
      "stateMutability": "nonpayable",
      "type": "function"
    },
    {
      "inputs": [
        {
          "internalType": "bytes32",
          "name": "role",
          "type": "bytes32"
        },
        {
          "internalType": "address",
          "name": "account",
          "type": "address"
        }
      ],
      "name": "revokeRole",
      "outputs": [],
      "stateMutability": "nonpayable",
      "type": "function"
    },
    {
      "inputs": [],
      "name": "rewardAmount",
      "outputs": [
        {
          "internalType": "uint96",
          "name": "",
          "type": "uint96"
        }
      ],
      "stateMutability": "view",
      "type": "function"
    },
    {
      "inputs": [],
      "name": "rewardToken",
      "outputs": [
        {
          "internalType": "contract IERC20",
          "name": "",
          "type": "address"
        }
      ],
      "stateMutability": "view",
      "type": "function"
    },
    {
      "inputs": [
        {
          "internalType": "address",
          "name": "app",
          "type": "address"
        },
        {
          "internalType": "address",
          "name": "signer",
          "type": "address"
        }
      ],
      "name": "setAppSigner",
      "outputs": [],
      "stateMutability": "nonpayable",
      "type": "function"
    },
    {
      "inputs": [
        {
          "internalType": "address",
          "name": "_identity",
          "type": "address"
        }
      ],
      "name": "setIdentityContract",
      "outputs": [],
      "stateMutability": "nonpayable",
      "type": "function"
    },
    {
      "inputs": [
        {
          "internalType": "uint8",
          "name": "_maxAppsPerUser",
          "type": "uint8"
        }
      ],
      "name": "setMaxAppsPerUser",
      "outputs": [],
      "stateMutability": "nonpayable",
      "type": "function"
    },
    {
      "inputs": [
        {
          "internalType": "uint96",
          "name": "_maxRewardsPerApp",
          "type": "uint96"
        }
      ],
      "name": "setMaxRewardsPerApp",
      "outputs": [],
      "stateMutability": "nonpayable",
      "type": "function"
    },
    {
      "inputs": [
        {
          "internalType": "uint96",
          "name": "_rewardAmount",
          "type": "uint96"
        }
      ],
      "name": "setRewardAmount",
      "outputs": [],
      "stateMutability": "nonpayable",
      "type": "function"
    },
    {
      "inputs": [
        {
          "internalType": "bytes4",
          "name": "interfaceId",
          "type": "bytes4"
        }
      ],
      "name": "supportsInterface",
      "outputs": [
        {
          "internalType": "bool",
          "name": "",
          "type": "bool"
        }
      ],
      "stateMutability": "view",
      "type": "function"
    },
    {
      "inputs": [
        {
          "internalType": "address",
          "name": "app",
          "type": "address"
        },
        {
          "internalType": "address",
          "name": "rewardReceiver",
          "type": "address"
        },
        {
          "internalType": "uint8",
          "name": "userAndInviterPercentage",
          "type": "uint8"
        },
        {
          "internalType": "uint8",
          "name": "userPercentage",
          "type": "uint8"
        }
      ],
      "name": "updateAppSettings",
      "outputs": [],
      "stateMutability": "nonpayable",
      "type": "function"
    },
    {
      "inputs": [
        {
          "internalType": "address[]",
          "name": "apps",
          "type": "address[]"
        }
      ],
      "name": "upgrade",
      "outputs": [],
      "stateMutability": "nonpayable",
      "type": "function"
    },
    {
      "inputs": [
        {
          "internalType": "address",
          "name": "newImplementation",
          "type": "address"
        },
        {
          "internalType": "bytes",
          "name": "data",
          "type": "bytes"
        }
      ],
      "name": "upgradeToAndCall",
      "outputs": [],
      "stateMutability": "payable",
      "type": "function"
    },
    {
      "inputs": [
        {
          "internalType": "address",
          "name": "",
          "type": "address"
        }
      ],
      "name": "userPeriodClaims",
      "outputs": [
        {
          "internalType": "uint8",
          "name": "periodClaims",
          "type": "uint8"
        },
        {
          "internalType": "uint32",
          "name": "lastClaimTimestamp",
          "type": "uint32"
        }
      ],
      "stateMutability": "view",
      "type": "function"
    },
    {
      "inputs": [
        {
          "internalType": "address",
          "name": "",
          "type": "address"
        },
        {
          "internalType": "address",
          "name": "",
          "type": "address"
        }
      ],
      "name": "userRegistrations",
      "outputs": [
        {
          "internalType": "uint32",
          "name": "isRegistered",
          "type": "uint32"
        },
        {
          "internalType": "uint32",
          "name": "lastClaimTimestamp",
          "type": "uint32"
        }
      ],
      "stateMutability": "view",
      "type": "function"
    }
  ],
  "bytecode": "0x60c03461014557601f614f6538819003918201601f19168301916001600160401b0383118484101761014a5780849260209460405283398101031261014557518015158103610145573060805260a0527ff0c57e16840df040f15088dc2f81fe391c3923bec73e23a9662efc9c229c6a005460ff8160401c16610134576002600160401b03196001600160401b038216016100cb575b604051614e049081610161823960805181818161257a015261260e015260a051818181610b1c015281816122fa0152612bd90152f35b6001600160401b0319166001600160401b039081177ff0c57e16840df040f15088dc2f81fe391c3923bec73e23a9662efc9c229c6a00556040519081527fc7f505b2f371ae2175ee4913f4499e1f2633a7b5936321eed1cdaeb6115181d290602090a138610095565b63f92ee8a960e01b60005260046000fd5b600080fd5b634e487b7160e01b600052604160045260246000fdfe6080604052600436101561001257600080fd5b60003560e01c80630183592b14612fbc57806301ffc9a714612f6657806309e2636214612f3d57806313980d0314612bfe57806319a54c7b14612ad15780631f5031fe14612a8e578063248a9ca314612a705780632aec8fe1146129f45780632f2ff15d146129c35780633395e6e71461298157806336568abe1461293b57806337c909ec1461291d57806349eb67f8146127e65780634f1ef286146125d157806352d1902d14612567578063567e38e31461254857806356e62e641461251f57806367031bae146124f65780636b0509b1146124cd57806375b238fc146124a457806384b0196e1461237957806391d148541461231f5780639420f4a9146122e25780639dd96d4714612271578063a217fddf14612255578063a284e898146116ca578063a532e7ac146110d1578063a617e653146110a5578063a6c4cce914610f6a578063abe3bfef14610df5578063ad3cb1cc14610dae578063cc733fe914610d7d578063d3ea970114610c98578063d547741f14610c60578063d68a776e14610c0f578063d7bac3dc14610b41578063daea85c5146109b1578063e170546e146108e9578063e4e5bc7a1461088c578063e6d5864b14610849578063eb990c591461031d578063ed24911d146102fa578063f7b2a7be146102cd578063f7c618c1146102a4578063f8b68aa21461023f5763fe7bf9b21461021657600080fd5b3461023a57600036600319011261023a57602060ff60015460a01c16604051908152f35b600080fd5b3461023a57604036600319011261023a576102586131ae565b6102606131c4565b9060018060a01b0316600052600560205260406000209060018060a01b03166000526020526040806000205463ffffffff825191818116835260201c166020820152f35b3461023a57600036600319011261023a576000546040516001600160a01b039091168152602090f35b3461023a57600036600319011261023a5760025460405160609190911c6001600160601b03168152602090f35b3461023a57600036600319011261023a576020610315614930565b604051908152f35b3461023a57608036600319011261023a576004356001600160a01b0381169081900361023a576024356001600160a01b0381169081900361023a57600080516020614d4f83398151915254604081901c60ff161591906001600160401b03811680159081610841575b6001149081610837575b15908161082e575b5061081d576001600160401b03198116600117600080516020614d4f83398151915255826107f4575b506103cd831515613686565b6103d8811515613686565b6103e0614902565b60409283516103ef8582613174565b6011815270456e676167656d656e745265776172647360781b602082015284519061041a8683613174565b60038252620312e360ec1b6020830152610432614902565b61043a614902565b8051906001600160401b0382116106e6578190610465600080516020614baf83398151915254613322565b601f8111610789575b50602090601f8311600114610707576000926106fc575b50508160011b916000199060031b1c191617600080516020614baf833981519152555b8051906001600160401b0382116106e65781906104d3600080516020614c2f83398151915254613322565b601f811161067b575b50602090601f83116001146105f9576000926105ee575b50508160011b916000199060031b1c191617600080516020614c2f833981519152555b6000600080516020614c4f833981519152556000600080516020614d6f83398151915255610542614902565b600080546001600160a01b03191691909117905560018054600280546001600160c01b0319166044356001600160601b03161760643560601b600160601b600160c01b03161790556001600160a81b031916909117600360a01b1790556105a833613ddb565b506105b233613e57565b506105b957005b600080516020614d4f833981519152805460ff60401b191690555160018152600080516020614bef83398151915290602090a1005b0151905086806104f3565b600080516020614c2f83398151915260009081528281209350601f198516905b818110610663575090846001959493921061064a575b505050811b01600080516020614c2f83398151915255610516565b015160001960f88460031b161c1916905586808061062f565b92936020600181928786015181550195019301610619565b600080516020614c2f833981519152600052909150600080516020614d8f833981519152601f840160051c810191602085106106dc575b90601f859493920160051c01905b8181106106cd57506104dc565b600081558493506001016106c0565b90915081906106b2565b634e487b7160e01b600052604160045260246000fd5b015190508780610485565b600080516020614baf83398151915260009081528281209350601f198516905b8181106107715750908460019594939210610758575b505050811b01600080516020614baf833981519152556104a8565b015160001960f88460031b161c1916905587808061073d565b92936020600181928786015181550195019301610727565b600080516020614baf833981519152600052909150600080516020614c8f833981519152601f840160051c810191602085106107ea575b90601f859493920160051c01905b8181106107db575061046e565b600081558493506001016107ce565b90915081906107c0565b6001600160481b0319166001600160401b0117600080516020614d4f83398151915255836103c1565b63f92ee8a960e01b60005260046000fd5b90501585610398565b303b159150610390565b849150610386565b3461023a57602036600319011261023a576108626131ae565b61086a613d6a565b600180546001600160a01b0319166001600160a01b0392909216919091179055005b3461023a57608036600319011261023a576108a56131ae565b6108ad6131c4565b606435906001600160401b03821161023a576020926108d36108df9336906004016132bf565b91604435913390614014565b6040519015158152f35b3461023a57604036600319011261023a576109026131ae565b61090a6131c4565b6001600160a01b0391821660008181526003602052604090205491929091610934911633146136cd565b6001600160a01b0382161561097357600090815260036020526040902060070180546001600160a01b0319166001600160a01b03909216919091179055005b60405162461bcd60e51b8152602060048201526016602482015275496e76616c6964207369676e6572206164647265737360501b6044820152606490fd5b3461023a57602036600319011261023a576109ca6131ae565b336000908152600080516020614b8f833981519152602052604090205460ff161580610b19575b610af25760018060a01b03811690816000526003602052610a1f60ff60026040600020015460501c16613607565b81600052600360205260ff60026040600020015460581c16610ab657816000526003602052630a762fea63ffffffff6002604060002001541610610aa7575b506000818152600360205260408120600201805460ff60581b1916600160581b1790557f95e9598427a2e62bd5a93d3a083bc0d32989e80c16ad07312a0bb406b53e36919080a2005b610ab09061358c565b81610a5e565b60405162461bcd60e51b8152602060048201526014602482015273105c1c08185b1c9958591e48185c1c1c9bdd995960621b6044820152606490fd5b63e2517d3f60e01b60005233600452600080516020614d2f83398151915260245260446000fd5b507f0000000000000000000000000000000000000000000000000000000000000000156109f1565b3461023a57602036600319011261023a5760043560ff81169081810361023a57610b69613d6a565b8115610bba576001805460ff60a01b191660a09290921b60ff60a01b169190911790556040519081527fbb1c987d41b58fea76843b44edae6b324dcf334d1070a3c8c7896c7f59f75a8190602090a1005b60405162461bcd60e51b815260206004820152602760248201527f52657761726473207065722075736572206d75737420626520677265617465726044820152660207468616e20360cc1b6064820152608490fd5b3461023a57602036600319011261023a576001600160a01b03610c306131ae565b166000526006602052610c5c604060002054604051918160ff63ffffffff859460081c1691168361355e565b0390f35b3461023a57604036600319011261023a57610c96600435610c7f6131c4565b90610c91610c8c82613665565b613d91565b613f74565b005b3461023a5760c036600319011261023a57610cb16131ae565b610cb96131c4565b906064356001600160401b03811161023a57610cd99036906004016132bf565b9160843560ff81169081810361023a5760a4359160ff83169081840361023a57610d1291610d0b606480931115613709565b1115613754565b6002600080516020614d0f8339815191525414610d6c57602094610d50946001946002600080516020614d0f83398151915255604435913390614066565b6001600080516020614d0f833981519152556040519015158152f35b633ee5aeb560e01b60005260046000fd5b3461023a57602036600319011261023a57610d9e610d996131ae565b613d1b565b90610c5c6040519283928361355e565b3461023a57600036600319011261023a57610c5c6040805190610dd18183613174565b60058252640352e302e360dc1b6020830152519182916020835260208301906131ee565b3461023a5760a036600319011261023a57610e0e6131ae565b610e166131c4565b906044356064356001600160401b03811161023a57610e399036906004016132bf565b906084356001600160401b03811161023a57610e599036906004016132bf565b60405190610ea860208301600080516020614bcf833981519152815260018060a01b0387169384604082015233606082015285608082015260808152610ea060a082613174565b5190206147bb565b610eb38282886147e1565b928315610f3e575b8315610f14575b50505015610ed7576020936108df9333614014565b60405162461bcd60e51b8152602060048201526015602482015274496e76616c696420617070207369676e617475726560581b6044820152606490fd5b600090815260036020526040902054610f3693506001600160a01b03166147e1565b858080610ec2565b8093506000526003602052610f64828260018060a01b03600760406000200154166147e1565b92610ebb565b3461023a57602036600319011261023a576001600160a01b03610f8b6131ae565b166000526003602052604060002060018060a01b038154166001820154916002810154611094610fbd600384016134bc565b611085610fcc600486016134bc565b611076610fdb600588016134bc565b9360ff60018060a01b0360068a01541698600760018060a01b0391015416976040519b8c9b8c5260018060a01b03811660208d015260a01c60408c015263ffffffff811660608c015263ffffffff8160201c1660808c0152818160401c1660a08c0152818160481c1660c08c0152818160501c16151560e08c015260581c1615156101008a01526101c06101208a01526101c08901906131ee565b908782036101408901526131ee565b908582036101608701526131ee565b916101808401526101a08301520390f35b3461023a57604036600319011261023a5760206108df6110c36131ae565b6110cb6131c4565b90613867565b3461023a57602036600319011261023a576004356001600160401b03811161023a576101c0600319823603011261023a5760405161110e81613158565b61111a826004016131da565b8152611128602483016131da565b60208201908152916044810135906001600160601b038216820361023a576040830191825261115960648201613304565b6060840190815261116c60848301613304565b906080850191825261118060a48401613296565b9060a0860191825261119460c48501613296565b60c087019081526111a760e48601613315565b60e088019081526111bb6101048701613315565b6101008901908152916101248701356001600160401b03811161023a576111e890600436918a01016132bf565b6101208a01908152946101448801356001600160401b03811161023a5761121590600436918b01016132bf565b6101408b01908152966101648901356001600160401b03811161023a5736908a0160040190611243916132bf565b6101608c019081529b6112596101848b016131da565b996101808d019a8b526101a40161126f906131da565b9a6101a08d019b8c52611280613d6a565b8a516001600160a01b0390811660009081526003602052604090209d518e546001600160a01b0319908116918316919091178f55925160018f0180549094169116178255516112db916001600160601b0391909116906137d3565b945160028b01805463ffffffff191663ffffffff92831617815595516113029116866137f6565b5160ff166113109085613799565b5160ff1661131e90846137b6565b51825460ff60501b191690151560501b60ff60501b16178255516113459190151590613648565b51805160038601916001600160401b0382116106e65781906113678454613322565b601f8111611677575b50602090601f831160011461161257600092611607575b50508160011b916000199060031b1c19161790555b51805160048501916001600160401b0382116106e65781906113be8454613322565b601f81116115b4575b50602090601f831160011461154f57600092611544575b50508160011b916000199060031b1c19161790555b92518051939060058401906001600160401b0386116106e6576114168254613322565b601f81116114fc575b50602090601f87116001146114925795809160079697600092611487575b50508160011b916000199060031b1c19161790555b516006840180546001600160a01b039283166001600160a01b0319918216179091559151929093018054929093169116179055005b01519050878061143d565b90601f1987169183600052816000209260005b8181106114e457509160019391896007999a94106114cb575b505050811b019055611452565b015160001960f88460031b161c191690558780806114be565b929360206001819287860151815501950193016114a5565b826000526020600020601f880160051c8101916020891061153a575b601f0160051c01905b81811061152e575061141f565b60008155600101611521565b9091508190611518565b0151905087806113de565b60008581528281209350601f198516905b81811061159c5750908460019594939210611583575b505050811b0190556113f3565b015160001960f88460031b161c19169055878080611576565b92936020600181928786015181550195019301611560565b909150836000526020600020601f840160051c810191602085106115fd575b90601f859493920160051c01905b8181106115ee57506113c7565b600081558493506001016115e1565b90915081906115d3565b015190508880611387565b60008581528281209350601f198516905b81811061165f5750908460019594939210611646575b505050811b01905561139c565b015160001960f88460031b161c19169055888080611639565b92936020600181928786015181550195019301611623565b909150836000526020600020601f840160051c810191602085106116c0575b90601f859493920160051c01905b8181106116b15750611370565b600081558493506001016116a4565b9091508190611696565b3461023a5760e036600319011261023a576116e36131ae565b6116eb6131c4565b906116f4613276565b916116fd613286565b926084356001600160401b03811161023a5761171d9036906004016132bf565b9160a4356001600160401b03811161023a5761173d9036906004016132bf565b60c4356001600160401b03811161023a5761175c9036906004016132bf565b936117716001600160a01b0387161515613686565b6117856001600160a01b0384161515613686565b611795606460ff86161115613709565b6117a5606460ff89161115613754565b80516102008111159081612249575b501561220e5781518015159081612202575b50156121cf57845180151590816121c3575b501561218e576001600160a01b03868116600090815260036020526040902080549098911615611c335761181660018060a01b0389541633146136cd565b60028801805460ff60581b191681556001890180546001600160a01b0319166001600160a01b0387161790559761184d868a613799565b611857828a6137b6565b825160038201906001600160401b0381116106e6576118768254613322565b601f8111611beb575b50806020601f8211600114611b8857600091611b7d575b508160011b916000199060031b1c19161790555b835160048201906001600160401b0381116106e6576118c98254613322565b601f8111611b35575b506020601f8211600114611acd5790806005949392600091611ac2575b508160011b916000199060031b1c19161790555b87519991016001600160401b038a116106e6576119208154613322565b601f8111611a7a575b50602099601f81116001146119f3576119e395936119bc936119ca96938360ff948d9e9f600080516020614daf8339815191529e6000926119e8575b50508160011b916000199060031b1c19161790555b805463ffffffff19164263ffffffff161790555b81604051998a9960018060a01b03168a5216602089015216604087015260c0606087015260c08601906131ee565b9084820360808601526131ee565b82810360a084015233966001600160a01b0316956131ee565b0390a3005b01519050388f611965565b601f1981169a82600052806000209b60005b818110611a625750936119ca96936001848d9e9f6119e39b9995600080516020614daf8339815191529f60ff986119bc9b10611a49575b505050811b01905561197a565b015160001960f88460031b161c19169055388f80611a3c565b8b8301518e556001909d019c60209283019201611a05565b816000526020600020601f8c0160051c81019160208d10611ab8575b601f0160051c01905b818110611aac5750611929565b60008155600101611a9f565b9091508190611a96565b90508701518d6118ef565b601f1982169083600052806000209160005b818110611b1d5750918391600596959460019410611b04575b5050811b019055611903565b89015160001960f88460031b161c191690558d80611af8565b9192602060018192868d015181550194019201611adf565b826000526020600020601f830160051c81019160208410611b73575b601f0160051c01905b818110611b6757506118d2565b60008155600101611b5a565b9091508190611b51565b90508501518c611896565b60008481528181209250601f198416905b818110611bd357509083600194939210611bba575b5050811b0190556118aa565b87015160001960f88460031b161c191690558c80611bae565b9192602060018192868c015181550194019201611b99565b826000526020600020601f830160051c81019160208410611c29575b601f0160051c01905b818110611c1d575061187f565b60008155600101611c10565b9091508190611c07565b909650611c3f8661358c565b611c488661358c565b6040514263ffffffff16611c5b82613158565b3382526001600160a01b0385811660208085019182526000604080870182815260608801879052608088019690965260ff8b811660a0890152881660c0880152600160e08801819052610100880183905261012088018f905261014088018a905261016088018d90528d861661018089018190526101a08901849052835260039093529020855181546001600160a01b031990811691861691909117825592519181018054909316919093161781559151909291611d22916001600160601b0316906137d3565b611da36002830163ffffffff806060850151161663ffffffff19825416178155611d5663ffffffff608085015116826137f6565b611d6760ff60a08501511682613799565b611d7860ff60c085015116826137b6565b60e0830151815460ff60501b191690151560501b60ff60501b16178155610100830151151590613648565b610120810151805160038401916001600160401b0382116106e6578190611dca8454613322565b601f811161213b575b50602090601f83116001146120d6576000926120cb575b50508160011b916000199060031b1c19161790555b610140810151805160048401916001600160401b0382116106e6578190611e268454613322565b601f8111612078575b50602090601f831160011461201357600092612008575b50508160011b916000199060031b1c19161790555b6101608101518051906001600160401b0382116106e657611e7f6005850154613322565b601f8111611fbd575b50602090601f8311600114611f2b57946119e3969460076119bc9585600080516020614daf8339815191529d9e9f9660ff966119ca9b600092611f20575b50508160011b916000199060031b1c19161760058401555b6101808101516006840180546001600160a01b039283166001600160a01b0319918216179091556101a09092015192909301805492909316911617905561198e565b015190503880611ec6565b9060058501600052806000209160005b601f1985168110611fa557509460076119bc956001600080516020614daf8339815191529d9e9f9660ff966119ca9b966119e39d9b83601f19811610611f8c575b505050811b016005840155611ede565b015160001960f88460031b161c19169055388080611f7c565b91926020600181928685015181550194019201611f3b565b600585016000526020600020601f840160051c81019160208510611ffe575b601f0160051c01905b818110611ff25750611e88565b60008155600101611fe5565b9091508190611fdc565b015190508c80611e46565b60008581528281209350601f198516905b8181106120605750908460019594939210612047575b505050811b019055611e5b565b015160001960f88460031b161c191690558c808061203a565b92936020600181928786015181550195019301612024565b909150836000526020600020601f840160051c810191602085106120c1575b90601f859493920160051c01905b8181106120b25750611e2f565b600081558493506001016120a5565b9091508190612097565b015190508c80611dea565b60008581528281209350601f198516905b818110612123575090846001959493921061210a575b505050811b019055611dff565b015160001960f88460031b161c191690558c80806120fd565b929360206001819287860151815501950193016120e7565b909150836000526020600020601f840160051c81019160208510612184575b90601f859493920160051c01905b8181106121755750611dd3565b60008155849350600101612168565b909150819061215a565b60405162461bcd60e51b815260206004820152600d60248201526c125b9d985b1a5908195b585a5b609a1b6044820152606490fd5b60ff91501115886117d8565b60405162461bcd60e51b815260206004820152600b60248201526a125b9d985b1a590815549360aa1b6044820152606490fd5b60ff91501115886117c6565b60405162461bcd60e51b815260206004820152601360248201527224b73b30b634b2103232b9b1b934b83a34b7b760691b6044820152606490fd5b603291501015886117b4565b3461023a57600036600319011261023a57602060405160008152f35b3461023a57602036600319011261023a576001600160a01b036122926131ae565b16600090815260046020908152604091829020805460019091015483516001600160601b038084168252606093841c81169482019490945283821694810194909452811c90911690820152608090f35b3461023a57600036600319011261023a5760206040517f000000000000000000000000000000000000000000000000000000000000000015158152f35b3461023a57604036600319011261023a576123386131c4565b600435600052600080516020614ccf83398151915260205260406000209060018060a01b0316600052602052602060ff604060002054166040519015158152f35b3461023a57600036600319011261023a57600080516020614c4f83398151915254158061248d575b15612450576123f26123b161335c565b6123b961341d565b6020612400604051926123cc8385613174565b600084526000368137604051958695600f60f81b875260e08588015260e08701906131ee565b9085820360408701526131ee565b466060850152306080850152600060a085015283810360c085015281808451928381520193019160005b82811061243957505050500390f35b83518552869550938101939281019260010161242a565b60405162461bcd60e51b81526020600482015260156024820152741152540dcc4c8e88155b9a5b9a5d1a585b1a5e9959605a1b6044820152606490fd5b50600080516020614d6f83398151915254156123a1565b3461023a57600036600319011261023a576020604051600080516020614d2f8339815191528152f35b3461023a57600036600319011261023a576020604051600080516020614cef8339815191528152f35b3461023a57600036600319011261023a576001546040516001600160a01b039091168152602090f35b3461023a57600036600319011261023a576020604051600080516020614bcf8339815191528152f35b3461023a57600036600319011261023a5760206040516301e133808152f35b3461023a57600036600319011261023a577f00000000000000000000000000000000000000000000000000000000000000006001600160a01b031630036125c0576020604051600080516020614caf8339815191528152f35b63703e46dd60e11b60005260046000fd5b604036600319011261023a576125e56131ae565b6024356001600160401b03811161023a576126049036906004016132bf565b6001600160a01b037f0000000000000000000000000000000000000000000000000000000000000000163081149081156127c3575b506125c057336000908152600080516020614c6f833981519152602052604090205460ff16156127a9576040516352d1902d60e01b81526001600160a01b0383169290602081600481875afa60009181612772575b506126a85783634c9c8ce360e01b60005260045260246000fd5b80600080516020614caf83398151915285920361275e5750813b1561274a57600080516020614caf83398151915280546001600160a01b031916821790557fbc7cd75a20ee27fd9adebab32041f755214dbc6bffa90cc0225b39da2e5c2d3b600080a281511561273057600080836020610c9695519101845af461272a614997565b91614a8e565b50503461273957005b63b398979f60e01b60005260046000fd5b634c9c8ce360e01b60005260045260246000fd5b632a87526960e21b60005260045260246000fd5b90916020823d6020116127a1575b8161278d60209383613174565b8101031261279e575051908561268e565b80fd5b3d9150612780565b63e2517d3f60e01b60005233600452600060245260446000fd5b600080516020614caf833981519152546001600160a01b03161415905083612639565b3461023a57608036600319011261023a576127ff6131ae565b7f817dcd9d9a3f9ee6dbc0878d11d70ae3a2a31c7398c4169b9796de7fbf2a61a6604061282a6131c4565b612832613276565b9061291061283e613286565b956128536001600160a01b0384161515613686565b60018060a01b03169586600052600360205261287b60ff600287600020015460501c16613607565b86600052600360205261289b60018060a01b0386600020541633146136cd565b6128fb60ff8516946128b06064871115613709565b60ff8316946128c26064871115613754565b60008a8152600360205288812060010180546001600160a01b0319166001600160a01b0390931692909217909155879020600201613799565b866000526003602052600285600020016137b6565b82519182526020820152a2005b3461023a57600036600319011261023a57602060405162ed4e008152f35b3461023a57604036600319011261023a576129546131c4565b336001600160a01b0382160361297057610c9690600435613f74565b63334bd91960e11b60005260046000fd5b3461023a57602036600319011261023a5760043560075481101561023a576129aa602091613245565b905460405160039290921b1c6001600160a01b03168152f35b3461023a57604036600319011261023a57610c966004356129e26131c4565b906129ef610c8c82613665565b613edd565b3461023a57602036600319011261023a577f9639dea65e74b72b1b86ccf3e4f9b6d23b88d2aad2f103d0b3afe394e67edade6020612a3061322f565b612a38613d6a565b60028054600160601b600160c01b031916606083901b600160601b600160c01b03161790556040516001600160601b039091168152a1005b3461023a57602036600319011261023a576020610315600435613665565b3461023a57602036600319011261023a57612aa761322f565b612aaf613d6a565b600280546001600160601b0319166001600160601b0392909216919091179055005b3461023a57602036600319011261023a57612aea6131ae565b336000908152600080516020614b8f833981519152602052604090205460ff161580612bd6575b610af2576001600160a01b0316600081815260036020526040902060020154612b3f9060501c60ff16613607565b80600052600360205260ff60026040600020015460581c1615612b9e576000818152600360205260408120600201805460ff60581b191690557f3c096163118bfa10d76507153924d96f9965ea869a37681ef19109ba69377dcc9080a2005b60405162461bcd60e51b815260206004820152601060248201526f105c1c081b9bdd08185c1c1c9bdd995960821b6044820152606490fd5b507f000000000000000000000000000000000000000000000000000000000000000015612b11565b3461023a57600036600319011261023a57600754612c1b81613197565b90612c296040519283613174565b808252601f19612c3882613197565b0160005b818110612ebe57505060005b818110612d9f57826040518091602082016020835281518091526040830190602060408260051b8601019301916000905b828210612c8857505050500390f35b919360019193955060208091603f19898203018552875190848060a01b038251168152848060a01b03838301511683820152848060601b03604083015116604082015263ffffffff606083015116606082015263ffffffff608083015116608082015260ff60a08301511660a082015260ff60c08301511660c082015260e0820151151560e082015261010082015115156101008201526101a0612d6d612d59612d456101208601516101c06101208701526101c08601906131ee565b6101408601518582036101408701526131ee565b6101608501518482036101608601526131ee565b92868060a01b036101808201511661018084015281878060a01b03910151169101529601920192018594939192612c79565b80612dab600192613245565b838060a01b0391549060031b1c166000526003602052604060002060405190612dd382613158565b838060a01b03815416825283810154848060a01b038116602084015260a01c604083015260ff600282015463ffffffff8116606085015263ffffffff8160201c166080850152818160401c1660a0850152818160481c1660c0850152818160501c16151560e085015260581c161515610100830152612e54600382016134bc565b610120830152612e66600482016134bc565b610140830152612e78600582016134bc565b610160830152838060a01b036006820154166101808301526007848060a01b03910154166101a0820152612eac8286613578565b52612eb78185613578565b5001612c48565b602090604051612ecd81613158565b60008152600083820152600060408201526000606082015260006080820152600060a0820152600060c0820152600060e08201526000610100820152606061012082015260606101408201526060610160820152600061018082015260006101a082015282828701015201612c3c565b3461023a57600036600319011261023a576002546040516001600160601b039091168152602090f35b3461023a57602036600319011261023a5760043563ffffffff60e01b811680910361023a57602090637965db0b60e01b8114908115612fab575b506040519015158152f35b6301ffc9a760e01b14905082612fa0565b3461023a57602036600319011261023a576004356001600160401b03811161023a573660238201121561023a57806004013590612ff882613197565b916130066040519384613174565b8083526024602084019160051b8301019136831161023a57602401905b8282106131405783600080516020614d4f8339815191525460ff8160401c16801561312c575b61081d576001600160481b0319166002600160401b0117600080516020614d4f8339815191525560005b81518110156130ea5760019061309b6001600160a01b036130948386613578565b511661358c565b818060a01b036130ab8285613578565b5116828060a01b036130bd8386613578565b51166000526003602052600660406000200190838060a01b0316838060a01b031982541617905501613073565b60ff60401b19600080516020614d4f8339815191525416600080516020614d4f83398151915255600080516020614bef833981519152602060405160028152a1005b5060026001600160401b0382161015613049565b6020809161314d846131da565b815201910190613023565b6101c081019081106001600160401b038211176106e657604052565b601f909101601f19168101906001600160401b038211908210176106e657604052565b6001600160401b0381116106e65760051b60200190565b600435906001600160a01b038216820361023a57565b602435906001600160a01b038216820361023a57565b35906001600160a01b038216820361023a57565b919082519283825260005b84811061321a575050826000602080949584010152601f8019910116010190565b806020809284010151828286010152016131f9565b600435906001600160601b038216820361023a57565b60075481101561326057600760005260206000200190600090565b634e487b7160e01b600052603260045260246000fd5b6044359060ff8216820361023a57565b6064359060ff8216820361023a57565b359060ff8216820361023a57565b6001600160401b0381116106e657601f01601f191660200190565b81601f8201121561023a576020813591016132d9826132a4565b926132e76040519485613174565b8284528282011161023a5781600092602092838601378301015290565b359063ffffffff8216820361023a57565b3590811515820361023a57565b90600182811c92168015613352575b602083101461333c57565b634e487b7160e01b600052602260045260246000fd5b91607f1691613331565b60405190600082600080516020614baf833981519152549161337d83613322565b80835292600181169081156133fe57506001146133a3575b6133a192500383613174565b565b50600080516020614baf83398151915260009081529091600080516020614c8f8339815191525b8183106133e25750509060206133a192820101613395565b60209193508060019154838589010152019101909184926133ca565b602092506133a194915060ff191682840152151560051b820101613395565b60405190600082600080516020614c2f833981519152549161343e83613322565b80835292600181169081156133fe5750600114613461576133a192500383613174565b50600080516020614c2f83398151915260009081529091600080516020614d8f8339815191525b8183106134a05750509060206133a192820101613395565b6020919350806001915483858901015201910190918492613488565b90604051918260008254926134d084613322565b808452936001811690811561353c57506001146134f5575b506133a192500383613174565b90506000929192526020600020906000915b8183106135205750509060206133a192820101386134e8565b6020919350806001915483858901015201910190918492613507565b9050602092506133a194915060ff191682840152151560051b820101386134e8565b60ff909116815263ffffffff909116602082015260400190565b80518210156132605760209160051b010190565b600754600160401b8110156106e6576001810160075560006007548210156135f357600790527fa66cc928b5edb82af9bd49922954155ab7b0942694bea4ce44661d9a8736c6880180546001600160a01b0319166001600160a01b03909216919091179055565b634e487b7160e01b81526032600452602490fd5b1561360e57565b60405162461bcd60e51b8152602060048201526012602482015271105c1c081b9bdd081c9959da5cdd195c995960721b6044820152606490fd5b805460ff60581b191691151560581b60ff60581b16919091179055565b600052600080516020614ccf83398151915260205260016040600020015490565b1561368d57565b60405162461bcd60e51b815260206004820152601860248201527716995c9bc81859191c995cdcc81b9bdd08185b1b1bddd95960421b6044820152606490fd5b156136d457565b60405162461bcd60e51b815260206004820152600d60248201526c2737ba1030b8381037bbb732b960991b6044820152606490fd5b1561371057565b606460405162461bcd60e51b815260206004820152602060248201527f496e76616c69642075736572416e64496e766974657250657263656e746167656044820152fd5b1561375b57565b60405162461bcd60e51b8152602060048201526016602482015275496e76616c6964207573657250657263656e7461676560501b6044820152606490fd5b805460ff60401b191660409290921b60ff60401b16919091179055565b805460ff60481b191660489290921b60ff60481b16919091179055565b80546001600160a01b031660a09290921b6001600160a01b031916919091179055565b805463ffffffff60201b191660209290921b63ffffffff60201b16919091179055565b9081602091031261023a57516001600160a01b038116810361023a5790565b6001600160601b03918216908216019190821161385157565b634e487b7160e01b600052601160045260246000fd5b6001600160a01b03909116908115613cdf576001546040516316874da360e11b8152600481018490529091906020816024816001600160a01b0387165afa908115613bd157600091613cb0575b506001600160a01b031615613c745760018060a01b031680600052600560205260406000208360005260205263ffffffff60406000205460201c1662ed4e008101809111613851574210613c325760025491606083901c6001600160601b0316918215613bdd576000546040516370a0823160e01b815230600482015290602090829060249082906001600160a01b03165afa8015613bd1578491600091613b9c575b5010613b4d576000526003602052604060002093600052600660205260ff6040600020549160a01c1660ff821610908115613b2c575b5015613ae957600283015460ff8160501c1680613adc575b15613a975763ffffffff81166301e13380810180911161385157421015613a575763ffffffff9060201c1662ed4e00810180911161385157421092831593613a2e575b505050156139f557600190565b60405162461bcd60e51b8152602060048201526011602482015270417070206d61786564207265776172647360781b6044820152606490fd5b613a409293506001015460a01c613838565b6001600160601b03918216911611153880806139e8565b60405162461bcd60e51b8152602060048201526018602482015277105c1c081c9959da5cdd1c985d1a5bdb88195e1c1a5c995960421b6044820152606490fd5b60405162461bcd60e51b815260206004820152601e60248201527f417070206e6f7420617070726f766564206f72207265676973746572656400006044820152606490fd5b5060ff8160581c166139a5565b60405162461bcd60e51b815260206004820152601b60248201527a13585e08185c1c1cc81c195c881c195c9a5bd9081c995858da1959602a1b6044820152606490fd5b63ffffffff915060081c1662ed4e008101809111613851574210153861398d565b60405162461bcd60e51b815260206004820152602160248201527f496e73756666696369656e742072657761726420746f6b656e2062616c616e636044820152606560f81b6064820152608490fd5b9150506020813d602011613bc9575b81613bb860209383613174565b8101031261023a5783905138613957565b3d9150613bab565b6040513d6000823e3d90fd5b60405162461bcd60e51b815260206004820152602760248201527f52657761726420616d6f756e74206d7573742062652067726561746572207468604482015266616e207a65726f60c81b6064820152608490fd5b60405162461bcd60e51b815260206004820152601a60248201527910db185a5b4818dbdbdb191bdddb881b9bdd081c995858da195960321b6044820152606490fd5b60405162461bcd60e51b8152602060048201526014602482015273155cd95c881b9bdd081dda1a5d195b1a5cdd195960621b6044820152606490fd5b613cd2915060203d602011613cd8575b613cca8183613174565b810190613819565b386138b4565b503d613cc0565b60405162461bcd60e51b8152602060048201526014602482015273496e76616c69642075736572206164647265737360601b6044820152606490fd5b6001600160a01b0316600090815260066020526040902054600881901c63ffffffff16919062ed4e00830180841161385157421015613d5b5760ff169190565b50600091504263ffffffff1690565b336000908152600080516020614b8f833981519152602052604090205460ff1615610af257565b6000818152600080516020614ccf8339815191526020908152604080832033845290915290205460ff1615613dc35750565b63e2517d3f60e01b6000523360045260245260446000fd5b6001600160a01b0381166000908152600080516020614c6f833981519152602052604090205460ff16613e51576001600160a01b03166000818152600080516020614c6f83398151915260205260408120805460ff19166001179055339190600080516020614b6f8339815191528180a4600190565b50600090565b6001600160a01b0381166000908152600080516020614b8f833981519152602052604090205460ff16613e51576001600160a01b03166000818152600080516020614b8f83398151915260205260408120805460ff19166001179055339190600080516020614d2f83398151915290600080516020614b6f8339815191529080a4600190565b6000818152600080516020614ccf833981519152602090815260408083206001600160a01b038616845290915290205460ff16613f6d576000818152600080516020614ccf833981519152602090815260408083206001600160a01b0395909516808452949091528120805460ff1916600117905533929190600080516020614b6f8339815191529080a4600190565b5050600090565b6000818152600080516020614ccf833981519152602090815260408083206001600160a01b038616845290915290205460ff1615613f6d576000818152600080516020614ccf833981519152602090815260408083206001600160a01b0395909516808452949091528120805460ff19169055339291907ff6391f5c32d9c69d2a47ea670b442974b53935d1edc7fd64eb21e047a839171b9080a4600190565b909192936002600080516020614d0f8339815191525414610d6c5761405194600094859485946002600080516020614d0f83398151915255614066565b906001600080516020614d0f83398151915255565b6001546040516316874da360e11b81526001600160a01b0380841660048301819052989a98999498939793969193919260209185916024918391165afa928315613bd15760009361479a575b5081151580614790575b6145f2575b505060018060a01b03861695866000526005602052604060002060018060a01b03831660005260205263ffffffff6040600020541687600052600360205263ffffffff60026040600020015416116145af578161411d91613867565b156145a25763ffffffff421690866000526005602052604060002060018060a01b0382166000526020526141558260406000206137f6565b86600052600360205260406000209060018060a01b03166000526006602052604060002091600282019063ffffffff825460201c1662ed4e00810180911161385157421015614581575b505063ffffffff825460081c1662ed4e00810180911161385157421015614564575b600160ff835416019160ff83116138515760ff614207931660ff198254161790556142016001808060601b0360025460601c16920191825460a01c613838565b906137d3565b600085815260036020526040902060018101546001600160a01b031697841561455257935b156145405750905b60025460601c6001600160601b039081169360ff168402908116908103613851576001600160601b036064909104169160ff1680830290838204148315171561385157606461428f91049261428984826148c2565b946148c2565b6001600160a01b038216979094881591908261452f575b600088815260046020526040902080546001600160601b03908116600101939084116138515781546001600160601b0319166001600160601b039485161780835587948a93600192909161432f91614305918088169160601c16613838565b828054600160601b600160c01b03191660609290921b600160601b600160c01b0316919091179055565b01805461434f90614305906001600160601b038c81169160601c16613838565b80546001600160601b039061436990878316908316613838565b82546001600160601b0319169116179055816144c4575b50508161445e575b50501580614455575b6143c1575b5091606091600080516020614c0f8339815191529360405192835260208301526040820152a4600190565b6000805460405163a9059cbb60e01b81529593949260209287926001600160a01b03169183919082906143f9908890600484016148e7565b03925af1928315613bd157600080516020614c0f83398151915294606094614426575b5091935091614396565b6144479060203d60201161444e575b61443f8183613174565b8101906148cf565b503861441c565b503d614435565b50821515614391565b61448f9160209160018060a01b036000541690600060405180968195829463a9059cbb60e01b8452600484016148e7565b03925af18015613bd1576144a5575b8390614388565b6144bd9060203d60201161444e5761443f8183613174565b503861449e565b6144f793509060209160018060a01b036000541690600060405180978195829463a9059cbb60e01b8452600484016148e7565b03925af1918215613bd1578592614510575b8790614380565b6145289060203d60201161444e5761443f8183613174565b5038614509565b9585810180911161385157956142a6565b60ff91506002015460481c1690614234565b5060ff600282015460401c169361422c565b815464ffffffffff19164260081b64ffffffff00161782556141c1565b6001830180546001600160a01b0316905561459b916137f6565b388061419f565b5050505050505050600090565b60405162461bcd60e51b815260206004820152601b60248201527a055736572206e6f74207265676973746572656420666f722061707602c1b6044820152606490fd5b610258430180431161385157821161474157438210614708576146899061468360018060a01b038a169384600052600360205261463560036040600020016134bc565b60208151910120604051906020820192600080516020614cef833981519152845287604084015260018060a01b038b166060840152608083015260a082015260a08152610ea060c082613174565b886147e1565b156146ca5760009081526005602090815260408083206001600160a01b03851684529091529020805463ffffffff19164263ffffffff1617905538806140c1565b60405162461bcd60e51b8152602060048201526016602482015275496e76616c69642075736572207369676e617475726560501b6044820152606490fd5b60405162461bcd60e51b815260206004820152601160248201527014da59db985d1d5c9948195e1c1a5c9959607a1b6044820152606490fd5b60405162461bcd60e51b815260206004820152602160248201527f56616c6964556e74696c426c6f636b20746f6f2066617220696e2066757475726044820152606560f81b6064820152608490fd5b50805115156140bc565b6147b491935060203d602011613cd857613cca8183613174565b91386140b2565b6042906147c6614930565b906040519161190160f01b8352600283015260228201522090565b9190823b61483257906147f3916149c7565b50600481101561481c5715918261480957505090565b6001600160a01b03918216911614919050565b634e487b7160e01b600052602160045260246000fd5b9160009261486961487785946040519283916020830195630b135d3f60e11b875260248401526040604484015260648301906131ee565b03601f198101835282613174565b51915afa614883614997565b816148b4575b81614892575090565b805160208083019350908201919091031261023a5751630b135d3f60e11b1490565b905060208151101590614889565b9190820391821161385157565b9081602091031261023a5751801515810361023a5790565b6001600160a01b039091168152602081019190915260400190565b60ff600080516020614d4f8339815191525460401c161561491f57565b631afcd79f60e31b60005260046000fd5b614938614a03565b614940614a5b565b6040519060208201927f8b73c3c69bb8fe3d512ecc4cf759cc79239f7b179b0ffacaa9a75d522b39400f8452604083015260608201524660808201523060a082015260a0815261499160c082613174565b51902090565b3d156149c2573d906149a8826132a4565b916149b66040519384613174565b82523d6000602084013e565b606090565b81519190604183036149f8576149f192506020820151906060604084015193015160001a90614aef565b9192909190565b505060009160029190565b614a0b61335c565b8051908115614a1b576020012090565b5050600080516020614c4f833981519152548015614a365790565b507fc5d2460186f7233c927e7db2dcc703c0e500b653ca82273b7bfad8045d85a47090565b614a6361341d565b8051908115614a73576020012090565b5050600080516020614d6f833981519152548015614a365790565b90614ab45750805115614aa357805190602001fd5b63d6bda27560e01b60005260046000fd5b81511580614ae6575b614ac5575090565b639996b31560e01b60009081526001600160a01b0391909116600452602490fd5b50803b15614abd565b91906fa2a8918ca85bafe22016d0b997e4df60600160ff1b038411614b62579160209360809260ff60009560405194855216868401526040830152606082015282805260015afa15613bd1576000516001600160a01b03811615614b565790600090600090565b50600090600190600090565b5050506000916003919056fe2f8788117e7eff1d82e926ec794901d17c78024a50270940304540a733656f0db16e88c42fd4e48df2dd6a2eabd6bc9aec654ec170056b470819f8892cc6431ca16a46d94261c7517cc8ff89f61c0ce93598e3c849801011dee649a6a557d1023f939797bbee504ef25a922a8408fbdcebc4752f31f0d6c8ea42babea9f5e8ddc7f505b2f371ae2175ee4913f4499e1f2633a7b5936321eed1cdaeb6115181d24af0f3bbba19bd2ae80915d3dcbc4b38837833848ce3b3cd23d9043235865a36a16a46d94261c7517cc8ff89f61c0ce93598e3c849801011dee649a6a557d103a16a46d94261c7517cc8ff89f61c0ce93598e3c849801011dee649a6a557d100b7db2dd08fcb62d0c9e08c51941cae53c267786a0b75803fb7960902fc8ef97d42ad5d3e1f2e6e70edcf6d991b8a3023d3fca8047a131592f9edb9fd9b89d57d360894a13ba1a3210667c828492db98dca3e2076cc3735a920a3ca505d382bbc02dd7bc7dec4dceedda775e58dd541e08a116c6c53815c0bd028192f7b626800cfeeafde86c38dcd27e7f3574225bf6be8c78e4aa28ebc85bc2989e109c15c1b9b779b17422d0df92223018b32b4d1fa46e071723d6817e2486d003becc55f00a49807205ce4d355092ef5a8a18f56e8913cf4a201fbe287825b095693c21775f0c57e16840df040f15088dc2f81fe391c3923bec73e23a9662efc9c229c6a00a16a46d94261c7517cc8ff89f61c0ce93598e3c849801011dee649a6a557d1015f9ce34815f8e11431c7bb75a8e6886a91478f7ffc1dbb0a98dc240fddd76b75c025612b0e32541c90be0a3ac84ee4a13a456d5520a7da1b3c1c0f6e821ba59da2646970667358221220a51f01da2c7f34496c568a195bcb9b67441d9e6427cb5bc424692c71daec99cf64736f6c634300081c0033",
  "linkReferences": {},
  "deployedLinkReferences": {}
}