{
  "_format": "hh-sol-artifact-1",
  "contractName": "EngagementRewards",
  "sourceName": "contracts/EngagementRewards.sol",
  "abi": [
    {
      "inputs": [
        {
          "internalType": "bool",
          "name": "_isDevEnv",
          "type": "bool"
        }
      ],
      "stateMutability": "nonpayable",
      "type": "constructor"
    },
    {
      "inputs": [],
      "name": "AccessControlBadConfirmation",
      "type": "error"
    },
    {
      "inputs": [
        {
          "internalType": "address",
          "name": "account",
          "type": "address"
        },
        {
          "internalType": "bytes32",
          "name": "neededRole",
          "type": "bytes32"
        }
      ],
      "name": "AccessControlUnauthorizedAccount",
      "type": "error"
    },
    {
      "inputs": [
        {
          "internalType": "address",
          "name": "target",
          "type": "address"
        }
      ],
      "name": "AddressEmptyCode",
      "type": "error"
    },
    {
      "inputs": [
        {
          "internalType": "address",
          "name": "implementation",
          "type": "address"
        }
      ],
      "name": "ERC1967InvalidImplementation",
      "type": "error"
    },
    {
      "inputs": [],
      "name": "ERC1967NonPayable",
      "type": "error"
    },
    {
      "inputs": [],
      "name": "FailedCall",
      "type": "error"
    },
    {
      "inputs": [],
      "name": "InvalidInitialization",
      "type": "error"
    },
    {
      "inputs": [],
      "name": "NotInitializing",
      "type": "error"
    },
    {
      "inputs": [],
      "name": "ReentrancyGuardReentrantCall",
      "type": "error"
    },
    {
      "inputs": [],
      "name": "UUPSUnauthorizedCallContext",
      "type": "error"
    },
    {
      "inputs": [
        {
          "internalType": "bytes32",
          "name": "slot",
          "type": "bytes32"
        }
      ],
      "name": "UUPSUnsupportedProxiableUUID",
      "type": "error"
    },
    {
      "anonymous": false,
      "inputs": [
        {
          "indexed": true,
          "internalType": "address",
          "name": "app",
          "type": "address"
        },
        {
          "indexed": true,
          "internalType": "address",
          "name": "owner",
          "type": "address"
        },
        {
          "indexed": false,
          "internalType": "address",
          "name": "rewardReceiver",
          "type": "address"
        },
        {
          "indexed": false,
          "internalType": "uint256",
          "name": "userAndInviterPercentage",
          "type": "uint256"
        },
        {
          "indexed": false,
          "internalType": "uint256",
          "name": "userPercentage",
          "type": "uint256"
        },
        {
          "indexed": false,
          "internalType": "string",
          "name": "description",
          "type": "string"
        },
        {
          "indexed": false,
          "internalType": "string",
          "name": "url",
          "type": "string"
        },
        {
          "indexed": false,
          "internalType": "string",
          "name": "email",
          "type": "string"
        }
      ],
      "name": "AppApplied",
      "type": "event"
    },
    {
      "anonymous": false,
      "inputs": [
        {
          "indexed": true,
          "internalType": "address",
          "name": "app",
          "type": "address"
        }
      ],
      "name": "AppApproved",
      "type": "event"
    },
    {
      "anonymous": false,
      "inputs": [
        {
          "indexed": true,
          "internalType": "address",
          "name": "app",
          "type": "address"
        },
        {
          "indexed": false,
          "internalType": "uint256",
          "name": "userAndInviterPercentage",
          "type": "uint256"
        },
        {
          "indexed": false,
          "internalType": "uint256",
          "name": "userPercentage",
          "type": "uint256"
        }
      ],
      "name": "AppSettingsUpdated",
      "type": "event"
    },
    {
      "anonymous": false,
      "inputs": [],
      "name": "EIP712DomainChanged",
      "type": "event"
    },
    {
      "anonymous": false,
      "inputs": [
        {
          "indexed": false,
          "internalType": "uint64",
          "name": "version",
          "type": "uint64"
        }
      ],
      "name": "Initialized",
      "type": "event"
    },
    {
      "anonymous": false,
      "inputs": [
        {
          "indexed": false,
          "internalType": "uint8",
          "name": "newAmount",
          "type": "uint8"
        }
      ],
      "name": "MaxAppsPerUserUpdated",
      "type": "event"
    },
    {
      "anonymous": false,
      "inputs": [
        {
          "indexed": false,
          "internalType": "uint256",
          "name": "newAmount",
          "type": "uint256"
        }
      ],
      "name": "RewardAmountUpdated",
      "type": "event"
    },
    {
      "anonymous": false,
      "inputs": [
        {
          "indexed": true,
          "internalType": "address",
          "name": "app",
          "type": "address"
        },
        {
          "indexed": true,
          "internalType": "address",
          "name": "user",
          "type": "address"
        },
        {
          "indexed": true,
          "internalType": "address",
          "name": "inviter",
          "type": "address"
        },
        {
          "indexed": false,
          "internalType": "uint256",
          "name": "appReward",
          "type": "uint256"
        },
        {
          "indexed": false,
          "internalType": "uint256",
          "name": "userAmount",
          "type": "uint256"
        },
        {
          "indexed": false,
          "internalType": "uint256",
          "name": "inviterAmount",
          "type": "uint256"
        }
      ],
      "name": "RewardClaimed",
      "type": "event"
    },
    {
      "anonymous": false,
      "inputs": [
        {
          "indexed": true,
          "internalType": "bytes32",
          "name": "role",
          "type": "bytes32"
        },
        {
          "indexed": true,
          "internalType": "bytes32",
          "name": "previousAdminRole",
          "type": "bytes32"
        },
        {
          "indexed": true,
          "internalType": "bytes32",
          "name": "newAdminRole",
          "type": "bytes32"
        }
      ],
      "name": "RoleAdminChanged",
      "type": "event"
    },
    {
      "anonymous": false,
      "inputs": [
        {
          "indexed": true,
          "internalType": "bytes32",
          "name": "role",
          "type": "bytes32"
        },
        {
          "indexed": true,
          "internalType": "address",
          "name": "account",
          "type": "address"
        },
        {
          "indexed": true,
          "internalType": "address",
          "name": "sender",
          "type": "address"
        }
      ],
      "name": "RoleGranted",
      "type": "event"
    },
    {
      "anonymous": false,
      "inputs": [
        {
          "indexed": true,
          "internalType": "bytes32",
          "name": "role",
          "type": "bytes32"
        },
        {
          "indexed": true,
          "internalType": "address",
          "name": "account",
          "type": "address"
        },
        {
          "indexed": true,
          "internalType": "address",
          "name": "sender",
          "type": "address"
        }
      ],
      "name": "RoleRevoked",
      "type": "event"
    },
    {
      "anonymous": false,
      "inputs": [
        {
          "indexed": true,
          "internalType": "address",
          "name": "implementation",
          "type": "address"
        }
      ],
      "name": "Upgraded",
      "type": "event"
    },
    {
      "inputs": [],
      "name": "ADMIN_ROLE",
      "outputs": [
        {
          "internalType": "bytes32",
          "name": "",
          "type": "bytes32"
        }
      ],
      "stateMutability": "view",
      "type": "function"
    },
    {
      "inputs": [],
      "name": "APP_CLAIM_TYPEHASH",
      "outputs": [
        {
          "internalType": "bytes32",
          "name": "",
          "type": "bytes32"
        }
      ],
      "stateMutability": "view",
      "type": "function"
    },
    {
      "inputs": [],
      "name": "APP_EXPIRATION",
      "outputs": [
        {
          "internalType": "uint256",
          "name": "",
          "type": "uint256"
        }
      ],
      "stateMutability": "view",
      "type": "function"
    },
    {
      "inputs": [],
      "name": "CLAIM_COOLDOWN",
      "outputs": [
        {
          "internalType": "uint256",
          "name": "",
          "type": "uint256"
        }
      ],
      "stateMutability": "view",
      "type": "function"
    },
    {
      "inputs": [],
      "name": "CLAIM_TYPEHASH",
      "outputs": [
        {
          "internalType": "bytes32",
          "name": "",
          "type": "bytes32"
        }
      ],
      "stateMutability": "view",
      "type": "function"
    },
    {
      "inputs": [],
      "name": "DEFAULT_ADMIN_ROLE",
      "outputs": [
        {
          "internalType": "bytes32",
          "name": "",
          "type": "bytes32"
        }
      ],
      "stateMutability": "view",
      "type": "function"
    },
    {
      "inputs": [],
      "name": "IS_DEV_ENV",
      "outputs": [
        {
          "internalType": "bool",
          "name": "",
          "type": "bool"
        }
      ],
      "stateMutability": "view",
      "type": "function"
    },
    {
      "inputs": [],
      "name": "UPGRADE_INTERFACE_VERSION",
      "outputs": [
        {
          "internalType": "string",
          "name": "",
          "type": "string"
        }
      ],
      "stateMutability": "view",
      "type": "function"
    },
    {
      "inputs": [
        {
          "internalType": "address",
          "name": "user",
          "type": "address"
        },
        {
          "internalType": "address",
          "name": "inviter",
          "type": "address"
        },
        {
          "internalType": "uint256",
          "name": "validUntilBlock",
          "type": "uint256"
        },
        {
          "internalType": "bytes",
          "name": "signature",
          "type": "bytes"
        },
        {
          "internalType": "uint8",
          "name": "userAndInviterPercentage",
          "type": "uint8"
        },
        {
          "internalType": "uint8",
          "name": "userPercentage",
          "type": "uint8"
        }
      ],
      "name": "appClaim",
      "outputs": [
        {
          "internalType": "bool",
          "name": "",
          "type": "bool"
        }
      ],
      "stateMutability": "nonpayable",
      "type": "function"
    },
    {
      "inputs": [
        {
          "internalType": "address",
          "name": "user",
          "type": "address"
        },
        {
          "internalType": "address",
          "name": "inviter",
          "type": "address"
        },
        {
          "internalType": "uint256",
          "name": "validUntilBlock",
          "type": "uint256"
        },
        {
          "internalType": "bytes",
          "name": "signature",
          "type": "bytes"
        }
      ],
      "name": "appClaim",
      "outputs": [
        {
          "internalType": "bool",
          "name": "",
          "type": "bool"
        }
      ],
      "stateMutability": "nonpayable",
      "type": "function"
    },
    {
      "inputs": [
        {
          "internalType": "address",
          "name": "app",
          "type": "address"
        },
        {
          "internalType": "address",
          "name": "rewardReceiver",
          "type": "address"
        },
        {
          "internalType": "uint8",
          "name": "userAndInviterPercentage",
          "type": "uint8"
        },
        {
          "internalType": "uint8",
          "name": "userPercentage",
          "type": "uint8"
        },
        {
          "internalType": "string",
          "name": "description",
          "type": "string"
        },
        {
          "internalType": "string",
          "name": "url",
          "type": "string"
        },
        {
          "internalType": "string",
          "name": "email",
          "type": "string"
        }
      ],
      "name": "applyApp",
      "outputs": [],
      "stateMutability": "nonpayable",
      "type": "function"
    },
    {
      "inputs": [
        {
          "internalType": "address",
          "name": "app",
          "type": "address"
        }
      ],
      "name": "approve",
      "outputs": [],
      "stateMutability": "nonpayable",
      "type": "function"
    },
    {
      "inputs": [
        {
          "internalType": "address",
          "name": "",
          "type": "address"
        }
      ],
      "name": "appsStats",
      "outputs": [
        {
          "internalType": "uint96",
          "name": "numberOfRewards",
          "type": "uint96"
        },
        {
          "internalType": "uint96",
          "name": "totalAppRewards",
          "type": "uint96"
        },
        {
          "internalType": "uint96",
          "name": "totalUserRewards",
          "type": "uint96"
        },
        {
          "internalType": "uint96",
          "name": "totalInviterRewards",
          "type": "uint96"
        }
      ],
      "stateMutability": "view",
      "type": "function"
    },
    {
      "inputs": [
        {
          "internalType": "address",
          "name": "app",
          "type": "address"
        },
        {
          "internalType": "address",
          "name": "user",
          "type": "address"
        }
      ],
      "name": "canClaim",
      "outputs": [
        {
          "internalType": "bool",
          "name": "",
          "type": "bool"
        }
      ],
      "stateMutability": "view",
      "type": "function"
    },
    {
      "inputs": [],
      "name": "eip712Domain",
      "outputs": [
        {
          "internalType": "bytes1",
          "name": "fields",
          "type": "bytes1"
        },
        {
          "internalType": "string",
          "name": "name",
          "type": "string"
        },
        {
          "internalType": "string",
          "name": "version",
          "type": "string"
        },
        {
          "internalType": "uint256",
          "name": "chainId",
          "type": "uint256"
        },
        {
          "internalType": "address",
          "name": "verifyingContract",
          "type": "address"
        },
        {
          "internalType": "bytes32",
          "name": "salt",
          "type": "bytes32"
        },
        {
          "internalType": "uint256[]",
          "name": "extensions",
          "type": "uint256[]"
        }
      ],
      "stateMutability": "view",
      "type": "function"
    },
    {
      "inputs": [],
      "name": "getDomainSeparator",
      "outputs": [
        {
          "internalType": "bytes32",
          "name": "",
          "type": "bytes32"
        }
      ],
      "stateMutability": "view",
      "type": "function"
    },
    {
      "inputs": [
        {
          "internalType": "bytes32",
          "name": "role",
          "type": "bytes32"
        }
      ],
      "name": "getRoleAdmin",
      "outputs": [
        {
          "internalType": "bytes32",
          "name": "",
          "type": "bytes32"
        }
      ],
      "stateMutability": "view",
      "type": "function"
    },
    {
      "inputs": [
        {
          "internalType": "address",
          "name": "user",
          "type": "address"
        }
      ],
      "name": "getUserPeriodStats",
      "outputs": [
        {
          "internalType": "uint8",
          "name": "appsClaimedThisPeriod",
          "type": "uint8"
        },
        {
          "internalType": "uint32",
          "name": "periodStartTimestamp",
          "type": "uint32"
        }
      ],
      "stateMutability": "view",
      "type": "function"
    },
    {
      "inputs": [
        {
          "internalType": "bytes32",
          "name": "role",
          "type": "bytes32"
        },
        {
          "internalType": "address",
          "name": "account",
          "type": "address"
        }
      ],
      "name": "grantRole",
      "outputs": [],
      "stateMutability": "nonpayable",
      "type": "function"
    },
    {
      "inputs": [
        {
          "internalType": "bytes32",
          "name": "role",
          "type": "bytes32"
        },
        {
          "internalType": "address",
          "name": "account",
          "type": "address"
        }
      ],
      "name": "hasRole",
      "outputs": [
        {
          "internalType": "bool",
          "name": "",
          "type": "bool"
        }
      ],
      "stateMutability": "view",
      "type": "function"
    },
    {
      "inputs": [],
      "name": "identityContract",
      "outputs": [
        {
          "internalType": "contract IIdentity",
          "name": "",
          "type": "address"
        }
      ],
      "stateMutability": "view",
      "type": "function"
    },
    {
      "inputs": [
        {
          "internalType": "contract IERC20",
          "name": "_rewardToken",
          "type": "address"
        },
        {
          "internalType": "contract IIdentity",
          "name": "_identityContract",
          "type": "address"
        },
        {
          "internalType": "uint256",
          "name": "_maxRewardsPerApp",
          "type": "uint256"
        },
        {
          "internalType": "uint256",
          "name": "_rewardAmount",
          "type": "uint256"
        }
      ],
      "name": "initialize",
      "outputs": [],
      "stateMutability": "nonpayable",
      "type": "function"
    },
    {
      "inputs": [],
      "name": "maxAppsPerUser",
      "outputs": [
        {
          "internalType": "uint8",
          "name": "",
          "type": "uint8"
        }
      ],
      "stateMutability": "view",
      "type": "function"
    },
    {
      "inputs": [],
      "name": "maxRewardsPerApp",
      "outputs": [
        {
          "internalType": "uint96",
          "name": "",
          "type": "uint96"
        }
      ],
      "stateMutability": "view",
      "type": "function"
    },
    {
      "inputs": [
        {
          "internalType": "address",
          "name": "app",
          "type": "address"
        },
        {
          "internalType": "address",
          "name": "inviter",
          "type": "address"
        },
        {
          "internalType": "uint256",
          "name": "validUntilBlock",
          "type": "uint256"
        },
        {
          "internalType": "bytes",
          "name": "userSignature",
          "type": "bytes"
        },
        {
          "internalType": "bytes",
          "name": "appSignature",
          "type": "bytes"
        }
      ],
      "name": "nonContractAppClaim",
      "outputs": [
        {
          "internalType": "bool",
          "name": "",
          "type": "bool"
        }
      ],
      "stateMutability": "nonpayable",
      "type": "function"
    },
    {
      "inputs": [],
      "name": "proxiableUUID",
      "outputs": [
        {
          "internalType": "bytes32",
          "name": "",
          "type": "bytes32"
        }
      ],
      "stateMutability": "view",
      "type": "function"
    },
    {
      "inputs": [
        {
          "internalType": "address",
          "name": "",
          "type": "address"
        }
      ],
      "name": "registeredApps",
      "outputs": [
        {
          "internalType": "address",
          "name": "owner",
          "type": "address"
        },
        {
          "internalType": "address",
          "name": "rewardReceiver",
          "type": "address"
        },
        {
          "internalType": "uint96",
          "name": "totalRewardsClaimed",
          "type": "uint96"
        },
        {
          "internalType": "uint32",
          "name": "registeredAt",
          "type": "uint32"
        },
        {
          "internalType": "uint32",
          "name": "lastResetAt",
          "type": "uint32"
        },
        {
          "internalType": "uint8",
          "name": "userAndInviterPercentage",
          "type": "uint8"
        },
        {
          "internalType": "uint8",
          "name": "userPercentage",
          "type": "uint8"
        },
        {
          "internalType": "bool",
          "name": "isRegistered",
          "type": "bool"
        },
        {
          "internalType": "bool",
          "name": "isApproved",
          "type": "bool"
        },
        {
          "internalType": "string",
          "name": "description",
          "type": "string"
        },
        {
          "internalType": "string",
          "name": "url",
          "type": "string"
        },
        {
          "internalType": "string",
          "name": "email",
          "type": "string"
        }
      ],
      "stateMutability": "view",
      "type": "function"
    },
    {
      "inputs": [
        {
          "internalType": "bytes32",
          "name": "role",
          "type": "bytes32"
        },
        {
          "internalType": "address",
          "name": "callerConfirmation",
          "type": "address"
        }
      ],
      "name": "renounceRole",
      "outputs": [],
      "stateMutability": "nonpayable",
      "type": "function"
    },
    {
      "inputs": [
        {
          "internalType": "bytes32",
          "name": "role",
          "type": "bytes32"
        },
        {
          "internalType": "address",
          "name": "account",
          "type": "address"
        }
      ],
      "name": "revokeRole",
      "outputs": [],
      "stateMutability": "nonpayable",
      "type": "function"
    },
    {
      "inputs": [],
      "name": "rewardAmount",
      "outputs": [
        {
          "internalType": "uint96",
          "name": "",
          "type": "uint96"
        }
      ],
      "stateMutability": "view",
      "type": "function"
    },
    {
      "inputs": [],
      "name": "rewardToken",
      "outputs": [
        {
          "internalType": "contract IERC20",
          "name": "",
          "type": "address"
        }
      ],
      "stateMutability": "view",
      "type": "function"
    },
    {
      "inputs": [
        {
          "internalType": "address",
          "name": "_identity",
          "type": "address"
        }
      ],
      "name": "setIdentityContract",
      "outputs": [],
      "stateMutability": "nonpayable",
      "type": "function"
    },
    {
      "inputs": [
        {
          "internalType": "uint8",
          "name": "_maxAppsPerUser",
          "type": "uint8"
        }
      ],
      "name": "setMaxAppsPerUser",
      "outputs": [],
      "stateMutability": "nonpayable",
      "type": "function"
    },
    {
      "inputs": [
        {
          "internalType": "uint96",
          "name": "_maxRewardsPerApp",
          "type": "uint96"
        }
      ],
      "name": "setMaxRewardsPerApp",
      "outputs": [],
      "stateMutability": "nonpayable",
      "type": "function"
    },
    {
      "inputs": [
        {
          "internalType": "uint96",
          "name": "_rewardAmount",
          "type": "uint96"
        }
      ],
      "name": "setRewardAmount",
      "outputs": [],
      "stateMutability": "nonpayable",
      "type": "function"
    },
    {
      "inputs": [
        {
          "internalType": "bytes4",
          "name": "interfaceId",
          "type": "bytes4"
        }
      ],
      "name": "supportsInterface",
      "outputs": [
        {
          "internalType": "bool",
          "name": "",
          "type": "bool"
        }
      ],
      "stateMutability": "view",
      "type": "function"
    },
    {
      "inputs": [
        {
          "internalType": "address",
          "name": "app",
          "type": "address"
        },
        {
          "internalType": "address",
          "name": "rewardReceiver",
          "type": "address"
        },
        {
          "internalType": "uint8",
          "name": "userAndInviterPercentage",
          "type": "uint8"
        },
        {
          "internalType": "uint8",
          "name": "userPercentage",
          "type": "uint8"
        }
      ],
      "name": "updateAppSettings",
      "outputs": [],
      "stateMutability": "nonpayable",
      "type": "function"
    },
    {
      "inputs": [
        {
          "internalType": "address",
          "name": "newImplementation",
          "type": "address"
        },
        {
          "internalType": "bytes",
          "name": "data",
          "type": "bytes"
        }
      ],
      "name": "upgradeToAndCall",
      "outputs": [],
      "stateMutability": "payable",
      "type": "function"
    },
    {
      "inputs": [
        {
          "internalType": "address",
          "name": "",
          "type": "address"
        }
      ],
      "name": "userPeriodClaims",
      "outputs": [
        {
          "internalType": "uint8",
          "name": "periodClaims",
          "type": "uint8"
        },
        {
          "internalType": "uint32",
          "name": "lastClaimTimestamp",
          "type": "uint32"
        }
      ],
      "stateMutability": "view",
      "type": "function"
    },
    {
      "inputs": [
        {
          "internalType": "address",
          "name": "",
          "type": "address"
        },
        {
          "internalType": "address",
          "name": "",
          "type": "address"
        }
      ],
      "name": "userRegistrations",
      "outputs": [
        {
          "internalType": "uint32",
          "name": "isRegistered",
          "type": "uint32"
        },
        {
          "internalType": "uint32",
          "name": "lastClaimTimestamp",
          "type": "uint32"
        }
      ],
      "stateMutability": "view",
      "type": "function"
    }
  ],
  "bytecode": "0x60c06040523060805234801561001457600080fd5b50604051614002380380614002833981016040819052610033916100f9565b80151560a052610041610047565b50610122565b7ff0c57e16840df040f15088dc2f81fe391c3923bec73e23a9662efc9c229c6a00805468010000000000000000900460ff16156100975760405163f92ee8a960e01b815260040160405180910390fd5b80546001600160401b03908116146100f65780546001600160401b0319166001600160401b0390811782556040519081527fc7f505b2f371ae2175ee4913f4499e1f2633a7b5936321eed1cdaeb6115181d29060200160405180910390a15b50565b60006020828403121561010b57600080fd5b8151801515811461011b57600080fd5b9392505050565b60805160a051613ea661015c600039600081816104460152611aaf015260008181611fe30152818161200c01526121490152613ea66000f3fe6080604052600436106101cb5760003560e01c806301ffc9a7146101d057806309e26362146102055780631f5031fe14610232578063248a9ca3146102545780632aec8fe1146102825780632f2ff15d146102a257806336568abe146102c257806337c909ec146102e257806349eb67f8146102f95780634f1ef2861461031957806352d1902d1461032c578063567e38e31461034157806356e62e641461035957806367031bae1461037b5780636b0509b1146103a857806375b238fc146103ca57806384b0196e146103ec57806391d14854146104145780639420f4a9146104345780639dd96d4714610468578063a217fddf146104ef578063a284e89814610504578063a617e65314610524578063a6c4cce914610544578063abe3bfef1461057c578063ad3cb1cc1461059c578063cc733fe9146105da578063d3ea970114610618578063d547741f14610638578063d68a776e14610658578063d7bac3dc14610695578063daea85c5146106b5578063e4e5bc7a146106d5578063e6d5864b146106f5578063eb990c5914610715578063ed24911d14610735578063f7b2a7be1461074a578063f7c618c114610771578063f8b68aa214610791578063fe7bf9b2146107f7575b600080fd5b3480156101dc57600080fd5b506101f06101eb366004613288565b61082a565b60405190151581526020015b60405180910390f35b34801561021157600080fd5b50600254610225906001600160601b031681565b6040516101fc91906132b2565b34801561023e57600080fd5b5061025261024d3660046132c6565b610861565b005b34801561026057600080fd5b5061027461026f3660046132ef565b61089c565b6040519081526020016101fc565b34801561028e57600080fd5b5061025261029d3660046132c6565b6108bc565b3480156102ae57600080fd5b506102526102bd36600461332d565b610934565b3480156102ce57600080fd5b506102526102dd36600461332d565b610956565b3480156102ee57600080fd5b5061027462ed4e0081565b34801561030557600080fd5b5061025261031436600461336e565b61098e565b610252610327366004613470565b610b2c565b34801561033857600080fd5b50610274610b4b565b34801561034d57600080fd5b506102746301e1338081565b34801561036557600080fd5b50610274600080516020613df183398151915281565b34801561038757600080fd5b5060015461039b906001600160a01b031681565b6040516101fc91906134bf565b3480156103b457600080fd5b50610274600080516020613e3183398151915281565b3480156103d657600080fd5b50610274600080516020613e5183398151915281565b3480156103f857600080fd5b50610401610b68565b6040516101fc9796959493929190613523565b34801561042057600080fd5b506101f061042f36600461332d565b610c11565b34801561044057600080fd5b506101f07f000000000000000000000000000000000000000000000000000000000000000081565b34801561047457600080fd5b506104bc6104833660046135bb565b600460205260009081526040902080546001909101546001600160601b0380831692600160601b90819004821692808316929190041684565b604080516001600160601b03958616815293851660208501529184169183019190915290911660608201526080016101fc565b3480156104fb57600080fd5b50610274600081565b34801561051057600080fd5b5061025261051f3660046135d8565b610c47565b34801561053057600080fd5b506101f061053f3660046136ae565b611160565b34801561055057600080fd5b5061056461055f3660046135bb565b611644565b6040516101fc9c9b9a999897969594939291906136dc565b34801561058857600080fd5b506101f061059736600461378e565b611872565b3480156105a857600080fd5b506105cd604051806040016040528060058152602001640352e302e360dc1b81525081565b6040516101fc9190613824565b3480156105e657600080fd5b506105fa6105f53660046135bb565b6118e0565b6040805160ff909316835263ffffffff9091166020830152016101fc565b34801561062457600080fd5b506101f0610633366004613837565b611941565b34801561064457600080fd5b5061025261065336600461332d565b6119a7565b34801561066457600080fd5b506105fa6106733660046135bb565b60066020526000908152604090205460ff811690610100900463ffffffff1682565b3480156106a157600080fd5b506102526106b03660046138c2565b6119c3565b3480156106c157600080fd5b506102526106d03660046135bb565b611a8c565b3480156106e157600080fd5b506101f06106f03660046138dd565b611bf4565b34801561070157600080fd5b506102526107103660046135bb565b611c11565b34801561072157600080fd5b50610252610730366004613948565b611c4c565b34801561074157600080fd5b50610274611e78565b34801561075657600080fd5b5060025461022590600160601b90046001600160601b031681565b34801561077d57600080fd5b5060005461039b906001600160a01b031681565b34801561079d57600080fd5b506107da6107ac3660046136ae565b600560209081526000928352604080842090915290825290205463ffffffff80821691600160201b90041682565b6040805163ffffffff9384168152929091166020830152016101fc565b34801561080357600080fd5b5060015461081890600160a01b900460ff1681565b60405160ff90911681526020016101fc565b60006001600160e01b03198216637965db0b60e01b148061085b57506301ffc9a760e01b6001600160e01b03198316145b92915050565b600080516020613e5183398151915261087981611e87565b50600280546001600160601b0319166001600160601b0392909216919091179055565b6000806108a7611e94565b60009384526020525050604090206001015490565b600080516020613e518339815191526108d481611e87565b60028054600160601b600160c01b031916600160601b6001600160601b038516021790556040517f9639dea65e74b72b1b86ccf3e4f9b6d23b88d2aad2f103d0b3afe394e67edade906109289084906132b2565b60405180910390a15050565b61093d8261089c565b61094681611e87565b6109508383611eb8565b50505050565b6001600160a01b038116331461097f5760405163334bd91960e11b815260040160405180910390fd5b6109898282611f60565b505050565b6001600160a01b0383166109bd5760405162461bcd60e51b81526004016109b49061398e565b60405180910390fd5b6001600160a01b038416600090815260036020526040902060020154600160501b900460ff166109ff5760405162461bcd60e51b81526004016109b4906139c0565b6001600160a01b03848116600090815260036020526040902054163314610a385760405162461bcd60e51b81526004016109b4906139ec565b60648260ff161115610a5c5760405162461bcd60e51b81526004016109b490613a13565b60648160ff161115610a805760405162461bcd60e51b81526004016109b490613a48565b6001600160a01b038481166000818152600360209081526040918290206001810180546001600160a01b031916958916959095179094556002909301805461ffff60401b1916600160401b60ff88811691820260ff60481b191692909217600160481b9288169283021790925582519182529381019390935290917f817dcd9d9a3f9ee6dbc0878d11d70ae3a2a31c7398c4169b9796de7fbf2a61a6910160405180910390a250505050565b610b34611fd8565b610b3d8261207f565b610b47828261208a565b5050565b6000610b5561213e565b50600080516020613e1183398151915290565b6000606080600080600060606000610b7e612187565b8054909150158015610b9257506001810154155b610bd65760405162461bcd60e51b81526020600482015260156024820152741152540dcc4c8e88155b9a5b9a5d1a585b1a5e9959605a1b60448201526064016109b4565b610bde6121ab565b610be661224c565b60408051600080825260208201909252600f60f81b9c939b5091995046985030975095509350915050565b600080610c1c611e94565b6000948552602090815260408086206001600160a01b03959095168652939052505090205460ff1690565b6001600160a01b038716610c6d5760405162461bcd60e51b81526004016109b49061398e565b6001600160a01b038616610c935760405162461bcd60e51b81526004016109b49061398e565b60648560ff161115610cb75760405162461bcd60e51b81526004016109b490613a13565b60648460ff161115610cdb5760405162461bcd60e51b81526004016109b490613a48565b610200835111158015610cf057506032835110155b610d325760405162461bcd60e51b815260206004820152601360248201527224b73b30b634b2103232b9b1b934b83a34b7b760691b60448201526064016109b4565b60008251118015610d45575060ff825111155b610d7f5760405162461bcd60e51b815260206004820152600b60248201526a125b9d985b1a590815549360aa1b60448201526064016109b4565b60008151118015610d92575060ff815111155b610dce5760405162461bcd60e51b815260206004820152600d60248201526c125b9d985b1a5908195b585a5b609a1b60448201526064016109b4565b6001600160a01b038088166000908152600360205260409020805490911615610eb85780546001600160a01b03163314610e1a5760405162461bcd60e51b81526004016109b4906139ec565b6002810180546001830180546001600160a01b0319166001600160a01b038b1617905563ff00ffff60401b1916600160401b60ff8981169190910260ff60481b191691909117600160481b9188169190910217905560038101610e7d8582613b00565b5060048101610e8c8482613b00565b5060058101610e9b8382613b00565b5060028101805463ffffffff19164263ffffffff16179055611101565b604051806101800160405280336001600160a01b03168152602001886001600160a01b0316815260200160006001600160601b031681526020014263ffffffff1681526020014263ffffffff1681526020018760ff1681526020018660ff16815260200160011515815260200160001515815260200185815260200184815260200183815250600360008a6001600160a01b03166001600160a01b0316815260200190815260200160002060008201518160000160006101000a8154816001600160a01b0302191690836001600160a01b0316021790555060208201518160010160006101000a8154816001600160a01b0302191690836001600160a01b0316021790555060408201518160010160146101000a8154816001600160601b0302191690836001600160601b0316021790555060608201518160020160006101000a81548163ffffffff021916908363ffffffff16021790555060808201518160020160046101000a81548163ffffffff021916908363ffffffff16021790555060a08201518160020160086101000a81548160ff021916908360ff16021790555060c08201518160020160096101000a81548160ff021916908360ff16021790555060e082015181600201600a6101000a81548160ff02191690831515021790555061010082015181600201600b6101000a81548160ff0219169083151502179055506101208201518160030190816110d19190613b00565b5061014082015160048201906110e79082613b00565b5061016082015160058201906110fd9082613b00565b5050505b336001600160a01b0316886001600160a01b03167fc025612b0e32541c90be0a3ac84ee4a13a456d5520a7da1b3c1c0f6e821ba59d89898989898960405161114e96959493929190613bbe565b60405180910390a35050505050505050565b6001600160a01b038281166000908152600560209081526040808320938516835292905290812054600160201b900463ffffffff166111a262ed4e0082613c3c565b4210156111ee5760405162461bcd60e51b815260206004820152601a60248201527910db185a5b4818dbdbdb191bdddb881b9bdd081c995858da195960321b60448201526064016109b4565b6001600160a01b03831661123b5760405162461bcd60e51b8152602060048201526014602482015273496e76616c69642075736572206164647265737360601b60448201526064016109b4565b6001600160a01b038085166000908152600360209081526040808320600201546005835281842094881684529390915290205463ffffffff918216911610156112c45760405162461bcd60e51b815260206004820152601b60248201527a055736572206e6f74207265676973746572656420666f722061707602c1b60448201526064016109b4565b600254600160601b90046001600160601b03166113335760405162461bcd60e51b815260206004820152602760248201527f52657761726420616d6f756e74206d7573742062652067726561746572207468604482015266616e207a65726f60c81b60648201526084016109b4565b6002546000546040516370a0823160e01b8152600160601b9092046001600160601b0316916001600160a01b03909116906370a08231906113789030906004016134bf565b602060405180830381865afa158015611395573d6000803e3d6000fd5b505050506040513d601f19601f820116820180604052508101906113b99190613c4f565b10156114115760405162461bcd60e51b815260206004820152602160248201527f496e73756666696369656e742072657761726420746f6b656e2062616c616e636044820152606560f81b60648201526084016109b4565b6001600160a01b038085166000908152600360209081526040808320938716835260069091529020600154815460ff600160a01b9092048216911610806114725750805461146e9062ed4e0090610100900463ffffffff16613c3c565b4210155b6114bc5760405162461bcd60e51b815260206004820152601b60248201527a13585e08185c1c1cc81c195c881c195c9a5bd9081c995858da1959602a1b60448201526064016109b4565b6002820154600160501b900460ff1680156114e257506002820154600160581b900460ff165b61152e5760405162461bcd60e51b815260206004820152601e60248201527f417070206e6f7420617070726f766564206f722072656769737465726564000060448201526064016109b4565b6002820154429061154a906301e133809063ffffffff16613c3c565b116115925760405162461bcd60e51b8152602060048201526018602482015277105c1c081c9959da5cdd1c985d1a5bdb88195e1c1a5c995960421b60448201526064016109b4565b60028201546115b29062ed4e0090600160201b900463ffffffff16613c3c565b421015806115f8575060025460018301546001600160601b03808316926115ec92600160601b909104821691600160a01b90910416613c68565b6001600160601b031611155b6116385760405162461bcd60e51b8152602060048201526011602482015270417070206d61786564207265776172647360781b60448201526064016109b4565b50600195945050505050565b600360208190526000918252604090912080546001820154600283015493830180546001600160a01b039384169593831694600160a01b9093046001600160601b03169363ffffffff80821694600160201b830490911693600160401b830460ff90811694600160481b8504821694600160501b8104831694600160581b90910490921692906116d390613a78565b80601f01602080910402602001604051908101604052809291908181526020018280546116ff90613a78565b801561174c5780601f106117215761010080835404028352916020019161174c565b820191906000526020600020905b81548152906001019060200180831161172f57829003601f168201915b50505050509080600401805461176190613a78565b80601f016020809104026020016040519081016040528092919081815260200182805461178d90613a78565b80156117da5780601f106117af576101008083540402835291602001916117da565b820191906000526020600020905b8154815290600101906020018083116117bd57829003601f168201915b5050505050908060050180546117ef90613a78565b80601f016020809104026020016040519081016040528092919081815260200182805461181b90613a78565b80156118685780601f1061183d57610100808354040283529160200191611868565b820191906000526020600020905b81548152906001019060200180831161184b57829003601f168201915b505050505090508c565b600061188086338685612269565b6118c45760405162461bcd60e51b8152602060048201526015602482015274496e76616c696420617070207369676e617475726560581b60448201526064016109b4565b6118d6338787878760008060006122d4565b9695505050505050565b6001600160a01b038116600090815260066020526040812080548291906119169062ed4e0090610100900463ffffffff16613c3c565b42106119285750600093429350915050565b5460ff81169461010090910463ffffffff169350915050565b600060648360ff1611156119675760405162461bcd60e51b81526004016109b490613a13565b60648260ff16111561198b5760405162461bcd60e51b81526004016109b490613a48565b61199c8733888888888860016122d4565b979650505050505050565b6119b08261089c565b6119b981611e87565b6109508383611f60565b600080516020613e518339815191526119db81611e87565b60008260ff1611611a3e5760405162461bcd60e51b815260206004820152602760248201527f52657761726473207065722075736572206d75737420626520677265617465726044820152660207468616e20360cc1b60648201526084016109b4565b6001805460ff60a01b1916600160a01b60ff8516908102919091179091556040519081527fbb1c987d41b58fea76843b44edae6b324dcf334d1070a3c8c7896c7f59f75a8190602001610928565b600080516020613e51833981519152611aa58133610c11565b158015611ad057507f0000000000000000000000000000000000000000000000000000000000000000155b15611af257338160405163e2517d3f60e01b81526004016109b4929190613c87565b6001600160a01b038216600090815260036020526040902060020154600160501b900460ff16611b345760405162461bcd60e51b81526004016109b4906139c0565b6001600160a01b038216600090815260036020526040902060020154600160581b900460ff1615611b9e5760405162461bcd60e51b8152602060048201526014602482015273105c1c08185b1c9958591e48185c1c1c9bdd995960621b60448201526064016109b4565b6001600160a01b038216600081815260036020526040808220600201805460ff60581b1916600160581b179055517f95e9598427a2e62bd5a93d3a083bc0d32989e80c16ad07312a0bb406b53e36919190a25050565b6000611c08853386868660008060006122d4565b95945050505050565b600080516020613e51833981519152611c2981611e87565b50600180546001600160a01b0319166001600160a01b0392909216919091179055565b6000611c5661244e565b805490915060ff600160401b82041615906001600160401b0316600081158015611c7d5750825b90506000826001600160401b03166001148015611c995750303b155b905081158015611ca7575080155b15611cc55760405163f92ee8a960e01b815260040160405180910390fd5b84546001600160401b03191660011785558315611cee57845460ff60401b1916600160401b1785555b6001600160a01b038916611d145760405162461bcd60e51b81526004016109b49061398e565b6001600160a01b038816611d3a5760405162461bcd60e51b81526004016109b49061398e565b611d42612472565b611d9060405180604001604052806011815260200170456e676167656d656e745265776172647360781b815250604051806040016040528060038152602001620312e360ec1b81525061247a565b611d98612472565b600080546001600160a01b03808c166001600160a01b031990921691909117825560018054600280546001600160601b038c8116600160601b026001600160c01b0319909216908e1617179055600360a01b6001600160a81b0319909116928c1692909217919091179055611e0d9033611eb8565b50611e26600080516020613e5183398151915233611eb8565b508315611e6d57845460ff60401b19168555604051600181527fc7f505b2f371ae2175ee4913f4499e1f2633a7b5936321eed1cdaeb6115181d29060200160405180910390a15b505050505050505050565b6000611e8261248c565b905090565b611e918133612496565b50565b7f02dd7bc7dec4dceedda775e58dd541e08a116c6c53815c0bd028192f7b62680090565b600080611ec3611e94565b9050611ecf8484610c11565b611f4f576000848152602082815260408083206001600160a01b03871684529091529020805460ff19166001179055611f053390565b6001600160a01b0316836001600160a01b0316857f2f8788117e7eff1d82e926ec794901d17c78024a50270940304540a733656f0d60405160405180910390a4600191505061085b565b600091505061085b565b5092915050565b600080611f6b611e94565b9050611f778484610c11565b15611f4f576000848152602082815260408083206001600160a01b0387168085529252808320805460ff1916905551339287917ff6391f5c32d9c69d2a47ea670b442974b53935d1edc7fd64eb21e047a839171b9190a4600191505061085b565b306001600160a01b037f000000000000000000000000000000000000000000000000000000000000000016148061205f57507f00000000000000000000000000000000000000000000000000000000000000006001600160a01b0316612053600080516020613e11833981519152546001600160a01b031690565b6001600160a01b031614155b1561207d5760405163703e46dd60e11b815260040160405180910390fd5b565b6000610b4781611e87565b816001600160a01b03166352d1902d6040518163ffffffff1660e01b8152600401602060405180830381865afa9250505080156120e4575060408051601f3d908101601f191682019092526120e191810190613c4f565b60015b6121035781604051634c9c8ce360e01b81526004016109b491906134bf565b600080516020613e11833981519152811461213457604051632a87526960e21b8152600481018290526024016109b4565b61098983836124c1565b306001600160a01b037f0000000000000000000000000000000000000000000000000000000000000000161461207d5760405163703e46dd60e11b815260040160405180910390fd5b7fa16a46d94261c7517cc8ff89f61c0ce93598e3c849801011dee649a6a557d10090565b606060006121b7612187565b90508060020180546121c890613a78565b80601f01602080910402602001604051908101604052809291908181526020018280546121f490613a78565b80156122415780601f1061221657610100808354040283529160200191612241565b820191906000526020600020905b81548152906001019060200180831161222457829003601f168201915b505050505091505090565b60606000612258612187565b90508060030180546121c890613a78565b60408051600080516020613df18339815191526020808301919091526001600160a01b03878116838501528616606083015260808083018690528351808403909101815260a09092019092528051910120600090816122c782612517565b905061199c878286612544565b60006122de6125bb565b6001546040516316874da360e11b81526000916001600160a01b031690632d0e9b469061230f908d906004016134bf565b602060405180830381865afa15801561232c573d6000803e3d6000fd5b505050506040513d601f19601f820116820180604052508101906123509190613ca0565b9050600087118015612363575060008651115b156123ae576123758a8a8a8a8a6125f1565b6001600160a01b038981166000908152600560209081526040808320938516835292905220805463ffffffff19164263ffffffff161790555b6123b88982611160565b6123c657600091505061243a565b6123d08982612818565b6001600160a01b03808a16600090815260036020526040902060018101549091612433918c91168d8c88612412576002860154600160401b900460ff16612414565b8a5b8961242d576002870154600160481b900460ff16612996565b8a612996565b6001925050505b612442612d66565b98975050505050505050565b7ff0c57e16840df040f15088dc2f81fe391c3923bec73e23a9662efc9c229c6a0090565b61207d612d77565b612482612d77565b610b478282612d9c565b6000611e82612ddd565b6124a08282610c11565b610b4757808260405163e2517d3f60e01b81526004016109b4929190613c87565b6124ca82612e51565b6040516001600160a01b038316907fbc7cd75a20ee27fd9adebab32041f755214dbc6bffa90cc0225b39da2e5c2d3b90600090a280511561250f576109898282612ead565b610b47612f1a565b600061085b61252461248c565b8360405161190160f01b8152600281019290925260228201526042902090565b6000836001600160a01b03163b6000036125a6576000806125658585612f39565b509092509050600081600381111561257f5761257f613cbd565b14801561259d5750856001600160a01b0316826001600160a01b0316145b925050506125b4565b6125b1848484612f86565b90505b9392505050565b60006125c5613061565b8054909150600119016125eb57604051633ee5aeb560e01b815260040160405180910390fd5b60029055565b6125fc436032613c3c565b8211156126555760405162461bcd60e51b815260206004820152602160248201527f56616c6964556e74696c426c6f636b20746f6f2066617220696e2066757475726044820152606560f81b60648201526084016109b4565b438210156126995760405162461bcd60e51b815260206004820152601160248201527014da59db985d1d5c9948195e1c1a5c9959607a1b60448201526064016109b4565b6001600160a01b038416600090815260036020819052604082200180546126bf90613a78565b80601f01602080910402602001604051908101604052809291908181526020018280546126eb90613a78565b80156127385780601f1061270d57610100808354040283529160200191612738565b820191906000526020600020905b81548152906001019060200180831161271b57829003601f168201915b505050505090506000600080516020613e3183398151915286868685805190602001206040516020016127999594939291909485526001600160a01b0393841660208601529190921660408401526060830191909152608082015260a00190565b60405160208183030381529060405280519060200120905060006127bc82612517565b90506127c9888286612544565b61280e5760405162461bcd60e51b8152602060048201526016602482015275496e76616c69642075736572207369676e617475726560501b60448201526064016109b4565b5050505050505050565b6001600160a01b038281166000818152600560209081526040808320948616808452948252808320805463ffffffff60201b1916600160201b4263ffffffff9081168202929092179092559484526003835281842095845260069092529091206002840154909261288f9262ed4e00920416613c3c565b42106128c7576001820180546001600160a01b0316905560028201805463ffffffff60201b1916600160201b4263ffffffff16021790555b80546128e29062ed4e0090610100900463ffffffff16613c3c565b421061290157805464ffffffffff19166101004263ffffffff16021781555b8054600190829060009061291990849060ff16613cd3565b92506101000a81548160ff021916908360ff1602179055506002600c9054906101000a90046001600160601b03168260010160148282829054906101000a90046001600160601b031661296c9190613c68565b92506101000a8154816001600160601b0302191690836001600160601b0316021790555050505050565b6002546000906064906129bd9060ff861690600160601b90046001600160601b0316613cec565b6129c79190613d24565b6001600160601b03169050600060646129e360ff851684613d53565b6129ed9190613d6a565b905060006129fb8284613d7e565b600254909150600090612a1f908590600160601b90046001600160601b0316613d7e565b90506001600160a01b038716612a3c57612a398282613c3c565b90505b6001600160a01b038a16600090815260046020526040812080549091600191839190612a729084906001600160601b0316613c68565b92506101000a8154816001600160601b0302191690836001600160601b031602179055508181600001600c8282829054906101000a90046001600160601b0316612abc9190613c68565b92506101000a8154816001600160601b0302191690836001600160601b031602179055508281600101600c8282829054906101000a90046001600160601b0316612b069190613c68565b92506101000a8154816001600160601b0302191690836001600160601b03160217905550838160010160008282829054906101000a90046001600160601b0316612b509190613c68565b92506101000a8154816001600160601b0302191690836001600160601b031602179055506000821115612bf45760005460405163a9059cbb60e01b81526001600160a01b039091169063a9059cbb90612baf908d908690600401613c87565b6020604051808303816000875af1158015612bce573d6000803e3d6000fd5b505050506040513d601f19601f82011682018060405250810190612bf29190613d91565b505b8315612c715760005460405163a9059cbb60e01b81526001600160a01b039091169063a9059cbb90612c2c908c908890600401613c87565b6020604051808303816000875af1158015612c4b573d6000803e3d6000fd5b505050506040513d601f19601f82011682018060405250810190612c6f9190613d91565b505b6001600160a01b03881615801590612c895750600083115b15612d055760005460405163a9059cbb60e01b81526001600160a01b039091169063a9059cbb90612cc0908b908790600401613c87565b6020604051808303816000875af1158015612cdf573d6000803e3d6000fd5b505050506040513d601f19601f82011682018060405250810190612d039190613d91565b505b60408051838152602081018690529081018490526001600160a01b03808a16918b8216918e16907f4af0f3bbba19bd2ae80915d3dcbc4b38837833848ce3b3cd23d9043235865a369060600160405180910390a45050505050505050505050565b6000612d70613061565b6001905550565b612d7f613085565b61207d57604051631afcd79f60e31b815260040160405180910390fd5b612da4612d77565b6000612dae612187565b905060028101612dbe8482613b00565b5060038101612dcd8382613b00565b5060008082556001909101555050565b60007f8b73c3c69bb8fe3d512ecc4cf759cc79239f7b179b0ffacaa9a75d522b39400f612e0861309f565b612e10613106565b60408051602081019490945283019190915260608201524660808201523060a082015260c00160405160208183030381529060405280519060200120905090565b806001600160a01b03163b600003612e7e5780604051634c9c8ce360e01b81526004016109b491906134bf565b600080516020613e1183398151915280546001600160a01b0319166001600160a01b0392909216919091179055565b6060600080846001600160a01b031684604051612eca9190613db3565b600060405180830381855af49150503d8060008114612f05576040519150601f19603f3d011682016040523d82523d6000602084013e612f0a565b606091505b5091509150611c08858383613147565b341561207d5760405163b398979f60e01b815260040160405180910390fd5b60008060008351604103612f735760208401516040850151606086015160001a612f658882858561319a565b955095509550505050612f7f565b50508151600091506002905b9250925092565b6000806000856001600160a01b03168585604051602401612fa8929190613dcf565b60408051601f198184030181529181526020820180516001600160e01b0316630b135d3f60e11b17905251612fdd9190613db3565b600060405180830381855afa9150503d8060008114613018576040519150601f19603f3d011682016040523d82523d6000602084013e61301d565b606091505b509150915081801561303157506020815110155b80156118d657508051630b135d3f60e11b906130569083016020908101908401613c4f565b149695505050505050565b7f9b779b17422d0df92223018b32b4d1fa46e071723d6817e2486d003becc55f0090565b600061308f61244e565b54600160401b900460ff16919050565b6000806130aa612187565b905060006130b66121ab565b8051909150156130ce57805160209091012092915050565b815480156130dd579392505050565b7fc5d2460186f7233c927e7db2dcc703c0e500b653ca82273b7bfad8045d85a470935050505090565b600080613111612187565b9050600061311d61224c565b80519091501561313557805160209091012092915050565b600182015480156130dd579392505050565b60608261315c576131578261325f565b6125b4565b815115801561317357506001600160a01b0384163b155b156131935783604051639996b31560e01b81526004016109b491906134bf565b50806125b4565b600080806fa2a8918ca85bafe22016d0b997e4df60600160ff1b038411156131cb5750600091506003905082613255565b604080516000808252602082018084528a905260ff891692820192909252606081018790526080810186905260019060a0016020604051602081039080840390855afa15801561321f573d6000803e3d6000fd5b5050604051601f1901519150506001600160a01b03811661324b57506000925060019150829050613255565b9250600091508190505b9450945094915050565b80511561326f5780518082602001fd5b60405163d6bda27560e01b815260040160405180910390fd5b60006020828403121561329a57600080fd5b81356001600160e01b0319811681146125b457600080fd5b6001600160601b0391909116815260200190565b6000602082840312156132d857600080fd5b81356001600160601b03811681146125b457600080fd5b60006020828403121561330157600080fd5b5035919050565b6001600160a01b0381168114611e9157600080fd5b803561332881613308565b919050565b6000806040838503121561334057600080fd5b82359150602083013561335281613308565b809150509250929050565b803560ff8116811461332857600080fd5b6000806000806080858703121561338457600080fd5b843561338f81613308565b9350602085013561339f81613308565b92506133ad6040860161335d565b91506133bb6060860161335d565b905092959194509250565b634e487b7160e01b600052604160045260246000fd5b600082601f8301126133ed57600080fd5b8135602083016000806001600160401b0384111561340d5761340d6133c6565b50604051601f19601f85018116603f011681018181106001600160401b038211171561343b5761343b6133c6565b60405283815290508082840187101561345357600080fd5b838360208301376000602085830101528094505050505092915050565b6000806040838503121561348357600080fd5b823561348e81613308565b915060208301356001600160401b038111156134a957600080fd5b6134b5858286016133dc565b9150509250929050565b6001600160a01b0391909116815260200190565b60005b838110156134ee5781810151838201526020016134d6565b50506000910152565b6000815180845261350f8160208601602086016134d3565b601f01601f19169290920160200192915050565b60ff60f81b8816815260e06020820152600061354260e08301896134f7565b828103604084015261355481896134f7565b606084018890526001600160a01b038716608085015260a0840186905283810360c08501528451808252602080870193509091019060005b818110156135aa57835183526020938401939092019160010161358c565b50909b9a5050505050505050505050565b6000602082840312156135cd57600080fd5b81356125b481613308565b600080600080600080600060e0888a0312156135f357600080fd5b87356135fe81613308565b965061360c6020890161331d565b955061361a6040890161335d565b94506136286060890161335d565b935060808801356001600160401b0381111561364357600080fd5b61364f8a828b016133dc565b93505060a08801356001600160401b0381111561366b57600080fd5b6136778a828b016133dc565b92505060c08801356001600160401b0381111561369357600080fd5b61369f8a828b016133dc565b91505092959891949750929550565b600080604083850312156136c157600080fd5b82356136cc81613308565b9150602083013561335281613308565b6001600160a01b038d811682528c1660208201526001600160601b038b16604082015263ffffffff8a16606082015263ffffffff8916608082015260ff881660a082015260ff871660c082015285151560e082015284151561010082015261018061012082015260006137536101808301866134f7565b82810361014084015261376681866134f7565b905082810361016084015261377b81856134f7565b9f9e505050505050505050505050505050565b600080600080600060a086880312156137a657600080fd5b85356137b181613308565b945060208601356137c181613308565b93506040860135925060608601356001600160401b038111156137e357600080fd5b6137ef888289016133dc565b92505060808601356001600160401b0381111561380b57600080fd5b613817888289016133dc565b9150509295509295909350565b6020815260006125b460208301846134f7565b60008060008060008060c0878903121561385057600080fd5b863561385b81613308565b9550602087013561386b81613308565b94506040870135935060608701356001600160401b0381111561388d57600080fd5b61389989828a016133dc565b9350506138a86080880161335d565b91506138b660a0880161335d565b90509295509295509295565b6000602082840312156138d457600080fd5b6125b48261335d565b600080600080608085870312156138f357600080fd5b84356138fe81613308565b9350602085013561390e81613308565b92506040850135915060608501356001600160401b0381111561393057600080fd5b61393c878288016133dc565b91505092959194509250565b6000806000806080858703121561395e57600080fd5b843561396981613308565b9350602085013561397981613308565b93969395505050506040820135916060013590565b60208082526018908201527716995c9bc81859191c995cdcc81b9bdd08185b1b1bddd95960421b604082015260600190565b602080825260129082015271105c1c081b9bdd081c9959da5cdd195c995960721b604082015260600190565b6020808252600d908201526c2737ba1030b8381037bbb732b960991b604082015260600190565b6020808252818101527f496e76616c69642075736572416e64496e766974657250657263656e74616765604082015260600190565b602080825260169082015275496e76616c6964207573657250657263656e7461676560501b604082015260600190565b600181811c90821680613a8c57607f821691505b602082108103613aac57634e487b7160e01b600052602260045260246000fd5b50919050565b601f82111561098957806000526020600020601f840160051c81016020851015613ad95750805b601f840160051c820191505b81811015613af95760008155600101613ae5565b5050505050565b81516001600160401b03811115613b1957613b196133c6565b613b2d81613b278454613a78565b84613ab2565b6020601f821160018114613b615760008315613b495750848201515b600019600385901b1c1916600184901b178455613af9565b600084815260208120601f198516915b82811015613b915787850151825560209485019460019092019101613b71565b5084821015613baf5786840151600019600387901b60f8161c191681555b50505050600190811b01905550565b6001600160a01b038716815260ff86811660208301528516604082015260c060608201819052600090613bf3908301866134f7565b8281036080840152613c0581866134f7565b905082810360a0840152613c1981856134f7565b9998505050505050505050565b634e487b7160e01b600052601160045260246000fd5b8082018082111561085b5761085b613c26565b600060208284031215613c6157600080fd5b5051919050565b6001600160601b03818116838216019081111561085b5761085b613c26565b6001600160a01b03929092168252602082015260400190565b600060208284031215613cb257600080fd5b81516125b481613308565b634e487b7160e01b600052602160045260246000fd5b60ff818116838216019081111561085b5761085b613c26565b6001600160601b038181168382160290811690818114611f5957611f59613c26565b634e487b7160e01b600052601260045260246000fd5b60006001600160601b03831680613d3d57613d3d613d0e565b6001600160601b03929092169190910492915050565b808202811582820484141761085b5761085b613c26565b600082613d7957613d79613d0e565b500490565b8181038181111561085b5761085b613c26565b600060208284031215613da357600080fd5b815180151581146125b457600080fd5b60008251613dc58184602087016134d3565b9190910192915050565b828152604060208201526000613de860408301846134f7565b94935050505056fe3f939797bbee504ef25a922a8408fbdcebc4752f31f0d6c8ea42babea9f5e8dd360894a13ba1a3210667c828492db98dca3e2076cc3735a920a3ca505d382bbccfeeafde86c38dcd27e7f3574225bf6be8c78e4aa28ebc85bc2989e109c15c1ba49807205ce4d355092ef5a8a18f56e8913cf4a201fbe287825b095693c21775a264697066735822122001a4c19a31e6cde737048d44fde47f64fc3de134d293db1829c7ef82ea59db3c64736f6c634300081c0033",
  "linkReferences": {},
  "deployedLinkReferences": {}
}