{
  "_format": "hh-sol-artifact-1",
  "contractName": "EngagementRewards",
  "sourceName": "contracts/EngagementRewards.sol",
  "abi": [
    {
      "inputs": [
        {
          "internalType": "bool",
          "name": "_isDevEnv",
          "type": "bool"
        }
      ],
      "stateMutability": "nonpayable",
      "type": "constructor"
    },
    {
      "inputs": [],
      "name": "AccessControlBadConfirmation",
      "type": "error"
    },
    {
      "inputs": [
        {
          "internalType": "address",
          "name": "account",
          "type": "address"
        },
        {
          "internalType": "bytes32",
          "name": "neededRole",
          "type": "bytes32"
        }
      ],
      "name": "AccessControlUnauthorizedAccount",
      "type": "error"
    },
    {
      "inputs": [
        {
          "internalType": "address",
          "name": "target",
          "type": "address"
        }
      ],
      "name": "AddressEmptyCode",
      "type": "error"
    },
    {
      "inputs": [
        {
          "internalType": "address",
          "name": "implementation",
          "type": "address"
        }
      ],
      "name": "ERC1967InvalidImplementation",
      "type": "error"
    },
    {
      "inputs": [],
      "name": "ERC1967NonPayable",
      "type": "error"
    },
    {
      "inputs": [],
      "name": "FailedCall",
      "type": "error"
    },
    {
      "inputs": [],
      "name": "InvalidInitialization",
      "type": "error"
    },
    {
      "inputs": [],
      "name": "NotInitializing",
      "type": "error"
    },
    {
      "inputs": [],
      "name": "ReentrancyGuardReentrantCall",
      "type": "error"
    },
    {
      "inputs": [],
      "name": "UUPSUnauthorizedCallContext",
      "type": "error"
    },
    {
      "inputs": [
        {
          "internalType": "bytes32",
          "name": "slot",
          "type": "bytes32"
        }
      ],
      "name": "UUPSUnsupportedProxiableUUID",
      "type": "error"
    },
    {
      "anonymous": false,
      "inputs": [
        {
          "indexed": true,
          "internalType": "address",
          "name": "app",
          "type": "address"
        },
        {
          "indexed": true,
          "internalType": "address",
          "name": "owner",
          "type": "address"
        },
        {
          "indexed": false,
          "internalType": "address",
          "name": "rewardReceiver",
          "type": "address"
        },
        {
          "indexed": false,
          "internalType": "uint256",
          "name": "userAndInviterPercentage",
          "type": "uint256"
        },
        {
          "indexed": false,
          "internalType": "uint256",
          "name": "userPercentage",
          "type": "uint256"
        },
        {
          "indexed": false,
          "internalType": "string",
          "name": "description",
          "type": "string"
        },
        {
          "indexed": false,
          "internalType": "string",
          "name": "url",
          "type": "string"
        },
        {
          "indexed": false,
          "internalType": "string",
          "name": "email",
          "type": "string"
        }
      ],
      "name": "AppApplied",
      "type": "event"
    },
    {
      "anonymous": false,
      "inputs": [
        {
          "indexed": true,
          "internalType": "address",
          "name": "app",
          "type": "address"
        }
      ],
      "name": "AppApproved",
      "type": "event"
    },
    {
      "anonymous": false,
      "inputs": [
        {
          "indexed": true,
          "internalType": "address",
          "name": "app",
          "type": "address"
        },
        {
          "indexed": false,
          "internalType": "uint256",
          "name": "userAndInviterPercentage",
          "type": "uint256"
        },
        {
          "indexed": false,
          "internalType": "uint256",
          "name": "userPercentage",
          "type": "uint256"
        }
      ],
      "name": "AppSettingsUpdated",
      "type": "event"
    },
    {
      "anonymous": false,
      "inputs": [],
      "name": "EIP712DomainChanged",
      "type": "event"
    },
    {
      "anonymous": false,
      "inputs": [
        {
          "indexed": false,
          "internalType": "uint64",
          "name": "version",
          "type": "uint64"
        }
      ],
      "name": "Initialized",
      "type": "event"
    },
    {
      "anonymous": false,
      "inputs": [
        {
          "indexed": false,
          "internalType": "uint8",
          "name": "newAmount",
          "type": "uint8"
        }
      ],
      "name": "MaxAppsPerUserUpdated",
      "type": "event"
    },
    {
      "anonymous": false,
      "inputs": [
        {
          "indexed": false,
          "internalType": "uint256",
          "name": "newAmount",
          "type": "uint256"
        }
      ],
      "name": "RewardAmountUpdated",
      "type": "event"
    },
    {
      "anonymous": false,
      "inputs": [
        {
          "indexed": true,
          "internalType": "address",
          "name": "app",
          "type": "address"
        },
        {
          "indexed": true,
          "internalType": "address",
          "name": "user",
          "type": "address"
        },
        {
          "indexed": true,
          "internalType": "address",
          "name": "inviter",
          "type": "address"
        },
        {
          "indexed": false,
          "internalType": "uint256",
          "name": "appReward",
          "type": "uint256"
        },
        {
          "indexed": false,
          "internalType": "uint256",
          "name": "userAmount",
          "type": "uint256"
        },
        {
          "indexed": false,
          "internalType": "uint256",
          "name": "inviterAmount",
          "type": "uint256"
        }
      ],
      "name": "RewardClaimed",
      "type": "event"
    },
    {
      "anonymous": false,
      "inputs": [
        {
          "indexed": true,
          "internalType": "bytes32",
          "name": "role",
          "type": "bytes32"
        },
        {
          "indexed": true,
          "internalType": "bytes32",
          "name": "previousAdminRole",
          "type": "bytes32"
        },
        {
          "indexed": true,
          "internalType": "bytes32",
          "name": "newAdminRole",
          "type": "bytes32"
        }
      ],
      "name": "RoleAdminChanged",
      "type": "event"
    },
    {
      "anonymous": false,
      "inputs": [
        {
          "indexed": true,
          "internalType": "bytes32",
          "name": "role",
          "type": "bytes32"
        },
        {
          "indexed": true,
          "internalType": "address",
          "name": "account",
          "type": "address"
        },
        {
          "indexed": true,
          "internalType": "address",
          "name": "sender",
          "type": "address"
        }
      ],
      "name": "RoleGranted",
      "type": "event"
    },
    {
      "anonymous": false,
      "inputs": [
        {
          "indexed": true,
          "internalType": "bytes32",
          "name": "role",
          "type": "bytes32"
        },
        {
          "indexed": true,
          "internalType": "address",
          "name": "account",
          "type": "address"
        },
        {
          "indexed": true,
          "internalType": "address",
          "name": "sender",
          "type": "address"
        }
      ],
      "name": "RoleRevoked",
      "type": "event"
    },
    {
      "anonymous": false,
      "inputs": [
        {
          "indexed": true,
          "internalType": "address",
          "name": "implementation",
          "type": "address"
        }
      ],
      "name": "Upgraded",
      "type": "event"
    },
    {
      "inputs": [],
      "name": "ADMIN_ROLE",
      "outputs": [
        {
          "internalType": "bytes32",
          "name": "",
          "type": "bytes32"
        }
      ],
      "stateMutability": "view",
      "type": "function"
    },
    {
      "inputs": [],
      "name": "APP_CLAIM_TYPEHASH",
      "outputs": [
        {
          "internalType": "bytes32",
          "name": "",
          "type": "bytes32"
        }
      ],
      "stateMutability": "view",
      "type": "function"
    },
    {
      "inputs": [],
      "name": "APP_EXPIRATION",
      "outputs": [
        {
          "internalType": "uint256",
          "name": "",
          "type": "uint256"
        }
      ],
      "stateMutability": "view",
      "type": "function"
    },
    {
      "inputs": [],
      "name": "CLAIM_COOLDOWN",
      "outputs": [
        {
          "internalType": "uint256",
          "name": "",
          "type": "uint256"
        }
      ],
      "stateMutability": "view",
      "type": "function"
    },
    {
      "inputs": [],
      "name": "CLAIM_TYPEHASH",
      "outputs": [
        {
          "internalType": "bytes32",
          "name": "",
          "type": "bytes32"
        }
      ],
      "stateMutability": "view",
      "type": "function"
    },
    {
      "inputs": [],
      "name": "DEFAULT_ADMIN_ROLE",
      "outputs": [
        {
          "internalType": "bytes32",
          "name": "",
          "type": "bytes32"
        }
      ],
      "stateMutability": "view",
      "type": "function"
    },
    {
      "inputs": [],
      "name": "IS_DEV_ENV",
      "outputs": [
        {
          "internalType": "bool",
          "name": "",
          "type": "bool"
        }
      ],
      "stateMutability": "view",
      "type": "function"
    },
    {
      "inputs": [],
      "name": "UPGRADE_INTERFACE_VERSION",
      "outputs": [
        {
          "internalType": "string",
          "name": "",
          "type": "string"
        }
      ],
      "stateMutability": "view",
      "type": "function"
    },
    {
      "inputs": [
        {
          "internalType": "address",
          "name": "user",
          "type": "address"
        },
        {
          "internalType": "address",
          "name": "inviter",
          "type": "address"
        },
        {
          "internalType": "uint256",
          "name": "validUntilBlock",
          "type": "uint256"
        },
        {
          "internalType": "bytes",
          "name": "signature",
          "type": "bytes"
        },
        {
          "internalType": "uint8",
          "name": "userAndInviterPercentage",
          "type": "uint8"
        },
        {
          "internalType": "uint8",
          "name": "userPercentage",
          "type": "uint8"
        }
      ],
      "name": "appClaim",
      "outputs": [
        {
          "internalType": "bool",
          "name": "",
          "type": "bool"
        }
      ],
      "stateMutability": "nonpayable",
      "type": "function"
    },
    {
      "inputs": [
        {
          "internalType": "address",
          "name": "user",
          "type": "address"
        },
        {
          "internalType": "address",
          "name": "inviter",
          "type": "address"
        },
        {
          "internalType": "uint256",
          "name": "validUntilBlock",
          "type": "uint256"
        },
        {
          "internalType": "bytes",
          "name": "signature",
          "type": "bytes"
        }
      ],
      "name": "appClaim",
      "outputs": [
        {
          "internalType": "bool",
          "name": "",
          "type": "bool"
        }
      ],
      "stateMutability": "nonpayable",
      "type": "function"
    },
    {
      "inputs": [
        {
          "internalType": "uint256",
          "name": "",
          "type": "uint256"
        }
      ],
      "name": "appliedApps",
      "outputs": [
        {
          "internalType": "address",
          "name": "",
          "type": "address"
        }
      ],
      "stateMutability": "view",
      "type": "function"
    },
    {
      "inputs": [
        {
          "internalType": "address",
          "name": "app",
          "type": "address"
        },
        {
          "internalType": "address",
          "name": "rewardReceiver",
          "type": "address"
        },
        {
          "internalType": "uint8",
          "name": "userAndInviterPercentage",
          "type": "uint8"
        },
        {
          "internalType": "uint8",
          "name": "userPercentage",
          "type": "uint8"
        },
        {
          "internalType": "string",
          "name": "description",
          "type": "string"
        },
        {
          "internalType": "string",
          "name": "url",
          "type": "string"
        },
        {
          "internalType": "string",
          "name": "email",
          "type": "string"
        }
      ],
      "name": "applyApp",
      "outputs": [],
      "stateMutability": "nonpayable",
      "type": "function"
    },
    {
      "inputs": [
        {
          "internalType": "address",
          "name": "app",
          "type": "address"
        }
      ],
      "name": "approve",
      "outputs": [],
      "stateMutability": "nonpayable",
      "type": "function"
    },
    {
      "inputs": [
        {
          "internalType": "address",
          "name": "",
          "type": "address"
        }
      ],
      "name": "appsStats",
      "outputs": [
        {
          "internalType": "uint96",
          "name": "numberOfRewards",
          "type": "uint96"
        },
        {
          "internalType": "uint96",
          "name": "totalAppRewards",
          "type": "uint96"
        },
        {
          "internalType": "uint96",
          "name": "totalUserRewards",
          "type": "uint96"
        },
        {
          "internalType": "uint96",
          "name": "totalInviterRewards",
          "type": "uint96"
        }
      ],
      "stateMutability": "view",
      "type": "function"
    },
    {
      "inputs": [
        {
          "internalType": "address",
          "name": "app",
          "type": "address"
        },
        {
          "internalType": "address",
          "name": "user",
          "type": "address"
        }
      ],
      "name": "canClaim",
      "outputs": [
        {
          "internalType": "bool",
          "name": "",
          "type": "bool"
        }
      ],
      "stateMutability": "view",
      "type": "function"
    },
    {
      "inputs": [],
      "name": "eip712Domain",
      "outputs": [
        {
          "internalType": "bytes1",
          "name": "fields",
          "type": "bytes1"
        },
        {
          "internalType": "string",
          "name": "name",
          "type": "string"
        },
        {
          "internalType": "string",
          "name": "version",
          "type": "string"
        },
        {
          "internalType": "uint256",
          "name": "chainId",
          "type": "uint256"
        },
        {
          "internalType": "address",
          "name": "verifyingContract",
          "type": "address"
        },
        {
          "internalType": "bytes32",
          "name": "salt",
          "type": "bytes32"
        },
        {
          "internalType": "uint256[]",
          "name": "extensions",
          "type": "uint256[]"
        }
      ],
      "stateMutability": "view",
      "type": "function"
    },
    {
      "inputs": [],
      "name": "getAppliedApps",
      "outputs": [
        {
          "components": [
            {
              "internalType": "address",
              "name": "owner",
              "type": "address"
            },
            {
              "internalType": "address",
              "name": "rewardReceiver",
              "type": "address"
            },
            {
              "internalType": "uint96",
              "name": "totalRewardsClaimed",
              "type": "uint96"
            },
            {
              "internalType": "uint32",
              "name": "registeredAt",
              "type": "uint32"
            },
            {
              "internalType": "uint32",
              "name": "lastResetAt",
              "type": "uint32"
            },
            {
              "internalType": "uint8",
              "name": "userAndInviterPercentage",
              "type": "uint8"
            },
            {
              "internalType": "uint8",
              "name": "userPercentage",
              "type": "uint8"
            },
            {
              "internalType": "bool",
              "name": "isRegistered",
              "type": "bool"
            },
            {
              "internalType": "bool",
              "name": "isApproved",
              "type": "bool"
            },
            {
              "internalType": "string",
              "name": "description",
              "type": "string"
            },
            {
              "internalType": "string",
              "name": "url",
              "type": "string"
            },
            {
              "internalType": "string",
              "name": "email",
              "type": "string"
            },
            {
              "internalType": "address",
              "name": "app",
              "type": "address"
            },
            {
              "internalType": "address",
              "name": "signer",
              "type": "address"
            }
          ],
          "internalType": "struct EngagementRewards.AppInfo[]",
          "name": "apps",
          "type": "tuple[]"
        }
      ],
      "stateMutability": "view",
      "type": "function"
    },
    {
      "inputs": [],
      "name": "getDomainSeparator",
      "outputs": [
        {
          "internalType": "bytes32",
          "name": "",
          "type": "bytes32"
        }
      ],
      "stateMutability": "view",
      "type": "function"
    },
    {
      "inputs": [
        {
          "internalType": "bytes32",
          "name": "role",
          "type": "bytes32"
        }
      ],
      "name": "getRoleAdmin",
      "outputs": [
        {
          "internalType": "bytes32",
          "name": "",
          "type": "bytes32"
        }
      ],
      "stateMutability": "view",
      "type": "function"
    },
    {
      "inputs": [
        {
          "internalType": "address",
          "name": "user",
          "type": "address"
        }
      ],
      "name": "getUserPeriodStats",
      "outputs": [
        {
          "internalType": "uint8",
          "name": "appsClaimedThisPeriod",
          "type": "uint8"
        },
        {
          "internalType": "uint32",
          "name": "periodStartTimestamp",
          "type": "uint32"
        }
      ],
      "stateMutability": "view",
      "type": "function"
    },
    {
      "inputs": [
        {
          "internalType": "bytes32",
          "name": "role",
          "type": "bytes32"
        },
        {
          "internalType": "address",
          "name": "account",
          "type": "address"
        }
      ],
      "name": "grantRole",
      "outputs": [],
      "stateMutability": "nonpayable",
      "type": "function"
    },
    {
      "inputs": [
        {
          "internalType": "bytes32",
          "name": "role",
          "type": "bytes32"
        },
        {
          "internalType": "address",
          "name": "account",
          "type": "address"
        }
      ],
      "name": "hasRole",
      "outputs": [
        {
          "internalType": "bool",
          "name": "",
          "type": "bool"
        }
      ],
      "stateMutability": "view",
      "type": "function"
    },
    {
      "inputs": [],
      "name": "identityContract",
      "outputs": [
        {
          "internalType": "contract IIdentity",
          "name": "",
          "type": "address"
        }
      ],
      "stateMutability": "view",
      "type": "function"
    },
    {
      "inputs": [
        {
          "internalType": "contract IERC20",
          "name": "_rewardToken",
          "type": "address"
        },
        {
          "internalType": "contract IIdentity",
          "name": "_identityContract",
          "type": "address"
        },
        {
          "internalType": "uint256",
          "name": "_maxRewardsPerApp",
          "type": "uint256"
        },
        {
          "internalType": "uint256",
          "name": "_rewardAmount",
          "type": "uint256"
        }
      ],
      "name": "initialize",
      "outputs": [],
      "stateMutability": "nonpayable",
      "type": "function"
    },
    {
      "inputs": [],
      "name": "maxAppsPerUser",
      "outputs": [
        {
          "internalType": "uint8",
          "name": "",
          "type": "uint8"
        }
      ],
      "stateMutability": "view",
      "type": "function"
    },
    {
      "inputs": [],
      "name": "maxRewardsPerApp",
      "outputs": [
        {
          "internalType": "uint96",
          "name": "",
          "type": "uint96"
        }
      ],
      "stateMutability": "view",
      "type": "function"
    },
    {
      "inputs": [
        {
          "internalType": "address",
          "name": "app",
          "type": "address"
        },
        {
          "internalType": "address",
          "name": "inviter",
          "type": "address"
        },
        {
          "internalType": "uint256",
          "name": "validUntilBlock",
          "type": "uint256"
        },
        {
          "internalType": "bytes",
          "name": "userSignature",
          "type": "bytes"
        },
        {
          "internalType": "bytes",
          "name": "appSignature",
          "type": "bytes"
        }
      ],
      "name": "nonContractAppClaim",
      "outputs": [
        {
          "internalType": "bool",
          "name": "",
          "type": "bool"
        }
      ],
      "stateMutability": "nonpayable",
      "type": "function"
    },
    {
      "inputs": [
        {
          "components": [
            {
              "internalType": "address",
              "name": "owner",
              "type": "address"
            },
            {
              "internalType": "address",
              "name": "rewardReceiver",
              "type": "address"
            },
            {
              "internalType": "uint96",
              "name": "totalRewardsClaimed",
              "type": "uint96"
            },
            {
              "internalType": "uint32",
              "name": "registeredAt",
              "type": "uint32"
            },
            {
              "internalType": "uint32",
              "name": "lastResetAt",
              "type": "uint32"
            },
            {
              "internalType": "uint8",
              "name": "userAndInviterPercentage",
              "type": "uint8"
            },
            {
              "internalType": "uint8",
              "name": "userPercentage",
              "type": "uint8"
            },
            {
              "internalType": "bool",
              "name": "isRegistered",
              "type": "bool"
            },
            {
              "internalType": "bool",
              "name": "isApproved",
              "type": "bool"
            },
            {
              "internalType": "string",
              "name": "description",
              "type": "string"
            },
            {
              "internalType": "string",
              "name": "url",
              "type": "string"
            },
            {
              "internalType": "string",
              "name": "email",
              "type": "string"
            },
            {
              "internalType": "address",
              "name": "app",
              "type": "address"
            },
            {
              "internalType": "address",
              "name": "signer",
              "type": "address"
            }
          ],
          "internalType": "struct EngagementRewards.AppInfo",
          "name": "app",
          "type": "tuple"
        }
      ],
      "name": "overwriteAppDetails",
      "outputs": [],
      "stateMutability": "nonpayable",
      "type": "function"
    },
    {
      "inputs": [],
      "name": "proxiableUUID",
      "outputs": [
        {
          "internalType": "bytes32",
          "name": "",
          "type": "bytes32"
        }
      ],
      "stateMutability": "view",
      "type": "function"
    },
    {
      "inputs": [
        {
          "internalType": "address",
          "name": "",
          "type": "address"
        }
      ],
      "name": "registeredApps",
      "outputs": [
        {
          "internalType": "address",
          "name": "owner",
          "type": "address"
        },
        {
          "internalType": "address",
          "name": "rewardReceiver",
          "type": "address"
        },
        {
          "internalType": "uint96",
          "name": "totalRewardsClaimed",
          "type": "uint96"
        },
        {
          "internalType": "uint32",
          "name": "registeredAt",
          "type": "uint32"
        },
        {
          "internalType": "uint32",
          "name": "lastResetAt",
          "type": "uint32"
        },
        {
          "internalType": "uint8",
          "name": "userAndInviterPercentage",
          "type": "uint8"
        },
        {
          "internalType": "uint8",
          "name": "userPercentage",
          "type": "uint8"
        },
        {
          "internalType": "bool",
          "name": "isRegistered",
          "type": "bool"
        },
        {
          "internalType": "bool",
          "name": "isApproved",
          "type": "bool"
        },
        {
          "internalType": "string",
          "name": "description",
          "type": "string"
        },
        {
          "internalType": "string",
          "name": "url",
          "type": "string"
        },
        {
          "internalType": "string",
          "name": "email",
          "type": "string"
        },
        {
          "internalType": "address",
          "name": "app",
          "type": "address"
        },
        {
          "internalType": "address",
          "name": "signer",
          "type": "address"
        }
      ],
      "stateMutability": "view",
      "type": "function"
    },
    {
      "inputs": [
        {
          "internalType": "bytes32",
          "name": "role",
          "type": "bytes32"
        },
        {
          "internalType": "address",
          "name": "callerConfirmation",
          "type": "address"
        }
      ],
      "name": "renounceRole",
      "outputs": [],
      "stateMutability": "nonpayable",
      "type": "function"
    },
    {
      "inputs": [
        {
          "internalType": "bytes32",
          "name": "role",
          "type": "bytes32"
        },
        {
          "internalType": "address",
          "name": "account",
          "type": "address"
        }
      ],
      "name": "revokeRole",
      "outputs": [],
      "stateMutability": "nonpayable",
      "type": "function"
    },
    {
      "inputs": [],
      "name": "rewardAmount",
      "outputs": [
        {
          "internalType": "uint96",
          "name": "",
          "type": "uint96"
        }
      ],
      "stateMutability": "view",
      "type": "function"
    },
    {
      "inputs": [],
      "name": "rewardToken",
      "outputs": [
        {
          "internalType": "contract IERC20",
          "name": "",
          "type": "address"
        }
      ],
      "stateMutability": "view",
      "type": "function"
    },
    {
      "inputs": [
        {
          "internalType": "address",
          "name": "app",
          "type": "address"
        },
        {
          "internalType": "address",
          "name": "signer",
          "type": "address"
        }
      ],
      "name": "setAppSigner",
      "outputs": [],
      "stateMutability": "nonpayable",
      "type": "function"
    },
    {
      "inputs": [
        {
          "internalType": "address",
          "name": "_identity",
          "type": "address"
        }
      ],
      "name": "setIdentityContract",
      "outputs": [],
      "stateMutability": "nonpayable",
      "type": "function"
    },
    {
      "inputs": [
        {
          "internalType": "uint8",
          "name": "_maxAppsPerUser",
          "type": "uint8"
        }
      ],
      "name": "setMaxAppsPerUser",
      "outputs": [],
      "stateMutability": "nonpayable",
      "type": "function"
    },
    {
      "inputs": [
        {
          "internalType": "uint96",
          "name": "_maxRewardsPerApp",
          "type": "uint96"
        }
      ],
      "name": "setMaxRewardsPerApp",
      "outputs": [],
      "stateMutability": "nonpayable",
      "type": "function"
    },
    {
      "inputs": [
        {
          "internalType": "uint96",
          "name": "_rewardAmount",
          "type": "uint96"
        }
      ],
      "name": "setRewardAmount",
      "outputs": [],
      "stateMutability": "nonpayable",
      "type": "function"
    },
    {
      "inputs": [
        {
          "internalType": "bytes4",
          "name": "interfaceId",
          "type": "bytes4"
        }
      ],
      "name": "supportsInterface",
      "outputs": [
        {
          "internalType": "bool",
          "name": "",
          "type": "bool"
        }
      ],
      "stateMutability": "view",
      "type": "function"
    },
    {
      "inputs": [
        {
          "internalType": "address",
          "name": "app",
          "type": "address"
        },
        {
          "internalType": "address",
          "name": "rewardReceiver",
          "type": "address"
        },
        {
          "internalType": "uint8",
          "name": "userAndInviterPercentage",
          "type": "uint8"
        },
        {
          "internalType": "uint8",
          "name": "userPercentage",
          "type": "uint8"
        }
      ],
      "name": "updateAppSettings",
      "outputs": [],
      "stateMutability": "nonpayable",
      "type": "function"
    },
    {
      "inputs": [
        {
          "internalType": "address[]",
          "name": "apps",
          "type": "address[]"
        }
      ],
      "name": "upgrade",
      "outputs": [],
      "stateMutability": "nonpayable",
      "type": "function"
    },
    {
      "inputs": [
        {
          "internalType": "address",
          "name": "newImplementation",
          "type": "address"
        },
        {
          "internalType": "bytes",
          "name": "data",
          "type": "bytes"
        }
      ],
      "name": "upgradeToAndCall",
      "outputs": [],
      "stateMutability": "payable",
      "type": "function"
    },
    {
      "inputs": [
        {
          "internalType": "address",
          "name": "",
          "type": "address"
        }
      ],
      "name": "userPeriodClaims",
      "outputs": [
        {
          "internalType": "uint8",
          "name": "periodClaims",
          "type": "uint8"
        },
        {
          "internalType": "uint32",
          "name": "lastClaimTimestamp",
          "type": "uint32"
        }
      ],
      "stateMutability": "view",
      "type": "function"
    },
    {
      "inputs": [
        {
          "internalType": "address",
          "name": "",
          "type": "address"
        },
        {
          "internalType": "address",
          "name": "",
          "type": "address"
        }
      ],
      "name": "userRegistrations",
      "outputs": [
        {
          "internalType": "uint32",
          "name": "isRegistered",
          "type": "uint32"
        },
        {
          "internalType": "uint32",
          "name": "lastClaimTimestamp",
          "type": "uint32"
        }
      ],
      "stateMutability": "view",
      "type": "function"
    }
  ],
  "bytecode": "0x60c03461013e57601f614d4738819003918201601f19168301916001600160401b038311848410176101435780849260209460405283398101031261013e5751801515810361013e573060805260a0527ff0c57e16840df040f15088dc2f81fe391c3923bec73e23a9662efc9c229c6a005460ff8160401c1661012d576002600160401b03196001600160401b038216016100c4575b604051614bed908161015a823960805181818161253301526125c7015260a051818181610ade01526122b30152f35b6001600160401b0319166001600160401b039081177ff0c57e16840df040f15088dc2f81fe391c3923bec73e23a9662efc9c229c6a00556040519081527fc7f505b2f371ae2175ee4913f4499e1f2633a7b5936321eed1cdaeb6115181d290602090a138610095565b63f92ee8a960e01b60005260046000fd5b600080fd5b634e487b7160e01b600052604160045260246000fdfe6080604052600436101561001257600080fd5b60003560e01c80630183592b14612e4857806301ffc9a714612df257806309e2636214612dc957806313980d0314612a8a5780631f5031fe14612a47578063248a9ca314612a295780632aec8fe1146129ad5780632f2ff15d1461297c5780633395e6e71461293a57806336568abe146128f457806337c909ec146128d657806349eb67f81461279f5780634f1ef2861461258a57806352d1902d14612520578063567e38e31461250157806356e62e64146124d857806367031bae146124af5780636b0509b11461248657806375b238fc1461245d57806384b0196e1461233257806391d14854146122d85780639420f4a91461229b5780639dd96d471461222a578063a217fddf1461220e578063a284e8981461168c578063a532e7ac14611093578063a617e65314611067578063a6c4cce914610f2c578063abe3bfef14610db7578063ad3cb1cc14610d70578063cc733fe914610d3f578063d3ea970114610c5a578063d547741f14610c22578063d68a776e14610bd1578063d7bac3dc14610b03578063daea85c5146109a6578063e170546e146108de578063e4e5bc7a14610881578063e6d5864b1461083e578063eb990c5914610312578063ed24911d146102ef578063f7b2a7be146102c2578063f7c618c114610299578063f8b68aa2146102345763fe7bf9b21461020b57600080fd5b3461022f57600036600319011261022f57602060ff60015460a01c16604051908152f35b600080fd5b3461022f57604036600319011261022f5761024d613050565b61025561303a565b9060018060a01b0316600052600560205260406000209060018060a01b03166000526020526040806000205463ffffffff825191818116835260201c166020820152f35b3461022f57600036600319011261022f576000546040516001600160a01b039091168152602090f35b3461022f57600036600319011261022f5760025460405160609190911c6001600160601b03168152602090f35b3461022f57600036600319011261022f57602061030a614719565b604051908152f35b3461022f57608036600319011261022f576004356001600160a01b0381169081900361022f576024356001600160a01b0381169081900361022f57600080516020614b3883398151915254604081901c60ff161591906001600160401b03811680159081610836575b600114908161082c575b159081610823575b50610812576001600160401b03198116600117600080516020614b3883398151915255826107e9575b506103c28315156134b4565b6103cd8115156134b4565b6103d56146eb565b60409283516103e48582613000565b6011815270456e676167656d656e745265776172647360781b602082015284519061040f8683613000565b60038252620312e360ec1b60208301526104276146eb565b61042f6146eb565b8051906001600160401b0382116106db57819061045a600080516020614998833981519152546131ae565b601f811161077e575b50602090601f83116001146106fc576000926106f1575b50508160011b916000199060031b1c191617600080516020614998833981519152555b8051906001600160401b0382116106db5781906104c8600080516020614a18833981519152546131ae565b601f8111610670575b50602090601f83116001146105ee576000926105e3575b50508160011b916000199060031b1c191617600080516020614a18833981519152555b6000600080516020614a38833981519152556000600080516020614b58833981519152556105376146eb565b600080546001600160a01b03191691909117905560018054600280546001600160c01b0319166044356001600160601b03161760643560601b600160601b600160c01b03161790556001600160a81b031916909117600360a01b17905561059d33613b9c565b506105a733613c18565b506105ae57005b600080516020614b38833981519152805460ff60401b1916905551600181526000805160206149d883398151915290602090a1005b0151905086806104e8565b600080516020614a1883398151915260009081528281209350601f198516905b818110610658575090846001959493921061063f575b505050811b01600080516020614a188339815191525561050b565b015160001960f88460031b161c19169055868080610624565b9293602060018192878601518155019501930161060e565b600080516020614a18833981519152600052909150600080516020614b78833981519152601f840160051c810191602085106106d1575b90601f859493920160051c01905b8181106106c257506104d1565b600081558493506001016106b5565b90915081906106a7565b634e487b7160e01b600052604160045260246000fd5b01519050878061047a565b60008051602061499883398151915260009081528281209350601f198516905b818110610766575090846001959493921061074d575b505050811b016000805160206149988339815191525561049d565b015160001960f88460031b161c19169055878080610732565b9293602060018192878601518155019501930161071c565b600080516020614998833981519152600052909150600080516020614a78833981519152601f840160051c810191602085106107df575b90601f859493920160051c01905b8181106107d05750610463565b600081558493506001016107c3565b90915081906107b5565b6001600160481b0319166001600160401b0117600080516020614b3883398151915255836103b6565b63f92ee8a960e01b60005260046000fd5b9050158561038d565b303b159150610385565b84915061037b565b3461022f57602036600319011261022f57610857613050565b61085f613b2b565b600180546001600160a01b0319166001600160a01b0392909216919091179055005b3461022f57608036600319011261022f5761089a613050565b6108a261303a565b606435906001600160401b03821161022f576020926108c86108d493369060040161314b565b91604435913390613dd5565b6040519015158152f35b3461022f57604036600319011261022f576108f7613050565b6108ff61303a565b6001600160a01b03918216600081815260036020526040902054919290916109299116331461353c565b6001600160a01b0382161561096857600090815260036020526040902060070180546001600160a01b0319166001600160a01b03909216919091179055005b60405162461bcd60e51b8152602060048201526016602482015275496e76616c6964207369676e6572206164647265737360501b6044820152606490fd5b3461022f57602036600319011261022f576109bf613050565b336000908152600080516020614978833981519152602052604090205460ff161580610adb575b610ab4576001600160a01b0316600081815260036020526040902060020154610a149060501c60ff166134fb565b80600052600360205260ff60026040600020015460581c16610a78576000818152600360205260408120600201805460ff60581b1916600160581b1790557f95e9598427a2e62bd5a93d3a083bc0d32989e80c16ad07312a0bb406b53e36919080a2005b60405162461bcd60e51b8152602060048201526014602482015273105c1c08185b1c9958591e48185c1c1c9bdd995960621b6044820152606490fd5b63e2517d3f60e01b60005233600452600080516020614b1883398151915260245260446000fd5b507f0000000000000000000000000000000000000000000000000000000000000000156109e6565b3461022f57602036600319011261022f5760043560ff81169081810361022f57610b2b613b2b565b8115610b7c576001805460ff60a01b191660a09290921b60ff60a01b169190911790556040519081527fbb1c987d41b58fea76843b44edae6b324dcf334d1070a3c8c7896c7f59f75a8190602090a1005b60405162461bcd60e51b815260206004820152602760248201527f52657761726473207065722075736572206d75737420626520677265617465726044820152660207468616e20360cc1b6064820152608490fd5b3461022f57602036600319011261022f576001600160a01b03610bf2613050565b166000526006602052610c1e604060002054604051918160ff63ffffffff859460081c169116836133ea565b0390f35b3461022f57604036600319011261022f57610c58600435610c4161303a565b90610c53610c4e82613493565b613b52565b613d35565b005b3461022f5760c036600319011261022f57610c73613050565b610c7b61303a565b906064356001600160401b03811161022f57610c9b90369060040161314b565b9160843560ff81169081810361022f5760a4359160ff83169081840361022f57610cd491610ccd606480931115613578565b11156135c3565b6002600080516020614af88339815191525414610d2e57602094610d12946001946002600080516020614af883398151915255604435913390613e27565b6001600080516020614af8833981519152556040519015158152f35b633ee5aeb560e01b60005260046000fd5b3461022f57602036600319011261022f57610d60610d5b613050565b613adc565b90610c1e604051928392836133ea565b3461022f57600036600319011261022f57610c1e6040805190610d938183613000565b60058252640352e302e360dc1b60208301525191829160208352602083019061307a565b3461022f5760a036600319011261022f57610dd0613050565b610dd861303a565b906044356064356001600160401b03811161022f57610dfb90369060040161314b565b906084356001600160401b03811161022f57610e1b90369060040161314b565b60405190610e6a602083016000805160206149b8833981519152815260018060a01b0387169384604082015233606082015285608082015260808152610e6260a082613000565b5190206145a4565b610e758282886145ca565b928315610f00575b8315610ed6575b50505015610e99576020936108d49333613dd5565b60405162461bcd60e51b8152602060048201526015602482015274496e76616c696420617070207369676e617475726560581b6044820152606490fd5b600090815260036020526040902054610ef893506001600160a01b03166145ca565b858080610e84565b8093506000526003602052610f26828260018060a01b03600760406000200154166145ca565b92610e7d565b3461022f57602036600319011261022f576001600160a01b03610f4d613050565b166000526003602052604060002060018060a01b038154166001820154916002810154611056610f7f60038401613348565b611047610f8e60048601613348565b611038610f9d60058801613348565b9360ff60018060a01b0360068a01541698600760018060a01b0391015416976040519b8c9b8c5260018060a01b03811660208d015260a01c60408c015263ffffffff811660608c015263ffffffff8160201c1660808c0152818160401c1660a08c0152818160481c1660c08c0152818160501c16151560e08c015260581c1615156101008a01526101c06101208a01526101c089019061307a565b9087820361014089015261307a565b9085820361016087015261307a565b916101808401526101a08301520390f35b3461022f57604036600319011261022f5760206108d4611085613050565b61108d61303a565b906136d4565b3461022f57602036600319011261022f576004356001600160401b03811161022f576101c0600319823603011261022f576040516110d081612fe4565b6110dc82600401613066565b81526110ea60248301613066565b60208201908152916044810135906001600160601b038216820361022f576040830191825261111b60648201613190565b6060840190815261112e60848301613190565b906080850191825261114260a48401613122565b9060a0860191825261115660c48501613122565b60c0870190815261116960e486016131a1565b60e0880190815261117d61010487016131a1565b6101008901908152916101248701356001600160401b03811161022f576111aa90600436918a010161314b565b6101208a01908152946101448801356001600160401b03811161022f576111d790600436918b010161314b565b6101408b01908152966101648901356001600160401b03811161022f5736908a01600401906112059161314b565b6101608c019081529b61121b6101848b01613066565b996101808d019a8b526101a40161123190613066565b9a6101a08d019b8c52611242613b2b565b8a516001600160a01b0390811660009081526003602052604090209d518e546001600160a01b0319908116918316919091178f55925160018f01805490941691161782555161129d916001600160601b039190911690613642565b945160028b01805463ffffffff191663ffffffff92831617815595516112c4911686613665565b5160ff166112d29085613608565b5160ff166112e09084613625565b51825460ff60501b191690151560501b60ff60501b16178255516113079190151590613688565b51805160038601916001600160401b0382116106db57819061132984546131ae565b601f8111611639575b50602090601f83116001146115d4576000926115c9575b50508160011b916000199060031b1c19161790555b51805160048501916001600160401b0382116106db57819061138084546131ae565b601f8111611576575b50602090601f831160011461151157600092611506575b50508160011b916000199060031b1c19161790555b92518051939060058401906001600160401b0386116106db576113d882546131ae565b601f81116114be575b50602090601f87116001146114545795809160079697600092611449575b50508160011b916000199060031b1c19161790555b516006840180546001600160a01b039283166001600160a01b0319918216179091559151929093018054929093169116179055005b0151905087806113ff565b90601f1987169183600052816000209260005b8181106114a657509160019391896007999a941061148d575b505050811b019055611414565b015160001960f88460031b161c19169055878080611480565b92936020600181928786015181550195019301611467565b826000526020600020601f880160051c810191602089106114fc575b601f0160051c01905b8181106114f057506113e1565b600081556001016114e3565b90915081906114da565b0151905087806113a0565b60008581528281209350601f198516905b81811061155e5750908460019594939210611545575b505050811b0190556113b5565b015160001960f88460031b161c19169055878080611538565b92936020600181928786015181550195019301611522565b909150836000526020600020601f840160051c810191602085106115bf575b90601f859493920160051c01905b8181106115b05750611389565b600081558493506001016115a3565b9091508190611595565b015190508880611349565b60008581528281209350601f198516905b8181106116215750908460019594939210611608575b505050811b01905561135e565b015160001960f88460031b161c191690558880806115fb565b929360206001819287860151815501950193016115e5565b909150836000526020600020601f840160051c81019160208510611682575b90601f859493920160051c01905b8181106116735750611332565b60008155849350600101611666565b9091508190611658565b3461022f5760e036600319011261022f576116a5613050565b6116ad61303a565b906116b6613102565b916116bf613112565b926084356001600160401b03811161022f576116df90369060040161314b565b9160a4356001600160401b03811161022f576116ff90369060040161314b565b60c4356001600160401b03811161022f5761171e90369060040161314b565b936117336001600160a01b03871615156134b4565b6117476001600160a01b03841615156134b4565b611757606460ff86161115613578565b611767606460ff891611156135c3565b80516102008111159081612202575b50156121c757815180151590816121bb575b5015612188578451801515908161217c575b5015612147576001600160a01b03868116600090815260036020526040902080549098911615611bf5576117d860018060a01b03895416331461353c565b60028801805460ff60581b191681556001890180546001600160a01b0319166001600160a01b0387161790559761180f868a613608565b611819828a613625565b825160038201906001600160401b0381116106db5761183882546131ae565b601f8111611bad575b50806020601f8211600114611b4a57600091611b3f575b508160011b916000199060031b1c19161790555b835160048201906001600160401b0381116106db5761188b82546131ae565b601f8111611af7575b506020601f8211600114611a8f5790806005949392600091611a84575b508160011b916000199060031b1c19161790555b87519991016001600160401b038a116106db576118e281546131ae565b601f8111611a3c575b50602099601f81116001146119b5576119a5959361197e9361198c96938360ff948d9e9f600080516020614b988339815191529e6000926119aa575b50508160011b916000199060031b1c19161790555b805463ffffffff19164263ffffffff161790555b81604051998a9960018060a01b03168a5216602089015216604087015260c0606087015260c086019061307a565b90848203608086015261307a565b82810360a084015233966001600160a01b03169561307a565b0390a3005b01519050388f611927565b601f1981169a82600052806000209b60005b818110611a2457509361198c96936001848d9e9f6119a59b9995600080516020614b988339815191529f60ff9861197e9b10611a0b575b505050811b01905561193c565b015160001960f88460031b161c19169055388f806119fe565b8b8301518e556001909d019c602092830192016119c7565b816000526020600020601f8c0160051c81019160208d10611a7a575b601f0160051c01905b818110611a6e57506118eb565b60008155600101611a61565b9091508190611a58565b90508701518d6118b1565b601f1982169083600052806000209160005b818110611adf5750918391600596959460019410611ac6575b5050811b0190556118c5565b89015160001960f88460031b161c191690558d80611aba565b9192602060018192868d015181550194019201611aa1565b826000526020600020601f830160051c81019160208410611b35575b601f0160051c01905b818110611b295750611894565b60008155600101611b1c565b9091508190611b13565b90508501518c611858565b60008481528181209250601f198416905b818110611b9557509083600194939210611b7c575b5050811b01905561186c565b87015160001960f88460031b161c191690558c80611b70565b9192602060018192868c015181550194019201611b5b565b826000526020600020601f830160051c81019160208410611beb575b601f0160051c01905b818110611bdf5750611841565b60008155600101611bd2565b9091508190611bc9565b909650611c0186613418565b6040514263ffffffff16611c1482612fe4565b3382526001600160a01b0385811660208085019182526000604080870182815260608801879052608088019690965260ff8b811660a0890152881660c0880152600160e08801819052610100880183905261012088018f905261014088018a905261016088018d90528d861661018089018190526101a08901849052835260039093529020855181546001600160a01b031990811691861691909117825592519181018054909316919093161781559151909291611cdb916001600160601b031690613642565b611d5c6002830163ffffffff806060850151161663ffffffff19825416178155611d0f63ffffffff60808501511682613665565b611d2060ff60a08501511682613608565b611d3160ff60c08501511682613625565b60e0830151815460ff60501b191690151560501b60ff60501b16178155610100830151151590613688565b610120810151805160038401916001600160401b0382116106db578190611d8384546131ae565b601f81116120f4575b50602090601f831160011461208f57600092612084575b50508160011b916000199060031b1c19161790555b610140810151805160048401916001600160401b0382116106db578190611ddf84546131ae565b601f8111612031575b50602090601f8311600114611fcc57600092611fc1575b50508160011b916000199060031b1c19161790555b6101608101518051906001600160401b0382116106db57611e3860058501546131ae565b601f8111611f76575b50602090601f8311600114611ee457946119a59694600761197e9585600080516020614b988339815191529d9e9f9660ff9661198c9b600092611ed9575b50508160011b916000199060031b1c19161760058401555b6101808101516006840180546001600160a01b039283166001600160a01b0319918216179091556101a090920151929093018054929093169116179055611950565b015190503880611e7f565b9060058501600052806000209160005b601f1985168110611f5e575094600761197e956001600080516020614b988339815191529d9e9f9660ff9661198c9b966119a59d9b83601f19811610611f45575b505050811b016005840155611e97565b015160001960f88460031b161c19169055388080611f35565b91926020600181928685015181550194019201611ef4565b600585016000526020600020601f840160051c81019160208510611fb7575b601f0160051c01905b818110611fab5750611e41565b60008155600101611f9e565b9091508190611f95565b015190508c80611dff565b60008581528281209350601f198516905b8181106120195750908460019594939210612000575b505050811b019055611e14565b015160001960f88460031b161c191690558c8080611ff3565b92936020600181928786015181550195019301611fdd565b909150836000526020600020601f840160051c8101916020851061207a575b90601f859493920160051c01905b81811061206b5750611de8565b6000815584935060010161205e565b9091508190612050565b015190508c80611da3565b60008581528281209350601f198516905b8181106120dc57509084600195949392106120c3575b505050811b019055611db8565b015160001960f88460031b161c191690558c80806120b6565b929360206001819287860151815501950193016120a0565b909150836000526020600020601f840160051c8101916020851061213d575b90601f859493920160051c01905b81811061212e5750611d8c565b60008155849350600101612121565b9091508190612113565b60405162461bcd60e51b815260206004820152600d60248201526c125b9d985b1a5908195b585a5b609a1b6044820152606490fd5b60ff915011158861179a565b60405162461bcd60e51b815260206004820152600b60248201526a125b9d985b1a590815549360aa1b6044820152606490fd5b60ff9150111588611788565b60405162461bcd60e51b815260206004820152601360248201527224b73b30b634b2103232b9b1b934b83a34b7b760691b6044820152606490fd5b60329150101588611776565b3461022f57600036600319011261022f57602060405160008152f35b3461022f57602036600319011261022f576001600160a01b0361224b613050565b16600090815260046020908152604091829020805460019091015483516001600160601b038084168252606093841c81169482019490945283821694810194909452811c90911690820152608090f35b3461022f57600036600319011261022f5760206040517f000000000000000000000000000000000000000000000000000000000000000015158152f35b3461022f57604036600319011261022f576122f161303a565b600435600052600080516020614ab883398151915260205260406000209060018060a01b0316600052602052602060ff604060002054166040519015158152f35b3461022f57600036600319011261022f57600080516020614a38833981519152541580612446575b15612409576123ab61236a6131e8565b6123726132a9565b60206123b9604051926123858385613000565b600084526000368137604051958695600f60f81b875260e08588015260e087019061307a565b90858203604087015261307a565b466060850152306080850152600060a085015283810360c085015281808451928381520193019160005b8281106123f257505050500390f35b8351855286955093810193928101926001016123e3565b60405162461bcd60e51b81526020600482015260156024820152741152540dcc4c8e88155b9a5b9a5d1a585b1a5e9959605a1b6044820152606490fd5b50600080516020614b58833981519152541561235a565b3461022f57600036600319011261022f576020604051600080516020614b188339815191528152f35b3461022f57600036600319011261022f576020604051600080516020614ad88339815191528152f35b3461022f57600036600319011261022f576001546040516001600160a01b039091168152602090f35b3461022f57600036600319011261022f5760206040516000805160206149b88339815191528152f35b3461022f57600036600319011261022f5760206040516301e133808152f35b3461022f57600036600319011261022f577f00000000000000000000000000000000000000000000000000000000000000006001600160a01b03163003612579576020604051600080516020614a988339815191528152f35b63703e46dd60e11b60005260046000fd5b604036600319011261022f5761259e613050565b6024356001600160401b03811161022f576125bd90369060040161314b565b6001600160a01b037f00000000000000000000000000000000000000000000000000000000000000001630811490811561277c575b5061257957336000908152600080516020614a58833981519152602052604090205460ff1615612762576040516352d1902d60e01b81526001600160a01b0383169290602081600481875afa6000918161272b575b506126615783634c9c8ce360e01b60005260045260246000fd5b80600080516020614a988339815191528592036127175750813b1561270357600080516020614a9883398151915280546001600160a01b031916821790557fbc7cd75a20ee27fd9adebab32041f755214dbc6bffa90cc0225b39da2e5c2d3b600080a28151156126e957600080836020610c5895519101845af46126e3614780565b91614877565b5050346126f257005b63b398979f60e01b60005260046000fd5b634c9c8ce360e01b60005260045260246000fd5b632a87526960e21b60005260045260246000fd5b90916020823d60201161275a575b8161274660209383613000565b810103126127575750519085612647565b80fd5b3d9150612739565b63e2517d3f60e01b60005233600452600060245260446000fd5b600080516020614a98833981519152546001600160a01b031614159050836125f2565b3461022f57608036600319011261022f576127b8613050565b7f817dcd9d9a3f9ee6dbc0878d11d70ae3a2a31c7398c4169b9796de7fbf2a61a660406127e361303a565b6127eb613102565b906128c96127f7613112565b9561280c6001600160a01b03841615156134b4565b60018060a01b03169586600052600360205261283460ff600287600020015460501c166134fb565b86600052600360205261285460018060a01b03866000205416331461353c565b6128b460ff8516946128696064871115613578565b60ff83169461287b60648711156135c3565b60008a8152600360205288812060010180546001600160a01b0319166001600160a01b0390931692909217909155879020600201613608565b86600052600360205260028560002001613625565b82519182526020820152a2005b3461022f57600036600319011261022f57602060405162ed4e008152f35b3461022f57604036600319011261022f5761290d61303a565b336001600160a01b0382160361292957610c5890600435613d35565b63334bd91960e11b60005260046000fd5b3461022f57602036600319011261022f5760043560075481101561022f576129636020916130d1565b905460405160039290921b1c6001600160a01b03168152f35b3461022f57604036600319011261022f57610c5860043561299b61303a565b906129a8610c4e82613493565b613c9e565b3461022f57602036600319011261022f577f9639dea65e74b72b1b86ccf3e4f9b6d23b88d2aad2f103d0b3afe394e67edade60206129e96130bb565b6129f1613b2b565b60028054600160601b600160c01b031916606083901b600160601b600160c01b03161790556040516001600160601b039091168152a1005b3461022f57602036600319011261022f57602061030a600435613493565b3461022f57602036600319011261022f57612a606130bb565b612a68613b2b565b600280546001600160601b0319166001600160601b0392909216919091179055005b3461022f57600036600319011261022f57600754612aa781613023565b90612ab56040519283613000565b808252601f19612ac482613023565b0160005b818110612d4a57505060005b818110612c2b57826040518091602082016020835281518091526040830190602060408260051b8601019301916000905b828210612b1457505050500390f35b919360019193955060208091603f19898203018552875190848060a01b038251168152848060a01b03838301511683820152848060601b03604083015116604082015263ffffffff606083015116606082015263ffffffff608083015116608082015260ff60a08301511660a082015260ff60c08301511660c082015260e0820151151560e082015261010082015115156101008201526101a0612bf9612be5612bd16101208601516101c06101208701526101c086019061307a565b61014086015185820361014087015261307a565b61016085015184820361016086015261307a565b92868060a01b036101808201511661018084015281878060a01b03910151169101529601920192018594939192612b05565b80612c376001926130d1565b838060a01b0391549060031b1c166000526003602052604060002060405190612c5f82612fe4565b838060a01b03815416825283810154848060a01b038116602084015260a01c604083015260ff600282015463ffffffff8116606085015263ffffffff8160201c166080850152818160401c1660a0850152818160481c1660c0850152818160501c16151560e085015260581c161515610100830152612ce060038201613348565b610120830152612cf260048201613348565b610140830152612d0460058201613348565b610160830152838060a01b036006820154166101808301526007848060a01b03910154166101a0820152612d388286613404565b52612d438185613404565b5001612ad4565b602090604051612d5981612fe4565b60008152600083820152600060408201526000606082015260006080820152600060a0820152600060c0820152600060e08201526000610100820152606061012082015260606101408201526060610160820152600061018082015260006101a082015282828701015201612ac8565b3461022f57600036600319011261022f576002546040516001600160601b039091168152602090f35b3461022f57602036600319011261022f5760043563ffffffff60e01b811680910361022f57602090637965db0b60e01b8114908115612e37575b506040519015158152f35b6301ffc9a760e01b14905082612e2c565b3461022f57602036600319011261022f576004356001600160401b03811161022f573660238201121561022f57806004013590612e8482613023565b91612e926040519384613000565b8083526024602084019160051b8301019136831161022f57602401905b828210612fcc5783600080516020614b388339815191525460ff8160401c168015612fb8575b610812576001600160481b0319166002600160401b0117600080516020614b388339815191525560005b8151811015612f7657600190612f276001600160a01b03612f208386613404565b5116613418565b818060a01b03612f378285613404565b5116828060a01b03612f498386613404565b51166000526003602052600660406000200190838060a01b0316838060a01b031982541617905501612eff565b60ff60401b19600080516020614b388339815191525416600080516020614b38833981519152556000805160206149d8833981519152602060405160028152a1005b5060026001600160401b0382161015612ed5565b60208091612fd984613066565b815201910190612eaf565b6101c081019081106001600160401b038211176106db57604052565b601f909101601f19168101906001600160401b038211908210176106db57604052565b6001600160401b0381116106db5760051b60200190565b602435906001600160a01b038216820361022f57565b600435906001600160a01b038216820361022f57565b35906001600160a01b038216820361022f57565b919082519283825260005b8481106130a6575050826000602080949584010152601f8019910116010190565b80602080928401015182828601015201613085565b600435906001600160601b038216820361022f57565b6007548110156130ec57600760005260206000200190600090565b634e487b7160e01b600052603260045260246000fd5b6044359060ff8216820361022f57565b6064359060ff8216820361022f57565b359060ff8216820361022f57565b6001600160401b0381116106db57601f01601f191660200190565b81601f8201121561022f5760208135910161316582613130565b926131736040519485613000565b8284528282011161022f5781600092602092838601378301015290565b359063ffffffff8216820361022f57565b3590811515820361022f57565b90600182811c921680156131de575b60208310146131c857565b634e487b7160e01b600052602260045260246000fd5b91607f16916131bd565b604051906000826000805160206149988339815191525491613209836131ae565b808352926001811690811561328a575060011461322f575b61322d92500383613000565b565b5060008051602061499883398151915260009081529091600080516020614a788339815191525b81831061326e57505090602061322d92820101613221565b6020919350806001915483858901015201910190918492613256565b6020925061322d94915060ff191682840152151560051b820101613221565b60405190600082600080516020614a1883398151915254916132ca836131ae565b808352926001811690811561328a57506001146132ed5761322d92500383613000565b50600080516020614a1883398151915260009081529091600080516020614b788339815191525b81831061332c57505090602061322d92820101613221565b6020919350806001915483858901015201910190918492613314565b906040519182600082549261335c846131ae565b80845293600181169081156133c85750600114613381575b5061322d92500383613000565b90506000929192526020600020906000915b8183106133ac57505090602061322d9282010138613374565b6020919350806001915483858901015201910190918492613393565b90506020925061322d94915060ff191682840152151560051b82010138613374565b60ff909116815263ffffffff909116602082015260400190565b80518210156130ec5760209160051b010190565b600754600160401b8110156106db5760018101600755600060075482101561347f57600790527fa66cc928b5edb82af9bd49922954155ab7b0942694bea4ce44661d9a8736c6880180546001600160a01b0319166001600160a01b03909216919091179055565b634e487b7160e01b81526032600452602490fd5b600052600080516020614ab883398151915260205260016040600020015490565b156134bb57565b60405162461bcd60e51b815260206004820152601860248201527716995c9bc81859191c995cdcc81b9bdd08185b1b1bddd95960421b6044820152606490fd5b1561350257565b60405162461bcd60e51b8152602060048201526012602482015271105c1c081b9bdd081c9959da5cdd195c995960721b6044820152606490fd5b1561354357565b60405162461bcd60e51b815260206004820152600d60248201526c2737ba1030b8381037bbb732b960991b6044820152606490fd5b1561357f57565b606460405162461bcd60e51b815260206004820152602060248201527f496e76616c69642075736572416e64496e766974657250657263656e746167656044820152fd5b156135ca57565b60405162461bcd60e51b8152602060048201526016602482015275496e76616c6964207573657250657263656e7461676560501b6044820152606490fd5b805460ff60401b191660409290921b60ff60401b16919091179055565b805460ff60481b191660489290921b60ff60481b16919091179055565b80546001600160a01b031660a09290921b6001600160a01b031916919091179055565b805463ffffffff60201b191660209290921b63ffffffff60201b16919091179055565b805460ff60581b191691151560581b60ff60581b16919091179055565b6001600160601b0391821690821601919082116136be57565b634e487b7160e01b600052601160045260246000fd5b60018060a01b031690816000526005602052604060002060018060a01b03821660005260205263ffffffff60406000205460201c1662ed4e0081018091116136be574210613a9a576001600160a01b0316908115613a5e5760025490606082901c6001600160601b0316908115613a09576000546040516370a0823160e01b815230600482015290602090829060249082906001600160a01b03165afa80156139fd5783916000916139c8575b5010613979576000526003602052604060002092600052600660205260406000205460ff60015460a01c1660ff821610908115613958575b501561391557600283015460ff8160501c1680613908575b156138c35763ffffffff81166301e1338081018091116136be574210156138835763ffffffff9060201c1662ed4e0081018091116136be5742109283159361385a575b5050501561382157600190565b60405162461bcd60e51b8152602060048201526011602482015270417070206d61786564207265776172647360781b6044820152606490fd5b61386c9293506001015460a01c6136a5565b6001600160601b0391821691161115388080613814565b60405162461bcd60e51b8152602060048201526018602482015277105c1c081c9959da5cdd1c985d1a5bdb88195e1c1a5c995960421b6044820152606490fd5b60405162461bcd60e51b815260206004820152601e60248201527f417070206e6f7420617070726f766564206f72207265676973746572656400006044820152606490fd5b5060ff8160581c166137d1565b60405162461bcd60e51b815260206004820152601b60248201527a13585e08185c1c1cc81c195c881c195c9a5bd9081c995858da1959602a1b6044820152606490fd5b63ffffffff915060081c1662ed4e0081018091116136be57421015386137b9565b60405162461bcd60e51b815260206004820152602160248201527f496e73756666696369656e742072657761726420746f6b656e2062616c616e636044820152606560f81b6064820152608490fd5b9150506020813d6020116139f5575b816139e460209383613000565b8101031261022f5782905138613781565b3d91506139d7565b6040513d6000823e3d90fd5b60405162461bcd60e51b815260206004820152602760248201527f52657761726420616d6f756e74206d7573742062652067726561746572207468604482015266616e207a65726f60c81b6064820152608490fd5b60405162461bcd60e51b8152602060048201526014602482015273496e76616c69642075736572206164647265737360601b6044820152606490fd5b60405162461bcd60e51b815260206004820152601a60248201527910db185a5b4818dbdbdb191bdddb881b9bdd081c995858da195960321b6044820152606490fd5b6001600160a01b0316600090815260066020526040902054600881901c63ffffffff16919062ed4e0083018084116136be57421015613b1c5760ff169190565b50600091504263ffffffff1690565b336000908152600080516020614978833981519152602052604090205460ff1615610ab457565b6000818152600080516020614ab88339815191526020908152604080832033845290915290205460ff1615613b845750565b63e2517d3f60e01b6000523360045260245260446000fd5b6001600160a01b0381166000908152600080516020614a58833981519152602052604090205460ff16613c12576001600160a01b03166000818152600080516020614a5883398151915260205260408120805460ff191660011790553391906000805160206149588339815191528180a4600190565b50600090565b6001600160a01b0381166000908152600080516020614978833981519152602052604090205460ff16613c12576001600160a01b0316600081815260008051602061497883398151915260205260408120805460ff19166001179055339190600080516020614b18833981519152906000805160206149588339815191529080a4600190565b6000818152600080516020614ab8833981519152602090815260408083206001600160a01b038616845290915290205460ff16613d2e576000818152600080516020614ab8833981519152602090815260408083206001600160a01b0395909516808452949091528120805460ff19166001179055339291906000805160206149588339815191529080a4600190565b5050600090565b6000818152600080516020614ab8833981519152602090815260408083206001600160a01b038616845290915290205460ff1615613d2e576000818152600080516020614ab8833981519152602090815260408083206001600160a01b0395909516808452949091528120805460ff19169055339291907ff6391f5c32d9c69d2a47ea670b442974b53935d1edc7fd64eb21e047a839171b9080a4600190565b909192936002600080516020614af88339815191525414610d2e57613e1294600094859485946002600080516020614af883398151915255613e27565b906001600080516020614af883398151915255565b6001546040516316874da360e11b81526001600160a01b0380841660048301819052989a98999498939793969193919260209185916024918391165afa9283156139fd5760009361455a575b5081151580614550575b6143b3575b505060018060a01b03861695866000526005602052604060002060018060a01b03831660005260205263ffffffff6040600020541687600052600360205263ffffffff60026040600020015416116143705781613ede916136d4565b156143635763ffffffff421690866000526005602052604060002060018060a01b038216600052602052613f16826040600020613665565b86600052600360205260406000209060018060a01b03166000526006602052604060002091600282019063ffffffff825460201c1662ed4e0081018091116136be57421015614342575b505063ffffffff825460081c1662ed4e0081018091116136be57421015614325575b600160ff835416019160ff83116136be5760ff613fc8931660ff19825416179055613fc26001808060601b0360025460601c16920191825460a01c6136a5565b90613642565b600085815260036020526040902060018101546001600160a01b031697841561431357935b156143015750905b60025460601c6001600160601b039081169360ff1684029081169081036136be576001600160601b036064909104169160ff168083029083820414831517156136be57606461405091049261404a84826146ab565b946146ab565b6001600160a01b03821697909488159190826142f0575b600088815260046020526040902080546001600160601b03908116600101939084116136be5781546001600160601b0319166001600160601b039485161780835587948a9360019290916140f0916140c6918088169160601c166136a5565b828054600160601b600160c01b03191660609290921b600160601b600160c01b0316919091179055565b018054614110906140c6906001600160601b038c81169160601c166136a5565b80546001600160601b039061412a908783169083166136a5565b82546001600160601b031916911617905581614285575b50508161421f575b50501580614216575b614182575b50916060916000805160206149f88339815191529360405192835260208301526040820152a4600190565b6000805460405163a9059cbb60e01b81529593949260209287926001600160a01b03169183919082906141ba908890600484016146d0565b03925af19283156139fd576000805160206149f8833981519152946060946141e7575b5091935091614157565b6142089060203d60201161420f575b6142008183613000565b8101906146b8565b50386141dd565b503d6141f6565b50821515614152565b6142509160209160018060a01b036000541690600060405180968195829463a9059cbb60e01b8452600484016146d0565b03925af180156139fd57614266575b8390614149565b61427e9060203d60201161420f576142008183613000565b503861425f565b6142b893509060209160018060a01b036000541690600060405180978195829463a9059cbb60e01b8452600484016146d0565b03925af19182156139fd5785926142d1575b8790614141565b6142e99060203d60201161420f576142008183613000565b50386142ca565b958581018091116136be5795614067565b60ff91506002015460481c1690613ff5565b5060ff600282015460401c1693613fed565b815464ffffffffff19164260081b64ffffffff0016178255613f82565b6001830180546001600160a01b0316905561435c91613665565b3880613f60565b5050505050505050600090565b60405162461bcd60e51b815260206004820152601b60248201527a055736572206e6f74207265676973746572656420666f722061707602c1b6044820152606490fd5b603243018043116136be578211614501574382106144c8576144499061444360018060a01b038a16938460005260036020526143f56003604060002001613348565b60208151910120604051906020820192600080516020614ad8833981519152845287604084015260018060a01b038b166060840152608083015260a082015260a08152610e6260c082613000565b886145ca565b1561448a5760009081526005602090815260408083206001600160a01b03851684529091529020805463ffffffff19164263ffffffff161790553880613e82565b60405162461bcd60e51b8152602060048201526016602482015275496e76616c69642075736572207369676e617475726560501b6044820152606490fd5b60405162461bcd60e51b815260206004820152601160248201527014da59db985d1d5c9948195e1c1a5c9959607a1b6044820152606490fd5b60405162461bcd60e51b815260206004820152602160248201527f56616c6964556e74696c426c6f636b20746f6f2066617220696e2066757475726044820152606560f81b6064820152608490fd5b5080511515613e7d565b6020939193813d60201161459c575b8161457660209383613000565b810103126145985751906001600160a01b038216820361275757509138613e73565b5080fd5b3d9150614569565b6042906145af614719565b906040519161190160f01b8352600283015260228201522090565b9190823b61461b57906145dc916147b0565b506004811015614605571591826145f257505090565b6001600160a01b03918216911614919050565b634e487b7160e01b600052602160045260246000fd5b9160009261465261466085946040519283916020830195630b135d3f60e11b8752602484015260406044840152606483019061307a565b03601f198101835282613000565b51915afa61466c614780565b8161469d575b8161467b575090565b805160208083019350908201919091031261022f5751630b135d3f60e11b1490565b905060208151101590614672565b919082039182116136be57565b9081602091031261022f5751801515810361022f5790565b6001600160a01b039091168152602081019190915260400190565b60ff600080516020614b388339815191525460401c161561470857565b631afcd79f60e31b60005260046000fd5b6147216147ec565b614729614844565b6040519060208201927f8b73c3c69bb8fe3d512ecc4cf759cc79239f7b179b0ffacaa9a75d522b39400f8452604083015260608201524660808201523060a082015260a0815261477a60c082613000565b51902090565b3d156147ab573d9061479182613130565b9161479f6040519384613000565b82523d6000602084013e565b606090565b81519190604183036147e1576147da92506020820151906060604084015193015160001a906148d8565b9192909190565b505060009160029190565b6147f46131e8565b8051908115614804576020012090565b5050600080516020614a3883398151915254801561481f5790565b507fc5d2460186f7233c927e7db2dcc703c0e500b653ca82273b7bfad8045d85a47090565b61484c6132a9565b805190811561485c576020012090565b5050600080516020614b5883398151915254801561481f5790565b9061489d575080511561488c57805190602001fd5b63d6bda27560e01b60005260046000fd5b815115806148cf575b6148ae575090565b639996b31560e01b60009081526001600160a01b0391909116600452602490fd5b50803b156148a6565b91906fa2a8918ca85bafe22016d0b997e4df60600160ff1b03841161494b579160209360809260ff60009560405194855216868401526040830152606082015282805260015afa156139fd576000516001600160a01b0381161561493f5790600090600090565b50600090600190600090565b5050506000916003919056fe2f8788117e7eff1d82e926ec794901d17c78024a50270940304540a733656f0db16e88c42fd4e48df2dd6a2eabd6bc9aec654ec170056b470819f8892cc6431ca16a46d94261c7517cc8ff89f61c0ce93598e3c849801011dee649a6a557d1023f939797bbee504ef25a922a8408fbdcebc4752f31f0d6c8ea42babea9f5e8ddc7f505b2f371ae2175ee4913f4499e1f2633a7b5936321eed1cdaeb6115181d24af0f3bbba19bd2ae80915d3dcbc4b38837833848ce3b3cd23d9043235865a36a16a46d94261c7517cc8ff89f61c0ce93598e3c849801011dee649a6a557d103a16a46d94261c7517cc8ff89f61c0ce93598e3c849801011dee649a6a557d100b7db2dd08fcb62d0c9e08c51941cae53c267786a0b75803fb7960902fc8ef97d42ad5d3e1f2e6e70edcf6d991b8a3023d3fca8047a131592f9edb9fd9b89d57d360894a13ba1a3210667c828492db98dca3e2076cc3735a920a3ca505d382bbc02dd7bc7dec4dceedda775e58dd541e08a116c6c53815c0bd028192f7b626800cfeeafde86c38dcd27e7f3574225bf6be8c78e4aa28ebc85bc2989e109c15c1b9b779b17422d0df92223018b32b4d1fa46e071723d6817e2486d003becc55f00a49807205ce4d355092ef5a8a18f56e8913cf4a201fbe287825b095693c21775f0c57e16840df040f15088dc2f81fe391c3923bec73e23a9662efc9c229c6a00a16a46d94261c7517cc8ff89f61c0ce93598e3c849801011dee649a6a557d1015f9ce34815f8e11431c7bb75a8e6886a91478f7ffc1dbb0a98dc240fddd76b75c025612b0e32541c90be0a3ac84ee4a13a456d5520a7da1b3c1c0f6e821ba59da2646970667358221220d5c0c950a14369dc476ad66f2aac1534df930a18aacd8cb06bb2eace2a2e833764736f6c634300081c0033",
  "linkReferences": {},
  "deployedLinkReferences": {}
}